{
  "transactions": [
    {
      "hash": "0x8eafacc14f61f7ca6a76610380b5fcae49bbffca3ad4cc4011c5b70f5b823a43",
      "transactionType": "CALL",
      "contractName": "FlappyQF",
      "contractAddress": "0xDA65F7b3F73A1CF6cd4f36f234c9336aC1eEf270",
      "function": "submitProject(string,address)",
      "arguments": [
        "\"test\"",
        "0x598CA9Ca53D5bB84Fd56fE41C3f40Ed15D731e18"
      ],
      "transaction": {
        "type": "0x02",
        "from": "0x598ca9ca53d5bb84fd56fe41c3f40ed15d731e18",
        "to": "0xda65f7b3f73a1cf6cd4f36f234c9336ac1eef270",
        "gas": "0x20da3",
        "value": "0x0",
        "data": "0x46ccda1d0000000000000000000000000000000000000000000000000000000000000040000000000000000000000000598ca9ca53d5bb84fd56fe41c3f40ed15d731e1800000000000000000000000000000000000000000000000000000000000000047465737400000000000000000000000000000000000000000000000000000000",
        "nonce": "0x147",
        "accessList": []
      },
      "additionalContracts": [],
      "isFixedGasLimit": false
    },
    {
      "hash": "0x890977f26a9d106b53ed6a96db41c087f9c814c104dcc8d78c55b9177d76ea4c",
      "transactionType": "CALL",
      "contractName": "FlappyQF",
      "contractAddress": "0xDA65F7b3F73A1CF6cd4f36f234c9336aC1eEf270",
      "function": "submitProject(string,address)",
      "arguments": [
        "\"test\"",
        "0x598CA9Ca53D5bB84Fd56fE41C3f40Ed15D731e18"
      ],
      "transaction": {
        "type": "0x02",
        "from": "0x598ca9ca53d5bb84fd56fe41c3f40ed15d731e18",
        "to": "0xda65f7b3f73a1cf6cd4f36f234c9336ac1eef270",
        "gas": "0x1942b",
        "value": "0x0",
        "data": "0x46ccda1d0000000000000000000000000000000000000000000000000000000000000040000000000000000000000000598ca9ca53d5bb84fd56fe41c3f40ed15d731e1800000000000000000000000000000000000000000000000000000000000000047465737400000000000000000000000000000000000000000000000000000000",
        "nonce": "0x148",
        "accessList": []
      },
      "additionalContracts": [],
      "isFixedGasLimit": false
    },
    {
      "hash": "0x00682bd565f85d626b264b7c0f1122f26e978c2611393dc5da24bf99829d7fb6",
      "transactionType": "CALL",
      "contractName": "FlappyQF",
      "contractAddress": "0xDA65F7b3F73A1CF6cd4f36f234c9336aC1eEf270",
      "function": "submitProject(string,address)",
      "arguments": [
        "\"test\"",
        "0x598CA9Ca53D5bB84Fd56fE41C3f40Ed15D731e18"
      ],
      "transaction": {
        "type": "0x02",
        "from": "0x598ca9ca53d5bb84fd56fe41c3f40ed15d731e18",
        "to": "0xda65f7b3f73a1cf6cd4f36f234c9336ac1eef270",
        "gas": "0x1942b",
        "value": "0x0",
        "data": "0x46ccda1d0000000000000000000000000000000000000000000000000000000000000040000000000000000000000000598ca9ca53d5bb84fd56fe41c3f40ed15d731e1800000000000000000000000000000000000000000000000000000000000000047465737400000000000000000000000000000000000000000000000000000000",
        "nonce": "0x149",
        "accessList": []
      },
      "additionalContracts": [],
      "isFixedGasLimit": false
    },
    {
      "hash": "0xf15550f7a774addd7d5343a91694373616af5bbc1f18aab55c722e09fa2f7f14",
      "transactionType": "CALL",
      "contractName": "FlappyQF",
      "contractAddress": "0xDA65F7b3F73A1CF6cd4f36f234c9336aC1eEf270",
      "function": "submitProject(string,address)",
      "arguments": [
        "\"test\"",
        "0x598CA9Ca53D5bB84Fd56fE41C3f40Ed15D731e18"
      ],
      "transaction": {
        "type": "0x02",
        "from": "0x598ca9ca53d5bb84fd56fe41c3f40ed15d731e18",
        "to": "0xda65f7b3f73a1cf6cd4f36f234c9336ac1eef270",
        "gas": "0x1942b",
        "value": "0x0",
        "data": "0x46ccda1d0000000000000000000000000000000000000000000000000000000000000040000000000000000000000000598ca9ca53d5bb84fd56fe41c3f40ed15d731e1800000000000000000000000000000000000000000000000000000000000000047465737400000000000000000000000000000000000000000000000000000000",
        "nonce": "0x14a",
        "accessList": []
      },
      "additionalContracts": [],
      "isFixedGasLimit": false
    },
    {
      "hash": "0x61e53b41998956ff6af29586917598e14ae179b9fb633d6eb6411dd38c6d6735",
      "transactionType": "CALL",
      "contractName": "FlappyQF",
      "contractAddress": "0xDA65F7b3F73A1CF6cd4f36f234c9336aC1eEf270",
      "function": "submitProject(string,address)",
      "arguments": [
        "\"test\"",
        "0x598CA9Ca53D5bB84Fd56fE41C3f40Ed15D731e18"
      ],
      "transaction": {
        "type": "0x02",
        "from": "0x598ca9ca53d5bb84fd56fe41c3f40ed15d731e18",
        "to": "0xda65f7b3f73a1cf6cd4f36f234c9336ac1eef270",
        "gas": "0x1942b",
        "value": "0x0",
        "data": "0x46ccda1d0000000000000000000000000000000000000000000000000000000000000040000000000000000000000000598ca9ca53d5bb84fd56fe41c3f40ed15d731e1800000000000000000000000000000000000000000000000000000000000000047465737400000000000000000000000000000000000000000000000000000000",
        "nonce": "0x14b",
        "accessList": []
      },
      "additionalContracts": [],
      "isFixedGasLimit": false
    },
    {
      "hash": "0xc8247a3a9a72a517ae863dc458e4a5daad832dfb64edd05e367b0927b93b5c85",
      "transactionType": "CALL",
      "contractName": "FlappyQF",
      "contractAddress": "0xDA65F7b3F73A1CF6cd4f36f234c9336aC1eEf270",
      "function": "submitProject(string,address)",
      "arguments": [
        "\"test\"",
        "0x598CA9Ca53D5bB84Fd56fE41C3f40Ed15D731e18"
      ],
      "transaction": {
        "type": "0x02",
        "from": "0x598ca9ca53d5bb84fd56fe41c3f40ed15d731e18",
        "to": "0xda65f7b3f73a1cf6cd4f36f234c9336ac1eef270",
        "gas": "0x1942b",
        "value": "0x0",
        "data": "0x46ccda1d0000000000000000000000000000000000000000000000000000000000000040000000000000000000000000598ca9ca53d5bb84fd56fe41c3f40ed15d731e1800000000000000000000000000000000000000000000000000000000000000047465737400000000000000000000000000000000000000000000000000000000",
        "nonce": "0x14c",
        "accessList": []
      },
      "additionalContracts": [],
      "isFixedGasLimit": false
    },
    {
      "hash": "0x8e3527fb441846542245b20e5d47a63cc4afc15788f70c072fb4727931e2eb91",
      "transactionType": "CALL",
      "contractName": "FlappyQF",
      "contractAddress": "0xDA65F7b3F73A1CF6cd4f36f234c9336aC1eEf270",
      "function": "submitProject(string,address)",
      "arguments": [
        "\"test\"",
        "0x598CA9Ca53D5bB84Fd56fE41C3f40Ed15D731e18"
      ],
      "transaction": {
        "type": "0x02",
        "from": "0x598ca9ca53d5bb84fd56fe41c3f40ed15d731e18",
        "to": "0xda65f7b3f73a1cf6cd4f36f234c9336ac1eef270",
        "gas": "0x1942b",
        "value": "0x0",
        "data": "0x46ccda1d0000000000000000000000000000000000000000000000000000000000000040000000000000000000000000598ca9ca53d5bb84fd56fe41c3f40ed15d731e1800000000000000000000000000000000000000000000000000000000000000047465737400000000000000000000000000000000000000000000000000000000",
        "nonce": "0x14d",
        "accessList": []
      },
      "additionalContracts": [],
      "isFixedGasLimit": false
    },
    {
      "hash": "0x9fddd4b8eb4b88a022a47f235e8348588cfbff8023c943e666e7becd243f1825",
      "transactionType": "CALL",
      "contractName": "FlappyQF",
      "contractAddress": "0xDA65F7b3F73A1CF6cd4f36f234c9336aC1eEf270",
      "function": "submitProject(string,address)",
      "arguments": [
        "\"test\"",
        "0x598CA9Ca53D5bB84Fd56fE41C3f40Ed15D731e18"
      ],
      "transaction": {
        "type": "0x02",
        "from": "0x598ca9ca53d5bb84fd56fe41c3f40ed15d731e18",
        "to": "0xda65f7b3f73a1cf6cd4f36f234c9336ac1eef270",
        "gas": "0x1942b",
        "value": "0x0",
        "data": "0x46ccda1d0000000000000000000000000000000000000000000000000000000000000040000000000000000000000000598ca9ca53d5bb84fd56fe41c3f40ed15d731e1800000000000000000000000000000000000000000000000000000000000000047465737400000000000000000000000000000000000000000000000000000000",
        "nonce": "0x14e",
        "accessList": []
      },
      "additionalContracts": [],
      "isFixedGasLimit": false
    },
    {
      "hash": "0xccd21f252dab7af6b925abf70fd8fdfbf2daca56e417eed4b015242e91564430",
      "transactionType": "CALL",
      "contractName": "FlappyQF",
      "contractAddress": "0xDA65F7b3F73A1CF6cd4f36f234c9336aC1eEf270",
      "function": "acceptProject(uint256)",
      "arguments": [
        "0"
      ],
      "transaction": {
        "type": "0x02",
        "from": "0x598ca9ca53d5bb84fd56fe41c3f40ed15d731e18",
        "to": "0xda65f7b3f73a1cf6cd4f36f234c9336ac1eef270",
        "gas": "0xa4d3",
        "value": "0x0",
        "data": "0xfd1d5ea90000000000000000000000000000000000000000000000000000000000000000",
        "nonce": "0x14f",
        "accessList": []
      },
      "additionalContracts": [],
      "isFixedGasLimit": false
    },
    {
      "hash": "0x3c0faab6273221ea4984b44c1419b8b6bbe6fd7797fab6e51943c715aa194dab",
      "transactionType": "CALL",
      "contractName": "FlappyQF",
      "contractAddress": "0xDA65F7b3F73A1CF6cd4f36f234c9336aC1eEf270",
      "function": "acceptProject(uint256)",
      "arguments": [
        "1"
      ],
      "transaction": {
        "type": "0x02",
        "from": "0x598ca9ca53d5bb84fd56fe41c3f40ed15d731e18",
        "to": "0xda65f7b3f73a1cf6cd4f36f234c9336ac1eef270",
        "gas": "0xae97",
        "value": "0x0",
        "data": "0xfd1d5ea90000000000000000000000000000000000000000000000000000000000000001",
        "nonce": "0x150",
        "accessList": []
      },
      "additionalContracts": [],
      "isFixedGasLimit": false
    },
    {
      "hash": "0x954bce33101519381e4c4025bc6da9e3dddd00de51e7d9624b0a4f3adc0c863d",
      "transactionType": "CALL",
      "contractName": "FlappyQF",
      "contractAddress": "0xDA65F7b3F73A1CF6cd4f36f234c9336aC1eEf270",
      "function": "acceptProject(uint256)",
      "arguments": [
        "2"
      ],
      "transaction": {
        "type": "0x02",
        "from": "0x598ca9ca53d5bb84fd56fe41c3f40ed15d731e18",
        "to": "0xda65f7b3f73a1cf6cd4f36f234c9336ac1eef270",
        "gas": "0xae97",
        "value": "0x0",
        "data": "0xfd1d5ea90000000000000000000000000000000000000000000000000000000000000002",
        "nonce": "0x151",
        "accessList": []
      },
      "additionalContracts": [],
      "isFixedGasLimit": false
    },
    {
      "hash": "0x27271c3ee52bef5444d5c6b941968d6d45d456851ce5ea25bca1f073354d02f4",
      "transactionType": "CALL",
      "contractName": "FlappyQF",
      "contractAddress": "0xDA65F7b3F73A1CF6cd4f36f234c9336aC1eEf270",
      "function": "acceptProject(uint256)",
      "arguments": [
        "3"
      ],
      "transaction": {
        "type": "0x02",
        "from": "0x598ca9ca53d5bb84fd56fe41c3f40ed15d731e18",
        "to": "0xda65f7b3f73a1cf6cd4f36f234c9336ac1eef270",
        "gas": "0xae97",
        "value": "0x0",
        "data": "0xfd1d5ea90000000000000000000000000000000000000000000000000000000000000003",
        "nonce": "0x152",
        "accessList": []
      },
      "additionalContracts": [],
      "isFixedGasLimit": false
    },
    {
      "hash": "0x21ff8cc7ecb7f6dca194905c99a6f084bca3e5b4023a138899a7a823735f0dd1",
      "transactionType": "CALL",
      "contractName": "FlappyQF",
      "contractAddress": "0xDA65F7b3F73A1CF6cd4f36f234c9336aC1eEf270",
      "function": "acceptProject(uint256)",
      "arguments": [
        "4"
      ],
      "transaction": {
        "type": "0x02",
        "from": "0x598ca9ca53d5bb84fd56fe41c3f40ed15d731e18",
        "to": "0xda65f7b3f73a1cf6cd4f36f234c9336ac1eef270",
        "gas": "0xae97",
        "value": "0x0",
        "data": "0xfd1d5ea90000000000000000000000000000000000000000000000000000000000000004",
        "nonce": "0x153",
        "accessList": []
      },
      "additionalContracts": [],
      "isFixedGasLimit": false
    },
    {
      "hash": "0xb032a9ec24bffa371d99419beea6fa8617c1a598f43a11f4188d6eb349502a09",
      "transactionType": "CALL",
      "contractName": "FlappyQF",
      "contractAddress": "0xDA65F7b3F73A1CF6cd4f36f234c9336aC1eEf270",
      "function": "acceptProject(uint256)",
      "arguments": [
        "5"
      ],
      "transaction": {
        "type": "0x02",
        "from": "0x598ca9ca53d5bb84fd56fe41c3f40ed15d731e18",
        "to": "0xda65f7b3f73a1cf6cd4f36f234c9336ac1eef270",
        "gas": "0xae97",
        "value": "0x0",
        "data": "0xfd1d5ea90000000000000000000000000000000000000000000000000000000000000005",
        "nonce": "0x154",
        "accessList": []
      },
      "additionalContracts": [],
      "isFixedGasLimit": false
    },
    {
      "hash": "0xa77af5319d84b4b36d4e9783b1eb556f07fcac7063709cdaf06745912be8ae10",
      "transactionType": "CALL",
      "contractName": "FlappyQF",
      "contractAddress": "0xDA65F7b3F73A1CF6cd4f36f234c9336aC1eEf270",
      "function": "acceptProject(uint256)",
      "arguments": [
        "6"
      ],
      "transaction": {
        "type": "0x02",
        "from": "0x598ca9ca53d5bb84fd56fe41c3f40ed15d731e18",
        "to": "0xda65f7b3f73a1cf6cd4f36f234c9336ac1eef270",
        "gas": "0xae97",
        "value": "0x0",
        "data": "0xfd1d5ea90000000000000000000000000000000000000000000000000000000000000006",
        "nonce": "0x155",
        "accessList": []
      },
      "additionalContracts": [],
      "isFixedGasLimit": false
    },
    {
      "hash": "0x4e5ff66d13182d17c5dbe48ab6f43099b9a145cfb31fadc069ced7dd1d521f4d",
      "transactionType": "CALL",
      "contractName": "FlappyQF",
      "contractAddress": "0xDA65F7b3F73A1CF6cd4f36f234c9336aC1eEf270",
      "function": "acceptProject(uint256)",
      "arguments": [
        "7"
      ],
      "transaction": {
        "type": "0x02",
        "from": "0x598ca9ca53d5bb84fd56fe41c3f40ed15d731e18",
        "to": "0xda65f7b3f73a1cf6cd4f36f234c9336ac1eef270",
        "gas": "0xae97",
        "value": "0x0",
        "data": "0xfd1d5ea90000000000000000000000000000000000000000000000000000000000000007",
        "nonce": "0x156",
        "accessList": []
      },
      "additionalContracts": [],
      "isFixedGasLimit": false
    },
    {
      "hash": "0xe18335bd903ed6d2d565e144ed7d5634432117af9a17dbd941abb0dc5180aed9",
      "transactionType": "CALL",
      "contractName": "FlappyQF",
      "contractAddress": "0xDA65F7b3F73A1CF6cd4f36f234c9336aC1eEf270",
      "function": "initiateMatching()",
      "arguments": [],
      "transaction": {
        "type": "0x02",
        "from": "0x598ca9ca53d5bb84fd56fe41c3f40ed15d731e18",
        "to": "0xda65f7b3f73a1cf6cd4f36f234c9336ac1eef270",
        "gas": "0x2b86f",
        "value": "0x0",
        "data": "0x81381192",
        "nonce": "0x157",
        "accessList": []
      },
      "additionalContracts": [],
      "isFixedGasLimit": false
    }
  ],
  "receipts": [
    {
      "transactionHash": "0x8eafacc14f61f7ca6a76610380b5fcae49bbffca3ad4cc4011c5b70f5b823a43",
      "transactionIndex": "0x3",
      "blockHash": "0x604fac5ccf2a2ca68b3f8d176cbe436fb7a3db10d82c694b8b7eb70c2b1b4113",
      "blockNumber": "0x6427ad",
      "from": "0x598CA9Ca53D5bB84Fd56fE41C3f40Ed15D731e18",
      "to": "0xDA65F7b3F73A1CF6cd4f36f234c9336aC1eEf270",
      "cumulativeGasUsed": "0x7ce49",
      "gasUsed": "0x16769",
      "contractAddress": null,
      "logs": [
        {
          "address": "0xDA65F7b3F73A1CF6cd4f36f234c9336aC1eEf270",
          "topics": [
            "0x06fa53e0c3738661d565157fdec4cc0732eaef1862b267328e56cfa9c292ad53",
            "0x0000000000000000000000000000000000000000000000000000000000000000"
          ],
          "data": "0x000000000000000000000000000000000000000000000000000000000000002000000000000000000000000000000000000000000000000000000000000000047465737400000000000000000000000000000000000000000000000000000000",
          "blockHash": "0x604fac5ccf2a2ca68b3f8d176cbe436fb7a3db10d82c694b8b7eb70c2b1b4113",
          "blockNumber": "0x6427ad",
          "transactionHash": "0x8eafacc14f61f7ca6a76610380b5fcae49bbffca3ad4cc4011c5b70f5b823a43",
          "transactionIndex": "0x3",
          "logIndex": "0xb",
          "removed": false
        }
      ],
      "status": "0x1",
      "logsBloom": "0x00000000000000000000000000000000000000000000000000000000000000000000000000000000000000000000000000100000000000000000000004000000000000000000000000000000000000000000000000000000000000000000000000000000020000000000000000000800000000000000000000000000000000000000000000000000000000000000000000000000000000000000000000000000000000000000010000000000000000000000000000000001000000000000000000000010000000000000000000000000000000000000000000000000000020000000080000000000000000000000000000000000000000000000000000000000",
      "type": "0x2",
      "effectiveGasPrice": "0x4364a73eb"
    },
    {
      "transactionHash": "0x890977f26a9d106b53ed6a96db41c087f9c814c104dcc8d78c55b9177d76ea4c",
      "transactionIndex": "0x4",
      "blockHash": "0x604fac5ccf2a2ca68b3f8d176cbe436fb7a3db10d82c694b8b7eb70c2b1b4113",
      "blockNumber": "0x6427ad",
      "from": "0x598CA9Ca53D5bB84Fd56fE41C3f40Ed15D731e18",
      "to": "0xDA65F7b3F73A1CF6cd4f36f234c9336aC1eEf270",
      "cumulativeGasUsed": "0x8f2e6",
      "gasUsed": "0x1249d",
      "contractAddress": null,
      "logs": [
        {
          "address": "0xDA65F7b3F73A1CF6cd4f36f234c9336aC1eEf270",
          "topics": [
            "0x06fa53e0c3738661d565157fdec4cc0732eaef1862b267328e56cfa9c292ad53",
            "0x0000000000000000000000000000000000000000000000000000000000000001"
          ],
          "data": "0x000000000000000000000000000000000000000000000000000000000000002000000000000000000000000000000000000000000000000000000000000000047465737400000000000000000000000000000000000000000000000000000000",
          "blockHash": "0x604fac5ccf2a2ca68b3f8d176cbe436fb7a3db10d82c694b8b7eb70c2b1b4113",
          "blockNumber": "0x6427ad",
          "transactionHash": "0x890977f26a9d106b53ed6a96db41c087f9c814c104dcc8d78c55b9177d76ea4c",
          "transactionIndex": "0x4",
          "logIndex": "0xc",
          "removed": false
        }
      ],
      "status": "0x1",
      "logsBloom": "0x00000000000000000000000000000000000000000000000000000000000000000000000000000000000000000000000000100000000000000000000004040000000000000000000000000000000000000000000000040000000000000000000000000000000000000000000000000000000000000000000000000000000000000000000000000000000000000000000000000000000000000000000000000000000000000000010000000000000000000000000000000001000000000000000000000010000000000000000000000000000000000000000000000000000040000000080000000000000000000000000000000000000000000000000000000000",
      "type": "0x2",
      "effectiveGasPrice": "0x4364a73eb"
    },
    {
      "transactionHash": "0x00682bd565f85d626b264b7c0f1122f26e978c2611393dc5da24bf99829d7fb6",
      "transactionIndex": "0x5",
      "blockHash": "0x604fac5ccf2a2ca68b3f8d176cbe436fb7a3db10d82c694b8b7eb70c2b1b4113",
      "blockNumber": "0x6427ad",
      "from": "0x598CA9Ca53D5bB84Fd56fE41C3f40Ed15D731e18",
      "to": "0xDA65F7b3F73A1CF6cd4f36f234c9336aC1eEf270",
      "cumulativeGasUsed": "0xa1783",
      "gasUsed": "0x1249d",
      "contractAddress": null,
      "logs": [
        {
          "address": "0xDA65F7b3F73A1CF6cd4f36f234c9336aC1eEf270",
          "topics": [
            "0x06fa53e0c3738661d565157fdec4cc0732eaef1862b267328e56cfa9c292ad53",
            "0x0000000000000000000000000000000000000000000000000000000000000002"
          ],
          "data": "0x000000000000000000000000000000000000000000000000000000000000002000000000000000000000000000000000000000000000000000000000000000047465737400000000000000000000000000000000000000000000000000000000",
          "blockHash": "0x604fac5ccf2a2ca68b3f8d176cbe436fb7a3db10d82c694b8b7eb70c2b1b4113",
          "blockNumber": "0x6427ad",
          "transactionHash": "0x00682bd565f85d626b264b7c0f1122f26e978c2611393dc5da24bf99829d7fb6",
          "transactionIndex": "0x5",
          "logIndex": "0xd",
          "removed": false
        }
      ],
      "status": "0x1",
      "logsBloom": "0x04000000000000000000000000000000000000000000000000000000000000000000000000000000000000000000000000100000000000000000000004000000000000000000000000000000000000000000000000000000000000000000000000000000000000000000000000000000000000000000000000000000000000000000000000000000000000000000000000000000000000000000000000000000000000000000010000000100000000000000000000000001000000000000000000000010000000000000000000000000000000000000000000000000000000000000080000000000000000000000000000000000008000000000000000000000",
      "type": "0x2",
      "effectiveGasPrice": "0x4364a73eb"
    },
    {
      "transactionHash": "0xf15550f7a774addd7d5343a91694373616af5bbc1f18aab55c722e09fa2f7f14",
      "transactionIndex": "0x6",
      "blockHash": "0x604fac5ccf2a2ca68b3f8d176cbe436fb7a3db10d82c694b8b7eb70c2b1b4113",
      "blockNumber": "0x6427ad",
      "from": "0x598CA9Ca53D5bB84Fd56fE41C3f40Ed15D731e18",
      "to": "0xDA65F7b3F73A1CF6cd4f36f234c9336aC1eEf270",
      "cumulativeGasUsed": "0xb3c20",
      "gasUsed": "0x1249d",
      "contractAddress": null,
      "logs": [
        {
          "address": "0xDA65F7b3F73A1CF6cd4f36f234c9336aC1eEf270",
          "topics": [
            "0x06fa53e0c3738661d565157fdec4cc0732eaef1862b267328e56cfa9c292ad53",
            "0x0000000000000000000000000000000000000000000000000000000000000003"
          ],
          "data": "0x000000000000000000000000000000000000000000000000000000000000002000000000000000000000000000000000000000000000000000000000000000047465737400000000000000000000000000000000000000000000000000000000",
          "blockHash": "0x604fac5ccf2a2ca68b3f8d176cbe436fb7a3db10d82c694b8b7eb70c2b1b4113",
          "blockNumber": "0x6427ad",
          "transactionHash": "0xf15550f7a774addd7d5343a91694373616af5bbc1f18aab55c722e09fa2f7f14",
          "transactionIndex": "0x6",
          "logIndex": "0xe",
          "removed": false
        }
      ],
      "status": "0x1",
      "logsBloom": "0x00000000000000000000000000000000000000000000000000000000000000000000000000000000000000000000000000100000020000000000000004000000000000000000000000000000000000000000000000000000000000000000000000000000000000000000000000000000000000000000000000000000000000000000000000000000000000000000000000000000000000000000000000000000000000000000010000000000000000000000000000800001000000000000400000000010000000000000000000000000000000000000000000000000000000000000080000000000000000000000000000000000000000000000000000000000",
      "type": "0x2",
      "effectiveGasPrice": "0x4364a73eb"
    },
    {
      "transactionHash": "0x61e53b41998956ff6af29586917598e14ae179b9fb633d6eb6411dd38c6d6735",
      "transactionIndex": "0x7",
      "blockHash": "0x604fac5ccf2a2ca68b3f8d176cbe436fb7a3db10d82c694b8b7eb70c2b1b4113",
      "blockNumber": "0x6427ad",
      "from": "0x598CA9Ca53D5bB84Fd56fE41C3f40Ed15D731e18",
      "to": "0xDA65F7b3F73A1CF6cd4f36f234c9336aC1eEf270",
      "cumulativeGasUsed": "0xc60bd",
      "gasUsed": "0x1249d",
      "contractAddress": null,
      "logs": [
        {
          "address": "0xDA65F7b3F73A1CF6cd4f36f234c9336aC1eEf270",
          "topics": [
            "0x06fa53e0c3738661d565157fdec4cc0732eaef1862b267328e56cfa9c292ad53",
            "0x0000000000000000000000000000000000000000000000000000000000000004"
          ],
          "data": "0x000000000000000000000000000000000000000000000000000000000000002000000000000000000000000000000000000000000000000000000000000000047465737400000000000000000000000000000000000000000000000000000000",
          "blockHash": "0x604fac5ccf2a2ca68b3f8d176cbe436fb7a3db10d82c694b8b7eb70c2b1b4113",
          "blockNumber": "0x6427ad",
          "transactionHash": "0x61e53b41998956ff6af29586917598e14ae179b9fb633d6eb6411dd38c6d6735",
          "transactionIndex": "0x7",
          "logIndex": "0xf",
          "removed": false
        }
      ],
      "status": "0x1",
      "logsBloom": "0x00000000000000000000000000000000000000000000000000000000000000000000000000000000000000000000000000100000000000000000000004000000000000000000000000000000000000000000000000000000000000000000000008000000000000000000000000000000000000000000000000000000000000000000000000000000000000000000000000000000000000000000000000000000000000000000010000000000000000000000000000000001002000000000000000000010000000000000000000000000000000008000000000000000000000000000080000000000000000000000000000000000000000000000000000000000",
      "type": "0x2",
      "effectiveGasPrice": "0x4364a73eb"
    },
    {
      "transactionHash": "0xc8247a3a9a72a517ae863dc458e4a5daad832dfb64edd05e367b0927b93b5c85",
      "transactionIndex": "0x8",
      "blockHash": "0x604fac5ccf2a2ca68b3f8d176cbe436fb7a3db10d82c694b8b7eb70c2b1b4113",
      "blockNumber": "0x6427ad",
      "from": "0x598CA9Ca53D5bB84Fd56fE41C3f40Ed15D731e18",
      "to": "0xDA65F7b3F73A1CF6cd4f36f234c9336aC1eEf270",
      "cumulativeGasUsed": "0xd855a",
      "gasUsed": "0x1249d",
      "contractAddress": null,
      "logs": [
        {
          "address": "0xDA65F7b3F73A1CF6cd4f36f234c9336aC1eEf270",
          "topics": [
            "0x06fa53e0c3738661d565157fdec4cc0732eaef1862b267328e56cfa9c292ad53",
            "0x0000000000000000000000000000000000000000000000000000000000000005"
          ],
          "data": "0x000000000000000000000000000000000000000000000000000000000000002000000000000000000000000000000000000000000000000000000000000000047465737400000000000000000000000000000000000000000000000000000000",
          "blockHash": "0x604fac5ccf2a2ca68b3f8d176cbe436fb7a3db10d82c694b8b7eb70c2b1b4113",
          "blockNumber": "0x6427ad",
          "transactionHash": "0xc8247a3a9a72a517ae863dc458e4a5daad832dfb64edd05e367b0927b93b5c85",
          "transactionIndex": "0x8",
          "logIndex": "0x10",
          "removed": false
        }
      ],
      "status": "0x1",
      "logsBloom": "0x00000000000000000000000000000000000000000000000000000000000000000000000000000000000000000000000000100000000000000000000004000000000010000000000000000000000000000000000000000000000000000000000000000000000000000000000000000000000000000000000000000000000000000000000000000000000000000000001000000800000000000000000000000000000000000000010000000000000000000000000000000001000000000000000000000010000000000000000000000000000000000000000000000000000000000000080000000000000000000000000000000000000000000000000000000000",
      "type": "0x2",
      "effectiveGasPrice": "0x4364a73eb"
    },
    {
      "transactionHash": "0x8e3527fb441846542245b20e5d47a63cc4afc15788f70c072fb4727931e2eb91",
      "transactionIndex": "0x9",
      "blockHash": "0x604fac5ccf2a2ca68b3f8d176cbe436fb7a3db10d82c694b8b7eb70c2b1b4113",
      "blockNumber": "0x6427ad",
      "from": "0x598CA9Ca53D5bB84Fd56fE41C3f40Ed15D731e18",
      "to": "0xDA65F7b3F73A1CF6cd4f36f234c9336aC1eEf270",
      "cumulativeGasUsed": "0xea9f7",
      "gasUsed": "0x1249d",
      "contractAddress": null,
      "logs": [
        {
          "address": "0xDA65F7b3F73A1CF6cd4f36f234c9336aC1eEf270",
          "topics": [
            "0x06fa53e0c3738661d565157fdec4cc0732eaef1862b267328e56cfa9c292ad53",
            "0x0000000000000000000000000000000000000000000000000000000000000006"
          ],
          "data": "0x000000000000000000000000000000000000000000000000000000000000002000000000000000000000000000000000000000000000000000000000000000047465737400000000000000000000000000000000000000000000000000000000",
          "blockHash": "0x604fac5ccf2a2ca68b3f8d176cbe436fb7a3db10d82c694b8b7eb70c2b1b4113",
          "blockNumber": "0x6427ad",
          "transactionHash": "0x8e3527fb441846542245b20e5d47a63cc4afc15788f70c072fb4727931e2eb91",
          "transactionIndex": "0x9",
          "logIndex": "0x11",
          "removed": false
        }
      ],
      "status": "0x1",
      "logsBloom": "0x00000000000000000000000000000000000000000000000000000000000000000000000000000000000000000000000000100000000400000000000004000000000000000000000000000000000000000000000000000000000000000000000000000000000000000000000000000000000000000000000000000000000000000000000400000000000000000000000000000000000000000000000000000000000000000000010000000000000000000000000000000001000000080000000000000010000000000000000000000000000000000000000000000000000000000000080000000000000000000000000000000000000000000000000000000000",
      "type": "0x2",
      "effectiveGasPrice": "0x4364a73eb"
    },
    {
      "transactionHash": "0x9fddd4b8eb4b88a022a47f235e8348588cfbff8023c943e666e7becd243f1825",
      "transactionIndex": "0xa",
      "blockHash": "0x604fac5ccf2a2ca68b3f8d176cbe436fb7a3db10d82c694b8b7eb70c2b1b4113",
      "blockNumber": "0x6427ad",
      "from": "0x598CA9Ca53D5bB84Fd56fE41C3f40Ed15D731e18",
      "to": "0xDA65F7b3F73A1CF6cd4f36f234c9336aC1eEf270",
      "cumulativeGasUsed": "0xfce94",
      "gasUsed": "0x1249d",
      "contractAddress": null,
      "logs": [
        {
          "address": "0xDA65F7b3F73A1CF6cd4f36f234c9336aC1eEf270",
          "topics": [
            "0x06fa53e0c3738661d565157fdec4cc0732eaef1862b267328e56cfa9c292ad53",
            "0x0000000000000000000000000000000000000000000000000000000000000007"
          ],
          "data": "0x000000000000000000000000000000000000000000000000000000000000002000000000000000000000000000000000000000000000000000000000000000047465737400000000000000000000000000000000000000000000000000000000",
          "blockHash": "0x604fac5ccf2a2ca68b3f8d176cbe436fb7a3db10d82c694b8b7eb70c2b1b4113",
          "blockNumber": "0x6427ad",
          "transactionHash": "0x9fddd4b8eb4b88a022a47f235e8348588cfbff8023c943e666e7becd243f1825",
          "transactionIndex": "0xa",
          "logIndex": "0x12",
          "removed": false
        }
      ],
      "status": "0x1",
      "logsBloom": "0x00000000000000000000000000000000000000000000000000000000000000000000000000000000000000000000000000101000000000000000000004000000000020000000000000000000000000000000000000000000000000000000000000000000000000000000000000000000000000000000000000000000000000000000000000000000000000000000000000000000000000000000000000000000000000000000010000000000000000000000000000000001000000000000000000000010000000000000000000000000000000000000000000000100000000000000080000000000000000000000000000000000000000000000000000000000",
      "type": "0x2",
      "effectiveGasPrice": "0x4364a73eb"
    },
    {
      "transactionHash": "0xccd21f252dab7af6b925abf70fd8fdfbf2daca56e417eed4b015242e91564430",
      "transactionIndex": "0xb",
      "blockHash": "0x604fac5ccf2a2ca68b3f8d176cbe436fb7a3db10d82c694b8b7eb70c2b1b4113",
      "blockNumber": "0x6427ad",
      "from": "0x598CA9Ca53D5bB84Fd56fE41C3f40Ed15D731e18",
      "to": "0xDA65F7b3F73A1CF6cd4f36f234c9336aC1eEf270",
      "cumulativeGasUsed": "0x1045e9",
      "gasUsed": "0x7755",
      "contractAddress": null,
      "logs": [
        {
          "address": "0xDA65F7b3F73A1CF6cd4f36f234c9336aC1eEf270",
          "topics": [
            "0x623be8b40a0155c2c049cc6ad02d5e4a782dde65f74cd34d0abe8b277f6b32ae",
            "0x0000000000000000000000000000000000000000000000000000000000000000"
          ],
          "data": "0x",
          "blockHash": "0x604fac5ccf2a2ca68b3f8d176cbe436fb7a3db10d82c694b8b7eb70c2b1b4113",
          "blockNumber": "0x6427ad",
          "transactionHash": "0xccd21f252dab7af6b925abf70fd8fdfbf2daca56e417eed4b015242e91564430",
          "transactionIndex": "0xb",
          "logIndex": "0x13",
          "removed": false
        }
      ],
      "status": "0x1",
      "logsBloom": "0x00000000000000000000000000000000000000000000000000000000000000000000000000000000000000000000000000000000000000002000000000000000000000000000000000000000000000000000000000000000000000000000000000000000020000000000000000000800000000000000000000000000000000000000000000000800000000000000000000000000000000000000000000000000000000000000000000000000000000000000000000000001000000000000000000000010000000000000000000000000000000000000000000000000000020000000080000000000000000000000000000000000000000000000004000000000",
      "type": "0x2",
      "effectiveGasPrice": "0x4364a73eb"
    },
    {
      "transactionHash": "0x3c0faab6273221ea4984b44c1419b8b6bbe6fd7797fab6e51943c715aa194dab",
      "transactionIndex": "0xc",
      "blockHash": "0x604fac5ccf2a2ca68b3f8d176cbe436fb7a3db10d82c694b8b7eb70c2b1b4113",
      "blockNumber": "0x6427ad",
      "from": "0x598CA9Ca53D5bB84Fd56fE41C3f40Ed15D731e18",
      "to": "0xDA65F7b3F73A1CF6cd4f36f234c9336aC1eEf270",
      "cumulativeGasUsed": "0x10bd4a",
      "gasUsed": "0x7761",
      "contractAddress": null,
      "logs": [
        {
          "address": "0xDA65F7b3F73A1CF6cd4f36f234c9336aC1eEf270",
          "topics": [
            "0x623be8b40a0155c2c049cc6ad02d5e4a782dde65f74cd34d0abe8b277f6b32ae",
            "0x0000000000000000000000000000000000000000000000000000000000000001"
          ],
          "data": "0x",
          "blockHash": "0x604fac5ccf2a2ca68b3f8d176cbe436fb7a3db10d82c694b8b7eb70c2b1b4113",
          "blockNumber": "0x6427ad",
          "transactionHash": "0x3c0faab6273221ea4984b44c1419b8b6bbe6fd7797fab6e51943c715aa194dab",
          "transactionIndex": "0xc",
          "logIndex": "0x14",
          "removed": false
        }
      ],
      "status": "0x1",
      "logsBloom": "0x00000000000000000000000000000000000000000000000000000000000000000000000000000000000000000000000000000000000000002000000000040000000000000000000000000000000000000000000000040000000000000000000000000000000000000000000000000000000000000000000000000000000000000000000000000800000000000000000000000000000000000000000000000000000000000000000000000000000000000000000000000001000000000000000000000010000000000000000000000000000000000000000000000000000040000000080000000000000000000000000000000000000000000000004000000000",
      "type": "0x2",
      "effectiveGasPrice": "0x4364a73eb"
    },
    {
      "transactionHash": "0x954bce33101519381e4c4025bc6da9e3dddd00de51e7d9624b0a4f3adc0c863d",
      "transactionIndex": "0xd",
      "blockHash": "0x604fac5ccf2a2ca68b3f8d176cbe436fb7a3db10d82c694b8b7eb70c2b1b4113",
      "blockNumber": "0x6427ad",
      "from": "0x598CA9Ca53D5bB84Fd56fE41C3f40Ed15D731e18",
      "to": "0xDA65F7b3F73A1CF6cd4f36f234c9336aC1eEf270",
      "cumulativeGasUsed": "0x1134ab",
      "gasUsed": "0x7761",
      "contractAddress": null,
      "logs": [
        {
          "address": "0xDA65F7b3F73A1CF6cd4f36f234c9336aC1eEf270",
          "topics": [
            "0x623be8b40a0155c2c049cc6ad02d5e4a782dde65f74cd34d0abe8b277f6b32ae",
            "0x0000000000000000000000000000000000000000000000000000000000000002"
          ],
          "data": "0x",
          "blockHash": "0x604fac5ccf2a2ca68b3f8d176cbe436fb7a3db10d82c694b8b7eb70c2b1b4113",
          "blockNumber": "0x6427ad",
          "transactionHash": "0x954bce33101519381e4c4025bc6da9e3dddd00de51e7d9624b0a4f3adc0c863d",
          "transactionIndex": "0xd",
          "logIndex": "0x15",
          "removed": false
        }
      ],
      "status": "0x1",
      "logsBloom": "0x04000000000000000000000000000000000000000000000000000000000000000000000000000000000000000000000000000000000000002000000000000000000000000000000000000000000000000000000000000000000000000000000000000000000000000000000000000000000000000000000000000000000000000000000000000800000000000000000000000000000000000000000000000000000000000000000000000100000000000000000000000001000000000000000000000010000000000000000000000000000000000000000000000000000000000000080000000000000000000000000000000000008000000000004000000000",
      "type": "0x2",
      "effectiveGasPrice": "0x4364a73eb"
    },
    {
      "transactionHash": "0x27271c3ee52bef5444d5c6b941968d6d45d456851ce5ea25bca1f073354d02f4",
      "transactionIndex": "0xe",
      "blockHash": "0x604fac5ccf2a2ca68b3f8d176cbe436fb7a3db10d82c694b8b7eb70c2b1b4113",
      "blockNumber": "0x6427ad",
      "from": "0x598CA9Ca53D5bB84Fd56fE41C3f40Ed15D731e18",
      "to": "0xDA65F7b3F73A1CF6cd4f36f234c9336aC1eEf270",
      "cumulativeGasUsed": "0x11ac0c",
      "gasUsed": "0x7761",
      "contractAddress": null,
      "logs": [
        {
          "address": "0xDA65F7b3F73A1CF6cd4f36f234c9336aC1eEf270",
          "topics": [
            "0x623be8b40a0155c2c049cc6ad02d5e4a782dde65f74cd34d0abe8b277f6b32ae",
            "0x0000000000000000000000000000000000000000000000000000000000000003"
          ],
          "data": "0x",
          "blockHash": "0x604fac5ccf2a2ca68b3f8d176cbe436fb7a3db10d82c694b8b7eb70c2b1b4113",
          "blockNumber": "0x6427ad",
          "transactionHash": "0x27271c3ee52bef5444d5c6b941968d6d45d456851ce5ea25bca1f073354d02f4",
          "transactionIndex": "0xe",
          "logIndex": "0x16",
          "removed": false
        }
      ],
      "status": "0x1",
      "logsBloom": "0x00000000000000000000000000000000000000000000000000000000000000000000000000000000000000000000000000000000020000002000000000000000000000000000000000000000000000000000000000000000000000000000000000000000000000000000000000000000000000000000000000000000000000000000000000000800000000000000000000000000000000000000000000000000000000000000000000000000000000000000000000800001000000000000400000000010000000000000000000000000000000000000000000000000000000000000080000000000000000000000000000000000000000000000004000000000",
      "type": "0x2",
      "effectiveGasPrice": "0x4364a73eb"
    },
    {
      "transactionHash": "0x21ff8cc7ecb7f6dca194905c99a6f084bca3e5b4023a138899a7a823735f0dd1",
      "transactionIndex": "0xf",
      "blockHash": "0x604fac5ccf2a2ca68b3f8d176cbe436fb7a3db10d82c694b8b7eb70c2b1b4113",
      "blockNumber": "0x6427ad",
      "from": "0x598CA9Ca53D5bB84Fd56fE41C3f40Ed15D731e18",
      "to": "0xDA65F7b3F73A1CF6cd4f36f234c9336aC1eEf270",
      "cumulativeGasUsed": "0x12236d",
      "gasUsed": "0x7761",
      "contractAddress": null,
      "logs": [
        {
          "address": "0xDA65F7b3F73A1CF6cd4f36f234c9336aC1eEf270",
          "topics": [
            "0x623be8b40a0155c2c049cc6ad02d5e4a782dde65f74cd34d0abe8b277f6b32ae",
            "0x0000000000000000000000000000000000000000000000000000000000000004"
          ],
          "data": "0x",
          "blockHash": "0x604fac5ccf2a2ca68b3f8d176cbe436fb7a3db10d82c694b8b7eb70c2b1b4113",
          "blockNumber": "0x6427ad",
          "transactionHash": "0x21ff8cc7ecb7f6dca194905c99a6f084bca3e5b4023a138899a7a823735f0dd1",
          "transactionIndex": "0xf",
          "logIndex": "0x17",
          "removed": false
        }
      ],
      "status": "0x1",
      "logsBloom": "0x00000000000000000000000000000000000000000000000000000000000000000000000000000000000000000000000000000000000000002000000000000000000000000000000000000000000000000000000000000000000000000000000008000000000000000000000000000000000000000000000000000000000000000000000000000800000000000000000000000000000000000000000000000000000000000000000000000000000000000000000000000001002000000000000000000010000000000000000000000000000000008000000000000000000000000000080000000000000000000000000000000000000000000000004000000000",
      "type": "0x2",
      "effectiveGasPrice": "0x4364a73eb"
    },
    {
      "transactionHash": "0xb032a9ec24bffa371d99419beea6fa8617c1a598f43a11f4188d6eb349502a09",
      "transactionIndex": "0x10",
      "blockHash": "0x604fac5ccf2a2ca68b3f8d176cbe436fb7a3db10d82c694b8b7eb70c2b1b4113",
      "blockNumber": "0x6427ad",
      "from": "0x598CA9Ca53D5bB84Fd56fE41C3f40Ed15D731e18",
      "to": "0xDA65F7b3F73A1CF6cd4f36f234c9336aC1eEf270",
      "cumulativeGasUsed": "0x129ace",
      "gasUsed": "0x7761",
      "contractAddress": null,
      "logs": [
        {
          "address": "0xDA65F7b3F73A1CF6cd4f36f234c9336aC1eEf270",
          "topics": [
            "0x623be8b40a0155c2c049cc6ad02d5e4a782dde65f74cd34d0abe8b277f6b32ae",
            "0x0000000000000000000000000000000000000000000000000000000000000005"
          ],
          "data": "0x",
          "blockHash": "0x604fac5ccf2a2ca68b3f8d176cbe436fb7a3db10d82c694b8b7eb70c2b1b4113",
          "blockNumber": "0x6427ad",
          "transactionHash": "0xb032a9ec24bffa371d99419beea6fa8617c1a598f43a11f4188d6eb349502a09",
          "transactionIndex": "0x10",
          "logIndex": "0x18",
          "removed": false
        }
      ],
      "status": "0x1",
      "logsBloom": "0x00000000000000000000000000000000000000000000000000000000000000000000000000000000000000000000000000000000000000002000000000000000000010000000000000000000000000000000000000000000000000000000000000000000000000000000000000000000000000000000000000000000000000000000000000000800000000000000001000000800000000000000000000000000000000000000000000000000000000000000000000000001000000000000000000000010000000000000000000000000000000000000000000000000000000000000080000000000000000000000000000000000000000000000004000000000",
      "type": "0x2",
      "effectiveGasPrice": "0x4364a73eb"
    },
    {
      "transactionHash": "0xa77af5319d84b4b36d4e9783b1eb556f07fcac7063709cdaf06745912be8ae10",
      "transactionIndex": "0x11",
      "blockHash": "0x604fac5ccf2a2ca68b3f8d176cbe436fb7a3db10d82c694b8b7eb70c2b1b4113",
      "blockNumber": "0x6427ad",
      "from": "0x598CA9Ca53D5bB84Fd56fE41C3f40Ed15D731e18",
      "to": "0xDA65F7b3F73A1CF6cd4f36f234c9336aC1eEf270",
      "cumulativeGasUsed": "0x13122f",
      "gasUsed": "0x7761",
      "contractAddress": null,
      "logs": [
        {
          "address": "0xDA65F7b3F73A1CF6cd4f36f234c9336aC1eEf270",
          "topics": [
            "0x623be8b40a0155c2c049cc6ad02d5e4a782dde65f74cd34d0abe8b277f6b32ae",
            "0x0000000000000000000000000000000000000000000000000000000000000006"
          ],
          "data": "0x",
          "blockHash": "0x604fac5ccf2a2ca68b3f8d176cbe436fb7a3db10d82c694b8b7eb70c2b1b4113",
          "blockNumber": "0x6427ad",
          "transactionHash": "0xa77af5319d84b4b36d4e9783b1eb556f07fcac7063709cdaf06745912be8ae10",
          "transactionIndex": "0x11",
          "logIndex": "0x19",
          "removed": false
        }
      ],
      "status": "0x1",
      "logsBloom": "0x00000000000000000000000000000000000000000000000000000000000000000000000000000000000000000000000000000000000400002000000000000000000000000000000000000000000000000000000000000000000000000000000000000000000000000000000000000000000000000000000000000000000000000000000400000800000000000000000000000000000000000000000000000000000000000000000000000000000000000000000000000001000000080000000000000010000000000000000000000000000000000000000000000000000000000000080000000000000000000000000000000000000000000000004000000000",
      "type": "0x2",
      "effectiveGasPrice": "0x4364a73eb"
    },
    {
      "transactionHash": "0x4e5ff66d13182d17c5dbe48ab6f43099b9a145cfb31fadc069ced7dd1d521f4d",
      "transactionIndex": "0x2",
      "blockHash": "0x45401936e01eb73f8d6f2e783440cad6c0d51ac97771433006fe4a25df8738dc",
      "blockNumber": "0x6427ae",
      "from": "0x598CA9Ca53D5bB84Fd56fE41C3f40Ed15D731e18",
      "to": "0xDA65F7b3F73A1CF6cd4f36f234c9336aC1eEf270",
      "cumulativeGasUsed": "0x41c66",
      "gasUsed": "0x7761",
      "contractAddress": null,
      "logs": [
        {
          "address": "0xDA65F7b3F73A1CF6cd4f36f234c9336aC1eEf270",
          "topics": [
            "0x623be8b40a0155c2c049cc6ad02d5e4a782dde65f74cd34d0abe8b277f6b32ae",
            "0x0000000000000000000000000000000000000000000000000000000000000007"
          ],
          "data": "0x",
          "blockHash": "0x45401936e01eb73f8d6f2e783440cad6c0d51ac97771433006fe4a25df8738dc",
          "blockNumber": "0x6427ae",
          "transactionHash": "0x4e5ff66d13182d17c5dbe48ab6f43099b9a145cfb31fadc069ced7dd1d521f4d",
          "transactionIndex": "0x2",
          "logIndex": "0x3",
          "removed": false
        }
      ],
      "status": "0x1",
      "logsBloom": "0x00000000000000000000000000000000000000000000000000000000000000000000000000000000000000000000000000001000000000002000000000000000000020000000000000000000000000000000000000000000000000000000000000000000000000000000000000000000000000000000000000000000000000000000000000000800000000000000000000000000000000000000000000000000000000000000000000000000000000000000000000000001000000000000000000000010000000000000000000000000000000000000000000000100000000000000080000000000000000000000000000000000000000000000004000000000",
      "type": "0x2",
      "effectiveGasPrice": "0x4a6b05778"
    },
    {
      "transactionHash": "0xe18335bd903ed6d2d565e144ed7d5634432117af9a17dbd941abb0dc5180aed9",
      "transactionIndex": "0x2",
      "blockHash": "0xaa83a128860815dbd6c75372e0b28b13e4b613e8544867beec239e6975392ac6",
      "blockNumber": "0x6427af",
      "from": "0x598CA9Ca53D5bB84Fd56fE41C3f40Ed15D731e18",
      "to": "0xDA65F7b3F73A1CF6cd4f36f234c9336aC1eEf270",
      "cumulativeGasUsed": "0x6aa16",
      "gasUsed": "0x1dc32",
      "contractAddress": null,
      "logs": [
        {
          "address": "0x2ab9f26E18B64848cd349582ca3B55c2d06f507d",
          "topics": [
            "0x3a52c462346de2e9436a3868970892956828a11b9c43da1ed43740b12e1125ae",
            "0x0000000000000000000000006238772544f029ecabfded4300f13a3c4fe84e1d",
            "0xb025382b418ee9e687929ad5179f753917e3a7ff55284a2d7abd25d5316a51f5"
          ],
          "data": "0x00000000000000000000000000000000000000000000000000000000000000010000000000000000000000000000000000000000000000000000000000aa36a7000000000000000000000000ab6c439d2dbb48ee73d088011118f3d9ae3fea9094555f83f1addda23fdaa7c74f27ce2b764ed5cc430c66f5ff1bcf39d583da36000000000000000000000000ab6c439d2dbb48ee73d088011118f3d9ae3fea900000000000000000000000000650600c73ab53522a02c23f603eb7867def6178000000000000000000000000ab6c439d2dbb48ee73d088011118f3d9ae3fea903718d90a0000000000000000000000000000000000000000000000000000000000000000000000000000000000000000000000000000000000000000000001200000000000000000000000000000000000000000000000000000000000000000",
          "blockHash": "0xaa83a128860815dbd6c75372e0b28b13e4b613e8544867beec239e6975392ac6",
          "blockNumber": "0x6427af",
          "transactionHash": "0xe18335bd903ed6d2d565e144ed7d5634432117af9a17dbd941abb0dc5180aed9",
          "transactionIndex": "0x2",
          "logIndex": "0x5",
          "removed": false
        },
        {
          "address": "0xAb6C439d2Dbb48eE73d088011118F3D9Ae3fEA90",
          "topics": [
            "0xcba2da2f3c0c732a104019a3104936397dde7343964c1518ceb760052e4537b1",
            "0xb025382b418ee9e687929ad5179f753917e3a7ff55284a2d7abd25d5316a51f5"
          ],
          "data": "0x",
          "blockHash": "0xaa83a128860815dbd6c75372e0b28b13e4b613e8544867beec239e6975392ac6",
          "blockNumber": "0x6427af",
          "transactionHash": "0xe18335bd903ed6d2d565e144ed7d5634432117af9a17dbd941abb0dc5180aed9",
          "transactionIndex": "0x2",
          "logIndex": "0x6",
          "removed": false
        }
      ],
      "status": "0x1",
      "logsBloom": "0x00000000000000000000000000000000000000000000000000000000000000000000000400000000100000000000000000000000000000040004000000000000000000000000000000000004000000000000000000000000000000000000000000000000000000000000000000000000000000001000010000044000000000000000000000000000000000000000000000000000000000000000000000000000000000000000000000000000000000000000000000000000000000400000080000010000000000000000000000000000000000080000000010000000000000000000000000000000001000000000000002000000000000200000000000000040",
      "type": "0x2",
      "effectiveGasPrice": "0x52516ce48"
    }
  ],
  "libraries": [],
  "pending": [],
  "returns": {},
  "timestamp": 1724523843,
  "chain": 11155111,
  "commit": "e54a717"
}