{
  "transactions": [
    {
      "hash": "0xbb46e96d075e23a636f401f4569c06e51dcf7007ae9179f07c2758e1cf2b2309",
      "transactionType": "CALL",
      "contractName": null,
      "contractAddress": "0xDD9b094704aB530d395969b00F0904e30fb8EE8F",
      "function": null,
      "arguments": null,
      "transaction": {
        "type": "0x00",
        "from": "0x598ca9ca53d5bb84fd56fe41c3f40ed15d731e18",
        "to": "0xdd9b094704ab530d395969b00f0904e30fb8ee8f",
        "gas": "0x714d",
        "value": "0x9184e72a000",
        "data": "0x",
        "nonce": "0x2f"
      },
      "additionalContracts": [],
      "isFixedGasLimit": false
    },
    {
      "hash": "0x670aebfe5e7f1bbeee864c947b7c6492721b21671b3700cf0c486be6f96fd093",
      "transactionType": "CALL",
      "contractName": "MockUSDC",
      "contractAddress": "0xCF6bc8d4d55B4BABA1E7783400F3Bf7FbD55CF5b",
      "function": "mint(address,uint256)",
      "arguments": [
        "0xDD9b094704aB530d395969b00F0904e30fb8EE8F",
        "1000000000000000000"
      ],
      "transaction": {
        "type": "0x00",
        "from": "0x598ca9ca53d5bb84fd56fe41c3f40ed15d731e18",
        "to": "0xcf6bc8d4d55b4baba1e7783400f3bf7fbd55cf5b",
        "gas": "0xc1d6",
        "value": "0x0",
        "data": "0x40c10f19000000000000000000000000dd9b094704ab530d395969b00f0904e30fb8ee8f0000000000000000000000000000000000000000000000000de0b6b3a7640000",
        "nonce": "0x30"
      },
      "additionalContracts": [],
      "isFixedGasLimit": false
    },
    {
      "hash": "0x85adba4289914a86399a1b4215bc9d9373f5e7a58b8ab949b386cc8eca4fd434",
      "transactionType": "CALL",
      "contractName": "MockUSDC",
      "contractAddress": "0xCF6bc8d4d55B4BABA1E7783400F3Bf7FbD55CF5b",
      "function": "approve(address,uint256)",
      "arguments": [
        "0xb72cB3Cac841CeafCE22422179442Bd200C24417",
        "533674558193000000"
      ],
      "transaction": {
        "type": "0x00",
        "from": "0xdd9b094704ab530d395969b00f0904e30fb8ee8f",
        "to": "0xcf6bc8d4d55b4baba1e7783400f3bf7fbd55cf5b",
        "gas": "0x106b7",
        "value": "0x0",
        "data": "0x095ea7b3000000000000000000000000b72cb3cac841ceafce22422179442bd200c244170000000000000000000000000000000000000000000000000767fe2ee2c1de40",
        "nonce": "0x0"
      },
      "additionalContracts": [],
      "isFixedGasLimit": false
    },
    {
      "hash": null,
      "transactionType": "CALL",
      "contractName": "FlappyQF",
      "contractAddress": "0xb72cB3Cac841CeafCE22422179442Bd200C24417",
      "function": "contributeToProject(uint256,uint256)",
      "arguments": [
        "1",
        "533674558193000000"
      ],
      "transaction": {
        "type": "0x00",
        "from": "0xdd9b094704ab530d395969b00f0904e30fb8ee8f",
        "to": "0xb72cb3cac841ceafce22422179442bd200c24417",
        "gas": "0x2c89d",
        "value": "0x0",
        "data": "0xa309bd1600000000000000000000000000000000000000000000000000000000000000010000000000000000000000000000000000000000000000000767fe2ee2c1de40",
        "nonce": "0x1"
      },
      "additionalContracts": [],
      "isFixedGasLimit": false
    },
    {
      "hash": null,
      "transactionType": "CALL",
      "contractName": "MockUSDC",
      "contractAddress": "0xCF6bc8d4d55B4BABA1E7783400F3Bf7FbD55CF5b",
      "function": "approve(address,uint256)",
      "arguments": [
        "0xb72cB3Cac841CeafCE22422179442Bd200C24417",
        "14732900380000000"
      ],
      "transaction": {
        "type": "0x00",
        "from": "0xdd9b094704ab530d395969b00f0904e30fb8ee8f",
        "to": "0xcf6bc8d4d55b4baba1e7783400f3bf7fbd55cf5b",
        "gas": "0x10694",
        "value": "0x0",
        "data": "0x095ea7b3000000000000000000000000b72cb3cac841ceafce22422179442bd200c244170000000000000000000000000000000000000000000000000034577eada93f00",
        "nonce": "0x2"
      },
      "additionalContracts": [],
      "isFixedGasLimit": false
    },
    {
      "hash": null,
      "transactionType": "CALL",
      "contractName": "FlappyQF",
      "contractAddress": "0xb72cB3Cac841CeafCE22422179442Bd200C24417",
      "function": "contributeToProject(uint256,uint256)",
      "arguments": [
        "1",
        "14732900380000000"
      ],
      "transaction": {
        "type": "0x00",
        "from": "0xdd9b094704ab530d395969b00f0904e30fb8ee8f",
        "to": "0xb72cb3cac841ceafce22422179442bd200c24417",
        "gas": "0x157be",
        "value": "0x0",
        "data": "0xa309bd1600000000000000000000000000000000000000000000000000000000000000010000000000000000000000000000000000000000000000000034577eada93f00",
        "nonce": "0x3"
      },
      "additionalContracts": [],
      "isFixedGasLimit": false
    },
    {
      "hash": null,
      "transactionType": "CALL",
      "contractName": null,
      "contractAddress": "0x6Ae8F65D402fcC295EB5D85c703A03Aa85547092",
      "function": null,
      "arguments": null,
      "transaction": {
        "type": "0x00",
        "from": "0x598ca9ca53d5bb84fd56fe41c3f40ed15d731e18",
        "to": "0x6ae8f65d402fcc295eb5d85c703a03aa85547092",
        "gas": "0x714d",
        "value": "0x9184e72a000",
        "data": "0x",
        "nonce": "0x31"
      },
      "additionalContracts": [],
      "isFixedGasLimit": false
    },
    {
      "hash": null,
      "transactionType": "CALL",
      "contractName": "MockUSDC",
      "contractAddress": "0xCF6bc8d4d55B4BABA1E7783400F3Bf7FbD55CF5b",
      "function": "mint(address,uint256)",
      "arguments": [
        "0x6Ae8F65D402fcC295EB5D85c703A03Aa85547092",
        "1000000000000000000"
      ],
      "transaction": {
        "type": "0x00",
        "from": "0x598ca9ca53d5bb84fd56fe41c3f40ed15d731e18",
        "to": "0xcf6bc8d4d55b4baba1e7783400f3bf7fbd55cf5b",
        "gas": "0x11354",
        "value": "0x0",
        "data": "0x40c10f190000000000000000000000006ae8f65d402fcc295eb5d85c703a03aa855470920000000000000000000000000000000000000000000000000de0b6b3a7640000",
        "nonce": "0x32"
      },
      "additionalContracts": [],
      "isFixedGasLimit": false
    },
    {
      "hash": null,
      "transactionType": "CALL",
      "contractName": "MockUSDC",
      "contractAddress": "0xCF6bc8d4d55B4BABA1E7783400F3Bf7FbD55CF5b",
      "function": "approve(address,uint256)",
      "arguments": [
        "0xb72cB3Cac841CeafCE22422179442Bd200C24417",
        "594899936188000000"
      ],
      "transaction": {
        "type": "0x00",
        "from": "0x6ae8f65d402fcc295eb5d85c703a03aa85547092",
        "to": "0xcf6bc8d4d55b4baba1e7783400f3bf7fbd55cf5b",
        "gas": "0xf80e",
        "value": "0x0",
        "data": "0x095ea7b3000000000000000000000000b72cb3cac841ceafce22422179442bd200c24417000000000000000000000000000000000000000000000000084182570d636700",
        "nonce": "0x0"
      },
      "additionalContracts": [],
      "isFixedGasLimit": false
    },
    {
      "hash": null,
      "transactionType": "CALL",
      "contractName": "FlappyQF",
      "contractAddress": "0xb72cB3Cac841CeafCE22422179442Bd200C24417",
      "function": "contributeToProject(uint256,uint256)",
      "arguments": [
        "2",
        "594899936188000000"
      ],
      "transaction": {
        "type": "0x00",
        "from": "0x6ae8f65d402fcc295eb5d85c703a03aa85547092",
        "to": "0xb72cb3cac841ceafce22422179442bd200c24417",
        "gas": "0x2c88d",
        "value": "0x0",
        "data": "0xa309bd160000000000000000000000000000000000000000000000000000000000000002000000000000000000000000000000000000000000000000084182570d636700",
        "nonce": "0x1"
      },
      "additionalContracts": [],
      "isFixedGasLimit": false
    },
    {
      "hash": null,
      "transactionType": "CALL",
      "contractName": "MockUSDC",
      "contractAddress": "0xCF6bc8d4d55B4BABA1E7783400F3Bf7FbD55CF5b",
      "function": "approve(address,uint256)",
      "arguments": [
        "0xb72cB3Cac841CeafCE22422179442Bd200C24417",
        "323223168784000000"
      ],
      "transaction": {
        "type": "0x00",
        "from": "0x6ae8f65d402fcc295eb5d85c703a03aa85547092",
        "to": "0xcf6bc8d4d55b4baba1e7783400f3bf7fbd55cf5b",
        "gas": "0xf80e",
        "value": "0x0",
        "data": "0x095ea7b3000000000000000000000000b72cb3cac841ceafce22422179442bd200c24417000000000000000000000000000000000000000000000000047c51c26e8be400",
        "nonce": "0x2"
      },
      "additionalContracts": [],
      "isFixedGasLimit": false
    },
    {
      "hash": null,
      "transactionType": "CALL",
      "contractName": "FlappyQF",
      "contractAddress": "0xb72cB3Cac841CeafCE22422179442Bd200C24417",
      "function": "contributeToProject(uint256,uint256)",
      "arguments": [
        "2",
        "323223168784000000"
      ],
      "transaction": {
        "type": "0x00",
        "from": "0x6ae8f65d402fcc295eb5d85c703a03aa85547092",
        "to": "0xb72cb3cac841ceafce22422179442bd200c24417",
        "gas": "0x144b5",
        "value": "0x0",
        "data": "0xa309bd160000000000000000000000000000000000000000000000000000000000000002000000000000000000000000000000000000000000000000047c51c26e8be400",
        "nonce": "0x3"
      },
      "additionalContracts": [],
      "isFixedGasLimit": false
    },
    {
      "hash": null,
      "transactionType": "CALL",
      "contractName": "MockUSDC",
      "contractAddress": "0xCF6bc8d4d55B4BABA1E7783400F3Bf7FbD55CF5b",
      "function": "approve(address,uint256)",
      "arguments": [
        "0xb72cB3Cac841CeafCE22422179442Bd200C24417",
        "76188871956000000"
      ],
      "transaction": {
        "type": "0x00",
        "from": "0x6ae8f65d402fcc295eb5d85c703a03aa85547092",
        "to": "0xcf6bc8d4d55b4baba1e7783400f3bf7fbd55cf5b",
        "gas": "0xf80e",
        "value": "0x0",
        "data": "0x095ea7b3000000000000000000000000b72cb3cac841ceafce22422179442bd200c24417000000000000000000000000000000000000000000000000010ead6018c66d00",
        "nonce": "0x4"
      },
      "additionalContracts": [],
      "isFixedGasLimit": false
    },
    {
      "hash": null,
      "transactionType": "CALL",
      "contractName": "FlappyQF",
      "contractAddress": "0xb72cB3Cac841CeafCE22422179442Bd200C24417",
      "function": "contributeToProject(uint256,uint256)",
      "arguments": [
        "2",
        "76188871956000000"
      ],
      "transaction": {
        "type": "0x00",
        "from": "0x6ae8f65d402fcc295eb5d85c703a03aa85547092",
        "to": "0xb72cb3cac841ceafce22422179442bd200c24417",
        "gas": "0x144b5",
        "value": "0x0",
        "data": "0xa309bd160000000000000000000000000000000000000000000000000000000000000002000000000000000000000000000000000000000000000000010ead6018c66d00",
        "nonce": "0x5"
      },
      "additionalContracts": [],
      "isFixedGasLimit": false
    },
    {
      "hash": null,
      "transactionType": "CALL",
      "contractName": null,
      "contractAddress": "0x9641B432D9A0281eaC3ed71713736C8c7628006E",
      "function": null,
      "arguments": null,
      "transaction": {
        "type": "0x00",
        "from": "0x598ca9ca53d5bb84fd56fe41c3f40ed15d731e18",
        "to": "0x9641b432d9a0281eac3ed71713736c8c7628006e",
        "gas": "0x714d",
        "value": "0x9184e72a000",
        "data": "0x",
        "nonce": "0x33"
      },
      "additionalContracts": [],
      "isFixedGasLimit": false
    },
    {
      "hash": null,
      "transactionType": "CALL",
      "contractName": "MockUSDC",
      "contractAddress": "0xCF6bc8d4d55B4BABA1E7783400F3Bf7FbD55CF5b",
      "function": "mint(address,uint256)",
      "arguments": [
        "0x9641B432D9A0281eaC3ed71713736C8c7628006E",
        "1000000000000000000"
      ],
      "transaction": {
        "type": "0x00",
        "from": "0x598ca9ca53d5bb84fd56fe41c3f40ed15d731e18",
        "to": "0xcf6bc8d4d55b4baba1e7783400f3bf7fbd55cf5b",
        "gas": "0x12375",
        "value": "0x0",
        "data": "0x40c10f190000000000000000000000009641b432d9a0281eac3ed71713736c8c7628006e0000000000000000000000000000000000000000000000000de0b6b3a7640000",
        "nonce": "0x34"
      },
      "additionalContracts": [],
      "isFixedGasLimit": false
    },
    {
      "hash": null,
      "transactionType": "CALL",
      "contractName": "MockUSDC",
      "contractAddress": "0xCF6bc8d4d55B4BABA1E7783400F3Bf7FbD55CF5b",
      "function": "approve(address,uint256)",
      "arguments": [
        "0xb72cB3Cac841CeafCE22422179442Bd200C24417",
        "680266165139000000"
      ],
      "transaction": {
        "type": "0x00",
        "from": "0x9641b432d9a0281eac3ed71713736c8c7628006e",
        "to": "0xcf6bc8d4d55b4baba1e7783400f3bf7fbd55cf5b",
        "gas": "0x106b7",
        "value": "0x0",
        "data": "0x095ea7b3000000000000000000000000b72cb3cac841ceafce22422179442bd200c244170000000000000000000000000000000000000000000000000970ca7915d3cac0",
        "nonce": "0x0"
      },
      "additionalContracts": [],
      "isFixedGasLimit": false
    },
    {
      "hash": null,
      "transactionType": "CALL",
      "contractName": "FlappyQF",
      "contractAddress": "0xb72cB3Cac841CeafCE22422179442Bd200C24417",
      "function": "contributeToProject(uint256,uint256)",
      "arguments": [
        "7",
        "680266165139000000"
      ],
      "transaction": {
        "type": "0x00",
        "from": "0x9641b432d9a0281eac3ed71713736c8c7628006e",
        "to": "0xb72cb3cac841ceafce22422179442bd200c24417",
        "gas": "0x2c89d",
        "value": "0x0",
        "data": "0xa309bd1600000000000000000000000000000000000000000000000000000000000000070000000000000000000000000000000000000000000000000970ca7915d3cac0",
        "nonce": "0x1"
      },
      "additionalContracts": [],
      "isFixedGasLimit": false
    },
    {
      "hash": null,
      "transactionType": "CALL",
      "contractName": "MockUSDC",
      "contractAddress": "0xCF6bc8d4d55B4BABA1E7783400F3Bf7FbD55CF5b",
      "function": "approve(address,uint256)",
      "arguments": [
        "0xb72cB3Cac841CeafCE22422179442Bd200C24417",
        "117450077253000000"
      ],
      "transaction": {
        "type": "0x00",
        "from": "0x9641b432d9a0281eac3ed71713736c8c7628006e",
        "to": "0xcf6bc8d4d55b4baba1e7783400f3bf7fbd55cf5b",
        "gas": "0x106b7",
        "value": "0x0",
        "data": "0x095ea7b3000000000000000000000000b72cb3cac841ceafce22422179442bd200c2441700000000000000000000000000000000000000000000000001a144391581db40",
        "nonce": "0x2"
      },
      "additionalContracts": [],
      "isFixedGasLimit": false
    },
    {
      "hash": null,
      "transactionType": "CALL",
      "contractName": "FlappyQF",
      "contractAddress": "0xb72cB3Cac841CeafCE22422179442Bd200C24417",
      "function": "contributeToProject(uint256,uint256)",
      "arguments": [
        "7",
        "117450077253000000"
      ],
      "transaction": {
        "type": "0x00",
        "from": "0x9641b432d9a0281eac3ed71713736c8c7628006e",
        "to": "0xb72cb3cac841ceafce22422179442bd200c24417",
        "gas": "0x157e1",
        "value": "0x0",
        "data": "0xa309bd16000000000000000000000000000000000000000000000000000000000000000700000000000000000000000000000000000000000000000001a144391581db40",
        "nonce": "0x3"
      },
      "additionalContracts": [],
      "isFixedGasLimit": false
    },
    {
      "hash": null,
      "transactionType": "CALL",
      "contractName": "MockUSDC",
      "contractAddress": "0xCF6bc8d4d55B4BABA1E7783400F3Bf7FbD55CF5b",
      "function": "approve(address,uint256)",
      "arguments": [
        "0xb72cB3Cac841CeafCE22422179442Bd200C24417",
        "75649125463000000"
      ],
      "transaction": {
        "type": "0x00",
        "from": "0x9641b432d9a0281eac3ed71713736c8c7628006e",
        "to": "0xcf6bc8d4d55b4baba1e7783400f3bf7fbd55cf5b",
        "gas": "0x106b7",
        "value": "0x0",
        "data": "0x095ea7b3000000000000000000000000b72cb3cac841ceafce22422179442bd200c24417000000000000000000000000000000000000000000000000010cc27a92ca83c0",
        "nonce": "0x4"
      },
      "additionalContracts": [],
      "isFixedGasLimit": false
    },
    {
      "hash": null,
      "transactionType": "CALL",
      "contractName": "FlappyQF",
      "contractAddress": "0xb72cB3Cac841CeafCE22422179442Bd200C24417",
      "function": "contributeToProject(uint256,uint256)",
      "arguments": [
        "7",
        "75649125463000000"
      ],
      "transaction": {
        "type": "0x00",
        "from": "0x9641b432d9a0281eac3ed71713736c8c7628006e",
        "to": "0xb72cb3cac841ceafce22422179442bd200c24417",
        "gas": "0x157e1",
        "value": "0x0",
        "data": "0xa309bd160000000000000000000000000000000000000000000000000000000000000007000000000000000000000000000000000000000000000000010cc27a92ca83c0",
        "nonce": "0x5"
      },
      "additionalContracts": [],
      "isFixedGasLimit": false
    },
    {
      "hash": null,
      "transactionType": "CALL",
      "contractName": "MockUSDC",
      "contractAddress": "0xCF6bc8d4d55B4BABA1E7783400F3Bf7FbD55CF5b",
      "function": "approve(address,uint256)",
      "arguments": [
        "0xb72cB3Cac841CeafCE22422179442Bd200C24417",
        "109643725289000000"
      ],
      "transaction": {
        "type": "0x00",
        "from": "0x9641b432d9a0281eac3ed71713736c8c7628006e",
        "to": "0xcf6bc8d4d55b4baba1e7783400f3bf7fbd55cf5b",
        "gas": "0x106b7",
        "value": "0x0",
        "data": "0x095ea7b3000000000000000000000000b72cb3cac841ceafce22422179442bd200c244170000000000000000000000000000000000000000000000000185886321b38c40",
        "nonce": "0x6"
      },
      "additionalContracts": [],
      "isFixedGasLimit": false
    },
    {
      "hash": null,
      "transactionType": "CALL",
      "contractName": "FlappyQF",
      "contractAddress": "0xb72cB3Cac841CeafCE22422179442Bd200C24417",
      "function": "contributeToProject(uint256,uint256)",
      "arguments": [
        "7",
        "109643725289000000"
      ],
      "transaction": {
        "type": "0x00",
        "from": "0x9641b432d9a0281eac3ed71713736c8c7628006e",
        "to": "0xb72cb3cac841ceafce22422179442bd200c24417",
        "gas": "0x157e1",
        "value": "0x0",
        "data": "0xa309bd1600000000000000000000000000000000000000000000000000000000000000070000000000000000000000000000000000000000000000000185886321b38c40",
        "nonce": "0x7"
      },
      "additionalContracts": [],
      "isFixedGasLimit": false
    },
    {
      "hash": null,
      "transactionType": "CALL",
      "contractName": null,
      "contractAddress": "0x535414e62327AEac2c11fb3d9730CF51F5c681B5",
      "function": null,
      "arguments": null,
      "transaction": {
        "type": "0x00",
        "from": "0x598ca9ca53d5bb84fd56fe41c3f40ed15d731e18",
        "to": "0x535414e62327aeac2c11fb3d9730cf51f5c681b5",
        "gas": "0x714d",
        "value": "0x9184e72a000",
        "data": "0x",
        "nonce": "0x35"
      },
      "additionalContracts": [],
      "isFixedGasLimit": false
    },
    {
      "hash": null,
      "transactionType": "CALL",
      "contractName": "MockUSDC",
      "contractAddress": "0xCF6bc8d4d55B4BABA1E7783400F3Bf7FbD55CF5b",
      "function": "mint(address,uint256)",
      "arguments": [
        "0x535414e62327AEac2c11fb3d9730CF51F5c681B5",
        "1000000000000000000"
      ],
      "transaction": {
        "type": "0x00",
        "from": "0x598ca9ca53d5bb84fd56fe41c3f40ed15d731e18",
        "to": "0xcf6bc8d4d55b4baba1e7783400f3bf7fbd55cf5b",
        "gas": "0x11354",
        "value": "0x0",
        "data": "0x40c10f19000000000000000000000000535414e62327aeac2c11fb3d9730cf51f5c681b50000000000000000000000000000000000000000000000000de0b6b3a7640000",
        "nonce": "0x36"
      },
      "additionalContracts": [],
      "isFixedGasLimit": false
    },
    {
      "hash": null,
      "transactionType": "CALL",
      "contractName": "MockUSDC",
      "contractAddress": "0xCF6bc8d4d55B4BABA1E7783400F3Bf7FbD55CF5b",
      "function": "approve(address,uint256)",
      "arguments": [
        "0xb72cB3Cac841CeafCE22422179442Bd200C24417",
        "108544915557000000"
      ],
      "transaction": {
        "type": "0x00",
        "from": "0x535414e62327aeac2c11fb3d9730cf51f5c681b5",
        "to": "0xcf6bc8d4d55b4baba1e7783400f3bf7fbd55cf5b",
        "gas": "0x106b7",
        "value": "0x0",
        "data": "0x095ea7b3000000000000000000000000b72cb3cac841ceafce22422179442bd200c244170000000000000000000000000000000000000000000000000181a1068df32340",
        "nonce": "0x0"
      },
      "additionalContracts": [],
      "isFixedGasLimit": false
    },
    {
      "hash": null,
      "transactionType": "CALL",
      "contractName": "FlappyQF",
      "contractAddress": "0xb72cB3Cac841CeafCE22422179442Bd200C24417",
      "function": "contributeToProject(uint256,uint256)",
      "arguments": [
        "5",
        "108544915557000000"
      ],
      "transaction": {
        "type": "0x00",
        "from": "0x535414e62327aeac2c11fb3d9730cf51f5c681b5",
        "to": "0xb72cb3cac841ceafce22422179442bd200c24417",
        "gas": "0x2c89d",
        "value": "0x0",
        "data": "0xa309bd1600000000000000000000000000000000000000000000000000000000000000050000000000000000000000000000000000000000000000000181a1068df32340",
        "nonce": "0x1"
      },
      "additionalContracts": [],
      "isFixedGasLimit": false
    },
    {
      "hash": null,
      "transactionType": "CALL",
      "contractName": "MockUSDC",
      "contractAddress": "0xCF6bc8d4d55B4BABA1E7783400F3Bf7FbD55CF5b",
      "function": "approve(address,uint256)",
      "arguments": [
        "0xb72cB3Cac841CeafCE22422179442Bd200C24417",
        "584897995458000000"
      ],
      "transaction": {
        "type": "0x00",
        "from": "0x535414e62327aeac2c11fb3d9730cf51f5c681b5",
        "to": "0xcf6bc8d4d55b4baba1e7783400f3bf7fbd55cf5b",
        "gas": "0x106b7",
        "value": "0x0",
        "data": "0x095ea7b3000000000000000000000000b72cb3cac841ceafce22422179442bd200c24417000000000000000000000000000000000000000000000000081df9a0c11cb480",
        "nonce": "0x2"
      },
      "additionalContracts": [],
      "isFixedGasLimit": false
    },
    {
      "hash": null,
      "transactionType": "CALL",
      "contractName": "FlappyQF",
      "contractAddress": "0xb72cB3Cac841CeafCE22422179442Bd200C24417",
      "function": "contributeToProject(uint256,uint256)",
      "arguments": [
        "5",
        "584897995458000000"
      ],
      "transaction": {
        "type": "0x00",
        "from": "0x535414e62327aeac2c11fb3d9730cf51f5c681b5",
        "to": "0xb72cb3cac841ceafce22422179442bd200c24417",
        "gas": "0x157e1",
        "value": "0x0",
        "data": "0xa309bd160000000000000000000000000000000000000000000000000000000000000005000000000000000000000000000000000000000000000000081df9a0c11cb480",
        "nonce": "0x3"
      },
      "additionalContracts": [],
      "isFixedGasLimit": false
    },
    {
      "hash": null,
      "transactionType": "CALL",
      "contractName": null,
      "contractAddress": "0xF93b9D6F09E941e0e056b9Cd59d69B5DB6095490",
      "function": null,
      "arguments": null,
      "transaction": {
        "type": "0x00",
        "from": "0x598ca9ca53d5bb84fd56fe41c3f40ed15d731e18",
        "to": "0xf93b9d6f09e941e0e056b9cd59d69b5db6095490",
        "gas": "0x714d",
        "value": "0x9184e72a000",
        "data": "0x",
        "nonce": "0x37"
      },
      "additionalContracts": [],
      "isFixedGasLimit": false
    },
    {
      "hash": null,
      "transactionType": "CALL",
      "contractName": "MockUSDC",
      "contractAddress": "0xCF6bc8d4d55B4BABA1E7783400F3Bf7FbD55CF5b",
      "function": "mint(address,uint256)",
      "arguments": [
        "0xF93b9D6F09E941e0e056b9Cd59d69B5DB6095490",
        "1000000000000000000"
      ],
      "transaction": {
        "type": "0x00",
        "from": "0x598ca9ca53d5bb84fd56fe41c3f40ed15d731e18",
        "to": "0xcf6bc8d4d55b4baba1e7783400f3bf7fbd55cf5b",
        "gas": "0x11354",
        "value": "0x0",
        "data": "0x40c10f19000000000000000000000000f93b9d6f09e941e0e056b9cd59d69b5db60954900000000000000000000000000000000000000000000000000de0b6b3a7640000",
        "nonce": "0x38"
      },
      "additionalContracts": [],
      "isFixedGasLimit": false
    },
    {
      "hash": null,
      "transactionType": "CALL",
      "contractName": "MockUSDC",
      "contractAddress": "0xCF6bc8d4d55B4BABA1E7783400F3Bf7FbD55CF5b",
      "function": "approve(address,uint256)",
      "arguments": [
        "0xb72cB3Cac841CeafCE22422179442Bd200C24417",
        "583247759248000000"
      ],
      "transaction": {
        "type": "0x00",
        "from": "0xf93b9d6f09e941e0e056b9cd59d69b5db6095490",
        "to": "0xcf6bc8d4d55b4baba1e7783400f3bf7fbd55cf5b",
        "gas": "0xf80e",
        "value": "0x0",
        "data": "0x095ea7b3000000000000000000000000b72cb3cac841ceafce22422179442bd200c2441700000000000000000000000000000000000000000000000008181cbf32050400",
        "nonce": "0x0"
      },
      "additionalContracts": [],
      "isFixedGasLimit": false
    },
    {
      "hash": null,
      "transactionType": "CALL",
      "contractName": "FlappyQF",
      "contractAddress": "0xb72cB3Cac841CeafCE22422179442Bd200C24417",
      "function": "contributeToProject(uint256,uint256)",
      "arguments": [
        "2",
        "583247759248000000"
      ],
      "transaction": {
        "type": "0x00",
        "from": "0xf93b9d6f09e941e0e056b9cd59d69b5db6095490",
        "to": "0xb72cb3cac841ceafce22422179442bd200c24417",
        "gas": "0x21006",
        "value": "0x0",
        "data": "0xa309bd16000000000000000000000000000000000000000000000000000000000000000200000000000000000000000000000000000000000000000008181cbf32050400",
        "nonce": "0x1"
      },
      "additionalContracts": [],
      "isFixedGasLimit": false
    },
    {
      "hash": null,
      "transactionType": "CALL",
      "contractName": "MockUSDC",
      "contractAddress": "0xCF6bc8d4d55B4BABA1E7783400F3Bf7FbD55CF5b",
      "function": "approve(address,uint256)",
      "arguments": [
        "0xb72cB3Cac841CeafCE22422179442Bd200C24417",
        "18282947774000000"
      ],
      "transaction": {
        "type": "0x00",
        "from": "0xf93b9d6f09e941e0e056b9cd59d69b5db6095490",
        "to": "0xcf6bc8d4d55b4baba1e7783400f3bf7fbd55cf5b",
        "gas": "0xf80e",
        "value": "0x0",
        "data": "0x095ea7b3000000000000000000000000b72cb3cac841ceafce22422179442bd200c244170000000000000000000000000000000000000000000000000040f43e7f842b80",
        "nonce": "0x2"
      },
      "additionalContracts": [],
      "isFixedGasLimit": false
    },
    {
      "hash": null,
      "transactionType": "CALL",
      "contractName": "FlappyQF",
      "contractAddress": "0xb72cB3Cac841CeafCE22422179442Bd200C24417",
      "function": "contributeToProject(uint256,uint256)",
      "arguments": [
        "2",
        "18282947774000000"
      ],
      "transaction": {
        "type": "0x00",
        "from": "0xf93b9d6f09e941e0e056b9cd59d69b5db6095490",
        "to": "0xb72cb3cac841ceafce22422179442bd200c24417",
        "gas": "0x144b5",
        "value": "0x0",
        "data": "0xa309bd1600000000000000000000000000000000000000000000000000000000000000020000000000000000000000000000000000000000000000000040f43e7f842b80",
        "nonce": "0x3"
      },
      "additionalContracts": [],
      "isFixedGasLimit": false
    },
    {
      "hash": null,
      "transactionType": "CALL",
      "contractName": "MockUSDC",
      "contractAddress": "0xCF6bc8d4d55B4BABA1E7783400F3Bf7FbD55CF5b",
      "function": "approve(address,uint256)",
      "arguments": [
        "0xb72cB3Cac841CeafCE22422179442Bd200C24417",
        "394284888460000000"
      ],
      "transaction": {
        "type": "0x00",
        "from": "0xf93b9d6f09e941e0e056b9cd59d69b5db6095490",
        "to": "0xcf6bc8d4d55b4baba1e7783400f3bf7fbd55cf5b",
        "gas": "0xf80e",
        "value": "0x0",
        "data": "0x095ea7b3000000000000000000000000b72cb3cac841ceafce22422179442bd200c244170000000000000000000000000000000000000000000000000578c8045cf67b00",
        "nonce": "0x4"
      },
      "additionalContracts": [],
      "isFixedGasLimit": false
    },
    {
      "hash": null,
      "transactionType": "CALL",
      "contractName": "FlappyQF",
      "contractAddress": "0xb72cB3Cac841CeafCE22422179442Bd200C24417",
      "function": "contributeToProject(uint256,uint256)",
      "arguments": [
        "2",
        "394284888460000000"
      ],
      "transaction": {
        "type": "0x00",
        "from": "0xf93b9d6f09e941e0e056b9cd59d69b5db6095490",
        "to": "0xb72cb3cac841ceafce22422179442bd200c24417",
        "gas": "0x144b5",
        "value": "0x0",
        "data": "0xa309bd1600000000000000000000000000000000000000000000000000000000000000020000000000000000000000000000000000000000000000000578c8045cf67b00",
        "nonce": "0x5"
      },
      "additionalContracts": [],
      "isFixedGasLimit": false
    },
    {
      "hash": null,
      "transactionType": "CALL",
      "contractName": null,
      "contractAddress": "0xc8B743f9Dac913B2A12FC845d86F999C131fe217",
      "function": null,
      "arguments": null,
      "transaction": {
        "type": "0x00",
        "from": "0x598ca9ca53d5bb84fd56fe41c3f40ed15d731e18",
        "to": "0xc8b743f9dac913b2a12fc845d86f999c131fe217",
        "gas": "0x714d",
        "value": "0x9184e72a000",
        "data": "0x",
        "nonce": "0x39"
      },
      "additionalContracts": [],
      "isFixedGasLimit": false
    },
    {
      "hash": null,
      "transactionType": "CALL",
      "contractName": "MockUSDC",
      "contractAddress": "0xCF6bc8d4d55B4BABA1E7783400F3Bf7FbD55CF5b",
      "function": "mint(address,uint256)",
      "arguments": [
        "0xc8B743f9Dac913B2A12FC845d86F999C131fe217",
        "1000000000000000000"
      ],
      "transaction": {
        "type": "0x00",
        "from": "0x598ca9ca53d5bb84fd56fe41c3f40ed15d731e18",
        "to": "0xcf6bc8d4d55b4baba1e7783400f3bf7fbd55cf5b",
        "gas": "0x11354",
        "value": "0x0",
        "data": "0x40c10f19000000000000000000000000c8b743f9dac913b2a12fc845d86f999c131fe2170000000000000000000000000000000000000000000000000de0b6b3a7640000",
        "nonce": "0x3a"
      },
      "additionalContracts": [],
      "isFixedGasLimit": false
    },
    {
      "hash": null,
      "transactionType": "CALL",
      "contractName": "MockUSDC",
      "contractAddress": "0xCF6bc8d4d55B4BABA1E7783400F3Bf7FbD55CF5b",
      "function": "approve(address,uint256)",
      "arguments": [
        "0xb72cB3Cac841CeafCE22422179442Bd200C24417",
        "649103221376000000"
      ],
      "transaction": {
        "type": "0x00",
        "from": "0xc8b743f9dac913b2a12fc845d86f999c131fe217",
        "to": "0xcf6bc8d4d55b4baba1e7783400f3bf7fbd55cf5b",
        "gas": "0xf80e",
        "value": "0x0",
        "data": "0x095ea7b3000000000000000000000000b72cb3cac841ceafce22422179442bd200c24417000000000000000000000000000000000000000000000000090213f0d4ada000",
        "nonce": "0x0"
      },
      "additionalContracts": [],
      "isFixedGasLimit": false
    },
    {
      "hash": null,
      "transactionType": "CALL",
      "contractName": "FlappyQF",
      "contractAddress": "0xb72cB3Cac841CeafCE22422179442Bd200C24417",
      "function": "contributeToProject(uint256,uint256)",
      "arguments": [
        "0",
        "649103221376000000"
      ],
      "transaction": {
        "type": "0x00",
        "from": "0xc8b743f9dac913b2a12fc845d86f999c131fe217",
        "to": "0xb72cb3cac841ceafce22422179442bd200c24417",
        "gas": "0x2c87c",
        "value": "0x0",
        "data": "0xa309bd160000000000000000000000000000000000000000000000000000000000000000000000000000000000000000000000000000000000000000090213f0d4ada000",
        "nonce": "0x1"
      },
      "additionalContracts": [],
      "isFixedGasLimit": false
    },
    {
      "hash": null,
      "transactionType": "CALL",
      "contractName": null,
      "contractAddress": "0x84E015D941864f2AEF39d7D26F8B1Cc236B3A148",
      "function": null,
      "arguments": null,
      "transaction": {
        "type": "0x00",
        "from": "0x598ca9ca53d5bb84fd56fe41c3f40ed15d731e18",
        "to": "0x84e015d941864f2aef39d7d26f8b1cc236b3a148",
        "gas": "0x714d",
        "value": "0x9184e72a000",
        "data": "0x",
        "nonce": "0x3b"
      },
      "additionalContracts": [],
      "isFixedGasLimit": false
    },
    {
      "hash": null,
      "transactionType": "CALL",
      "contractName": "MockUSDC",
      "contractAddress": "0xCF6bc8d4d55B4BABA1E7783400F3Bf7FbD55CF5b",
      "function": "mint(address,uint256)",
      "arguments": [
        "0x84E015D941864f2AEF39d7D26F8B1Cc236B3A148",
        "1000000000000000000"
      ],
      "transaction": {
        "type": "0x00",
        "from": "0x598ca9ca53d5bb84fd56fe41c3f40ed15d731e18",
        "to": "0xcf6bc8d4d55b4baba1e7783400f3bf7fbd55cf5b",
        "gas": "0x11354",
        "value": "0x0",
        "data": "0x40c10f1900000000000000000000000084e015d941864f2aef39d7d26f8b1cc236b3a1480000000000000000000000000000000000000000000000000de0b6b3a7640000",
        "nonce": "0x3c"
      },
      "additionalContracts": [],
      "isFixedGasLimit": false
    },
    {
      "hash": null,
      "transactionType": "CALL",
      "contractName": "MockUSDC",
      "contractAddress": "0xCF6bc8d4d55B4BABA1E7783400F3Bf7FbD55CF5b",
      "function": "approve(address,uint256)",
      "arguments": [
        "0xb72cB3Cac841CeafCE22422179442Bd200C24417",
        "274320698139000000"
      ],
      "transaction": {
        "type": "0x00",
        "from": "0x84e015d941864f2aef39d7d26f8b1cc236b3a148",
        "to": "0xcf6bc8d4d55b4baba1e7783400f3bf7fbd55cf5b",
        "gas": "0x106b7",
        "value": "0x0",
        "data": "0x095ea7b3000000000000000000000000b72cb3cac841ceafce22422179442bd200c2441700000000000000000000000000000000000000000000000003ce9538b71cbcc0",
        "nonce": "0x0"
      },
      "additionalContracts": [],
      "isFixedGasLimit": false
    },
    {
      "hash": null,
      "transactionType": "CALL",
      "contractName": "FlappyQF",
      "contractAddress": "0xb72cB3Cac841CeafCE22422179442Bd200C24417",
      "function": "contributeToProject(uint256,uint256)",
      "arguments": [
        "7",
        "274320698139000000"
      ],
      "transaction": {
        "type": "0x00",
        "from": "0x84e015d941864f2aef39d7d26f8b1cc236b3a148",
        "to": "0xb72cb3cac841ceafce22422179442bd200c24417",
        "gas": "0x21016",
        "value": "0x0",
        "data": "0xa309bd16000000000000000000000000000000000000000000000000000000000000000700000000000000000000000000000000000000000000000003ce9538b71cbcc0",
        "nonce": "0x1"
      },
      "additionalContracts": [],
      "isFixedGasLimit": false
    },
    {
      "hash": null,
      "transactionType": "CALL",
      "contractName": "MockUSDC",
      "contractAddress": "0xCF6bc8d4d55B4BABA1E7783400F3Bf7FbD55CF5b",
      "function": "approve(address,uint256)",
      "arguments": [
        "0xb72cB3Cac841CeafCE22422179442Bd200C24417",
        "167993463582000000"
      ],
      "transaction": {
        "type": "0x00",
        "from": "0x84e015d941864f2aef39d7d26f8b1cc236b3a148",
        "to": "0xcf6bc8d4d55b4baba1e7783400f3bf7fbd55cf5b",
        "gas": "0x106b7",
        "value": "0x0",
        "data": "0x095ea7b3000000000000000000000000b72cb3cac841ceafce22422179442bd200c244170000000000000000000000000000000000000000000000000254d52a41648380",
        "nonce": "0x2"
      },
      "additionalContracts": [],
      "isFixedGasLimit": false
    },
    {
      "hash": null,
      "transactionType": "CALL",
      "contractName": "FlappyQF",
      "contractAddress": "0xb72cB3Cac841CeafCE22422179442Bd200C24417",
      "function": "contributeToProject(uint256,uint256)",
      "arguments": [
        "7",
        "167993463582000000"
      ],
      "transaction": {
        "type": "0x00",
        "from": "0x84e015d941864f2aef39d7d26f8b1cc236b3a148",
        "to": "0xb72cb3cac841ceafce22422179442bd200c24417",
        "gas": "0x157e1",
        "value": "0x0",
        "data": "0xa309bd1600000000000000000000000000000000000000000000000000000000000000070000000000000000000000000000000000000000000000000254d52a41648380",
        "nonce": "0x3"
      },
      "additionalContracts": [],
      "isFixedGasLimit": false
    },
    {
      "hash": null,
      "transactionType": "CALL",
      "contractName": "MockUSDC",
      "contractAddress": "0xCF6bc8d4d55B4BABA1E7783400F3Bf7FbD55CF5b",
      "function": "approve(address,uint256)",
      "arguments": [
        "0xb72cB3Cac841CeafCE22422179442Bd200C24417",
        "173195590050000000"
      ],
      "transaction": {
        "type": "0x00",
        "from": "0x84e015d941864f2aef39d7d26f8b1cc236b3a148",
        "to": "0xcf6bc8d4d55b4baba1e7783400f3bf7fbd55cf5b",
        "gas": "0x106b7",
        "value": "0x0",
        "data": "0x095ea7b3000000000000000000000000b72cb3cac841ceafce22422179442bd200c2441700000000000000000000000000000000000000000000000002675078b5982c80",
        "nonce": "0x4"
      },
      "additionalContracts": [],
      "isFixedGasLimit": false
    },
    {
      "hash": null,
      "transactionType": "CALL",
      "contractName": "FlappyQF",
      "contractAddress": "0xb72cB3Cac841CeafCE22422179442Bd200C24417",
      "function": "contributeToProject(uint256,uint256)",
      "arguments": [
        "7",
        "173195590050000000"
      ],
      "transaction": {
        "type": "0x00",
        "from": "0x84e015d941864f2aef39d7d26f8b1cc236b3a148",
        "to": "0xb72cb3cac841ceafce22422179442bd200c24417",
        "gas": "0x157e1",
        "value": "0x0",
        "data": "0xa309bd16000000000000000000000000000000000000000000000000000000000000000700000000000000000000000000000000000000000000000002675078b5982c80",
        "nonce": "0x5"
      },
      "additionalContracts": [],
      "isFixedGasLimit": false
    },
    {
      "hash": null,
      "transactionType": "CALL",
      "contractName": "MockUSDC",
      "contractAddress": "0xCF6bc8d4d55B4BABA1E7783400F3Bf7FbD55CF5b",
      "function": "approve(address,uint256)",
      "arguments": [
        "0xb72cB3Cac841CeafCE22422179442Bd200C24417",
        "325869413373000000"
      ],
      "transaction": {
        "type": "0x00",
        "from": "0x84e015d941864f2aef39d7d26f8b1cc236b3a148",
        "to": "0xcf6bc8d4d55b4baba1e7783400f3bf7fbd55cf5b",
        "gas": "0x106b7",
        "value": "0x0",
        "data": "0x095ea7b3000000000000000000000000b72cb3cac841ceafce22422179442bd200c244170000000000000000000000000000000000000000000000000485b88143433940",
        "nonce": "0x6"
      },
      "additionalContracts": [],
      "isFixedGasLimit": false
    },
    {
      "hash": null,
      "transactionType": "CALL",
      "contractName": "FlappyQF",
      "contractAddress": "0xb72cB3Cac841CeafCE22422179442Bd200C24417",
      "function": "contributeToProject(uint256,uint256)",
      "arguments": [
        "7",
        "325869413373000000"
      ],
      "transaction": {
        "type": "0x00",
        "from": "0x84e015d941864f2aef39d7d26f8b1cc236b3a148",
        "to": "0xb72cb3cac841ceafce22422179442bd200c24417",
        "gas": "0x157e1",
        "value": "0x0",
        "data": "0xa309bd1600000000000000000000000000000000000000000000000000000000000000070000000000000000000000000000000000000000000000000485b88143433940",
        "nonce": "0x7"
      },
      "additionalContracts": [],
      "isFixedGasLimit": false
    },
    {
      "hash": null,
      "transactionType": "CALL",
      "contractName": null,
      "contractAddress": "0xd1c690bc15eA06aE31857190751374F8f28eFBEa",
      "function": null,
      "arguments": null,
      "transaction": {
        "type": "0x00",
        "from": "0x598ca9ca53d5bb84fd56fe41c3f40ed15d731e18",
        "to": "0xd1c690bc15ea06ae31857190751374f8f28efbea",
        "gas": "0x714d",
        "value": "0x9184e72a000",
        "data": "0x",
        "nonce": "0x3d"
      },
      "additionalContracts": [],
      "isFixedGasLimit": false
    },
    {
      "hash": null,
      "transactionType": "CALL",
      "contractName": "MockUSDC",
      "contractAddress": "0xCF6bc8d4d55B4BABA1E7783400F3Bf7FbD55CF5b",
      "function": "mint(address,uint256)",
      "arguments": [
        "0xd1c690bc15eA06aE31857190751374F8f28eFBEa",
        "1000000000000000000"
      ],
      "transaction": {
        "type": "0x00",
        "from": "0x598ca9ca53d5bb84fd56fe41c3f40ed15d731e18",
        "to": "0xcf6bc8d4d55b4baba1e7783400f3bf7fbd55cf5b",
        "gas": "0x11354",
        "value": "0x0",
        "data": "0x40c10f19000000000000000000000000d1c690bc15ea06ae31857190751374f8f28efbea0000000000000000000000000000000000000000000000000de0b6b3a7640000",
        "nonce": "0x3e"
      },
      "additionalContracts": [],
      "isFixedGasLimit": false
    },
    {
      "hash": null,
      "transactionType": "CALL",
      "contractName": "MockUSDC",
      "contractAddress": "0xCF6bc8d4d55B4BABA1E7783400F3Bf7FbD55CF5b",
      "function": "approve(address,uint256)",
      "arguments": [
        "0xb72cB3Cac841CeafCE22422179442Bd200C24417",
        "743115121517000000"
      ],
      "transaction": {
        "type": "0x00",
        "from": "0xd1c690bc15ea06ae31857190751374f8f28efbea",
        "to": "0xcf6bc8d4d55b4baba1e7783400f3bf7fbd55cf5b",
        "gas": "0x106b7",
        "value": "0x0",
        "data": "0x095ea7b3000000000000000000000000b72cb3cac841ceafce22422179442bd200c244170000000000000000000000000000000000000000000000000a5013440d3df540",
        "nonce": "0x0"
      },
      "additionalContracts": [],
      "isFixedGasLimit": false
    },
    {
      "hash": null,
      "transactionType": "CALL",
      "contractName": "FlappyQF",
      "contractAddress": "0xb72cB3Cac841CeafCE22422179442Bd200C24417",
      "function": "contributeToProject(uint256,uint256)",
      "arguments": [
        "5",
        "743115121517000000"
      ],
      "transaction": {
        "type": "0x00",
        "from": "0xd1c690bc15ea06ae31857190751374f8f28efbea",
        "to": "0xb72cb3cac841ceafce22422179442bd200c24417",
        "gas": "0x21016",
        "value": "0x0",
        "data": "0xa309bd1600000000000000000000000000000000000000000000000000000000000000050000000000000000000000000000000000000000000000000a5013440d3df540",
        "nonce": "0x1"
      },
      "additionalContracts": [],
      "isFixedGasLimit": false
    },
    {
      "hash": null,
      "transactionType": "CALL",
      "contractName": "MockUSDC",
      "contractAddress": "0xCF6bc8d4d55B4BABA1E7783400F3Bf7FbD55CF5b",
      "function": "approve(address,uint256)",
      "arguments": [
        "0xb72cB3Cac841CeafCE22422179442Bd200C24417",
        "206832871176000000"
      ],
      "transaction": {
        "type": "0x00",
        "from": "0xd1c690bc15ea06ae31857190751374f8f28efbea",
        "to": "0xcf6bc8d4d55b4baba1e7783400f3bf7fbd55cf5b",
        "gas": "0xf80e",
        "value": "0x0",
        "data": "0x095ea7b3000000000000000000000000b72cb3cac841ceafce22422179442bd200c2441700000000000000000000000000000000000000000000000002ded1668651d200",
        "nonce": "0x2"
      },
      "additionalContracts": [],
      "isFixedGasLimit": false
    },
    {
      "hash": null,
      "transactionType": "CALL",
      "contractName": "FlappyQF",
      "contractAddress": "0xb72cB3Cac841CeafCE22422179442Bd200C24417",
      "function": "contributeToProject(uint256,uint256)",
      "arguments": [
        "5",
        "206832871176000000"
      ],
      "transaction": {
        "type": "0x00",
        "from": "0xd1c690bc15ea06ae31857190751374f8f28efbea",
        "to": "0xb72cb3cac841ceafce22422179442bd200c24417",
        "gas": "0x144b5",
        "value": "0x0",
        "data": "0xa309bd16000000000000000000000000000000000000000000000000000000000000000500000000000000000000000000000000000000000000000002ded1668651d200",
        "nonce": "0x3"
      },
      "additionalContracts": [],
      "isFixedGasLimit": false
    }
  ],
  "receipts": [
    {
      "transactionHash": "0xbb46e96d075e23a636f401f4569c06e51dcf7007ae9179f07c2758e1cf2b2309",
      "transactionIndex": "0x0",
      "blockHash": "0xfa861f5876a8baca08d224e6b0c59b52d20070f5361d563622760fbb0f72de5b",
      "blockNumber": "0x6027a8",
      "from": "0x598CA9Ca53D5bB84Fd56fE41C3f40Ed15D731e18",
      "to": "0xDD9b094704aB530d395969b00F0904e30fb8EE8F",
      "cumulativeGasUsed": "0x5208",
      "gasUsed": "0x5208",
      "contractAddress": null,
      "logs": [],
      "status": "0x1",
      "logsBloom": "0x00000000000000000000000000000000000000000000000000000000000000000000000000000000000000000000000000000000000000000000000000000000000000000000000000000000000000000000000000000000000000000000000000000000000000000000000000000000000000000000000000000000000000000000000000000000000000000000000000000000000000000000000000000000000000000000000000000000000000000000000000000000000000000000000000000000000000000000000000000000000000000000000000000000000000000000000000000000000000000000000000000000000000000000000000000000",
      "type": "0x0",
      "effectiveGasPrice": "0xb3bc7af"
    },
    {
      "transactionHash": "0x670aebfe5e7f1bbeee864c947b7c6492721b21671b3700cf0c486be6f96fd093",
      "transactionIndex": "0x0",
      "blockHash": "0xda60040873bdb5baf4f74929a43d6090ff250d15d288f227d6d459a030e1ab91",
      "blockNumber": "0x6027ab",
      "from": "0x598CA9Ca53D5bB84Fd56fE41C3f40Ed15D731e18",
      "to": "0xCF6bc8d4d55B4BABA1E7783400F3Bf7FbD55CF5b",
      "cumulativeGasUsed": "0x848a",
      "gasUsed": "0x848a",
      "contractAddress": null,
      "logs": [
        {
          "address": "0xCF6bc8d4d55B4BABA1E7783400F3Bf7FbD55CF5b",
          "topics": [
            "0xddf252ad1be2c89b69c2b068fc378daa952ba7f163c4a11628f55a4df523b3ef",
            "0x0000000000000000000000000000000000000000000000000000000000000000",
            "0x000000000000000000000000dd9b094704ab530d395969b00f0904e30fb8ee8f"
          ],
          "data": "0x0000000000000000000000000000000000000000000000000de0b6b3a7640000",
          "blockHash": "0xda60040873bdb5baf4f74929a43d6090ff250d15d288f227d6d459a030e1ab91",
          "blockNumber": "0x6027ab",
          "transactionHash": "0x670aebfe5e7f1bbeee864c947b7c6492721b21671b3700cf0c486be6f96fd093",
          "transactionIndex": "0x0",
          "logIndex": "0x0",
          "removed": false
        }
      ],
      "status": "0x1",
      "logsBloom": "0x00000000000000000000000000000000000000000000400000000000000000000000000000000000000000000000000000000000000000000000000000000000000000000000000000000008000000000000000000000000000000000000000001000000020000000000000000000800000000000000000000020010000000000000000000000000000000000000000000000100000000000000000000000000000000000000000000000000000000010000000000000000000000000000000000040002000000000000000000000000000000000000000000000000000020000000000000000000000000000000000000000000000000000000000000000000",
      "type": "0x0",
      "effectiveGasPrice": "0xb3bc7af"
    },
    {
      "transactionHash": "0x85adba4289914a86399a1b4215bc9d9373f5e7a58b8ab949b386cc8eca4fd434",
      "transactionIndex": "0x0",
      "blockHash": "0x12059c3e97df528c6bd35995239aca7c138ee8b38558da8858126260c8887ce9",
      "blockNumber": "0x6027ac",
      "from": "0xDD9b094704aB530d395969b00F0904e30fb8EE8F",
      "to": "0xCF6bc8d4d55B4BABA1E7783400F3Bf7FbD55CF5b",
      "cumulativeGasUsed": "0xb3a3",
      "gasUsed": "0xb3a3",
      "contractAddress": null,
      "logs": [
        {
          "address": "0xCF6bc8d4d55B4BABA1E7783400F3Bf7FbD55CF5b",
          "topics": [
            "0x8c5be1e5ebec7d5bd14f71427d1e84f3dd0314c0f7b2291e5b200ac8c7c3b925",
            "0x000000000000000000000000dd9b094704ab530d395969b00f0904e30fb8ee8f",
            "0x000000000000000000000000b72cb3cac841ceafce22422179442bd200c24417"
          ],
          "data": "0x0000000000000000000000000000000000000000000000000767fe2ee2c1de40",
          "blockHash": "0x12059c3e97df528c6bd35995239aca7c138ee8b38558da8858126260c8887ce9",
          "blockNumber": "0x6027ac",
          "transactionHash": "0x85adba4289914a86399a1b4215bc9d9373f5e7a58b8ab949b386cc8eca4fd434",
          "transactionIndex": "0x0",
          "logIndex": "0x0",
          "removed": false
        }
      ],
      "status": "0x1",
      "logsBloom": "0x00000000000000000000000000000000400000000000400000000000000000000000000000000000000000000000000000000000000000000000000000200000000000000000000000000000000000000000000000000000000000000000000001000000000000000000000000000000000000000000000000020000000800000000000000000000000000000000000000000100000000000000000000000000020000000000000000000000000000010000000000000000000000000000000000040000000000000000000000000000000000000000000000000000000000000010000000000000000000000000000000000000000000040000000000000000",
      "type": "0x0",
      "effectiveGasPrice": "0xb3bc7af"
    }
  ],
  "libraries": [],
  "pending": [],
  "returns": {},
  "timestamp": 1724536274,
  "chain": 534351,
  "commit": "252cc80"
}