{
  "transactions": [
    {
      "hash": "0xbd880ad046cad2895a22f80172646db1cc3c1ab43ef31beeae003f14b98aff09",
      "transactionType": "CALL",
      "contractName": null,
      "contractAddress": "0xDD9b094704aB530d395969b00F0904e30fb8EE8F",
      "function": null,
      "arguments": null,
      "transaction": {
        "type": "0x00",
        "from": "0x598ca9ca53d5bb84fd56fe41c3f40ed15d731e18",
        "to": "0xdd9b094704ab530d395969b00f0904e30fb8ee8f",
        "gas": "0x714d",
        "value": "0x5af3107a4000",
        "data": "0x",
        "nonce": "0x31"
      },
      "additionalContracts": [],
      "isFixedGasLimit": false
    },
    {
      "hash": "0xd1b8bd070d79e6ecea441c6d9068a739bc195a3740e214c9cfa20ff8d2433fec",
      "transactionType": "CALL",
      "contractName": "MockUSDC",
      "contractAddress": "0xCF6bc8d4d55B4BABA1E7783400F3Bf7FbD55CF5b",
      "function": "mint(address,uint256)",
      "arguments": [
        "0xDD9b094704aB530d395969b00F0904e30fb8EE8F",
        "1000000000000000000"
      ],
      "transaction": {
        "type": "0x00",
        "from": "0x598ca9ca53d5bb84fd56fe41c3f40ed15d731e18",
        "to": "0xcf6bc8d4d55b4baba1e7783400f3bf7fbd55cf5b",
        "gas": "0xc1d6",
        "value": "0x0",
        "data": "0x40c10f19000000000000000000000000dd9b094704ab530d395969b00f0904e30fb8ee8f0000000000000000000000000000000000000000000000000de0b6b3a7640000",
        "nonce": "0x32"
      },
      "additionalContracts": [],
      "isFixedGasLimit": false
    },
    {
      "hash": "0xef51c96fd8e38725a698f6520efac4d7f6df12504c657a56be8412e23515fd6f",
      "transactionType": "CALL",
      "contractName": "MockUSDC",
      "contractAddress": "0xCF6bc8d4d55B4BABA1E7783400F3Bf7FbD55CF5b",
      "function": "approve(address,uint256)",
      "arguments": [
        "0xb72cB3Cac841CeafCE22422179442Bd200C24417",
        "524118980278000000"
      ],
      "transaction": {
        "type": "0x00",
        "from": "0xdd9b094704ab530d395969b00f0904e30fb8ee8f",
        "to": "0xcf6bc8d4d55b4baba1e7783400f3bf7fbd55cf5b",
        "gas": "0x9bdb",
        "value": "0x0",
        "data": "0x095ea7b3000000000000000000000000b72cb3cac841ceafce22422179442bd200c2441700000000000000000000000000000000000000000000000007460b6f87829980",
        "nonce": "0x1"
      },
      "additionalContracts": [],
      "isFixedGasLimit": false
    },
    {
      "hash": "0xfdb4f14203b434a66e0eb44f94c821e5682520effce25ffb6df6eb9f5e046d13",
      "transactionType": "CALL",
      "contractName": "FlappyQF",
      "contractAddress": "0xb72cB3Cac841CeafCE22422179442Bd200C24417",
      "function": "contributeToProject(uint256,uint256)",
      "arguments": [
        "2",
        "524118980278000000"
      ],
      "transaction": {
        "type": "0x00",
        "from": "0xdd9b094704ab530d395969b00f0904e30fb8ee8f",
        "to": "0xb72cb3cac841ceafce22422179442bd200c24417",
        "gas": "0x2c89d",
        "value": "0x0",
        "data": "0xa309bd16000000000000000000000000000000000000000000000000000000000000000200000000000000000000000000000000000000000000000007460b6f87829980",
        "nonce": "0x2"
      },
      "additionalContracts": [],
      "isFixedGasLimit": false
    },
    {
      "hash": "0x72efdc3dc4bef13bc261aaf1341423f0a61ae24cb43ab96f09f3c00ff43ea2c3",
      "transactionType": "CALL",
      "contractName": "MockUSDC",
      "contractAddress": "0xCF6bc8d4d55B4BABA1E7783400F3Bf7FbD55CF5b",
      "function": "approve(address,uint256)",
      "arguments": [
        "0xb72cB3Cac841CeafCE22422179442Bd200C24417",
        "43631594844000000"
      ],
      "transaction": {
        "type": "0x00",
        "from": "0xdd9b094704ab530d395969b00f0904e30fb8ee8f",
        "to": "0xcf6bc8d4d55b4baba1e7783400f3bf7fbd55cf5b",
        "gas": "0x10694",
        "value": "0x0",
        "data": "0x095ea7b3000000000000000000000000b72cb3cac841ceafce22422179442bd200c24417000000000000000000000000000000000000000000000000009b02b44fa90f00",
        "nonce": "0x3"
      },
      "additionalContracts": [],
      "isFixedGasLimit": false
    },
    {
      "hash": "0x0b13642e15fef2bda5c48c91235d1aada41c48657cb85c44f9fb26ad170f49fe",
      "transactionType": "CALL",
      "contractName": "FlappyQF",
      "contractAddress": "0xb72cB3Cac841CeafCE22422179442Bd200C24417",
      "function": "contributeToProject(uint256,uint256)",
      "arguments": [
        "2",
        "43631594844000000"
      ],
      "transaction": {
        "type": "0x00",
        "from": "0xdd9b094704ab530d395969b00f0904e30fb8ee8f",
        "to": "0xb72cb3cac841ceafce22422179442bd200c24417",
        "gas": "0x157be",
        "value": "0x0",
        "data": "0xa309bd160000000000000000000000000000000000000000000000000000000000000002000000000000000000000000000000000000000000000000009b02b44fa90f00",
        "nonce": "0x4"
      },
      "additionalContracts": [],
      "isFixedGasLimit": false
    },
    {
      "hash": "0x1f4cb960eabe0d53cbc1770a5bc6ebf5e420bbf2394b5b53c0861365930c186d",
      "transactionType": "CALL",
      "contractName": "MockUSDC",
      "contractAddress": "0xCF6bc8d4d55B4BABA1E7783400F3Bf7FbD55CF5b",
      "function": "approve(address,uint256)",
      "arguments": [
        "0xb72cB3Cac841CeafCE22422179442Bd200C24417",
        "243129375308000000"
      ],
      "transaction": {
        "type": "0x00",
        "from": "0xdd9b094704ab530d395969b00f0904e30fb8ee8f",
        "to": "0xcf6bc8d4d55b4baba1e7783400f3bf7fbd55cf5b",
        "gas": "0xf80e",
        "value": "0x0",
        "data": "0x095ea7b3000000000000000000000000b72cb3cac841ceafce22422179442bd200c24417000000000000000000000000000000000000000000000000035fc4e0f1b22b00",
        "nonce": "0x5"
      },
      "additionalContracts": [],
      "isFixedGasLimit": false
    },
    {
      "hash": "0xf042d0780298fa5b509e2001472c16af8e5fe8fdf527a4852f581a6ae2b78898",
      "transactionType": "CALL",
      "contractName": "FlappyQF",
      "contractAddress": "0xb72cB3Cac841CeafCE22422179442Bd200C24417",
      "function": "contributeToProject(uint256,uint256)",
      "arguments": [
        "2",
        "243129375308000000"
      ],
      "transaction": {
        "type": "0x00",
        "from": "0xdd9b094704ab530d395969b00f0904e30fb8ee8f",
        "to": "0xb72cb3cac841ceafce22422179442bd200c24417",
        "gas": "0x144b5",
        "value": "0x0",
        "data": "0xa309bd160000000000000000000000000000000000000000000000000000000000000002000000000000000000000000000000000000000000000000035fc4e0f1b22b00",
        "nonce": "0x6"
      },
      "additionalContracts": [],
      "isFixedGasLimit": false
    },
    {
      "hash": "0x682fe0891b5848c76b1627ec7f374958d5b036524aecc15c2ac2cf61282b434a",
      "transactionType": "CALL",
      "contractName": null,
      "contractAddress": "0x6Ae8F65D402fcC295EB5D85c703A03Aa85547092",
      "function": null,
      "arguments": null,
      "transaction": {
        "type": "0x00",
        "from": "0x598ca9ca53d5bb84fd56fe41c3f40ed15d731e18",
        "to": "0x6ae8f65d402fcc295eb5d85c703a03aa85547092",
        "gas": "0x714d",
        "value": "0x5af3107a4000",
        "data": "0x",
        "nonce": "0x33"
      },
      "additionalContracts": [],
      "isFixedGasLimit": false
    },
    {
      "hash": "0xeb3e1343471161503854ca6b8ae6d8393882cd22b474a3708a6236bfe3af7402",
      "transactionType": "CALL",
      "contractName": "MockUSDC",
      "contractAddress": "0xCF6bc8d4d55B4BABA1E7783400F3Bf7FbD55CF5b",
      "function": "mint(address,uint256)",
      "arguments": [
        "0x6Ae8F65D402fcC295EB5D85c703A03Aa85547092",
        "1000000000000000000"
      ],
      "transaction": {
        "type": "0x00",
        "from": "0x598ca9ca53d5bb84fd56fe41c3f40ed15d731e18",
        "to": "0xcf6bc8d4d55b4baba1e7783400f3bf7fbd55cf5b",
        "gas": "0x11354",
        "value": "0x0",
        "data": "0x40c10f190000000000000000000000006ae8f65d402fcc295eb5d85c703a03aa855470920000000000000000000000000000000000000000000000000de0b6b3a7640000",
        "nonce": "0x34"
      },
      "additionalContracts": [],
      "isFixedGasLimit": false
    },
    {
      "hash": "0x3d3c97180a5125602949d8802cc46ee018d8a646df4f76860f39a557024ac1ee",
      "transactionType": "CALL",
      "contractName": "MockUSDC",
      "contractAddress": "0xCF6bc8d4d55B4BABA1E7783400F3Bf7FbD55CF5b",
      "function": "approve(address,uint256)",
      "arguments": [
        "0xb72cB3Cac841CeafCE22422179442Bd200C24417",
        "526885011612000000"
      ],
      "transaction": {
        "type": "0x00",
        "from": "0x6ae8f65d402fcc295eb5d85c703a03aa85547092",
        "to": "0xcf6bc8d4d55b4baba1e7783400f3bf7fbd55cf5b",
        "gas": "0xf80e",
        "value": "0x0",
        "data": "0x095ea7b3000000000000000000000000b72cb3cac841ceafce22422179442bd200c24417000000000000000000000000000000000000000000000000074fdf20629c5f00",
        "nonce": "0x0"
      },
      "additionalContracts": [],
      "isFixedGasLimit": false
    },
    {
      "hash": "0xfc70a141c885d7634400e8f99b4733da89813190cf470c5b0f83b3ab8a195738",
      "transactionType": "CALL",
      "contractName": "FlappyQF",
      "contractAddress": "0xb72cB3Cac841CeafCE22422179442Bd200C24417",
      "function": "contributeToProject(uint256,uint256)",
      "arguments": [
        "0",
        "526885011612000000"
      ],
      "transaction": {
        "type": "0x00",
        "from": "0x6ae8f65d402fcc295eb5d85c703a03aa85547092",
        "to": "0xb72cb3cac841ceafce22422179442bd200c24417",
        "gas": "0x2c87c",
        "value": "0x0",
        "data": "0xa309bd160000000000000000000000000000000000000000000000000000000000000000000000000000000000000000000000000000000000000000074fdf20629c5f00",
        "nonce": "0x1"
      },
      "additionalContracts": [],
      "isFixedGasLimit": false
    },
    {
      "hash": "0xb1edf8410ba37d9c6608cb665e6fc531bd2fe307113a2dcb7ddf896b32eb0b80",
      "transactionType": "CALL",
      "contractName": null,
      "contractAddress": "0x9641B432D9A0281eaC3ed71713736C8c7628006E",
      "function": null,
      "arguments": null,
      "transaction": {
        "type": "0x00",
        "from": "0x598ca9ca53d5bb84fd56fe41c3f40ed15d731e18",
        "to": "0x9641b432d9a0281eac3ed71713736c8c7628006e",
        "gas": "0x714d",
        "value": "0x5af3107a4000",
        "data": "0x",
        "nonce": "0x35"
      },
      "additionalContracts": [],
      "isFixedGasLimit": false
    },
    {
      "hash": "0xa9e850cc33bba9ed139393a22da708012a9a8d93a6a3da0b6e9e2de3764449dc",
      "transactionType": "CALL",
      "contractName": "MockUSDC",
      "contractAddress": "0xCF6bc8d4d55B4BABA1E7783400F3Bf7FbD55CF5b",
      "function": "mint(address,uint256)",
      "arguments": [
        "0x9641B432D9A0281eaC3ed71713736C8c7628006E",
        "1000000000000000000"
      ],
      "transaction": {
        "type": "0x00",
        "from": "0x598ca9ca53d5bb84fd56fe41c3f40ed15d731e18",
        "to": "0xcf6bc8d4d55b4baba1e7783400f3bf7fbd55cf5b",
        "gas": "0x12375",
        "value": "0x0",
        "data": "0x40c10f190000000000000000000000009641b432d9a0281eac3ed71713736c8c7628006e0000000000000000000000000000000000000000000000000de0b6b3a7640000",
        "nonce": "0x36"
      },
      "additionalContracts": [],
      "isFixedGasLimit": false
    },
    {
      "hash": "0xc27d13a89bb9a4eb4902d81e67a3fe84522438c705e86fb386e571fd1aa42fcd",
      "transactionType": "CALL",
      "contractName": "MockUSDC",
      "contractAddress": "0xCF6bc8d4d55B4BABA1E7783400F3Bf7FbD55CF5b",
      "function": "approve(address,uint256)",
      "arguments": [
        "0xb72cB3Cac841CeafCE22422179442Bd200C24417",
        "428143357921000000"
      ],
      "transaction": {
        "type": "0x00",
        "from": "0x9641b432d9a0281eac3ed71713736c8c7628006e",
        "to": "0xcf6bc8d4d55b4baba1e7783400f3bf7fbd55cf5b",
        "gas": "0x106b7",
        "value": "0x0",
        "data": "0x095ea7b3000000000000000000000000b72cb3cac841ceafce22422179442bd200c2441700000000000000000000000000000000000000000000000005f1121d99d2fa40",
        "nonce": "0x0"
      },
      "additionalContracts": [],
      "isFixedGasLimit": false
    },
    {
      "hash": "0x7a2697cdb177a9d2b77ea4469473e39c7ef288084bde875b1b5b5cd2c38ed850",
      "transactionType": "CALL",
      "contractName": "FlappyQF",
      "contractAddress": "0xb72cB3Cac841CeafCE22422179442Bd200C24417",
      "function": "contributeToProject(uint256,uint256)",
      "arguments": [
        "7",
        "428143357921000000"
      ],
      "transaction": {
        "type": "0x00",
        "from": "0x9641b432d9a0281eac3ed71713736c8c7628006e",
        "to": "0xb72cb3cac841ceafce22422179442bd200c24417",
        "gas": "0x2c89d",
        "value": "0x0",
        "data": "0xa309bd16000000000000000000000000000000000000000000000000000000000000000700000000000000000000000000000000000000000000000005f1121d99d2fa40",
        "nonce": "0x1"
      },
      "additionalContracts": [],
      "isFixedGasLimit": false
    },
    {
      "hash": "0x5ec1662d19bbee454195f69a760bdf1473b006c9147f349d8da12a4ea3dc9df7",
      "transactionType": "CALL",
      "contractName": "MockUSDC",
      "contractAddress": "0xCF6bc8d4d55B4BABA1E7783400F3Bf7FbD55CF5b",
      "function": "approve(address,uint256)",
      "arguments": [
        "0xb72cB3Cac841CeafCE22422179442Bd200C24417",
        "561905500203000000"
      ],
      "transaction": {
        "type": "0x00",
        "from": "0x9641b432d9a0281eac3ed71713736c8c7628006e",
        "to": "0xcf6bc8d4d55b4baba1e7783400f3bf7fbd55cf5b",
        "gas": "0x106b7",
        "value": "0x0",
        "data": "0x095ea7b3000000000000000000000000b72cb3cac841ceafce22422179442bd200c2441700000000000000000000000000000000000000000000000007cc4a1348f020c0",
        "nonce": "0x2"
      },
      "additionalContracts": [],
      "isFixedGasLimit": false
    },
    {
      "hash": "0xe2cdb252468da87ba27c437fedf77b5ee2970129e39fc28db535c2920e67c7f9",
      "transactionType": "CALL",
      "contractName": "FlappyQF",
      "contractAddress": "0xb72cB3Cac841CeafCE22422179442Bd200C24417",
      "function": "contributeToProject(uint256,uint256)",
      "arguments": [
        "7",
        "561905500203000000"
      ],
      "transaction": {
        "type": "0x00",
        "from": "0x9641b432d9a0281eac3ed71713736c8c7628006e",
        "to": "0xb72cb3cac841ceafce22422179442bd200c24417",
        "gas": "0x157e1",
        "value": "0x0",
        "data": "0xa309bd16000000000000000000000000000000000000000000000000000000000000000700000000000000000000000000000000000000000000000007cc4a1348f020c0",
        "nonce": "0x3"
      },
      "additionalContracts": [],
      "isFixedGasLimit": false
    },
    {
      "hash": "0x244a3f3ab6c2b7a66083dedb7afdd240b738e4477c6da05ba04ecc43a84e80b2",
      "transactionType": "CALL",
      "contractName": "MockUSDC",
      "contractAddress": "0xCF6bc8d4d55B4BABA1E7783400F3Bf7FbD55CF5b",
      "function": "approve(address,uint256)",
      "arguments": [
        "0xb72cB3Cac841CeafCE22422179442Bd200C24417",
        "6264387655000000"
      ],
      "transaction": {
        "type": "0x00",
        "from": "0x9641b432d9a0281eac3ed71713736c8c7628006e",
        "to": "0xcf6bc8d4d55b4baba1e7783400f3bf7fbd55cf5b",
        "gas": "0xf80e",
        "value": "0x0",
        "data": "0x095ea7b3000000000000000000000000b72cb3cac841ceafce22422179442bd200c244170000000000000000000000000000000000000000000000000016416d68e95fc0",
        "nonce": "0x4"
      },
      "additionalContracts": [],
      "isFixedGasLimit": false
    },
    {
      "hash": "0x9f4354bea046515b5202a2782e9820969520b377735fbdd5a11ecb860430f2c9",
      "transactionType": "CALL",
      "contractName": "FlappyQF",
      "contractAddress": "0xb72cB3Cac841CeafCE22422179442Bd200C24417",
      "function": "contributeToProject(uint256,uint256)",
      "arguments": [
        "7",
        "6264387655000000"
      ],
      "transaction": {
        "type": "0x00",
        "from": "0x9641b432d9a0281eac3ed71713736c8c7628006e",
        "to": "0xb72cb3cac841ceafce22422179442bd200c24417",
        "gas": "0x144b5",
        "value": "0x0",
        "data": "0xa309bd1600000000000000000000000000000000000000000000000000000000000000070000000000000000000000000000000000000000000000000016416d68e95fc0",
        "nonce": "0x5"
      },
      "additionalContracts": [],
      "isFixedGasLimit": false
    },
    {
      "hash": "0x30a7276d28dd38d1346911d55ff65c3153bbfb131676ccc29d7dbb2bc2418e68",
      "transactionType": "CALL",
      "contractName": "MockUSDC",
      "contractAddress": "0xCF6bc8d4d55B4BABA1E7783400F3Bf7FbD55CF5b",
      "function": "approve(address,uint256)",
      "arguments": [
        "0xb72cB3Cac841CeafCE22422179442Bd200C24417",
        "1858581420000000"
      ],
      "transaction": {
        "type": "0x00",
        "from": "0x9641b432d9a0281eac3ed71713736c8c7628006e",
        "to": "0xcf6bc8d4d55b4baba1e7783400f3bf7fbd55cf5b",
        "gas": "0x10694",
        "value": "0x0",
        "data": "0x095ea7b3000000000000000000000000b72cb3cac841ceafce22422179442bd200c2441700000000000000000000000000000000000000000000000000069a5eb5534300",
        "nonce": "0x6"
      },
      "additionalContracts": [],
      "isFixedGasLimit": false
    },
    {
      "hash": "0x39cbd8b4e38cdc0f3d223bd0d523fa4965843d15cf6dff21b7540b39f36b09cc",
      "transactionType": "CALL",
      "contractName": "FlappyQF",
      "contractAddress": "0xb72cB3Cac841CeafCE22422179442Bd200C24417",
      "function": "contributeToProject(uint256,uint256)",
      "arguments": [
        "7",
        "1858581420000000"
      ],
      "transaction": {
        "type": "0x00",
        "from": "0x9641b432d9a0281eac3ed71713736c8c7628006e",
        "to": "0xb72cb3cac841ceafce22422179442bd200c24417",
        "gas": "0x157be",
        "value": "0x0",
        "data": "0xa309bd16000000000000000000000000000000000000000000000000000000000000000700000000000000000000000000000000000000000000000000069a5eb5534300",
        "nonce": "0x7"
      },
      "additionalContracts": [],
      "isFixedGasLimit": false
    },
    {
      "hash": "0x87d0ff4aa040812878679ccd6e5f94c9cc59d99fc2dba9f383f22917620a7fc1",
      "transactionType": "CALL",
      "contractName": null,
      "contractAddress": "0x535414e62327AEac2c11fb3d9730CF51F5c681B5",
      "function": null,
      "arguments": null,
      "transaction": {
        "type": "0x00",
        "from": "0x598ca9ca53d5bb84fd56fe41c3f40ed15d731e18",
        "to": "0x535414e62327aeac2c11fb3d9730cf51f5c681b5",
        "gas": "0x714d",
        "value": "0x5af3107a4000",
        "data": "0x",
        "nonce": "0x37"
      },
      "additionalContracts": [],
      "isFixedGasLimit": false
    },
    {
      "hash": "0x24b6f0aa112f067d25b943a4242ce34735aa118865c1552fc21271af36cde557",
      "transactionType": "CALL",
      "contractName": "MockUSDC",
      "contractAddress": "0xCF6bc8d4d55B4BABA1E7783400F3Bf7FbD55CF5b",
      "function": "mint(address,uint256)",
      "arguments": [
        "0x535414e62327AEac2c11fb3d9730CF51F5c681B5",
        "1000000000000000000"
      ],
      "transaction": {
        "type": "0x00",
        "from": "0x598ca9ca53d5bb84fd56fe41c3f40ed15d731e18",
        "to": "0xcf6bc8d4d55b4baba1e7783400f3bf7fbd55cf5b",
        "gas": "0x11354",
        "value": "0x0",
        "data": "0x40c10f19000000000000000000000000535414e62327aeac2c11fb3d9730cf51f5c681b50000000000000000000000000000000000000000000000000de0b6b3a7640000",
        "nonce": "0x38"
      },
      "additionalContracts": [],
      "isFixedGasLimit": false
    },
    {
      "hash": "0xbab49df13f059bbb591390fbaee90bc2ac7c8383cecc607c146f1bc79ad20306",
      "transactionType": "CALL",
      "contractName": "MockUSDC",
      "contractAddress": "0xCF6bc8d4d55B4BABA1E7783400F3Bf7FbD55CF5b",
      "function": "approve(address,uint256)",
      "arguments": [
        "0xb72cB3Cac841CeafCE22422179442Bd200C24417",
        "769348549684000000"
      ],
      "transaction": {
        "type": "0x00",
        "from": "0x535414e62327aeac2c11fb3d9730cf51f5c681b5",
        "to": "0xcf6bc8d4d55b4baba1e7783400f3bf7fbd55cf5b",
        "gas": "0xf80e",
        "value": "0x0",
        "data": "0x095ea7b3000000000000000000000000b72cb3cac841ceafce22422179442bd200c244170000000000000000000000000000000000000000000000000aad466e04607500",
        "nonce": "0x0"
      },
      "additionalContracts": [],
      "isFixedGasLimit": false
    },
    {
      "hash": "0xf66c79b8c1f1f948aaf0f1becf082e17ddeab3b6a91a88bfdea27f706f1e5300",
      "transactionType": "CALL",
      "contractName": "FlappyQF",
      "contractAddress": "0xb72cB3Cac841CeafCE22422179442Bd200C24417",
      "function": "contributeToProject(uint256,uint256)",
      "arguments": [
        "4",
        "769348549684000000"
      ],
      "transaction": {
        "type": "0x00",
        "from": "0x535414e62327aeac2c11fb3d9730cf51f5c681b5",
        "to": "0xb72cb3cac841ceafce22422179442bd200c24417",
        "gas": "0x2c88d",
        "value": "0x0",
        "data": "0xa309bd1600000000000000000000000000000000000000000000000000000000000000040000000000000000000000000000000000000000000000000aad466e04607500",
        "nonce": "0x1"
      },
      "additionalContracts": [],
      "isFixedGasLimit": false
    },
    {
      "hash": "0x8e30d7fd2a3c41f428c9cddcb4c33d6e87d782be5f3904231aa7a9b228d0e9a0",
      "transactionType": "CALL",
      "contractName": null,
      "contractAddress": "0xF93b9D6F09E941e0e056b9Cd59d69B5DB6095490",
      "function": null,
      "arguments": null,
      "transaction": {
        "type": "0x00",
        "from": "0x598ca9ca53d5bb84fd56fe41c3f40ed15d731e18",
        "to": "0xf93b9d6f09e941e0e056b9cd59d69b5db6095490",
        "gas": "0x714d",
        "value": "0x5af3107a4000",
        "data": "0x",
        "nonce": "0x39"
      },
      "additionalContracts": [],
      "isFixedGasLimit": false
    },
    {
      "hash": "0x8de979ce0eb43db5fab6558c6dc18a7de5985ab965f46098ac7f5f8d53744da3",
      "transactionType": "CALL",
      "contractName": "MockUSDC",
      "contractAddress": "0xCF6bc8d4d55B4BABA1E7783400F3Bf7FbD55CF5b",
      "function": "mint(address,uint256)",
      "arguments": [
        "0xF93b9D6F09E941e0e056b9Cd59d69B5DB6095490",
        "1000000000000000000"
      ],
      "transaction": {
        "type": "0x00",
        "from": "0x598ca9ca53d5bb84fd56fe41c3f40ed15d731e18",
        "to": "0xcf6bc8d4d55b4baba1e7783400f3bf7fbd55cf5b",
        "gas": "0x11354",
        "value": "0x0",
        "data": "0x40c10f19000000000000000000000000f93b9d6f09e941e0e056b9cd59d69b5db60954900000000000000000000000000000000000000000000000000de0b6b3a7640000",
        "nonce": "0x3a"
      },
      "additionalContracts": [],
      "isFixedGasLimit": false
    },
    {
      "hash": "0x1178b068edf8d90ac2a677108c9af213bf32cfa1ab06c79ab3ea971853eaccd2",
      "transactionType": "CALL",
      "contractName": "MockUSDC",
      "contractAddress": "0xCF6bc8d4d55B4BABA1E7783400F3Bf7FbD55CF5b",
      "function": "approve(address,uint256)",
      "arguments": [
        "0xb72cB3Cac841CeafCE22422179442Bd200C24417",
        "543618595495000000"
      ],
      "transaction": {
        "type": "0x00",
        "from": "0xf93b9d6f09e941e0e056b9cd59d69b5db6095490",
        "to": "0xcf6bc8d4d55b4baba1e7783400f3bf7fbd55cf5b",
        "gas": "0x106b7",
        "value": "0x0",
        "data": "0x095ea7b3000000000000000000000000b72cb3cac841ceafce22422179442bd200c24417000000000000000000000000000000000000000000000000078b523b7dc6b7c0",
        "nonce": "0x0"
      },
      "additionalContracts": [],
      "isFixedGasLimit": false
    },
    {
      "hash": "0x7afd0f934af6723fad626b516355b396779bcdbe402da6b3d740b1dda5009d28",
      "transactionType": "CALL",
      "contractName": "FlappyQF",
      "contractAddress": "0xb72cB3Cac841CeafCE22422179442Bd200C24417",
      "function": "contributeToProject(uint256,uint256)",
      "arguments": [
        "5",
        "543618595495000000"
      ],
      "transaction": {
        "type": "0x00",
        "from": "0xf93b9d6f09e941e0e056b9cd59d69b5db6095490",
        "to": "0xb72cb3cac841ceafce22422179442bd200c24417",
        "gas": "0x2c89d",
        "value": "0x0",
        "data": "0xa309bd160000000000000000000000000000000000000000000000000000000000000005000000000000000000000000000000000000000000000000078b523b7dc6b7c0",
        "nonce": "0x1"
      },
      "additionalContracts": [],
      "isFixedGasLimit": false
    },
    {
      "hash": "0x338a851d86bdfc8ccd0f4f5903cece19ca2ca17dd2ed381028a748e1bd0f1e9e",
      "transactionType": "CALL",
      "contractName": "MockUSDC",
      "contractAddress": "0xCF6bc8d4d55B4BABA1E7783400F3Bf7FbD55CF5b",
      "function": "approve(address,uint256)",
      "arguments": [
        "0xb72cB3Cac841CeafCE22422179442Bd200C24417",
        "173187218050000000"
      ],
      "transaction": {
        "type": "0x00",
        "from": "0xf93b9d6f09e941e0e056b9cd59d69b5db6095490",
        "to": "0xcf6bc8d4d55b4baba1e7783400f3bf7fbd55cf5b",
        "gas": "0x106b7",
        "value": "0x0",
        "data": "0x095ea7b3000000000000000000000000b72cb3cac841ceafce22422179442bd200c24417000000000000000000000000000000000000000000000000026748db73822480",
        "nonce": "0x2"
      },
      "additionalContracts": [],
      "isFixedGasLimit": false
    },
    {
      "hash": "0xf950e99d7382bfa25a83da514cc995a6b1cd8c67a5f8a104ab7f7fd416697f16",
      "transactionType": "CALL",
      "contractName": "FlappyQF",
      "contractAddress": "0xb72cB3Cac841CeafCE22422179442Bd200C24417",
      "function": "contributeToProject(uint256,uint256)",
      "arguments": [
        "5",
        "173187218050000000"
      ],
      "transaction": {
        "type": "0x00",
        "from": "0xf93b9d6f09e941e0e056b9cd59d69b5db6095490",
        "to": "0xb72cb3cac841ceafce22422179442bd200c24417",
        "gas": "0x157e1",
        "value": "0x0",
        "data": "0xa309bd160000000000000000000000000000000000000000000000000000000000000005000000000000000000000000000000000000000000000000026748db73822480",
        "nonce": "0x3"
      },
      "additionalContracts": [],
      "isFixedGasLimit": false
    },
    {
      "hash": "0xe71cf7a5dcef4432038a5efbb09fff30af140ae13344bfc041b7859cab0e24a8",
      "transactionType": "CALL",
      "contractName": null,
      "contractAddress": "0xc8B743f9Dac913B2A12FC845d86F999C131fe217",
      "function": null,
      "arguments": null,
      "transaction": {
        "type": "0x00",
        "from": "0x598ca9ca53d5bb84fd56fe41c3f40ed15d731e18",
        "to": "0xc8b743f9dac913b2a12fc845d86f999c131fe217",
        "gas": "0x714d",
        "value": "0x5af3107a4000",
        "data": "0x",
        "nonce": "0x3b"
      },
      "additionalContracts": [],
      "isFixedGasLimit": false
    },
    {
      "hash": "0x990c88547f4c8cd7e1d7445a435fab028508a0e379aba00abc8c8d69cc293fc4",
      "transactionType": "CALL",
      "contractName": "MockUSDC",
      "contractAddress": "0xCF6bc8d4d55B4BABA1E7783400F3Bf7FbD55CF5b",
      "function": "mint(address,uint256)",
      "arguments": [
        "0xc8B743f9Dac913B2A12FC845d86F999C131fe217",
        "1000000000000000000"
      ],
      "transaction": {
        "type": "0x00",
        "from": "0x598ca9ca53d5bb84fd56fe41c3f40ed15d731e18",
        "to": "0xcf6bc8d4d55b4baba1e7783400f3bf7fbd55cf5b",
        "gas": "0x11354",
        "value": "0x0",
        "data": "0x40c10f19000000000000000000000000c8b743f9dac913b2a12fc845d86f999c131fe2170000000000000000000000000000000000000000000000000de0b6b3a7640000",
        "nonce": "0x3c"
      },
      "additionalContracts": [],
      "isFixedGasLimit": false
    },
    {
      "hash": "0x53c5c3f70ec7d779474aafef6861b3d556e3a8115e9a47d91485972682c6d835",
      "transactionType": "CALL",
      "contractName": "MockUSDC",
      "contractAddress": "0xCF6bc8d4d55B4BABA1E7783400F3Bf7FbD55CF5b",
      "function": "approve(address,uint256)",
      "arguments": [
        "0xb72cB3Cac841CeafCE22422179442Bd200C24417",
        "874415620921000000"
      ],
      "transaction": {
        "type": "0x00",
        "from": "0xc8b743f9dac913b2a12fc845d86f999c131fe217",
        "to": "0xcf6bc8d4d55b4baba1e7783400f3bf7fbd55cf5b",
        "gas": "0x106b7",
        "value": "0x0",
        "data": "0x095ea7b3000000000000000000000000b72cb3cac841ceafce22422179442bd200c244170000000000000000000000000000000000000000000000000c228c5fd70c8040",
        "nonce": "0x0"
      },
      "additionalContracts": [],
      "isFixedGasLimit": false
    },
    {
      "hash": "0xa20cf9cfb60b825950704a437a47a4ecd2c37bbb469bcc8b6bc86594c734039e",
      "transactionType": "CALL",
      "contractName": "FlappyQF",
      "contractAddress": "0xb72cB3Cac841CeafCE22422179442Bd200C24417",
      "function": "contributeToProject(uint256,uint256)",
      "arguments": [
        "7",
        "874415620921000000"
      ],
      "transaction": {
        "type": "0x00",
        "from": "0xc8b743f9dac913b2a12fc845d86f999c131fe217",
        "to": "0xb72cb3cac841ceafce22422179442bd200c24417",
        "gas": "0x21016",
        "value": "0x0",
        "data": "0xa309bd1600000000000000000000000000000000000000000000000000000000000000070000000000000000000000000000000000000000000000000c228c5fd70c8040",
        "nonce": "0x1"
      },
      "additionalContracts": [],
      "isFixedGasLimit": false
    },
    {
      "hash": "0x9eee6b1af38d1bc3cbce8f44bb6cb7e2fa2c7955d4b9fa9fdfaa0a0754ee8b6a",
      "transactionType": "CALL",
      "contractName": "MockUSDC",
      "contractAddress": "0xCF6bc8d4d55B4BABA1E7783400F3Bf7FbD55CF5b",
      "function": "approve(address,uint256)",
      "arguments": [
        "0xb72cB3Cac841CeafCE22422179442Bd200C24417",
        "99164969638000000"
      ],
      "transaction": {
        "type": "0x00",
        "from": "0xc8b743f9dac913b2a12fc845d86f999c131fe217",
        "to": "0xcf6bc8d4d55b4baba1e7783400f3bf7fbd55cf5b",
        "gas": "0x106b7",
        "value": "0x0",
        "data": "0x095ea7b3000000000000000000000000b72cb3cac841ceafce22422179442bd200c2441700000000000000000000000000000000000000000000000001604e03b56f7580",
        "nonce": "0x2"
      },
      "additionalContracts": [],
      "isFixedGasLimit": false
    },
    {
      "hash": "0x1e4cc9b2ca44319de241620334d8c2a3228cf4c2e6b97917c80fcce686609deb",
      "transactionType": "CALL",
      "contractName": "FlappyQF",
      "contractAddress": "0xb72cB3Cac841CeafCE22422179442Bd200C24417",
      "function": "contributeToProject(uint256,uint256)",
      "arguments": [
        "7",
        "99164969638000000"
      ],
      "transaction": {
        "type": "0x00",
        "from": "0xc8b743f9dac913b2a12fc845d86f999c131fe217",
        "to": "0xb72cb3cac841ceafce22422179442bd200c24417",
        "gas": "0x157e1",
        "value": "0x0",
        "data": "0xa309bd16000000000000000000000000000000000000000000000000000000000000000700000000000000000000000000000000000000000000000001604e03b56f7580",
        "nonce": "0x3"
      },
      "additionalContracts": [],
      "isFixedGasLimit": false
    },
    {
      "hash": "0x93cfd53d1671a1f000c5ab75058eee856fdda9b38611572d8d5113920354f178",
      "transactionType": "CALL",
      "contractName": "MockUSDC",
      "contractAddress": "0xCF6bc8d4d55B4BABA1E7783400F3Bf7FbD55CF5b",
      "function": "approve(address,uint256)",
      "arguments": [
        "0xb72cB3Cac841CeafCE22422179442Bd200C24417",
        "7171500312000000"
      ],
      "transaction": {
        "type": "0x00",
        "from": "0xc8b743f9dac913b2a12fc845d86f999c131fe217",
        "to": "0xcf6bc8d4d55b4baba1e7783400f3bf7fbd55cf5b",
        "gas": "0x10694",
        "value": "0x0",
        "data": "0x095ea7b3000000000000000000000000b72cb3cac841ceafce22422179442bd200c2441700000000000000000000000000000000000000000000000000197a71089a7600",
        "nonce": "0x4"
      },
      "additionalContracts": [],
      "isFixedGasLimit": false
    },
    {
      "hash": "0x6e28391896108a8b5ac78abf978674827f55312b3396583a9748420960ae8867",
      "transactionType": "CALL",
      "contractName": "FlappyQF",
      "contractAddress": "0xb72cB3Cac841CeafCE22422179442Bd200C24417",
      "function": "contributeToProject(uint256,uint256)",
      "arguments": [
        "7",
        "7171500312000000"
      ],
      "transaction": {
        "type": "0x00",
        "from": "0xc8b743f9dac913b2a12fc845d86f999c131fe217",
        "to": "0xb72cb3cac841ceafce22422179442bd200c24417",
        "gas": "0x157be",
        "value": "0x0",
        "data": "0xa309bd16000000000000000000000000000000000000000000000000000000000000000700000000000000000000000000000000000000000000000000197a71089a7600",
        "nonce": "0x5"
      },
      "additionalContracts": [],
      "isFixedGasLimit": false
    },
    {
      "hash": "0x9c9ee25f3d0b2c2e36aad248da3cb24a43fce65fcc80d32ff004378df5b8ed76",
      "transactionType": "CALL",
      "contractName": "MockUSDC",
      "contractAddress": "0xCF6bc8d4d55B4BABA1E7783400F3Bf7FbD55CF5b",
      "function": "approve(address,uint256)",
      "arguments": [
        "0xb72cB3Cac841CeafCE22422179442Bd200C24417",
        "10444892451000000"
      ],
      "transaction": {
        "type": "0x00",
        "from": "0xc8b743f9dac913b2a12fc845d86f999c131fe217",
        "to": "0xcf6bc8d4d55b4baba1e7783400f3bf7fbd55cf5b",
        "gas": "0xf80e",
        "value": "0x0",
        "data": "0x095ea7b3000000000000000000000000b72cb3cac841ceafce22422179442bd200c2441700000000000000000000000000000000000000000000000000251b9308424ec0",
        "nonce": "0x6"
      },
      "additionalContracts": [],
      "isFixedGasLimit": false
    },
    {
      "hash": "0xb29fb935be46a9263f39c2c90e937aa5e09b512527198ddf84494a75c7f66ce7",
      "transactionType": "CALL",
      "contractName": "FlappyQF",
      "contractAddress": "0xb72cB3Cac841CeafCE22422179442Bd200C24417",
      "function": "contributeToProject(uint256,uint256)",
      "arguments": [
        "7",
        "10444892451000000"
      ],
      "transaction": {
        "type": "0x00",
        "from": "0xc8b743f9dac913b2a12fc845d86f999c131fe217",
        "to": "0xb72cb3cac841ceafce22422179442bd200c24417",
        "gas": "0x144b5",
        "value": "0x0",
        "data": "0xa309bd16000000000000000000000000000000000000000000000000000000000000000700000000000000000000000000000000000000000000000000251b9308424ec0",
        "nonce": "0x7"
      },
      "additionalContracts": [],
      "isFixedGasLimit": false
    },
    {
      "hash": "0x8ccc6fcb6e27193caf5445489fdd90a3ae3dd6a4a72b821bb1f7853dcc1e0fe4",
      "transactionType": "CALL",
      "contractName": null,
      "contractAddress": "0x84E015D941864f2AEF39d7D26F8B1Cc236B3A148",
      "function": null,
      "arguments": null,
      "transaction": {
        "type": "0x00",
        "from": "0x598ca9ca53d5bb84fd56fe41c3f40ed15d731e18",
        "to": "0x84e015d941864f2aef39d7d26f8b1cc236b3a148",
        "gas": "0x714d",
        "value": "0x5af3107a4000",
        "data": "0x",
        "nonce": "0x3d"
      },
      "additionalContracts": [],
      "isFixedGasLimit": false
    },
    {
      "hash": "0x7d4038aea03d24c008cd2ad605111617c716aa909bbd58f0d62e4087f829e029",
      "transactionType": "CALL",
      "contractName": "MockUSDC",
      "contractAddress": "0xCF6bc8d4d55B4BABA1E7783400F3Bf7FbD55CF5b",
      "function": "mint(address,uint256)",
      "arguments": [
        "0x84E015D941864f2AEF39d7D26F8B1Cc236B3A148",
        "1000000000000000000"
      ],
      "transaction": {
        "type": "0x00",
        "from": "0x598ca9ca53d5bb84fd56fe41c3f40ed15d731e18",
        "to": "0xcf6bc8d4d55b4baba1e7783400f3bf7fbd55cf5b",
        "gas": "0x11354",
        "value": "0x0",
        "data": "0x40c10f1900000000000000000000000084e015d941864f2aef39d7d26f8b1cc236b3a1480000000000000000000000000000000000000000000000000de0b6b3a7640000",
        "nonce": "0x3e"
      },
      "additionalContracts": [],
      "isFixedGasLimit": false
    },
    {
      "hash": "0xa218f347e9f33dbc8614081258e153efd2859c05688656f89e7321f8fb89b697",
      "transactionType": "CALL",
      "contractName": "MockUSDC",
      "contractAddress": "0xCF6bc8d4d55B4BABA1E7783400F3Bf7FbD55CF5b",
      "function": "approve(address,uint256)",
      "arguments": [
        "0xb72cB3Cac841CeafCE22422179442Bd200C24417",
        "402802758097000000"
      ],
      "transaction": {
        "type": "0x00",
        "from": "0x84e015d941864f2aef39d7d26f8b1cc236b3a148",
        "to": "0xcf6bc8d4d55b4baba1e7783400f3bf7fbd55cf5b",
        "gas": "0x106b7",
        "value": "0x0",
        "data": "0x095ea7b3000000000000000000000000b72cb3cac841ceafce22422179442bd200c2441700000000000000000000000000000000000000000000000005970af96eeb5640",
        "nonce": "0x0"
      },
      "additionalContracts": [],
      "isFixedGasLimit": false
    },
    {
      "hash": "0xc3f8e609518fae71e87a9afabab1772aff03abdde8899769132807e588688107",
      "transactionType": "CALL",
      "contractName": "FlappyQF",
      "contractAddress": "0xb72cB3Cac841CeafCE22422179442Bd200C24417",
      "function": "contributeToProject(uint256,uint256)",
      "arguments": [
        "5",
        "402802758097000000"
      ],
      "transaction": {
        "type": "0x00",
        "from": "0x84e015d941864f2aef39d7d26f8b1cc236b3a148",
        "to": "0xb72cb3cac841ceafce22422179442bd200c24417",
        "gas": "0x21016",
        "value": "0x0",
        "data": "0xa309bd16000000000000000000000000000000000000000000000000000000000000000500000000000000000000000000000000000000000000000005970af96eeb5640",
        "nonce": "0x1"
      },
      "additionalContracts": [],
      "isFixedGasLimit": false
    },
    {
      "hash": "0x5d17457b5e1e1d6cb48ed0722db4fe93b3bc0fd736ed1d5754d0db274450e828",
      "transactionType": "CALL",
      "contractName": "MockUSDC",
      "contractAddress": "0xCF6bc8d4d55B4BABA1E7783400F3Bf7FbD55CF5b",
      "function": "approve(address,uint256)",
      "arguments": [
        "0xb72cB3Cac841CeafCE22422179442Bd200C24417",
        "77480617141000000"
      ],
      "transaction": {
        "type": "0x00",
        "from": "0x84e015d941864f2aef39d7d26f8b1cc236b3a148",
        "to": "0xcf6bc8d4d55b4baba1e7783400f3bf7fbd55cf5b",
        "gas": "0x106b7",
        "value": "0x0",
        "data": "0x095ea7b3000000000000000000000000b72cb3cac841ceafce22422179442bd200c2441700000000000000000000000000000000000000000000000001134435f5aad740",
        "nonce": "0x2"
      },
      "additionalContracts": [],
      "isFixedGasLimit": false
    },
    {
      "hash": "0x8d66d8eed800dc7ea2959eb57da90c5f84254dac8416a715aa03ad4563e92ed4",
      "transactionType": "CALL",
      "contractName": "FlappyQF",
      "contractAddress": "0xb72cB3Cac841CeafCE22422179442Bd200C24417",
      "function": "contributeToProject(uint256,uint256)",
      "arguments": [
        "5",
        "77480617141000000"
      ],
      "transaction": {
        "type": "0x00",
        "from": "0x84e015d941864f2aef39d7d26f8b1cc236b3a148",
        "to": "0xb72cb3cac841ceafce22422179442bd200c24417",
        "gas": "0x157e1",
        "value": "0x0",
        "data": "0xa309bd16000000000000000000000000000000000000000000000000000000000000000500000000000000000000000000000000000000000000000001134435f5aad740",
        "nonce": "0x3"
      },
      "additionalContracts": [],
      "isFixedGasLimit": false
    },
    {
      "hash": "0xb78dc457e5042175bdffb31eaa764f0f583e822e8b61f9ec8a1129e19eb927da",
      "transactionType": "CALL",
      "contractName": null,
      "contractAddress": "0xd1c690bc15eA06aE31857190751374F8f28eFBEa",
      "function": null,
      "arguments": null,
      "transaction": {
        "type": "0x00",
        "from": "0x598ca9ca53d5bb84fd56fe41c3f40ed15d731e18",
        "to": "0xd1c690bc15ea06ae31857190751374f8f28efbea",
        "gas": "0x714d",
        "value": "0x5af3107a4000",
        "data": "0x",
        "nonce": "0x3f"
      },
      "additionalContracts": [],
      "isFixedGasLimit": false
    },
    {
      "hash": "0x97944d78d86a7ad3db635e20aa83f2372a5742afa96232e5da005ce68cd238d0",
      "transactionType": "CALL",
      "contractName": "MockUSDC",
      "contractAddress": "0xCF6bc8d4d55B4BABA1E7783400F3Bf7FbD55CF5b",
      "function": "mint(address,uint256)",
      "arguments": [
        "0xd1c690bc15eA06aE31857190751374F8f28eFBEa",
        "1000000000000000000"
      ],
      "transaction": {
        "type": "0x00",
        "from": "0x598ca9ca53d5bb84fd56fe41c3f40ed15d731e18",
        "to": "0xcf6bc8d4d55b4baba1e7783400f3bf7fbd55cf5b",
        "gas": "0x11354",
        "value": "0x0",
        "data": "0x40c10f19000000000000000000000000d1c690bc15ea06ae31857190751374f8f28efbea0000000000000000000000000000000000000000000000000de0b6b3a7640000",
        "nonce": "0x40"
      },
      "additionalContracts": [],
      "isFixedGasLimit": false
    },
    {
      "hash": "0xeb43819467782f48bea9f3fe3b713c4d94d97c39b1d7b3d26b7834e7a872ee3f",
      "transactionType": "CALL",
      "contractName": "MockUSDC",
      "contractAddress": "0xCF6bc8d4d55B4BABA1E7783400F3Bf7FbD55CF5b",
      "function": "approve(address,uint256)",
      "arguments": [
        "0xb72cB3Cac841CeafCE22422179442Bd200C24417",
        "834599452297000000"
      ],
      "transaction": {
        "type": "0x00",
        "from": "0xd1c690bc15ea06ae31857190751374f8f28efbea",
        "to": "0xcf6bc8d4d55b4baba1e7783400f3bf7fbd55cf5b",
        "gas": "0x106b7",
        "value": "0x0",
        "data": "0x095ea7b3000000000000000000000000b72cb3cac841ceafce22422179442bd200c244170000000000000000000000000000000000000000000000000b9517c7abe5f440",
        "nonce": "0x0"
      },
      "additionalContracts": [],
      "isFixedGasLimit": false
    },
    {
      "hash": "0xc5871eeb7eaddab812b758eb8a54097a08bf075c8169641735afd2e7c5181ce6",
      "transactionType": "CALL",
      "contractName": "FlappyQF",
      "contractAddress": "0xb72cB3Cac841CeafCE22422179442Bd200C24417",
      "function": "contributeToProject(uint256,uint256)",
      "arguments": [
        "5",
        "834599452297000000"
      ],
      "transaction": {
        "type": "0x00",
        "from": "0xd1c690bc15ea06ae31857190751374f8f28efbea",
        "to": "0xb72cb3cac841ceafce22422179442bd200c24417",
        "gas": "0x21016",
        "value": "0x0",
        "data": "0xa309bd1600000000000000000000000000000000000000000000000000000000000000050000000000000000000000000000000000000000000000000b9517c7abe5f440",
        "nonce": "0x1"
      },
      "additionalContracts": [],
      "isFixedGasLimit": false
    },
    {
      "hash": "0xc2cb9bc196c4ed5785380456bc5fffc408011a7610f368b2a12ea51575e5ab24",
      "transactionType": "CALL",
      "contractName": "MockUSDC",
      "contractAddress": "0xCF6bc8d4d55B4BABA1E7783400F3Bf7FbD55CF5b",
      "function": "approve(address,uint256)",
      "arguments": [
        "0xb72cB3Cac841CeafCE22422179442Bd200C24417",
        "162244402050000000"
      ],
      "transaction": {
        "type": "0x00",
        "from": "0xd1c690bc15ea06ae31857190751374f8f28efbea",
        "to": "0xcf6bc8d4d55b4baba1e7783400f3bf7fbd55cf5b",
        "gas": "0x106b7",
        "value": "0x0",
        "data": "0x095ea7b3000000000000000000000000b72cb3cac841ceafce22422179442bd200c244170000000000000000000000000000000000000000000000000240686c8efc6480",
        "nonce": "0x2"
      },
      "additionalContracts": [],
      "isFixedGasLimit": false
    },
    {
      "hash": "0xe521e5405801e5c44ce7edf1b96500d03fb78050421bfe53cade7521688259be",
      "transactionType": "CALL",
      "contractName": "FlappyQF",
      "contractAddress": "0xb72cB3Cac841CeafCE22422179442Bd200C24417",
      "function": "contributeToProject(uint256,uint256)",
      "arguments": [
        "5",
        "162244402050000000"
      ],
      "transaction": {
        "type": "0x00",
        "from": "0xd1c690bc15ea06ae31857190751374f8f28efbea",
        "to": "0xb72cb3cac841ceafce22422179442bd200c24417",
        "gas": "0x157e1",
        "value": "0x0",
        "data": "0xa309bd1600000000000000000000000000000000000000000000000000000000000000050000000000000000000000000000000000000000000000000240686c8efc6480",
        "nonce": "0x3"
      },
      "additionalContracts": [],
      "isFixedGasLimit": false
    }
  ],
  "receipts": [
    {
      "transactionHash": "0xbd880ad046cad2895a22f80172646db1cc3c1ab43ef31beeae003f14b98aff09",
      "transactionIndex": "0x1",
      "blockHash": "0xc518264b42e4881c094e9d60ef0506a082fdc734ae5e21fafc7937e6efa47138",
      "blockNumber": "0x6027e1",
      "from": "0x598CA9Ca53D5bB84Fd56fE41C3f40Ed15D731e18",
      "to": "0xDD9b094704aB530d395969b00F0904e30fb8EE8F",
      "cumulativeGasUsed": "0x3f907",
      "gasUsed": "0x5208",
      "contractAddress": null,
      "logs": [],
      "status": "0x1",
      "logsBloom": "0x00000000000000000000000000000000000000000000000000000000000000000000000000000000000000000000000000000000000000000000000000000000000000000000000000000000000000000000000000000000000000000000000000000000000000000000000000000000000000000000000000000000000000000000000000000000000000000000000000000000000000000000000000000000000000000000000000000000000000000000000000000000000000000000000000000000000000000000000000000000000000000000000000000000000000000000000000000000000000000000000000000000000000000000000000000000",
      "type": "0x0",
      "effectiveGasPrice": "0xb3c28b7"
    },
    {
      "transactionHash": "0xd1b8bd070d79e6ecea441c6d9068a739bc195a3740e214c9cfa20ff8d2433fec",
      "transactionIndex": "0x0",
      "blockHash": "0x1830ad07ccf87d467f88b07326e0fb8ac581d9ac7c9888e8e0123d71154854b2",
      "blockNumber": "0x6027e3",
      "from": "0x598CA9Ca53D5bB84Fd56fE41C3f40Ed15D731e18",
      "to": "0xCF6bc8d4d55B4BABA1E7783400F3Bf7FbD55CF5b",
      "cumulativeGasUsed": "0x848a",
      "gasUsed": "0x848a",
      "contractAddress": null,
      "logs": [
        {
          "address": "0xCF6bc8d4d55B4BABA1E7783400F3Bf7FbD55CF5b",
          "topics": [
            "0xddf252ad1be2c89b69c2b068fc378daa952ba7f163c4a11628f55a4df523b3ef",
            "0x0000000000000000000000000000000000000000000000000000000000000000",
            "0x000000000000000000000000dd9b094704ab530d395969b00f0904e30fb8ee8f"
          ],
          "data": "0x0000000000000000000000000000000000000000000000000de0b6b3a7640000",
          "blockHash": "0x1830ad07ccf87d467f88b07326e0fb8ac581d9ac7c9888e8e0123d71154854b2",
          "blockNumber": "0x6027e3",
          "transactionHash": "0xd1b8bd070d79e6ecea441c6d9068a739bc195a3740e214c9cfa20ff8d2433fec",
          "transactionIndex": "0x0",
          "logIndex": "0x0",
          "removed": false
        }
      ],
      "status": "0x1",
      "logsBloom": "0x00000000000000000000000000000000000000000000400000000000000000000000000000000000000000000000000000000000000000000000000000000000000000000000000000000008000000000000000000000000000000000000000001000000020000000000000000000800000000000000000000020010000000000000000000000000000000000000000000000100000000000000000000000000000000000000000000000000000000010000000000000000000000000000000000040002000000000000000000000000000000000000000000000000000020000000000000000000000000000000000000000000000000000000000000000000",
      "type": "0x0",
      "effectiveGasPrice": "0xb3c28b7"
    },
    {
      "transactionHash": "0xef51c96fd8e38725a698f6520efac4d7f6df12504c657a56be8412e23515fd6f",
      "transactionIndex": "0x0",
      "blockHash": "0xb530f8203b6dff72c37bd9c764747f1ad562b4c92ab659a131024490ba35d370",
      "blockNumber": "0x6027e5",
      "from": "0xDD9b094704aB530d395969b00F0904e30fb8EE8F",
      "to": "0xCF6bc8d4d55B4BABA1E7783400F3Bf7FbD55CF5b",
      "cumulativeGasUsed": "0x70d7",
      "gasUsed": "0x70d7",
      "contractAddress": null,
      "logs": [
        {
          "address": "0xCF6bc8d4d55B4BABA1E7783400F3Bf7FbD55CF5b",
          "topics": [
            "0x8c5be1e5ebec7d5bd14f71427d1e84f3dd0314c0f7b2291e5b200ac8c7c3b925",
            "0x000000000000000000000000dd9b094704ab530d395969b00f0904e30fb8ee8f",
            "0x000000000000000000000000b72cb3cac841ceafce22422179442bd200c24417"
          ],
          "data": "0x00000000000000000000000000000000000000000000000007460b6f87829980",
          "blockHash": "0xb530f8203b6dff72c37bd9c764747f1ad562b4c92ab659a131024490ba35d370",
          "blockNumber": "0x6027e5",
          "transactionHash": "0xef51c96fd8e38725a698f6520efac4d7f6df12504c657a56be8412e23515fd6f",
          "transactionIndex": "0x0",
          "logIndex": "0x0",
          "removed": false
        }
      ],
      "status": "0x1",
      "logsBloom": "0x00000000000000000000000000000000400000000000400000000000000000000000000000000000000000000000000000000000000000000000000000200000000000000000000000000000000000000000000000000000000000000000000001000000000000000000000000000000000000000000000000020000000800000000000000000000000000000000000000000100000000000000000000000000020000000000000000000000000000010000000000000000000000000000000000040000000000000000000000000000000000000000000000000000000000000010000000000000000000000000000000000000000000040000000000000000",
      "type": "0x0",
      "effectiveGasPrice": "0xb3c28b7"
    },
    {
      "transactionHash": "0xfdb4f14203b434a66e0eb44f94c821e5682520effce25ffb6df6eb9f5e046d13",
      "transactionIndex": "0x0",
      "blockHash": "0xe1785c48e0c3761e96568470dda22cb56b027793383b410c4d2eff95a942d4f4",
      "blockNumber": "0x6027e7",
      "from": "0xDD9b094704aB530d395969b00F0904e30fb8EE8F",
      "to": "0xb72cB3Cac841CeafCE22422179442Bd200C24417",
      "cumulativeGasUsed": "0x203ec",
      "gasUsed": "0x203ec",
      "contractAddress": null,
      "logs": [
        {
          "address": "0xCF6bc8d4d55B4BABA1E7783400F3Bf7FbD55CF5b",
          "topics": [
            "0xddf252ad1be2c89b69c2b068fc378daa952ba7f163c4a11628f55a4df523b3ef",
            "0x000000000000000000000000dd9b094704ab530d395969b00f0904e30fb8ee8f",
            "0x000000000000000000000000b72cb3cac841ceafce22422179442bd200c24417"
          ],
          "data": "0x00000000000000000000000000000000000000000000000007460b6f87829980",
          "blockHash": "0xe1785c48e0c3761e96568470dda22cb56b027793383b410c4d2eff95a942d4f4",
          "blockNumber": "0x6027e7",
          "transactionHash": "0xfdb4f14203b434a66e0eb44f94c821e5682520effce25ffb6df6eb9f5e046d13",
          "transactionIndex": "0x0",
          "logIndex": "0x0",
          "removed": false
        }
      ],
      "status": "0x1",
      "logsBloom": "0x00000000000000000000000000000000400000000000400000000000000000000000000000000000000000000000000000000000000000000000000000000000000000000000000000000008000000000000000000000000000000000000000001000000000000000000000000000000000000000000000000020010000800000000000000000000000000000000000000000100000000000000000000000000000000000000000000000000000000010000000000000000000000000000000000040002000000000000000000000000000000000000000000000000000000000000000000000000000000000000000000000000000000040000000000000000",
      "type": "0x0",
      "effectiveGasPrice": "0xb3c28b7"
    },
    {
      "transactionHash": "0x72efdc3dc4bef13bc261aaf1341423f0a61ae24cb43ab96f09f3c00ff43ea2c3",
      "transactionIndex": "0x0",
      "blockHash": "0x4f5b456f44f0a59f660699c757c364603f40cb1ea1cf18a67d1c8ee5bcd4a0ca",
      "blockNumber": "0x6027e9",
      "from": "0xDD9b094704aB530d395969b00F0904e30fb8EE8F",
      "to": "0xCF6bc8d4d55B4BABA1E7783400F3Bf7FbD55CF5b",
      "cumulativeGasUsed": "0xb38b",
      "gasUsed": "0xb38b",
      "contractAddress": null,
      "logs": [
        {
          "address": "0xCF6bc8d4d55B4BABA1E7783400F3Bf7FbD55CF5b",
          "topics": [
            "0x8c5be1e5ebec7d5bd14f71427d1e84f3dd0314c0f7b2291e5b200ac8c7c3b925",
            "0x000000000000000000000000dd9b094704ab530d395969b00f0904e30fb8ee8f",
            "0x000000000000000000000000b72cb3cac841ceafce22422179442bd200c24417"
          ],
          "data": "0x000000000000000000000000000000000000000000000000009b02b44fa90f00",
          "blockHash": "0x4f5b456f44f0a59f660699c757c364603f40cb1ea1cf18a67d1c8ee5bcd4a0ca",
          "blockNumber": "0x6027e9",
          "transactionHash": "0x72efdc3dc4bef13bc261aaf1341423f0a61ae24cb43ab96f09f3c00ff43ea2c3",
          "transactionIndex": "0x0",
          "logIndex": "0x0",
          "removed": false
        }
      ],
      "status": "0x1",
      "logsBloom": "0x00000000000000000000000000000000400000000000400000000000000000000000000000000000000000000000000000000000000000000000000000200000000000000000000000000000000000000000000000000000000000000000000001000000000000000000000000000000000000000000000000020000000800000000000000000000000000000000000000000100000000000000000000000000020000000000000000000000000000010000000000000000000000000000000000040000000000000000000000000000000000000000000000000000000000000010000000000000000000000000000000000000000000040000000000000000",
      "type": "0x0",
      "effectiveGasPrice": "0xb3c28b7"
    },
    {
      "transactionHash": "0x0b13642e15fef2bda5c48c91235d1aada41c48657cb85c44f9fb26ad170f49fe",
      "transactionIndex": "0x0",
      "blockHash": "0x55403df03c23ce3326d192526bc8a88420a12da7b0e488511757bf780683d4fc",
      "blockNumber": "0x6027eb",
      "from": "0xDD9b094704aB530d395969b00F0904e30fb8EE8F",
      "to": "0xb72cB3Cac841CeafCE22422179442Bd200C24417",
      "cumulativeGasUsed": "0xeb0a",
      "gasUsed": "0xeb0a",
      "contractAddress": null,
      "logs": [
        {
          "address": "0xCF6bc8d4d55B4BABA1E7783400F3Bf7FbD55CF5b",
          "topics": [
            "0xddf252ad1be2c89b69c2b068fc378daa952ba7f163c4a11628f55a4df523b3ef",
            "0x000000000000000000000000dd9b094704ab530d395969b00f0904e30fb8ee8f",
            "0x000000000000000000000000b72cb3cac841ceafce22422179442bd200c24417"
          ],
          "data": "0x000000000000000000000000000000000000000000000000009b02b44fa90f00",
          "blockHash": "0x55403df03c23ce3326d192526bc8a88420a12da7b0e488511757bf780683d4fc",
          "blockNumber": "0x6027eb",
          "transactionHash": "0x0b13642e15fef2bda5c48c91235d1aada41c48657cb85c44f9fb26ad170f49fe",
          "transactionIndex": "0x0",
          "logIndex": "0x0",
          "removed": false
        }
      ],
      "status": "0x1",
      "logsBloom": "0x00000000000000000000000000000000400000000000400000000000000000000000000000000000000000000000000000000000000000000000000000000000000000000000000000000008000000000000000000000000000000000000000001000000000000000000000000000000000000000000000000020010000800000000000000000000000000000000000000000100000000000000000000000000000000000000000000000000000000010000000000000000000000000000000000040002000000000000000000000000000000000000000000000000000000000000000000000000000000000000000000000000000000040000000000000000",
      "type": "0x0",
      "effectiveGasPrice": "0xb3c28b7"
    },
    {
      "transactionHash": "0x1f4cb960eabe0d53cbc1770a5bc6ebf5e420bbf2394b5b53c0861365930c186d",
      "transactionIndex": "0x0",
      "blockHash": "0x8b380481aea6a519f7e9d9437355575dedbbb4bcddbd931edfefebe8ce1437ed",
      "blockNumber": "0x6027ed",
      "from": "0xDD9b094704aB530d395969b00F0904e30fb8EE8F",
      "to": "0xCF6bc8d4d55B4BABA1E7783400F3Bf7FbD55CF5b",
      "cumulativeGasUsed": "0xb397",
      "gasUsed": "0xb397",
      "contractAddress": null,
      "logs": [
        {
          "address": "0xCF6bc8d4d55B4BABA1E7783400F3Bf7FbD55CF5b",
          "topics": [
            "0x8c5be1e5ebec7d5bd14f71427d1e84f3dd0314c0f7b2291e5b200ac8c7c3b925",
            "0x000000000000000000000000dd9b094704ab530d395969b00f0904e30fb8ee8f",
            "0x000000000000000000000000b72cb3cac841ceafce22422179442bd200c24417"
          ],
          "data": "0x000000000000000000000000000000000000000000000000035fc4e0f1b22b00",
          "blockHash": "0x8b380481aea6a519f7e9d9437355575dedbbb4bcddbd931edfefebe8ce1437ed",
          "blockNumber": "0x6027ed",
          "transactionHash": "0x1f4cb960eabe0d53cbc1770a5bc6ebf5e420bbf2394b5b53c0861365930c186d",
          "transactionIndex": "0x0",
          "logIndex": "0x0",
          "removed": false
        }
      ],
      "status": "0x1",
      "logsBloom": "0x00000000000000000000000000000000400000000000400000000000000000000000000000000000000000000000000000000000000000000000000000200000000000000000000000000000000000000000000000000000000000000000000001000000000000000000000000000000000000000000000000020000000800000000000000000000000000000000000000000100000000000000000000000000020000000000000000000000000000010000000000000000000000000000000000040000000000000000000000000000000000000000000000000000000000000010000000000000000000000000000000000000000000040000000000000000",
      "type": "0x0",
      "effectiveGasPrice": "0xb3c28b7"
    },
    {
      "transactionHash": "0xf042d0780298fa5b509e2001472c16af8e5fe8fdf527a4852f581a6ae2b78898",
      "transactionIndex": "0x0",
      "blockHash": "0x80aa7f060b1e1be7a36e4f63dcbc35a24a5e671c3442e1df48af98e6aa6180fb",
      "blockNumber": "0x6027ef",
      "from": "0xDD9b094704aB530d395969b00F0904e30fb8EE8F",
      "to": "0xb72cB3Cac841CeafCE22422179442Bd200C24417",
      "cumulativeGasUsed": "0xeb16",
      "gasUsed": "0xeb16",
      "contractAddress": null,
      "logs": [
        {
          "address": "0xCF6bc8d4d55B4BABA1E7783400F3Bf7FbD55CF5b",
          "topics": [
            "0xddf252ad1be2c89b69c2b068fc378daa952ba7f163c4a11628f55a4df523b3ef",
            "0x000000000000000000000000dd9b094704ab530d395969b00f0904e30fb8ee8f",
            "0x000000000000000000000000b72cb3cac841ceafce22422179442bd200c24417"
          ],
          "data": "0x000000000000000000000000000000000000000000000000035fc4e0f1b22b00",
          "blockHash": "0x80aa7f060b1e1be7a36e4f63dcbc35a24a5e671c3442e1df48af98e6aa6180fb",
          "blockNumber": "0x6027ef",
          "transactionHash": "0xf042d0780298fa5b509e2001472c16af8e5fe8fdf527a4852f581a6ae2b78898",
          "transactionIndex": "0x0",
          "logIndex": "0x0",
          "removed": false
        }
      ],
      "status": "0x1",
      "logsBloom": "0x00000000000000000000000000000000400000000000400000000000000000000000000000000000000000000000000000000000000000000000000000000000000000000000000000000008000000000000000000000000000000000000000001000000000000000000000000000000000000000000000000020010000800000000000000000000000000000000000000000100000000000000000000000000000000000000000000000000000000010000000000000000000000000000000000040002000000000000000000000000000000000000000000000000000000000000000000000000000000000000000000000000000000040000000000000000",
      "type": "0x0",
      "effectiveGasPrice": "0xb3c28b7"
    },
    {
      "transactionHash": "0x682fe0891b5848c76b1627ec7f374958d5b036524aecc15c2ac2cf61282b434a",
      "transactionIndex": "0x0",
      "blockHash": "0x631069fd308a0a6674232043c449b81e0c2ad05239c37020129dcdd34171ed27",
      "blockNumber": "0x6027f1",
      "from": "0x598CA9Ca53D5bB84Fd56fE41C3f40Ed15D731e18",
      "to": "0x6Ae8F65D402fcC295EB5D85c703A03Aa85547092",
      "cumulativeGasUsed": "0x5208",
      "gasUsed": "0x5208",
      "contractAddress": null,
      "logs": [],
      "status": "0x1",
      "logsBloom": "0x00000000000000000000000000000000000000000000000000000000000000000000000000000000000000000000000000000000000000000000000000000000000000000000000000000000000000000000000000000000000000000000000000000000000000000000000000000000000000000000000000000000000000000000000000000000000000000000000000000000000000000000000000000000000000000000000000000000000000000000000000000000000000000000000000000000000000000000000000000000000000000000000000000000000000000000000000000000000000000000000000000000000000000000000000000000",
      "type": "0x0",
      "effectiveGasPrice": "0xb3c28b7"
    },
    {
      "transactionHash": "0xeb3e1343471161503854ca6b8ae6d8393882cd22b474a3708a6236bfe3af7402",
      "transactionIndex": "0x2",
      "blockHash": "0x5a4c0ec016df68b561a01e9dc26be5a26bb4dd956e9b0cd16c7fda4d577bfa17",
      "blockNumber": "0x6027f3",
      "from": "0x598CA9Ca53D5bB84Fd56fE41C3f40Ed15D731e18",
      "to": "0xCF6bc8d4d55B4BABA1E7783400F3Bf7FbD55CF5b",
      "cumulativeGasUsed": "0xade1f",
      "gasUsed": "0xc756",
      "contractAddress": null,
      "logs": [
        {
          "address": "0xCF6bc8d4d55B4BABA1E7783400F3Bf7FbD55CF5b",
          "topics": [
            "0xddf252ad1be2c89b69c2b068fc378daa952ba7f163c4a11628f55a4df523b3ef",
            "0x0000000000000000000000000000000000000000000000000000000000000000",
            "0x0000000000000000000000006ae8f65d402fcc295eb5d85c703a03aa85547092"
          ],
          "data": "0x0000000000000000000000000000000000000000000000000de0b6b3a7640000",
          "blockHash": "0x5a4c0ec016df68b561a01e9dc26be5a26bb4dd956e9b0cd16c7fda4d577bfa17",
          "blockNumber": "0x6027f3",
          "transactionHash": "0xeb3e1343471161503854ca6b8ae6d8393882cd22b474a3708a6236bfe3af7402",
          "transactionIndex": "0x2",
          "logIndex": "0x4",
          "removed": false
        }
      ],
      "status": "0x1",
      "logsBloom": "0x00000000000000000000000000000000000000000000000000000000000000000000000000000000000000000000000000000000000000000000000000000000000000000000000000000008000000000000000000000000000000000000000001000000020000000000000000000800000000000000000000000010000000000000000000000000000000000000000000000100000000000000000000000000000000000000000000000000000000010000000000000000000000000000000000000002000000000000200000000000000000000000000000000000000020000000000000010000000000080000000000000000000000000000000000000000",
      "type": "0x0",
      "effectiveGasPrice": "0xb3c28b7"
    },
    {
      "transactionHash": "0x3d3c97180a5125602949d8802cc46ee018d8a646df4f76860f39a557024ac1ee",
      "transactionIndex": "0x0",
      "blockHash": "0x4bc1abecdc7060c70833ad48ded0fbbcc23f8a83a34c3e2685c889ef8e651a1e",
      "blockNumber": "0x6027f5",
      "from": "0x6Ae8F65D402fcC295EB5D85c703A03Aa85547092",
      "to": "0xCF6bc8d4d55B4BABA1E7783400F3Bf7FbD55CF5b",
      "cumulativeGasUsed": "0xb397",
      "gasUsed": "0xb397",
      "contractAddress": null,
      "logs": [
        {
          "address": "0xCF6bc8d4d55B4BABA1E7783400F3Bf7FbD55CF5b",
          "topics": [
            "0x8c5be1e5ebec7d5bd14f71427d1e84f3dd0314c0f7b2291e5b200ac8c7c3b925",
            "0x0000000000000000000000006ae8f65d402fcc295eb5d85c703a03aa85547092",
            "0x000000000000000000000000b72cb3cac841ceafce22422179442bd200c24417"
          ],
          "data": "0x000000000000000000000000000000000000000000000000074fdf20629c5f00",
          "blockHash": "0x4bc1abecdc7060c70833ad48ded0fbbcc23f8a83a34c3e2685c889ef8e651a1e",
          "blockNumber": "0x6027f5",
          "transactionHash": "0x3d3c97180a5125602949d8802cc46ee018d8a646df4f76860f39a557024ac1ee",
          "transactionIndex": "0x0",
          "logIndex": "0x0",
          "removed": false
        }
      ],
      "status": "0x1",
      "logsBloom": "0x00000000000000000000000000000000400000000000000000000000000000000000000000000000000000000000000000000000000000000000000000200000000000000000000000000000000000000000000000000000000000000000000001000000000000000000000000000000000000000000000000000000000800000000000000000000000000000000000000000100000000000000000000000000020000000000000000000000000000010000000000000000000000000000000000000000000000000000200000000000000000000000000000000000000000000010000000010000000000080000000000000000000000040000000000000000",
      "type": "0x0",
      "effectiveGasPrice": "0xb3c28b7"
    },
    {
      "transactionHash": "0xfc70a141c885d7634400e8f99b4733da89813190cf470c5b0f83b3ab8a195738",
      "transactionIndex": "0x0",
      "blockHash": "0xd2d0acc391bb5a292fc8968c9466f5460c84acdd9109979d67b6cfe41c9af2f1",
      "blockNumber": "0x6027f7",
      "from": "0x6Ae8F65D402fcC295EB5D85c703A03Aa85547092",
      "to": "0xb72cB3Cac841CeafCE22422179442Bd200C24417",
      "cumulativeGasUsed": "0x203d4",
      "gasUsed": "0x203d4",
      "contractAddress": null,
      "logs": [
        {
          "address": "0xCF6bc8d4d55B4BABA1E7783400F3Bf7FbD55CF5b",
          "topics": [
            "0xddf252ad1be2c89b69c2b068fc378daa952ba7f163c4a11628f55a4df523b3ef",
            "0x0000000000000000000000006ae8f65d402fcc295eb5d85c703a03aa85547092",
            "0x000000000000000000000000b72cb3cac841ceafce22422179442bd200c24417"
          ],
          "data": "0x000000000000000000000000000000000000000000000000074fdf20629c5f00",
          "blockHash": "0xd2d0acc391bb5a292fc8968c9466f5460c84acdd9109979d67b6cfe41c9af2f1",
          "blockNumber": "0x6027f7",
          "transactionHash": "0xfc70a141c885d7634400e8f99b4733da89813190cf470c5b0f83b3ab8a195738",
          "transactionIndex": "0x0",
          "logIndex": "0x0",
          "removed": false
        }
      ],
      "status": "0x1",
      "logsBloom": "0x00000000000000000000000000000000400000000000000000000000000000000000000000000000000000000000000000000000000000000000000000000000000000000000000000000008000000000000000000000000000000000000000001000000000000000000000000000000000000000000000000000010000800000000000000000000000000000000000000000100000000000000000000000000000000000000000000000000000000010000000000000000000000000000000000000002000000000000200000000000000000000000000000000000000000000000000000010000000000080000000000000000000000040000000000000000",
      "type": "0x0",
      "effectiveGasPrice": "0xb3c28b7"
    },
    {
      "transactionHash": "0xb1edf8410ba37d9c6608cb665e6fc531bd2fe307113a2dcb7ddf896b32eb0b80",
      "transactionIndex": "0x1",
      "blockHash": "0xf357ba580bb3f3b5aabf120e046e3c8d84e971c5663b1c3cdfdeb926fa93c49e",
      "blockNumber": "0x6027f9",
      "from": "0x598CA9Ca53D5bB84Fd56fE41C3f40Ed15D731e18",
      "to": "0x9641B432D9A0281eaC3ed71713736C8c7628006E",
      "cumulativeGasUsed": "0xf432",
      "gasUsed": "0x5208",
      "contractAddress": null,
      "logs": [],
      "status": "0x1",
      "logsBloom": "0x00000000000000000000000000000000000000000000000000000000000000000000000000000000000000000000000000000000000000000000000000000000000000000000000000000000000000000000000000000000000000000000000000000000000000000000000000000000000000000000000000000000000000000000000000000000000000000000000000000000000000000000000000000000000000000000000000000000000000000000000000000000000000000000000000000000000000000000000000000000000000000000000000000000000000000000000000000000000000000000000000000000000000000000000000000000",
      "type": "0x0",
      "effectiveGasPrice": "0xb3c28b7"
    },
    {
      "transactionHash": "0xa9e850cc33bba9ed139393a22da708012a9a8d93a6a3da0b6e9e2de3764449dc",
      "transactionIndex": "0x1",
      "blockHash": "0xd0404420937a361bd1c6f64563e4645ca055117eba237b472caf42f170e40fc6",
      "blockNumber": "0x6027fb",
      "from": "0x598CA9Ca53D5bB84Fd56fE41C3f40Ed15D731e18",
      "to": "0xCF6bc8d4d55B4BABA1E7783400F3Bf7FbD55CF5b",
      "cumulativeGasUsed": "0x11952",
      "gasUsed": "0xc74a",
      "contractAddress": null,
      "logs": [
        {
          "address": "0xCF6bc8d4d55B4BABA1E7783400F3Bf7FbD55CF5b",
          "topics": [
            "0xddf252ad1be2c89b69c2b068fc378daa952ba7f163c4a11628f55a4df523b3ef",
            "0x0000000000000000000000000000000000000000000000000000000000000000",
            "0x0000000000000000000000009641b432d9a0281eac3ed71713736c8c7628006e"
          ],
          "data": "0x0000000000000000000000000000000000000000000000000de0b6b3a7640000",
          "blockHash": "0xd0404420937a361bd1c6f64563e4645ca055117eba237b472caf42f170e40fc6",
          "blockNumber": "0x6027fb",
          "transactionHash": "0xa9e850cc33bba9ed139393a22da708012a9a8d93a6a3da0b6e9e2de3764449dc",
          "transactionIndex": "0x1",
          "logIndex": "0x0",
          "removed": false
        }
      ],
      "status": "0x1",
      "logsBloom": "0x00000000000000000000000000000000000000000000000000000000000000000000000000000000000000000000000000000000000000000000000000000000000000000000000000000008000000000000000000000000002000000000000001000000020000000000000000000800000000000000000000000810000000000000000000000000000000000000000000000100000000000000000000000000000000000000000000000000000000010000000000000000000000001000000000000002000000000000000000000000000000000000000000000000000020000000000000000000000000000000000000000000000000000000000000000000",
      "type": "0x0",
      "effectiveGasPrice": "0xb3c28b7"
    },
    {
      "transactionHash": "0xc27d13a89bb9a4eb4902d81e67a3fe84522438c705e86fb386e571fd1aa42fcd",
      "transactionIndex": "0x0",
      "blockHash": "0x7f303be219889017374ed7c6ee844afdcf6b6a75c0a10d2afb9dbd3efd4af205",
      "blockNumber": "0x6027fd",
      "from": "0x9641B432D9A0281eaC3ed71713736C8c7628006E",
      "to": "0xCF6bc8d4d55B4BABA1E7783400F3Bf7FbD55CF5b",
      "cumulativeGasUsed": "0xb3a3",
      "gasUsed": "0xb3a3",
      "contractAddress": null,
      "logs": [
        {
          "address": "0xCF6bc8d4d55B4BABA1E7783400F3Bf7FbD55CF5b",
          "topics": [
            "0x8c5be1e5ebec7d5bd14f71427d1e84f3dd0314c0f7b2291e5b200ac8c7c3b925",
            "0x0000000000000000000000009641b432d9a0281eac3ed71713736c8c7628006e",
            "0x000000000000000000000000b72cb3cac841ceafce22422179442bd200c24417"
          ],
          "data": "0x00000000000000000000000000000000000000000000000005f1121d99d2fa40",
          "blockHash": "0x7f303be219889017374ed7c6ee844afdcf6b6a75c0a10d2afb9dbd3efd4af205",
          "blockNumber": "0x6027fd",
          "transactionHash": "0xc27d13a89bb9a4eb4902d81e67a3fe84522438c705e86fb386e571fd1aa42fcd",
          "transactionIndex": "0x0",
          "logIndex": "0x0",
          "removed": false
        }
      ],
      "status": "0x1",
      "logsBloom": "0x00000000000000000000000000000000400000000000000000000000000000000000000000000000000000000000000000000000000000000000000000200000000000000000000000000000000000000000000000000000002000000000000001000000000000000000000000000000000000000000000000000800000800000000000000000000000000000000000000000100000000000000000000000000020000000000000000000000000000010000000000000000000000001000000000000000000000000000000000000000000000000000000000000000000000000010000000000000000000000000000000000000000000040000000000000000",
      "type": "0x0",
      "effectiveGasPrice": "0xb3c28b7"
    },
    {
      "transactionHash": "0x7a2697cdb177a9d2b77ea4469473e39c7ef288084bde875b1b5b5cd2c38ed850",
      "transactionIndex": "0x0",
      "blockHash": "0xe49a2c2decb6868e74756bc52b8bf115051f356325d094d2e457e554c1fcd40b",
      "blockNumber": "0x6027ff",
      "from": "0x9641B432D9A0281eaC3ed71713736C8c7628006E",
      "to": "0xb72cB3Cac841CeafCE22422179442Bd200C24417",
      "cumulativeGasUsed": "0x203ec",
      "gasUsed": "0x203ec",
      "contractAddress": null,
      "logs": [
        {
          "address": "0xCF6bc8d4d55B4BABA1E7783400F3Bf7FbD55CF5b",
          "topics": [
            "0xddf252ad1be2c89b69c2b068fc378daa952ba7f163c4a11628f55a4df523b3ef",
            "0x0000000000000000000000009641b432d9a0281eac3ed71713736c8c7628006e",
            "0x000000000000000000000000b72cb3cac841ceafce22422179442bd200c24417"
          ],
          "data": "0x00000000000000000000000000000000000000000000000005f1121d99d2fa40",
          "blockHash": "0xe49a2c2decb6868e74756bc52b8bf115051f356325d094d2e457e554c1fcd40b",
          "blockNumber": "0x6027ff",
          "transactionHash": "0x7a2697cdb177a9d2b77ea4469473e39c7ef288084bde875b1b5b5cd2c38ed850",
          "transactionIndex": "0x0",
          "logIndex": "0x0",
          "removed": false
        }
      ],
      "status": "0x1",
      "logsBloom": "0x00000000000000000000000000000000400000000000000000000000000000000000000000000000000000000000000000000000000000000000000000000000000000000000000000000008000000000000000000000000002000000000000001000000000000000000000000000000000000000000000000000810000800000000000000000000000000000000000000000100000000000000000000000000000000000000000000000000000000010000000000000000000000001000000000000002000000000000000000000000000000000000000000000000000000000000000000000000000000000000000000000000000000040000000000000000",
      "type": "0x0",
      "effectiveGasPrice": "0xb3c28b7"
    },
    {
      "transactionHash": "0x5ec1662d19bbee454195f69a760bdf1473b006c9147f349d8da12a4ea3dc9df7",
      "transactionIndex": "0x0",
      "blockHash": "0xab766cd9c8437fe92ef608437e85b78133ec9a255a62b3fa37a321ac6e53cfec",
      "blockNumber": "0x602801",
      "from": "0x9641B432D9A0281eaC3ed71713736C8c7628006E",
      "to": "0xCF6bc8d4d55B4BABA1E7783400F3Bf7FbD55CF5b",
      "cumulativeGasUsed": "0xb3a3",
      "gasUsed": "0xb3a3",
      "contractAddress": null,
      "logs": [
        {
          "address": "0xCF6bc8d4d55B4BABA1E7783400F3Bf7FbD55CF5b",
          "topics": [
            "0x8c5be1e5ebec7d5bd14f71427d1e84f3dd0314c0f7b2291e5b200ac8c7c3b925",
            "0x0000000000000000000000009641b432d9a0281eac3ed71713736c8c7628006e",
            "0x000000000000000000000000b72cb3cac841ceafce22422179442bd200c24417"
          ],
          "data": "0x00000000000000000000000000000000000000000000000007cc4a1348f020c0",
          "blockHash": "0xab766cd9c8437fe92ef608437e85b78133ec9a255a62b3fa37a321ac6e53cfec",
          "blockNumber": "0x602801",
          "transactionHash": "0x5ec1662d19bbee454195f69a760bdf1473b006c9147f349d8da12a4ea3dc9df7",
          "transactionIndex": "0x0",
          "logIndex": "0x0",
          "removed": false
        }
      ],
      "status": "0x1",
      "logsBloom": "0x00000000000000000000000000000000400000000000000000000000000000000000000000000000000000000000000000000000000000000000000000200000000000000000000000000000000000000000000000000000002000000000000001000000000000000000000000000000000000000000000000000800000800000000000000000000000000000000000000000100000000000000000000000000020000000000000000000000000000010000000000000000000000001000000000000000000000000000000000000000000000000000000000000000000000000010000000000000000000000000000000000000000000040000000000000000",
      "type": "0x0",
      "effectiveGasPrice": "0xb3c28b7"
    },
    {
      "transactionHash": "0xe2cdb252468da87ba27c437fedf77b5ee2970129e39fc28db535c2920e67c7f9",
      "transactionIndex": "0x0",
      "blockHash": "0x283b97978c2174a53a47127eabf24d80aa953a343a6d8b1e251f12011d433e48",
      "blockNumber": "0x602803",
      "from": "0x9641B432D9A0281eaC3ed71713736C8c7628006E",
      "to": "0xb72cB3Cac841CeafCE22422179442Bd200C24417",
      "cumulativeGasUsed": "0xeb22",
      "gasUsed": "0xeb22",
      "contractAddress": null,
      "logs": [
        {
          "address": "0xCF6bc8d4d55B4BABA1E7783400F3Bf7FbD55CF5b",
          "topics": [
            "0xddf252ad1be2c89b69c2b068fc378daa952ba7f163c4a11628f55a4df523b3ef",
            "0x0000000000000000000000009641b432d9a0281eac3ed71713736c8c7628006e",
            "0x000000000000000000000000b72cb3cac841ceafce22422179442bd200c24417"
          ],
          "data": "0x00000000000000000000000000000000000000000000000007cc4a1348f020c0",
          "blockHash": "0x283b97978c2174a53a47127eabf24d80aa953a343a6d8b1e251f12011d433e48",
          "blockNumber": "0x602803",
          "transactionHash": "0xe2cdb252468da87ba27c437fedf77b5ee2970129e39fc28db535c2920e67c7f9",
          "transactionIndex": "0x0",
          "logIndex": "0x0",
          "removed": false
        }
      ],
      "status": "0x1",
      "logsBloom": "0x00000000000000000000000000000000400000000000000000000000000000000000000000000000000000000000000000000000000000000000000000000000000000000000000000000008000000000000000000000000002000000000000001000000000000000000000000000000000000000000000000000810000800000000000000000000000000000000000000000100000000000000000000000000000000000000000000000000000000010000000000000000000000001000000000000002000000000000000000000000000000000000000000000000000000000000000000000000000000000000000000000000000000040000000000000000",
      "type": "0x0",
      "effectiveGasPrice": "0xb3c28b7"
    },
    {
      "transactionHash": "0x244a3f3ab6c2b7a66083dedb7afdd240b738e4477c6da05ba04ecc43a84e80b2",
      "transactionIndex": "0x0",
      "blockHash": "0x92f22ae2bfca90af093bb15a17463b862cd863d1cb71e4f5d4769b553c467347",
      "blockNumber": "0x602805",
      "from": "0x9641B432D9A0281eaC3ed71713736C8c7628006E",
      "to": "0xCF6bc8d4d55B4BABA1E7783400F3Bf7FbD55CF5b",
      "cumulativeGasUsed": "0xb397",
      "gasUsed": "0xb397",
      "contractAddress": null,
      "logs": [
        {
          "address": "0xCF6bc8d4d55B4BABA1E7783400F3Bf7FbD55CF5b",
          "topics": [
            "0x8c5be1e5ebec7d5bd14f71427d1e84f3dd0314c0f7b2291e5b200ac8c7c3b925",
            "0x0000000000000000000000009641b432d9a0281eac3ed71713736c8c7628006e",
            "0x000000000000000000000000b72cb3cac841ceafce22422179442bd200c24417"
          ],
          "data": "0x0000000000000000000000000000000000000000000000000016416d68e95fc0",
          "blockHash": "0x92f22ae2bfca90af093bb15a17463b862cd863d1cb71e4f5d4769b553c467347",
          "blockNumber": "0x602805",
          "transactionHash": "0x244a3f3ab6c2b7a66083dedb7afdd240b738e4477c6da05ba04ecc43a84e80b2",
          "transactionIndex": "0x0",
          "logIndex": "0x0",
          "removed": false
        }
      ],
      "status": "0x1",
      "logsBloom": "0x00000000000000000000000000000000400000000000000000000000000000000000000000000000000000000000000000000000000000000000000000200000000000000000000000000000000000000000000000000000002000000000000001000000000000000000000000000000000000000000000000000800000800000000000000000000000000000000000000000100000000000000000000000000020000000000000000000000000000010000000000000000000000001000000000000000000000000000000000000000000000000000000000000000000000000010000000000000000000000000000000000000000000040000000000000000",
      "type": "0x0",
      "effectiveGasPrice": "0xb3c28b7"
    },
    {
      "transactionHash": "0x9f4354bea046515b5202a2782e9820969520b377735fbdd5a11ecb860430f2c9",
      "transactionIndex": "0x1",
      "blockHash": "0x51ebaaa1b5dec9f8aacb3a4c402a682aa82e152b8741c40a893ae1943ef5a58b",
      "blockNumber": "0x602807",
      "from": "0x9641B432D9A0281eaC3ed71713736C8c7628006E",
      "to": "0xb72cB3Cac841CeafCE22422179442Bd200C24417",
      "cumulativeGasUsed": "0x9598d",
      "gasUsed": "0xeb16",
      "contractAddress": null,
      "logs": [
        {
          "address": "0xCF6bc8d4d55B4BABA1E7783400F3Bf7FbD55CF5b",
          "topics": [
            "0xddf252ad1be2c89b69c2b068fc378daa952ba7f163c4a11628f55a4df523b3ef",
            "0x0000000000000000000000009641b432d9a0281eac3ed71713736c8c7628006e",
            "0x000000000000000000000000b72cb3cac841ceafce22422179442bd200c24417"
          ],
          "data": "0x0000000000000000000000000000000000000000000000000016416d68e95fc0",
          "blockHash": "0x51ebaaa1b5dec9f8aacb3a4c402a682aa82e152b8741c40a893ae1943ef5a58b",
          "blockNumber": "0x602807",
          "transactionHash": "0x9f4354bea046515b5202a2782e9820969520b377735fbdd5a11ecb860430f2c9",
          "transactionIndex": "0x1",
          "logIndex": "0x2",
          "removed": false
        }
      ],
      "status": "0x1",
      "logsBloom": "0x00000000000000000000000000000000400000000000000000000000000000000000000000000000000000000000000000000000000000000000000000000000000000000000000000000008000000000000000000000000002000000000000001000000000000000000000000000000000000000000000000000810000800000000000000000000000000000000000000000100000000000000000000000000000000000000000000000000000000010000000000000000000000001000000000000002000000000000000000000000000000000000000000000000000000000000000000000000000000000000000000000000000000040000000000000000",
      "type": "0x0",
      "effectiveGasPrice": "0xb3c28b7"
    },
    {
      "transactionHash": "0x30a7276d28dd38d1346911d55ff65c3153bbfb131676ccc29d7dbb2bc2418e68",
      "transactionIndex": "0x0",
      "blockHash": "0x59a384ff7809ce499ef6055e2b25cde6b11a98076d3fe11a688ea16e8f638dde",
      "blockNumber": "0x602808",
      "from": "0x9641B432D9A0281eaC3ed71713736C8c7628006E",
      "to": "0xCF6bc8d4d55B4BABA1E7783400F3Bf7FbD55CF5b",
      "cumulativeGasUsed": "0xb38b",
      "gasUsed": "0xb38b",
      "contractAddress": null,
      "logs": [
        {
          "address": "0xCF6bc8d4d55B4BABA1E7783400F3Bf7FbD55CF5b",
          "topics": [
            "0x8c5be1e5ebec7d5bd14f71427d1e84f3dd0314c0f7b2291e5b200ac8c7c3b925",
            "0x0000000000000000000000009641b432d9a0281eac3ed71713736c8c7628006e",
            "0x000000000000000000000000b72cb3cac841ceafce22422179442bd200c24417"
          ],
          "data": "0x00000000000000000000000000000000000000000000000000069a5eb5534300",
          "blockHash": "0x59a384ff7809ce499ef6055e2b25cde6b11a98076d3fe11a688ea16e8f638dde",
          "blockNumber": "0x602808",
          "transactionHash": "0x30a7276d28dd38d1346911d55ff65c3153bbfb131676ccc29d7dbb2bc2418e68",
          "transactionIndex": "0x0",
          "logIndex": "0x0",
          "removed": false
        }
      ],
      "status": "0x1",
      "logsBloom": "0x00000000000000000000000000000000400000000000000000000000000000000000000000000000000000000000000000000000000000000000000000200000000000000000000000000000000000000000000000000000002000000000000001000000000000000000000000000000000000000000000000000800000800000000000000000000000000000000000000000100000000000000000000000000020000000000000000000000000000010000000000000000000000001000000000000000000000000000000000000000000000000000000000000000000000000010000000000000000000000000000000000000000000040000000000000000",
      "type": "0x0",
      "effectiveGasPrice": "0xb3c28b7"
    },
    {
      "transactionHash": "0x39cbd8b4e38cdc0f3d223bd0d523fa4965843d15cf6dff21b7540b39f36b09cc",
      "transactionIndex": "0x0",
      "blockHash": "0xa898775a30ff75da2e668555c699894353dfef9d6fe02683a9438cc114facded",
      "blockNumber": "0x60280a",
      "from": "0x9641B432D9A0281eaC3ed71713736C8c7628006E",
      "to": "0xb72cB3Cac841CeafCE22422179442Bd200C24417",
      "cumulativeGasUsed": "0xeb0a",
      "gasUsed": "0xeb0a",
      "contractAddress": null,
      "logs": [
        {
          "address": "0xCF6bc8d4d55B4BABA1E7783400F3Bf7FbD55CF5b",
          "topics": [
            "0xddf252ad1be2c89b69c2b068fc378daa952ba7f163c4a11628f55a4df523b3ef",
            "0x0000000000000000000000009641b432d9a0281eac3ed71713736c8c7628006e",
            "0x000000000000000000000000b72cb3cac841ceafce22422179442bd200c24417"
          ],
          "data": "0x00000000000000000000000000000000000000000000000000069a5eb5534300",
          "blockHash": "0xa898775a30ff75da2e668555c699894353dfef9d6fe02683a9438cc114facded",
          "blockNumber": "0x60280a",
          "transactionHash": "0x39cbd8b4e38cdc0f3d223bd0d523fa4965843d15cf6dff21b7540b39f36b09cc",
          "transactionIndex": "0x0",
          "logIndex": "0x0",
          "removed": false
        }
      ],
      "status": "0x1",
      "logsBloom": "0x00000000000000000000000000000000400000000000000000000000000000000000000000000000000000000000000000000000000000000000000000000000000000000000000000000008000000000000000000000000002000000000000001000000000000000000000000000000000000000000000000000810000800000000000000000000000000000000000000000100000000000000000000000000000000000000000000000000000000010000000000000000000000001000000000000002000000000000000000000000000000000000000000000000000000000000000000000000000000000000000000000000000000040000000000000000",
      "type": "0x0",
      "effectiveGasPrice": "0xb3c28b7"
    },
    {
      "transactionHash": "0x87d0ff4aa040812878679ccd6e5f94c9cc59d99fc2dba9f383f22917620a7fc1",
      "transactionIndex": "0x0",
      "blockHash": "0x2227f08d2307c7fcbbfcb60b1e4215e01144cb82a7f941c8cac96b54237dd06b",
      "blockNumber": "0x60280d",
      "from": "0x598CA9Ca53D5bB84Fd56fE41C3f40Ed15D731e18",
      "to": "0x535414e62327AEac2c11fb3d9730CF51F5c681B5",
      "cumulativeGasUsed": "0x5208",
      "gasUsed": "0x5208",
      "contractAddress": null,
      "logs": [],
      "status": "0x1",
      "logsBloom": "0x00000000000000000000000000000000000000000000000000000000000000000000000000000000000000000000000000000000000000000000000000000000000000000000000000000000000000000000000000000000000000000000000000000000000000000000000000000000000000000000000000000000000000000000000000000000000000000000000000000000000000000000000000000000000000000000000000000000000000000000000000000000000000000000000000000000000000000000000000000000000000000000000000000000000000000000000000000000000000000000000000000000000000000000000000000000",
      "type": "0x0",
      "effectiveGasPrice": "0xb3c28b7"
    },
    {
      "transactionHash": "0x24b6f0aa112f067d25b943a4242ce34735aa118865c1552fc21271af36cde557",
      "transactionIndex": "0x0",
      "blockHash": "0x3d4f9158f800f9275077ff5e08adc5bd938cfe766fe0e4d2ae8b1e550de664a6",
      "blockNumber": "0x60280f",
      "from": "0x598CA9Ca53D5bB84Fd56fE41C3f40Ed15D731e18",
      "to": "0xCF6bc8d4d55B4BABA1E7783400F3Bf7FbD55CF5b",
      "cumulativeGasUsed": "0xc756",
      "gasUsed": "0xc756",
      "contractAddress": null,
      "logs": [
        {
          "address": "0xCF6bc8d4d55B4BABA1E7783400F3Bf7FbD55CF5b",
          "topics": [
            "0xddf252ad1be2c89b69c2b068fc378daa952ba7f163c4a11628f55a4df523b3ef",
            "0x0000000000000000000000000000000000000000000000000000000000000000",
            "0x000000000000000000000000535414e62327aeac2c11fb3d9730cf51f5c681b5"
          ],
          "data": "0x0000000000000000000000000000000000000000000000000de0b6b3a7640000",
          "blockHash": "0x3d4f9158f800f9275077ff5e08adc5bd938cfe766fe0e4d2ae8b1e550de664a6",
          "blockNumber": "0x60280f",
          "transactionHash": "0x24b6f0aa112f067d25b943a4242ce34735aa118865c1552fc21271af36cde557",
          "transactionIndex": "0x0",
          "logIndex": "0x0",
          "removed": false
        }
      ],
      "status": "0x1",
      "logsBloom": "0x00000000000000000000000000000000000000000080000000000000000000000000000000000000000000000000000000000000000000000000000000000000000000000000000000000008000000000000000000000000000000000000000001000000020000000000000000000800000000000000001000000010000000000000000000000000000000000000000000000120000000000000000000000000000000000000000000000000000000010000000000000000000000000000000000000002000000000000000000000000000000000000000000000000000020000000000000000000000000000000000000000000000000000000000000000000",
      "type": "0x0",
      "effectiveGasPrice": "0xb3c28b7"
    },
    {
      "transactionHash": "0xbab49df13f059bbb591390fbaee90bc2ac7c8383cecc607c146f1bc79ad20306",
      "transactionIndex": "0x0",
      "blockHash": "0x134514033a303651a5943aea9f080a6f6a24d6fa53be2f8578068d3c18e7c701",
      "blockNumber": "0x602811",
      "from": "0x535414e62327AEac2c11fb3d9730CF51F5c681B5",
      "to": "0xCF6bc8d4d55B4BABA1E7783400F3Bf7FbD55CF5b",
      "cumulativeGasUsed": "0xb397",
      "gasUsed": "0xb397",
      "contractAddress": null,
      "logs": [
        {
          "address": "0xCF6bc8d4d55B4BABA1E7783400F3Bf7FbD55CF5b",
          "topics": [
            "0x8c5be1e5ebec7d5bd14f71427d1e84f3dd0314c0f7b2291e5b200ac8c7c3b925",
            "0x000000000000000000000000535414e62327aeac2c11fb3d9730cf51f5c681b5",
            "0x000000000000000000000000b72cb3cac841ceafce22422179442bd200c24417"
          ],
          "data": "0x0000000000000000000000000000000000000000000000000aad466e04607500",
          "blockHash": "0x134514033a303651a5943aea9f080a6f6a24d6fa53be2f8578068d3c18e7c701",
          "blockNumber": "0x602811",
          "transactionHash": "0xbab49df13f059bbb591390fbaee90bc2ac7c8383cecc607c146f1bc79ad20306",
          "transactionIndex": "0x0",
          "logIndex": "0x0",
          "removed": false
        }
      ],
      "status": "0x1",
      "logsBloom": "0x00000000000000000000000000000000400000000080000000000000000000000000000000000000000000000000000000000000000000000000000000200000000000000000000000000000000000000000000000000000000000000000000001000000000000000000000000000000000000000000001000000000000800000000000000000000000000000000000000000120000000000000000000000000020000000000000000000000000000010000000000000000000000000000000000000000000000000000000000000000000000000000000000000000000000000010000000000000000000000000000000000000000000040000000000000000",
      "type": "0x0",
      "effectiveGasPrice": "0xb3c28b7"
    },
    {
      "transactionHash": "0xf66c79b8c1f1f948aaf0f1becf082e17ddeab3b6a91a88bfdea27f706f1e5300",
      "transactionIndex": "0x1",
      "blockHash": "0xd04afba44e7213f259f2281c54564e50f4c084c75ddda41928c7c5b4f170baed",
      "blockNumber": "0x602813",
      "from": "0x535414e62327AEac2c11fb3d9730CF51F5c681B5",
      "to": "0xb72cB3Cac841CeafCE22422179442Bd200C24417",
      "cumulativeGasUsed": "0x2a60a",
      "gasUsed": "0x203e0",
      "contractAddress": null,
      "logs": [
        {
          "address": "0xCF6bc8d4d55B4BABA1E7783400F3Bf7FbD55CF5b",
          "topics": [
            "0xddf252ad1be2c89b69c2b068fc378daa952ba7f163c4a11628f55a4df523b3ef",
            "0x000000000000000000000000535414e62327aeac2c11fb3d9730cf51f5c681b5",
            "0x000000000000000000000000b72cb3cac841ceafce22422179442bd200c24417"
          ],
          "data": "0x0000000000000000000000000000000000000000000000000aad466e04607500",
          "blockHash": "0xd04afba44e7213f259f2281c54564e50f4c084c75ddda41928c7c5b4f170baed",
          "blockNumber": "0x602813",
          "transactionHash": "0xf66c79b8c1f1f948aaf0f1becf082e17ddeab3b6a91a88bfdea27f706f1e5300",
          "transactionIndex": "0x1",
          "logIndex": "0x2",
          "removed": false
        }
      ],
      "status": "0x1",
      "logsBloom": "0x00000000000000000000000000000000400000000080000000000000000000000000000000000000000000000000000000000000000000000000000000000000000000000000000000000008000000000000000000000000000000000000000001000000000000000000000000000000000000000000001000000010000800000000000000000000000000000000000000000120000000000000000000000000000000000000000000000000000000010000000000000000000000000000000000000002000000000000000000000000000000000000000000000000000000000000000000000000000000000000000000000000000000040000000000000000",
      "type": "0x0",
      "effectiveGasPrice": "0xb3c28b7"
    },
    {
      "transactionHash": "0x8e30d7fd2a3c41f428c9cddcb4c33d6e87d782be5f3904231aa7a9b228d0e9a0",
      "transactionIndex": "0x0",
      "blockHash": "0x90beafadefd462c691b8c08e9fbb0d60282fcf96dd915d2e6e7591598e1e2707",
      "blockNumber": "0x602814",
      "from": "0x598CA9Ca53D5bB84Fd56fE41C3f40Ed15D731e18",
      "to": "0xF93b9D6F09E941e0e056b9Cd59d69B5DB6095490",
      "cumulativeGasUsed": "0x5208",
      "gasUsed": "0x5208",
      "contractAddress": null,
      "logs": [],
      "status": "0x1",
      "logsBloom": "0x00000000000000000000000000000000000000000000000000000000000000000000000000000000000000000000000000000000000000000000000000000000000000000000000000000000000000000000000000000000000000000000000000000000000000000000000000000000000000000000000000000000000000000000000000000000000000000000000000000000000000000000000000000000000000000000000000000000000000000000000000000000000000000000000000000000000000000000000000000000000000000000000000000000000000000000000000000000000000000000000000000000000000000000000000000000",
      "type": "0x0",
      "effectiveGasPrice": "0xb3c28b7"
    },
    {
      "transactionHash": "0x8de979ce0eb43db5fab6558c6dc18a7de5985ab965f46098ac7f5f8d53744da3",
      "transactionIndex": "0x0",
      "blockHash": "0xd8e93bc391f0a0432d9a3d98951412ff770a224a2217c341110126ce1a55e8c1",
      "blockNumber": "0x602816",
      "from": "0x598CA9Ca53D5bB84Fd56fE41C3f40Ed15D731e18",
      "to": "0xCF6bc8d4d55B4BABA1E7783400F3Bf7FbD55CF5b",
      "cumulativeGasUsed": "0xc756",
      "gasUsed": "0xc756",
      "contractAddress": null,
      "logs": [
        {
          "address": "0xCF6bc8d4d55B4BABA1E7783400F3Bf7FbD55CF5b",
          "topics": [
            "0xddf252ad1be2c89b69c2b068fc378daa952ba7f163c4a11628f55a4df523b3ef",
            "0x0000000000000000000000000000000000000000000000000000000000000000",
            "0x000000000000000000000000f93b9d6f09e941e0e056b9cd59d69b5db6095490"
          ],
          "data": "0x0000000000000000000000000000000000000000000000000de0b6b3a7640000",
          "blockHash": "0xd8e93bc391f0a0432d9a3d98951412ff770a224a2217c341110126ce1a55e8c1",
          "blockNumber": "0x602816",
          "transactionHash": "0x8de979ce0eb43db5fab6558c6dc18a7de5985ab965f46098ac7f5f8d53744da3",
          "transactionIndex": "0x0",
          "logIndex": "0x0",
          "removed": false
        }
      ],
      "status": "0x1",
      "logsBloom": "0x00000000000000000000000000000000000000000000000000000000000000000000000000000000000000000000000000000000000000800000000000000000000000000000000000000008000000000000000000000000000000000000000001000000020000000000000000000800000000000000000000000010000000000000000000000000000000000000000000000100000000000000000000000000000000000000000000000000000010010000000000000000000000000000000000000002000000000000000000000000000000000000000000000000000020000000000000000000000000000000000000000000000008000000000000000000",
      "type": "0x0",
      "effectiveGasPrice": "0xb3c28b7"
    },
    {
      "transactionHash": "0x1178b068edf8d90ac2a677108c9af213bf32cfa1ab06c79ab3ea971853eaccd2",
      "transactionIndex": "0x0",
      "blockHash": "0x67795b7686da72f72bf7a0c989b487ccb1c35a1c7d532f0897350f1a55efde11",
      "blockNumber": "0x602818",
      "from": "0xF93b9D6F09E941e0e056b9Cd59d69B5DB6095490",
      "to": "0xCF6bc8d4d55B4BABA1E7783400F3Bf7FbD55CF5b",
      "cumulativeGasUsed": "0xb3a3",
      "gasUsed": "0xb3a3",
      "contractAddress": null,
      "logs": [
        {
          "address": "0xCF6bc8d4d55B4BABA1E7783400F3Bf7FbD55CF5b",
          "topics": [
            "0x8c5be1e5ebec7d5bd14f71427d1e84f3dd0314c0f7b2291e5b200ac8c7c3b925",
            "0x000000000000000000000000f93b9d6f09e941e0e056b9cd59d69b5db6095490",
            "0x000000000000000000000000b72cb3cac841ceafce22422179442bd200c24417"
          ],
          "data": "0x000000000000000000000000000000000000000000000000078b523b7dc6b7c0",
          "blockHash": "0x67795b7686da72f72bf7a0c989b487ccb1c35a1c7d532f0897350f1a55efde11",
          "blockNumber": "0x602818",
          "transactionHash": "0x1178b068edf8d90ac2a677108c9af213bf32cfa1ab06c79ab3ea971853eaccd2",
          "transactionIndex": "0x0",
          "logIndex": "0x0",
          "removed": false
        }
      ],
      "status": "0x1",
      "logsBloom": "0x00000000000000000000000000000000400000000000000000000000000000000000000000000000000000000000000000000000000000800000000000200000000000000000000000000000000000000000000000000000000000000000000001000000000000000000000000000000000000000000000000000000000800000000000000000000000000000000000000000100000000000000000000000000020000000000000000000000000010010000000000000000000000000000000000000000000000000000000000000000000000000000000000000000000000000010000000000000000000000000000000000000000008040000000000000000",
      "type": "0x0",
      "effectiveGasPrice": "0xb3c28b7"
    },
    {
      "transactionHash": "0x7afd0f934af6723fad626b516355b396779bcdbe402da6b3d740b1dda5009d28",
      "transactionIndex": "0x0",
      "blockHash": "0x72baf8df9f4e4a211e9e3b4005dc1437afc360eb11d2b897b79741de8ae5f32c",
      "blockNumber": "0x60281a",
      "from": "0xF93b9D6F09E941e0e056b9Cd59d69B5DB6095490",
      "to": "0xb72cB3Cac841CeafCE22422179442Bd200C24417",
      "cumulativeGasUsed": "0x203ec",
      "gasUsed": "0x203ec",
      "contractAddress": null,
      "logs": [
        {
          "address": "0xCF6bc8d4d55B4BABA1E7783400F3Bf7FbD55CF5b",
          "topics": [
            "0xddf252ad1be2c89b69c2b068fc378daa952ba7f163c4a11628f55a4df523b3ef",
            "0x000000000000000000000000f93b9d6f09e941e0e056b9cd59d69b5db6095490",
            "0x000000000000000000000000b72cb3cac841ceafce22422179442bd200c24417"
          ],
          "data": "0x000000000000000000000000000000000000000000000000078b523b7dc6b7c0",
          "blockHash": "0x72baf8df9f4e4a211e9e3b4005dc1437afc360eb11d2b897b79741de8ae5f32c",
          "blockNumber": "0x60281a",
          "transactionHash": "0x7afd0f934af6723fad626b516355b396779bcdbe402da6b3d740b1dda5009d28",
          "transactionIndex": "0x0",
          "logIndex": "0x0",
          "removed": false
        }
      ],
      "status": "0x1",
      "logsBloom": "0x00000000000000000000000000000000400000000000000000000000000000000000000000000000000000000000000000000000000000800000000000000000000000000000000000000008000000000000000000000000000000000000000001000000000000000000000000000000000000000000000000000010000800000000000000000000000000000000000000000100000000000000000000000000000000000000000000000000000010010000000000000000000000000000000000000002000000000000000000000000000000000000000000000000000000000000000000000000000000000000000000000000000008040000000000000000",
      "type": "0x0",
      "effectiveGasPrice": "0xb3c28b7"
    },
    {
      "transactionHash": "0x338a851d86bdfc8ccd0f4f5903cece19ca2ca17dd2ed381028a748e1bd0f1e9e",
      "transactionIndex": "0x0",
      "blockHash": "0x66cc49b6b68373fe4e55ad597ae15873ca84f9978bc3db086810ed0065bd9585",
      "blockNumber": "0x60281c",
      "from": "0xF93b9D6F09E941e0e056b9Cd59d69B5DB6095490",
      "to": "0xCF6bc8d4d55B4BABA1E7783400F3Bf7FbD55CF5b",
      "cumulativeGasUsed": "0xb3a3",
      "gasUsed": "0xb3a3",
      "contractAddress": null,
      "logs": [
        {
          "address": "0xCF6bc8d4d55B4BABA1E7783400F3Bf7FbD55CF5b",
          "topics": [
            "0x8c5be1e5ebec7d5bd14f71427d1e84f3dd0314c0f7b2291e5b200ac8c7c3b925",
            "0x000000000000000000000000f93b9d6f09e941e0e056b9cd59d69b5db6095490",
            "0x000000000000000000000000b72cb3cac841ceafce22422179442bd200c24417"
          ],
          "data": "0x000000000000000000000000000000000000000000000000026748db73822480",
          "blockHash": "0x66cc49b6b68373fe4e55ad597ae15873ca84f9978bc3db086810ed0065bd9585",
          "blockNumber": "0x60281c",
          "transactionHash": "0x338a851d86bdfc8ccd0f4f5903cece19ca2ca17dd2ed381028a748e1bd0f1e9e",
          "transactionIndex": "0x0",
          "logIndex": "0x0",
          "removed": false
        }
      ],
      "status": "0x1",
      "logsBloom": "0x00000000000000000000000000000000400000000000000000000000000000000000000000000000000000000000000000000000000000800000000000200000000000000000000000000000000000000000000000000000000000000000000001000000000000000000000000000000000000000000000000000000000800000000000000000000000000000000000000000100000000000000000000000000020000000000000000000000000010010000000000000000000000000000000000000000000000000000000000000000000000000000000000000000000000000010000000000000000000000000000000000000000008040000000000000000",
      "type": "0x0",
      "effectiveGasPrice": "0xb3c28b7"
    },
    {
      "transactionHash": "0xf950e99d7382bfa25a83da514cc995a6b1cd8c67a5f8a104ab7f7fd416697f16",
      "transactionIndex": "0x0",
      "blockHash": "0x1e660f79b308bca468285c4619505d667ae956f8d4f251da97114aed2f609787",
      "blockNumber": "0x60281d",
      "from": "0xF93b9D6F09E941e0e056b9Cd59d69B5DB6095490",
      "to": "0xb72cB3Cac841CeafCE22422179442Bd200C24417",
      "cumulativeGasUsed": "0xeb22",
      "gasUsed": "0xeb22",
      "contractAddress": null,
      "logs": [
        {
          "address": "0xCF6bc8d4d55B4BABA1E7783400F3Bf7FbD55CF5b",
          "topics": [
            "0xddf252ad1be2c89b69c2b068fc378daa952ba7f163c4a11628f55a4df523b3ef",
            "0x000000000000000000000000f93b9d6f09e941e0e056b9cd59d69b5db6095490",
            "0x000000000000000000000000b72cb3cac841ceafce22422179442bd200c24417"
          ],
          "data": "0x000000000000000000000000000000000000000000000000026748db73822480",
          "blockHash": "0x1e660f79b308bca468285c4619505d667ae956f8d4f251da97114aed2f609787",
          "blockNumber": "0x60281d",
          "transactionHash": "0xf950e99d7382bfa25a83da514cc995a6b1cd8c67a5f8a104ab7f7fd416697f16",
          "transactionIndex": "0x0",
          "logIndex": "0x0",
          "removed": false
        }
      ],
      "status": "0x1",
      "logsBloom": "0x00000000000000000000000000000000400000000000000000000000000000000000000000000000000000000000000000000000000000800000000000000000000000000000000000000008000000000000000000000000000000000000000001000000000000000000000000000000000000000000000000000010000800000000000000000000000000000000000000000100000000000000000000000000000000000000000000000000000010010000000000000000000000000000000000000002000000000000000000000000000000000000000000000000000000000000000000000000000000000000000000000000000008040000000000000000",
      "type": "0x0",
      "effectiveGasPrice": "0xb3c28b7"
    },
    {
      "transactionHash": "0xe71cf7a5dcef4432038a5efbb09fff30af140ae13344bfc041b7859cab0e24a8",
      "transactionIndex": "0x0",
      "blockHash": "0x88d31dfb5d517d0c74578d76a221561d5f774a8f4b98ffd27dccfb54b0596379",
      "blockNumber": "0x602820",
      "from": "0x598CA9Ca53D5bB84Fd56fE41C3f40Ed15D731e18",
      "to": "0xc8B743f9Dac913B2A12FC845d86F999C131fe217",
      "cumulativeGasUsed": "0x5208",
      "gasUsed": "0x5208",
      "contractAddress": null,
      "logs": [],
      "status": "0x1",
      "logsBloom": "0x00000000000000000000000000000000000000000000000000000000000000000000000000000000000000000000000000000000000000000000000000000000000000000000000000000000000000000000000000000000000000000000000000000000000000000000000000000000000000000000000000000000000000000000000000000000000000000000000000000000000000000000000000000000000000000000000000000000000000000000000000000000000000000000000000000000000000000000000000000000000000000000000000000000000000000000000000000000000000000000000000000000000000000000000000000000",
      "type": "0x0",
      "effectiveGasPrice": "0xb3c28b7"
    },
    {
      "transactionHash": "0x990c88547f4c8cd7e1d7445a435fab028508a0e379aba00abc8c8d69cc293fc4",
      "transactionIndex": "0x0",
      "blockHash": "0x8c183d8fcdec3f424aa6a041444fc07e645620515c93522095d5250776819788",
      "blockNumber": "0x602822",
      "from": "0x598CA9Ca53D5bB84Fd56fE41C3f40Ed15D731e18",
      "to": "0xCF6bc8d4d55B4BABA1E7783400F3Bf7FbD55CF5b",
      "cumulativeGasUsed": "0xc756",
      "gasUsed": "0xc756",
      "contractAddress": null,
      "logs": [
        {
          "address": "0xCF6bc8d4d55B4BABA1E7783400F3Bf7FbD55CF5b",
          "topics": [
            "0xddf252ad1be2c89b69c2b068fc378daa952ba7f163c4a11628f55a4df523b3ef",
            "0x0000000000000000000000000000000000000000000000000000000000000000",
            "0x000000000000000000000000c8b743f9dac913b2a12fc845d86f999c131fe217"
          ],
          "data": "0x0000000000000000000000000000000000000000000000000de0b6b3a7640000",
          "blockHash": "0x8c183d8fcdec3f424aa6a041444fc07e645620515c93522095d5250776819788",
          "blockNumber": "0x602822",
          "transactionHash": "0x990c88547f4c8cd7e1d7445a435fab028508a0e379aba00abc8c8d69cc293fc4",
          "transactionIndex": "0x0",
          "logIndex": "0x0",
          "removed": false
        }
      ],
      "status": "0x1",
      "logsBloom": "0x00000000000000002000000000000000000000000000000000000000000000000000000000000000000000000000000000000000000000000000000000000000000000000000000000000008000000000000000000000000000000000000000001000000020000000000000000000800000000000000000000000010000000000000000000000000000000000000000000000100000000000000002000000000000000000000000000000000000000010000000000000000000000000000000000000002000000000400000000000000000000000000000000000000000020000000000000000000000000000000000000000000000000000000000000000000",
      "type": "0x0",
      "effectiveGasPrice": "0xb3c28b7"
    },
    {
      "transactionHash": "0x53c5c3f70ec7d779474aafef6861b3d556e3a8115e9a47d91485972682c6d835",
      "transactionIndex": "0x0",
      "blockHash": "0xb59dfad494c571f70a22daf63a32040b040a5e9ece1769090ef8e042e6cfc4ee",
      "blockNumber": "0x602824",
      "from": "0xc8B743f9Dac913B2A12FC845d86F999C131fe217",
      "to": "0xCF6bc8d4d55B4BABA1E7783400F3Bf7FbD55CF5b",
      "cumulativeGasUsed": "0xb3a3",
      "gasUsed": "0xb3a3",
      "contractAddress": null,
      "logs": [
        {
          "address": "0xCF6bc8d4d55B4BABA1E7783400F3Bf7FbD55CF5b",
          "topics": [
            "0x8c5be1e5ebec7d5bd14f71427d1e84f3dd0314c0f7b2291e5b200ac8c7c3b925",
            "0x000000000000000000000000c8b743f9dac913b2a12fc845d86f999c131fe217",
            "0x000000000000000000000000b72cb3cac841ceafce22422179442bd200c24417"
          ],
          "data": "0x0000000000000000000000000000000000000000000000000c228c5fd70c8040",
          "blockHash": "0xb59dfad494c571f70a22daf63a32040b040a5e9ece1769090ef8e042e6cfc4ee",
          "blockNumber": "0x602824",
          "transactionHash": "0x53c5c3f70ec7d779474aafef6861b3d556e3a8115e9a47d91485972682c6d835",
          "transactionIndex": "0x0",
          "logIndex": "0x0",
          "removed": false
        }
      ],
      "status": "0x1",
      "logsBloom": "0x00000000000000002000000000000000400000000000000000000000000000000000000000000000000000000000000000000000000000000000000000200000000000000000000000000000000000000000000000000000000000000000000001000000000000000000000000000000000000000000000000000000000800000000000000000000000000000000000000000100000000000000002000000000020000000000000000000000000000010000000000000000000000000000000000000000000000000400000000000000000000000000000000000000000000000010000000000000000000000000000000000000000000040000000000000000",
      "type": "0x0",
      "effectiveGasPrice": "0xb3c28b7"
    },
    {
      "transactionHash": "0xa20cf9cfb60b825950704a437a47a4ecd2c37bbb469bcc8b6bc86594c734039e",
      "transactionIndex": "0x0",
      "blockHash": "0xc2d5ebd1826229dd7bd014fbed2391f69b4bff82408275c9bac8550da6b6389c",
      "blockNumber": "0x602825",
      "from": "0xc8B743f9Dac913B2A12FC845d86F999C131fe217",
      "to": "0xb72cB3Cac841CeafCE22422179442Bd200C24417",
      "cumulativeGasUsed": "0x17e54",
      "gasUsed": "0x17e54",
      "contractAddress": null,
      "logs": [
        {
          "address": "0xCF6bc8d4d55B4BABA1E7783400F3Bf7FbD55CF5b",
          "topics": [
            "0xddf252ad1be2c89b69c2b068fc378daa952ba7f163c4a11628f55a4df523b3ef",
            "0x000000000000000000000000c8b743f9dac913b2a12fc845d86f999c131fe217",
            "0x000000000000000000000000b72cb3cac841ceafce22422179442bd200c24417"
          ],
          "data": "0x0000000000000000000000000000000000000000000000000c228c5fd70c8040",
          "blockHash": "0xc2d5ebd1826229dd7bd014fbed2391f69b4bff82408275c9bac8550da6b6389c",
          "blockNumber": "0x602825",
          "transactionHash": "0xa20cf9cfb60b825950704a437a47a4ecd2c37bbb469bcc8b6bc86594c734039e",
          "transactionIndex": "0x0",
          "logIndex": "0x0",
          "removed": false
        }
      ],
      "status": "0x1",
      "logsBloom": "0x00000000000000002000000000000000400000000000000000000000000000000000000000000000000000000000000000000000000000000000000000000000000000000000000000000008000000000000000000000000000000000000000001000000000000000000000000000000000000000000000000000010000800000000000000000000000000000000000000000100000000000000002000000000000000000000000000000000000000010000000000000000000000000000000000000002000000000400000000000000000000000000000000000000000000000000000000000000000000000000000000000000000000040000000000000000",
      "type": "0x0",
      "effectiveGasPrice": "0xb3c28b7"
    },
    {
      "transactionHash": "0x9eee6b1af38d1bc3cbce8f44bb6cb7e2fa2c7955d4b9fa9fdfaa0a0754ee8b6a",
      "transactionIndex": "0x0",
      "blockHash": "0x1a8939505f1b3380fefcce32b196ba9431f20b1548c5a3652519d4c3bc19469a",
      "blockNumber": "0x602827",
      "from": "0xc8B743f9Dac913B2A12FC845d86F999C131fe217",
      "to": "0xCF6bc8d4d55B4BABA1E7783400F3Bf7FbD55CF5b",
      "cumulativeGasUsed": "0xb3a3",
      "gasUsed": "0xb3a3",
      "contractAddress": null,
      "logs": [
        {
          "address": "0xCF6bc8d4d55B4BABA1E7783400F3Bf7FbD55CF5b",
          "topics": [
            "0x8c5be1e5ebec7d5bd14f71427d1e84f3dd0314c0f7b2291e5b200ac8c7c3b925",
            "0x000000000000000000000000c8b743f9dac913b2a12fc845d86f999c131fe217",
            "0x000000000000000000000000b72cb3cac841ceafce22422179442bd200c24417"
          ],
          "data": "0x00000000000000000000000000000000000000000000000001604e03b56f7580",
          "blockHash": "0x1a8939505f1b3380fefcce32b196ba9431f20b1548c5a3652519d4c3bc19469a",
          "blockNumber": "0x602827",
          "transactionHash": "0x9eee6b1af38d1bc3cbce8f44bb6cb7e2fa2c7955d4b9fa9fdfaa0a0754ee8b6a",
          "transactionIndex": "0x0",
          "logIndex": "0x0",
          "removed": false
        }
      ],
      "status": "0x1",
      "logsBloom": "0x00000000000000002000000000000000400000000000000000000000000000000000000000000000000000000000000000000000000000000000000000200000000000000000000000000000000000000000000000000000000000000000000001000000000000000000000000000000000000000000000000000000000800000000000000000000000000000000000000000100000000000000002000000000020000000000000000000000000000010000000000000000000000000000000000000000000000000400000000000000000000000000000000000000000000000010000000000000000000000000000000000000000000040000000000000000",
      "type": "0x0",
      "effectiveGasPrice": "0xb3c28b7"
    },
    {
      "transactionHash": "0x1e4cc9b2ca44319de241620334d8c2a3228cf4c2e6b97917c80fcce686609deb",
      "transactionIndex": "0x0",
      "blockHash": "0x0f977086112a69ce7616c70e62388fb46e6b91dfb6932df117734a6e59abf63f",
      "blockNumber": "0x602829",
      "from": "0xc8B743f9Dac913B2A12FC845d86F999C131fe217",
      "to": "0xb72cB3Cac841CeafCE22422179442Bd200C24417",
      "cumulativeGasUsed": "0xeb22",
      "gasUsed": "0xeb22",
      "contractAddress": null,
      "logs": [
        {
          "address": "0xCF6bc8d4d55B4BABA1E7783400F3Bf7FbD55CF5b",
          "topics": [
            "0xddf252ad1be2c89b69c2b068fc378daa952ba7f163c4a11628f55a4df523b3ef",
            "0x000000000000000000000000c8b743f9dac913b2a12fc845d86f999c131fe217",
            "0x000000000000000000000000b72cb3cac841ceafce22422179442bd200c24417"
          ],
          "data": "0x00000000000000000000000000000000000000000000000001604e03b56f7580",
          "blockHash": "0x0f977086112a69ce7616c70e62388fb46e6b91dfb6932df117734a6e59abf63f",
          "blockNumber": "0x602829",
          "transactionHash": "0x1e4cc9b2ca44319de241620334d8c2a3228cf4c2e6b97917c80fcce686609deb",
          "transactionIndex": "0x0",
          "logIndex": "0x0",
          "removed": false
        }
      ],
      "status": "0x1",
      "logsBloom": "0x00000000000000002000000000000000400000000000000000000000000000000000000000000000000000000000000000000000000000000000000000000000000000000000000000000008000000000000000000000000000000000000000001000000000000000000000000000000000000000000000000000010000800000000000000000000000000000000000000000100000000000000002000000000000000000000000000000000000000010000000000000000000000000000000000000002000000000400000000000000000000000000000000000000000000000000000000000000000000000000000000000000000000040000000000000000",
      "type": "0x0",
      "effectiveGasPrice": "0xb3c28b7"
    },
    {
      "transactionHash": "0x93cfd53d1671a1f000c5ab75058eee856fdda9b38611572d8d5113920354f178",
      "transactionIndex": "0x0",
      "blockHash": "0x4ee75018d65d8d7bb62480aef539da5686a8dbc21b2cd0dda28c6f4ff49bdfe3",
      "blockNumber": "0x60282c",
      "from": "0xc8B743f9Dac913B2A12FC845d86F999C131fe217",
      "to": "0xCF6bc8d4d55B4BABA1E7783400F3Bf7FbD55CF5b",
      "cumulativeGasUsed": "0xb38b",
      "gasUsed": "0xb38b",
      "contractAddress": null,
      "logs": [
        {
          "address": "0xCF6bc8d4d55B4BABA1E7783400F3Bf7FbD55CF5b",
          "topics": [
            "0x8c5be1e5ebec7d5bd14f71427d1e84f3dd0314c0f7b2291e5b200ac8c7c3b925",
            "0x000000000000000000000000c8b743f9dac913b2a12fc845d86f999c131fe217",
            "0x000000000000000000000000b72cb3cac841ceafce22422179442bd200c24417"
          ],
          "data": "0x00000000000000000000000000000000000000000000000000197a71089a7600",
          "blockHash": "0x4ee75018d65d8d7bb62480aef539da5686a8dbc21b2cd0dda28c6f4ff49bdfe3",
          "blockNumber": "0x60282c",
          "transactionHash": "0x93cfd53d1671a1f000c5ab75058eee856fdda9b38611572d8d5113920354f178",
          "transactionIndex": "0x0",
          "logIndex": "0x0",
          "removed": false
        }
      ],
      "status": "0x1",
      "logsBloom": "0x00000000000000002000000000000000400000000000000000000000000000000000000000000000000000000000000000000000000000000000000000200000000000000000000000000000000000000000000000000000000000000000000001000000000000000000000000000000000000000000000000000000000800000000000000000000000000000000000000000100000000000000002000000000020000000000000000000000000000010000000000000000000000000000000000000000000000000400000000000000000000000000000000000000000000000010000000000000000000000000000000000000000000040000000000000000",
      "type": "0x0",
      "effectiveGasPrice": "0xb3c28b7"
    },
    {
      "transactionHash": "0x6e28391896108a8b5ac78abf978674827f55312b3396583a9748420960ae8867",
      "transactionIndex": "0x0",
      "blockHash": "0x4450315c77244293bdeb3c3d22c4ec3143c3e210669af8e23cc23606d69d6e80",
      "blockNumber": "0x60282e",
      "from": "0xc8B743f9Dac913B2A12FC845d86F999C131fe217",
      "to": "0xb72cB3Cac841CeafCE22422179442Bd200C24417",
      "cumulativeGasUsed": "0xeb0a",
      "gasUsed": "0xeb0a",
      "contractAddress": null,
      "logs": [
        {
          "address": "0xCF6bc8d4d55B4BABA1E7783400F3Bf7FbD55CF5b",
          "topics": [
            "0xddf252ad1be2c89b69c2b068fc378daa952ba7f163c4a11628f55a4df523b3ef",
            "0x000000000000000000000000c8b743f9dac913b2a12fc845d86f999c131fe217",
            "0x000000000000000000000000b72cb3cac841ceafce22422179442bd200c24417"
          ],
          "data": "0x00000000000000000000000000000000000000000000000000197a71089a7600",
          "blockHash": "0x4450315c77244293bdeb3c3d22c4ec3143c3e210669af8e23cc23606d69d6e80",
          "blockNumber": "0x60282e",
          "transactionHash": "0x6e28391896108a8b5ac78abf978674827f55312b3396583a9748420960ae8867",
          "transactionIndex": "0x0",
          "logIndex": "0x0",
          "removed": false
        }
      ],
      "status": "0x1",
      "logsBloom": "0x00000000000000002000000000000000400000000000000000000000000000000000000000000000000000000000000000000000000000000000000000000000000000000000000000000008000000000000000000000000000000000000000001000000000000000000000000000000000000000000000000000010000800000000000000000000000000000000000000000100000000000000002000000000000000000000000000000000000000010000000000000000000000000000000000000002000000000400000000000000000000000000000000000000000000000000000000000000000000000000000000000000000000040000000000000000",
      "type": "0x0",
      "effectiveGasPrice": "0xb3c28b7"
    },
    {
      "transactionHash": "0x9c9ee25f3d0b2c2e36aad248da3cb24a43fce65fcc80d32ff004378df5b8ed76",
      "transactionIndex": "0x0",
      "blockHash": "0x318e28705a50860d7bb938b2c3cc85e6902235d45f65368adf258c993c67dbaf",
      "blockNumber": "0x602830",
      "from": "0xc8B743f9Dac913B2A12FC845d86F999C131fe217",
      "to": "0xCF6bc8d4d55B4BABA1E7783400F3Bf7FbD55CF5b",
      "cumulativeGasUsed": "0xb397",
      "gasUsed": "0xb397",
      "contractAddress": null,
      "logs": [
        {
          "address": "0xCF6bc8d4d55B4BABA1E7783400F3Bf7FbD55CF5b",
          "topics": [
            "0x8c5be1e5ebec7d5bd14f71427d1e84f3dd0314c0f7b2291e5b200ac8c7c3b925",
            "0x000000000000000000000000c8b743f9dac913b2a12fc845d86f999c131fe217",
            "0x000000000000000000000000b72cb3cac841ceafce22422179442bd200c24417"
          ],
          "data": "0x00000000000000000000000000000000000000000000000000251b9308424ec0",
          "blockHash": "0x318e28705a50860d7bb938b2c3cc85e6902235d45f65368adf258c993c67dbaf",
          "blockNumber": "0x602830",
          "transactionHash": "0x9c9ee25f3d0b2c2e36aad248da3cb24a43fce65fcc80d32ff004378df5b8ed76",
          "transactionIndex": "0x0",
          "logIndex": "0x0",
          "removed": false
        }
      ],
      "status": "0x1",
      "logsBloom": "0x00000000000000002000000000000000400000000000000000000000000000000000000000000000000000000000000000000000000000000000000000200000000000000000000000000000000000000000000000000000000000000000000001000000000000000000000000000000000000000000000000000000000800000000000000000000000000000000000000000100000000000000002000000000020000000000000000000000000000010000000000000000000000000000000000000000000000000400000000000000000000000000000000000000000000000010000000000000000000000000000000000000000000040000000000000000",
      "type": "0x0",
      "effectiveGasPrice": "0xb3c28b7"
    },
    {
      "transactionHash": "0xb29fb935be46a9263f39c2c90e937aa5e09b512527198ddf84494a75c7f66ce7",
      "transactionIndex": "0x0",
      "blockHash": "0x7df1972b2860c6fd8d072dbf7d84d11164d871efa7cbda146cbf7ec0828959b1",
      "blockNumber": "0x602832",
      "from": "0xc8B743f9Dac913B2A12FC845d86F999C131fe217",
      "to": "0xb72cB3Cac841CeafCE22422179442Bd200C24417",
      "cumulativeGasUsed": "0xeb16",
      "gasUsed": "0xeb16",
      "contractAddress": null,
      "logs": [
        {
          "address": "0xCF6bc8d4d55B4BABA1E7783400F3Bf7FbD55CF5b",
          "topics": [
            "0xddf252ad1be2c89b69c2b068fc378daa952ba7f163c4a11628f55a4df523b3ef",
            "0x000000000000000000000000c8b743f9dac913b2a12fc845d86f999c131fe217",
            "0x000000000000000000000000b72cb3cac841ceafce22422179442bd200c24417"
          ],
          "data": "0x00000000000000000000000000000000000000000000000000251b9308424ec0",
          "blockHash": "0x7df1972b2860c6fd8d072dbf7d84d11164d871efa7cbda146cbf7ec0828959b1",
          "blockNumber": "0x602832",
          "transactionHash": "0xb29fb935be46a9263f39c2c90e937aa5e09b512527198ddf84494a75c7f66ce7",
          "transactionIndex": "0x0",
          "logIndex": "0x0",
          "removed": false
        }
      ],
      "status": "0x1",
      "logsBloom": "0x00000000000000002000000000000000400000000000000000000000000000000000000000000000000000000000000000000000000000000000000000000000000000000000000000000008000000000000000000000000000000000000000001000000000000000000000000000000000000000000000000000010000800000000000000000000000000000000000000000100000000000000002000000000000000000000000000000000000000010000000000000000000000000000000000000002000000000400000000000000000000000000000000000000000000000000000000000000000000000000000000000000000000040000000000000000",
      "type": "0x0",
      "effectiveGasPrice": "0xb3c28b7"
    },
    {
      "transactionHash": "0x8ccc6fcb6e27193caf5445489fdd90a3ae3dd6a4a72b821bb1f7853dcc1e0fe4",
      "transactionIndex": "0x0",
      "blockHash": "0xa44ee1a5f2df3703d51b504d97ac7e2fcd03915ba2ce1680f47d3c549ff1a601",
      "blockNumber": "0x602834",
      "from": "0x598CA9Ca53D5bB84Fd56fE41C3f40Ed15D731e18",
      "to": "0x84E015D941864f2AEF39d7D26F8B1Cc236B3A148",
      "cumulativeGasUsed": "0x5208",
      "gasUsed": "0x5208",
      "contractAddress": null,
      "logs": [],
      "status": "0x1",
      "logsBloom": "0x00000000000000000000000000000000000000000000000000000000000000000000000000000000000000000000000000000000000000000000000000000000000000000000000000000000000000000000000000000000000000000000000000000000000000000000000000000000000000000000000000000000000000000000000000000000000000000000000000000000000000000000000000000000000000000000000000000000000000000000000000000000000000000000000000000000000000000000000000000000000000000000000000000000000000000000000000000000000000000000000000000000000000000000000000000000",
      "type": "0x0",
      "effectiveGasPrice": "0xb3c28b7"
    },
    {
      "transactionHash": "0x7d4038aea03d24c008cd2ad605111617c716aa909bbd58f0d62e4087f829e029",
      "transactionIndex": "0x1",
      "blockHash": "0x0db044f544d2328d80dd66d55cc36644b53873176cfa70d009ede8a90650d690",
      "blockNumber": "0x602836",
      "from": "0x598CA9Ca53D5bB84Fd56fE41C3f40Ed15D731e18",
      "to": "0xCF6bc8d4d55B4BABA1E7783400F3Bf7FbD55CF5b",
      "cumulativeGasUsed": "0x16980",
      "gasUsed": "0xc756",
      "contractAddress": null,
      "logs": [
        {
          "address": "0xCF6bc8d4d55B4BABA1E7783400F3Bf7FbD55CF5b",
          "topics": [
            "0xddf252ad1be2c89b69c2b068fc378daa952ba7f163c4a11628f55a4df523b3ef",
            "0x0000000000000000000000000000000000000000000000000000000000000000",
            "0x00000000000000000000000084e015d941864f2aef39d7d26f8b1cc236b3a148"
          ],
          "data": "0x0000000000000000000000000000000000000000000000000de0b6b3a7640000",
          "blockHash": "0x0db044f544d2328d80dd66d55cc36644b53873176cfa70d009ede8a90650d690",
          "blockNumber": "0x602836",
          "transactionHash": "0x7d4038aea03d24c008cd2ad605111617c716aa909bbd58f0d62e4087f829e029",
          "transactionIndex": "0x1",
          "logIndex": "0x2",
          "removed": false
        }
      ],
      "status": "0x1",
      "logsBloom": "0x00000000000000000000000000000000000000000000000000000000000000000000000000000000000000000000000000000000000000000000000000000000000000000000000000000008000000000000000000000000000000000000000001000000020000000000000000000800000000000000000000000010000000000000000000000000000000000000000000000100000000000000000000000000000000000000000000000000000000010000000000000000000000000000000000004002000000000000000000020000000000000000000000000000000020000000800000000000000000000000000000000000000000000000000000000000",
      "type": "0x0",
      "effectiveGasPrice": "0xb3c28b7"
    },
    {
      "transactionHash": "0xa218f347e9f33dbc8614081258e153efd2859c05688656f89e7321f8fb89b697",
      "transactionIndex": "0x0",
      "blockHash": "0x87bad200acba5b98f39c72fe7e49f677c497b34c84485e9bd9459862e314cc2f",
      "blockNumber": "0x602838",
      "from": "0x84E015D941864f2AEF39d7D26F8B1Cc236B3A148",
      "to": "0xCF6bc8d4d55B4BABA1E7783400F3Bf7FbD55CF5b",
      "cumulativeGasUsed": "0xb3a3",
      "gasUsed": "0xb3a3",
      "contractAddress": null,
      "logs": [
        {
          "address": "0xCF6bc8d4d55B4BABA1E7783400F3Bf7FbD55CF5b",
          "topics": [
            "0x8c5be1e5ebec7d5bd14f71427d1e84f3dd0314c0f7b2291e5b200ac8c7c3b925",
            "0x00000000000000000000000084e015d941864f2aef39d7d26f8b1cc236b3a148",
            "0x000000000000000000000000b72cb3cac841ceafce22422179442bd200c24417"
          ],
          "data": "0x00000000000000000000000000000000000000000000000005970af96eeb5640",
          "blockHash": "0x87bad200acba5b98f39c72fe7e49f677c497b34c84485e9bd9459862e314cc2f",
          "blockNumber": "0x602838",
          "transactionHash": "0xa218f347e9f33dbc8614081258e153efd2859c05688656f89e7321f8fb89b697",
          "transactionIndex": "0x0",
          "logIndex": "0x0",
          "removed": false
        }
      ],
      "status": "0x1",
      "logsBloom": "0x00000000000000000000000000000000400000000000000000000000000000000000000000000000000000000000000000000000000000000000000000200000000000000000000000000000000000000000000000000000000000000000000001000000000000000000000000000000000000000000000000000000000800000000000000000000000000000000000000000100000000000000000000000000020000000000000000000000000000010000000000000000000000000000000000004000000000000000000000020000000000000000000000000000000000000010800000000000000000000000000000000000000000040000000000000000",
      "type": "0x0",
      "effectiveGasPrice": "0xb3c28b7"
    },
    {
      "transactionHash": "0xc3f8e609518fae71e87a9afabab1772aff03abdde8899769132807e588688107",
      "transactionIndex": "0x0",
      "blockHash": "0xd2bf4fb95e8ed8f716dd3f76c78c06cd3efcd0554db9e1dd7d1e5c86930d6d51",
      "blockNumber": "0x60283a",
      "from": "0x84E015D941864f2AEF39d7D26F8B1Cc236B3A148",
      "to": "0xb72cB3Cac841CeafCE22422179442Bd200C24417",
      "cumulativeGasUsed": "0x17e54",
      "gasUsed": "0x17e54",
      "contractAddress": null,
      "logs": [
        {
          "address": "0xCF6bc8d4d55B4BABA1E7783400F3Bf7FbD55CF5b",
          "topics": [
            "0xddf252ad1be2c89b69c2b068fc378daa952ba7f163c4a11628f55a4df523b3ef",
            "0x00000000000000000000000084e015d941864f2aef39d7d26f8b1cc236b3a148",
            "0x000000000000000000000000b72cb3cac841ceafce22422179442bd200c24417"
          ],
          "data": "0x00000000000000000000000000000000000000000000000005970af96eeb5640",
          "blockHash": "0xd2bf4fb95e8ed8f716dd3f76c78c06cd3efcd0554db9e1dd7d1e5c86930d6d51",
          "blockNumber": "0x60283a",
          "transactionHash": "0xc3f8e609518fae71e87a9afabab1772aff03abdde8899769132807e588688107",
          "transactionIndex": "0x0",
          "logIndex": "0x0",
          "removed": false
        }
      ],
      "status": "0x1",
      "logsBloom": "0x00000000000000000000000000000000400000000000000000000000000000000000000000000000000000000000000000000000000000000000000000000000000000000000000000000008000000000000000000000000000000000000000001000000000000000000000000000000000000000000000000000010000800000000000000000000000000000000000000000100000000000000000000000000000000000000000000000000000000010000000000000000000000000000000000004002000000000000000000020000000000000000000000000000000000000000800000000000000000000000000000000000000000040000000000000000",
      "type": "0x0",
      "effectiveGasPrice": "0xb3c28b7"
    },
    {
      "transactionHash": "0x5d17457b5e1e1d6cb48ed0722db4fe93b3bc0fd736ed1d5754d0db274450e828",
      "transactionIndex": "0x0",
      "blockHash": "0x85991e2054c33aca72cf5d3592dbac886b01c9e5794f0ae96d74e2d6d734a89a",
      "blockNumber": "0x60283b",
      "from": "0x84E015D941864f2AEF39d7D26F8B1Cc236B3A148",
      "to": "0xCF6bc8d4d55B4BABA1E7783400F3Bf7FbD55CF5b",
      "cumulativeGasUsed": "0xb3a3",
      "gasUsed": "0xb3a3",
      "contractAddress": null,
      "logs": [
        {
          "address": "0xCF6bc8d4d55B4BABA1E7783400F3Bf7FbD55CF5b",
          "topics": [
            "0x8c5be1e5ebec7d5bd14f71427d1e84f3dd0314c0f7b2291e5b200ac8c7c3b925",
            "0x00000000000000000000000084e015d941864f2aef39d7d26f8b1cc236b3a148",
            "0x000000000000000000000000b72cb3cac841ceafce22422179442bd200c24417"
          ],
          "data": "0x00000000000000000000000000000000000000000000000001134435f5aad740",
          "blockHash": "0x85991e2054c33aca72cf5d3592dbac886b01c9e5794f0ae96d74e2d6d734a89a",
          "blockNumber": "0x60283b",
          "transactionHash": "0x5d17457b5e1e1d6cb48ed0722db4fe93b3bc0fd736ed1d5754d0db274450e828",
          "transactionIndex": "0x0",
          "logIndex": "0x0",
          "removed": false
        }
      ],
      "status": "0x1",
      "logsBloom": "0x00000000000000000000000000000000400000000000000000000000000000000000000000000000000000000000000000000000000000000000000000200000000000000000000000000000000000000000000000000000000000000000000001000000000000000000000000000000000000000000000000000000000800000000000000000000000000000000000000000100000000000000000000000000020000000000000000000000000000010000000000000000000000000000000000004000000000000000000000020000000000000000000000000000000000000010800000000000000000000000000000000000000000040000000000000000",
      "type": "0x0",
      "effectiveGasPrice": "0xb3c28b7"
    },
    {
      "transactionHash": "0x8d66d8eed800dc7ea2959eb57da90c5f84254dac8416a715aa03ad4563e92ed4",
      "transactionIndex": "0x0",
      "blockHash": "0x7b6aa320f0c45bb47a457c4d803028a80fed6e5fc70bcce394489126e06a6e82",
      "blockNumber": "0x60283e",
      "from": "0x84E015D941864f2AEF39d7D26F8B1Cc236B3A148",
      "to": "0xb72cB3Cac841CeafCE22422179442Bd200C24417",
      "cumulativeGasUsed": "0xeb22",
      "gasUsed": "0xeb22",
      "contractAddress": null,
      "logs": [
        {
          "address": "0xCF6bc8d4d55B4BABA1E7783400F3Bf7FbD55CF5b",
          "topics": [
            "0xddf252ad1be2c89b69c2b068fc378daa952ba7f163c4a11628f55a4df523b3ef",
            "0x00000000000000000000000084e015d941864f2aef39d7d26f8b1cc236b3a148",
            "0x000000000000000000000000b72cb3cac841ceafce22422179442bd200c24417"
          ],
          "data": "0x00000000000000000000000000000000000000000000000001134435f5aad740",
          "blockHash": "0x7b6aa320f0c45bb47a457c4d803028a80fed6e5fc70bcce394489126e06a6e82",
          "blockNumber": "0x60283e",
          "transactionHash": "0x8d66d8eed800dc7ea2959eb57da90c5f84254dac8416a715aa03ad4563e92ed4",
          "transactionIndex": "0x0",
          "logIndex": "0x0",
          "removed": false
        }
      ],
      "status": "0x1",
      "logsBloom": "0x00000000000000000000000000000000400000000000000000000000000000000000000000000000000000000000000000000000000000000000000000000000000000000000000000000008000000000000000000000000000000000000000001000000000000000000000000000000000000000000000000000010000800000000000000000000000000000000000000000100000000000000000000000000000000000000000000000000000000010000000000000000000000000000000000004002000000000000000000020000000000000000000000000000000000000000800000000000000000000000000000000000000000040000000000000000",
      "type": "0x0",
      "effectiveGasPrice": "0xb3c28b7"
    },
    {
      "transactionHash": "0xb78dc457e5042175bdffb31eaa764f0f583e822e8b61f9ec8a1129e19eb927da",
      "transactionIndex": "0x0",
      "blockHash": "0x89e449cdbe3be861d0454f76de9441377c431e5da911283159fc6dee38583bbd",
      "blockNumber": "0x602840",
      "from": "0x598CA9Ca53D5bB84Fd56fE41C3f40Ed15D731e18",
      "to": "0xd1c690bc15eA06aE31857190751374F8f28eFBEa",
      "cumulativeGasUsed": "0x5208",
      "gasUsed": "0x5208",
      "contractAddress": null,
      "logs": [],
      "status": "0x1",
      "logsBloom": "0x00000000000000000000000000000000000000000000000000000000000000000000000000000000000000000000000000000000000000000000000000000000000000000000000000000000000000000000000000000000000000000000000000000000000000000000000000000000000000000000000000000000000000000000000000000000000000000000000000000000000000000000000000000000000000000000000000000000000000000000000000000000000000000000000000000000000000000000000000000000000000000000000000000000000000000000000000000000000000000000000000000000000000000000000000000000",
      "type": "0x0",
      "effectiveGasPrice": "0xb3c28b7"
    },
    {
      "transactionHash": "0x97944d78d86a7ad3db635e20aa83f2372a5742afa96232e5da005ce68cd238d0",
      "transactionIndex": "0x0",
      "blockHash": "0x62f1605b77067287b1799aeecd581910f702d4614767a9a0160c0684a17643fa",
      "blockNumber": "0x602842",
      "from": "0x598CA9Ca53D5bB84Fd56fE41C3f40Ed15D731e18",
      "to": "0xCF6bc8d4d55B4BABA1E7783400F3Bf7FbD55CF5b",
      "cumulativeGasUsed": "0xc756",
      "gasUsed": "0xc756",
      "contractAddress": null,
      "logs": [
        {
          "address": "0xCF6bc8d4d55B4BABA1E7783400F3Bf7FbD55CF5b",
          "topics": [
            "0xddf252ad1be2c89b69c2b068fc378daa952ba7f163c4a11628f55a4df523b3ef",
            "0x0000000000000000000000000000000000000000000000000000000000000000",
            "0x000000000000000000000000d1c690bc15ea06ae31857190751374f8f28efbea"
          ],
          "data": "0x0000000000000000000000000000000000000000000000000de0b6b3a7640000",
          "blockHash": "0x62f1605b77067287b1799aeecd581910f702d4614767a9a0160c0684a17643fa",
          "blockNumber": "0x602842",
          "transactionHash": "0x97944d78d86a7ad3db635e20aa83f2372a5742afa96232e5da005ce68cd238d0",
          "transactionIndex": "0x0",
          "logIndex": "0x0",
          "removed": false
        }
      ],
      "status": "0x1",
      "logsBloom": "0x00000000000000000000000000000100000000000000000000000000000000000000000000000000000000000000000000000000000000000000000000000000000000000000000020000008000000000000000000000000000000000000000001000000020000000000000000000800000000000000000000000010000000000000000000000000000000000000000000000100000000000000000000000000000000000000000000000000000000010000000000000000000000000000000000000002000000000020000000000000000000000000000000000000000020000000000000000000000000000000000000000000000000000000000000000000",
      "type": "0x0",
      "effectiveGasPrice": "0xb3c28b7"
    },
    {
      "transactionHash": "0xeb43819467782f48bea9f3fe3b713c4d94d97c39b1d7b3d26b7834e7a872ee3f",
      "transactionIndex": "0x1",
      "blockHash": "0xf8d86ce4614a1b5970d2576f30bac2b396982d6e8a314014ccadbc6893e8394f",
      "blockNumber": "0x602844",
      "from": "0xd1c690bc15eA06aE31857190751374F8f28eFBEa",
      "to": "0xCF6bc8d4d55B4BABA1E7783400F3Bf7FbD55CF5b",
      "cumulativeGasUsed": "0x105ab",
      "gasUsed": "0xb3a3",
      "contractAddress": null,
      "logs": [
        {
          "address": "0xCF6bc8d4d55B4BABA1E7783400F3Bf7FbD55CF5b",
          "topics": [
            "0x8c5be1e5ebec7d5bd14f71427d1e84f3dd0314c0f7b2291e5b200ac8c7c3b925",
            "0x000000000000000000000000d1c690bc15ea06ae31857190751374f8f28efbea",
            "0x000000000000000000000000b72cb3cac841ceafce22422179442bd200c24417"
          ],
          "data": "0x0000000000000000000000000000000000000000000000000b9517c7abe5f440",
          "blockHash": "0xf8d86ce4614a1b5970d2576f30bac2b396982d6e8a314014ccadbc6893e8394f",
          "blockNumber": "0x602844",
          "transactionHash": "0xeb43819467782f48bea9f3fe3b713c4d94d97c39b1d7b3d26b7834e7a872ee3f",
          "transactionIndex": "0x1",
          "logIndex": "0x0",
          "removed": false
        }
      ],
      "status": "0x1",
      "logsBloom": "0x00000000000000000000000000000100400000000000000000000000000000000000000000000000000000000000000000000000000000000000000000200000000000000000000020000000000000000000000000000000000000000000000001000000000000000000000000000000000000000000000000000000000800000000000000000000000000000000000000000100000000000000000000000000020000000000000000000000000000010000000000000000000000000000000000000000000000000020000000000000000000000000000000000000000000000010000000000000000000000000000000000000000000040000000000000000",
      "type": "0x0",
      "effectiveGasPrice": "0xb3c28b7"
    },
    {
      "transactionHash": "0xc5871eeb7eaddab812b758eb8a54097a08bf075c8169641735afd2e7c5181ce6",
      "transactionIndex": "0x0",
      "blockHash": "0x340bf3f39a97ffd2967f4f53a418ace6153f9ab0572cc8d73fb4a51a15d336f1",
      "blockNumber": "0x602845",
      "from": "0xd1c690bc15eA06aE31857190751374F8f28eFBEa",
      "to": "0xb72cB3Cac841CeafCE22422179442Bd200C24417",
      "cumulativeGasUsed": "0x17e54",
      "gasUsed": "0x17e54",
      "contractAddress": null,
      "logs": [
        {
          "address": "0xCF6bc8d4d55B4BABA1E7783400F3Bf7FbD55CF5b",
          "topics": [
            "0xddf252ad1be2c89b69c2b068fc378daa952ba7f163c4a11628f55a4df523b3ef",
            "0x000000000000000000000000d1c690bc15ea06ae31857190751374f8f28efbea",
            "0x000000000000000000000000b72cb3cac841ceafce22422179442bd200c24417"
          ],
          "data": "0x0000000000000000000000000000000000000000000000000b9517c7abe5f440",
          "blockHash": "0x340bf3f39a97ffd2967f4f53a418ace6153f9ab0572cc8d73fb4a51a15d336f1",
          "blockNumber": "0x602845",
          "transactionHash": "0xc5871eeb7eaddab812b758eb8a54097a08bf075c8169641735afd2e7c5181ce6",
          "transactionIndex": "0x0",
          "logIndex": "0x0",
          "removed": false
        }
      ],
      "status": "0x1",
      "logsBloom": "0x00000000000000000000000000000100400000000000000000000000000000000000000000000000000000000000000000000000000000000000000000000000000000000000000020000008000000000000000000000000000000000000000001000000000000000000000000000000000000000000000000000010000800000000000000000000000000000000000000000100000000000000000000000000000000000000000000000000000000010000000000000000000000000000000000000002000000000020000000000000000000000000000000000000000000000000000000000000000000000000000000000000000000040000000000000000",
      "type": "0x0",
      "effectiveGasPrice": "0xb3c28b7"
    },
    {
      "transactionHash": "0xc2cb9bc196c4ed5785380456bc5fffc408011a7610f368b2a12ea51575e5ab24",
      "transactionIndex": "0x0",
      "blockHash": "0x73adab8e77e5c0bd0cdcb38f1a5cc2ae6cc2c81ee0e4082414b074bd6e38c73c",
      "blockNumber": "0x602847",
      "from": "0xd1c690bc15eA06aE31857190751374F8f28eFBEa",
      "to": "0xCF6bc8d4d55B4BABA1E7783400F3Bf7FbD55CF5b",
      "cumulativeGasUsed": "0xb3a3",
      "gasUsed": "0xb3a3",
      "contractAddress": null,
      "logs": [
        {
          "address": "0xCF6bc8d4d55B4BABA1E7783400F3Bf7FbD55CF5b",
          "topics": [
            "0x8c5be1e5ebec7d5bd14f71427d1e84f3dd0314c0f7b2291e5b200ac8c7c3b925",
            "0x000000000000000000000000d1c690bc15ea06ae31857190751374f8f28efbea",
            "0x000000000000000000000000b72cb3cac841ceafce22422179442bd200c24417"
          ],
          "data": "0x0000000000000000000000000000000000000000000000000240686c8efc6480",
          "blockHash": "0x73adab8e77e5c0bd0cdcb38f1a5cc2ae6cc2c81ee0e4082414b074bd6e38c73c",
          "blockNumber": "0x602847",
          "transactionHash": "0xc2cb9bc196c4ed5785380456bc5fffc408011a7610f368b2a12ea51575e5ab24",
          "transactionIndex": "0x0",
          "logIndex": "0x0",
          "removed": false
        }
      ],
      "status": "0x1",
      "logsBloom": "0x00000000000000000000000000000100400000000000000000000000000000000000000000000000000000000000000000000000000000000000000000200000000000000000000020000000000000000000000000000000000000000000000001000000000000000000000000000000000000000000000000000000000800000000000000000000000000000000000000000100000000000000000000000000020000000000000000000000000000010000000000000000000000000000000000000000000000000020000000000000000000000000000000000000000000000010000000000000000000000000000000000000000000040000000000000000",
      "type": "0x0",
      "effectiveGasPrice": "0xb3c28b7"
    },
    {
      "transactionHash": "0xe521e5405801e5c44ce7edf1b96500d03fb78050421bfe53cade7521688259be",
      "transactionIndex": "0x0",
      "blockHash": "0x562d095f405c7f0d27740e018107a25cb298360ff7bee2a3b660999a4dc53679",
      "blockNumber": "0x60284a",
      "from": "0xd1c690bc15eA06aE31857190751374F8f28eFBEa",
      "to": "0xb72cB3Cac841CeafCE22422179442Bd200C24417",
      "cumulativeGasUsed": "0xeb22",
      "gasUsed": "0xeb22",
      "contractAddress": null,
      "logs": [
        {
          "address": "0xCF6bc8d4d55B4BABA1E7783400F3Bf7FbD55CF5b",
          "topics": [
            "0xddf252ad1be2c89b69c2b068fc378daa952ba7f163c4a11628f55a4df523b3ef",
            "0x000000000000000000000000d1c690bc15ea06ae31857190751374f8f28efbea",
            "0x000000000000000000000000b72cb3cac841ceafce22422179442bd200c24417"
          ],
          "data": "0x0000000000000000000000000000000000000000000000000240686c8efc6480",
          "blockHash": "0x562d095f405c7f0d27740e018107a25cb298360ff7bee2a3b660999a4dc53679",
          "blockNumber": "0x60284a",
          "transactionHash": "0xe521e5405801e5c44ce7edf1b96500d03fb78050421bfe53cade7521688259be",
          "transactionIndex": "0x0",
          "logIndex": "0x0",
          "removed": false
        }
      ],
      "status": "0x1",
      "logsBloom": "0x00000000000000000000000000000100400000000000000000000000000000000000000000000000000000000000000000000000000000000000000000000000000000000000000020000008000000000000000000000000000000000000000001000000000000000000000000000000000000000000000000000010000800000000000000000000000000000000000000000100000000000000000000000000000000000000000000000000000000010000000000000000000000000000000000000002000000000020000000000000000000000000000000000000000000000000000000000000000000000000000000000000000000040000000000000000",
      "type": "0x0",
      "effectiveGasPrice": "0xb3c28b7"
    }
  ],
  "libraries": [],
  "pending": [],
  "returns": {},
  "timestamp": 1724536796,
  "chain": 534351,
  "commit": "252cc80"
}