{
  "transactions": [
    {
      "hash": "0x444003907e5c28d2a9784afe467fc111adda66aa669be85a7401fd59027500ce",
      "transactionType": "CALL",
      "contractName": null,
      "contractAddress": "0xDD9b094704aB530d395969b00F0904e30fb8EE8F",
      "function": null,
      "arguments": null,
      "transaction": {
        "type": "0x00",
        "from": "0x598ca9ca53d5bb84fd56fe41c3f40ed15d731e18",
        "to": "0xdd9b094704ab530d395969b00f0904e30fb8ee8f",
        "gas": "0x714d",
        "value": "0x574fbde6000",
        "data": "0x",
        "nonce": "0x2d"
      },
      "additionalContracts": [],
      "isFixedGasLimit": false
    },
    {
      "hash": "0x1ec7d58cf22e1cd70949e3a290cb2478f14b3640054d37a6a45d96f00616cbb9",
      "transactionType": "CALL",
      "contractName": "MockUSDC",
      "contractAddress": "0xCF6bc8d4d55B4BABA1E7783400F3Bf7FbD55CF5b",
      "function": "mint(address,uint256)",
      "arguments": [
        "0xDD9b094704aB530d395969b00F0904e30fb8EE8F",
        "1000000000000000000"
      ],
      "transaction": {
        "type": "0x00",
        "from": "0x598ca9ca53d5bb84fd56fe41c3f40ed15d731e18",
        "to": "0xcf6bc8d4d55b4baba1e7783400f3bf7fbd55cf5b",
        "gas": "0x11354",
        "value": "0x0",
        "data": "0x40c10f19000000000000000000000000dd9b094704ab530d395969b00f0904e30fb8ee8f0000000000000000000000000000000000000000000000000de0b6b3a7640000",
        "nonce": "0x2e"
      },
      "additionalContracts": [],
      "isFixedGasLimit": false
    },
    {
      "hash": null,
      "transactionType": "CALL",
      "contractName": "MockUSDC",
      "contractAddress": "0xCF6bc8d4d55B4BABA1E7783400F3Bf7FbD55CF5b",
      "function": "approve(address,uint256)",
      "arguments": [
        "0xb72cB3Cac841CeafCE22422179442Bd200C24417",
        "840032776564000000"
      ],
      "transaction": {
        "type": "0x00",
        "from": "0xdd9b094704ab530d395969b00f0904e30fb8ee8f",
        "to": "0xcf6bc8d4d55b4baba1e7783400f3bf7fbd55cf5b",
        "gas": "0xf80e",
        "value": "0x0",
        "data": "0x095ea7b3000000000000000000000000b72cb3cac841ceafce22422179442bd200c244170000000000000000000000000000000000000000000000000ba8655c0ec84500",
        "nonce": "0x0"
      },
      "additionalContracts": [],
      "isFixedGasLimit": false
    },
    {
      "hash": null,
      "transactionType": "CALL",
      "contractName": "FlappyQF",
      "contractAddress": "0xb72cB3Cac841CeafCE22422179442Bd200C24417",
      "function": "contributeToProject(uint256,uint256)",
      "arguments": [
        "6",
        "840032776564000000"
      ],
      "transaction": {
        "type": "0x00",
        "from": "0xdd9b094704ab530d395969b00f0904e30fb8ee8f",
        "to": "0xb72cb3cac841ceafce22422179442bd200c24417",
        "gas": "0x2c88d",
        "value": "0x0",
        "data": "0xa309bd1600000000000000000000000000000000000000000000000000000000000000060000000000000000000000000000000000000000000000000ba8655c0ec84500",
        "nonce": "0x1"
      },
      "additionalContracts": [],
      "isFixedGasLimit": false
    },
    {
      "hash": null,
      "transactionType": "CALL",
      "contractName": "MockUSDC",
      "contractAddress": "0xCF6bc8d4d55B4BABA1E7783400F3Bf7FbD55CF5b",
      "function": "approve(address,uint256)",
      "arguments": [
        "0xb72cB3Cac841CeafCE22422179442Bd200C24417",
        "107519765470000000"
      ],
      "transaction": {
        "type": "0x00",
        "from": "0xdd9b094704ab530d395969b00f0904e30fb8ee8f",
        "to": "0xcf6bc8d4d55b4baba1e7783400f3bf7fbd55cf5b",
        "gas": "0x106b7",
        "value": "0x0",
        "data": "0x095ea7b3000000000000000000000000b72cb3cac841ceafce22422179442bd200c24417000000000000000000000000000000000000000000000000017dfca8332c3380",
        "nonce": "0x2"
      },
      "additionalContracts": [],
      "isFixedGasLimit": false
    },
    {
      "hash": null,
      "transactionType": "CALL",
      "contractName": "FlappyQF",
      "contractAddress": "0xb72cB3Cac841CeafCE22422179442Bd200C24417",
      "function": "contributeToProject(uint256,uint256)",
      "arguments": [
        "6",
        "107519765470000000"
      ],
      "transaction": {
        "type": "0x00",
        "from": "0xdd9b094704ab530d395969b00f0904e30fb8ee8f",
        "to": "0xb72cb3cac841ceafce22422179442bd200c24417",
        "gas": "0x157e1",
        "value": "0x0",
        "data": "0xa309bd160000000000000000000000000000000000000000000000000000000000000006000000000000000000000000000000000000000000000000017dfca8332c3380",
        "nonce": "0x3"
      },
      "additionalContracts": [],
      "isFixedGasLimit": false
    },
    {
      "hash": null,
      "transactionType": "CALL",
      "contractName": "MockUSDC",
      "contractAddress": "0xCF6bc8d4d55B4BABA1E7783400F3Bf7FbD55CF5b",
      "function": "approve(address,uint256)",
      "arguments": [
        "0xb72cB3Cac841CeafCE22422179442Bd200C24417",
        "15390578956000000"
      ],
      "transaction": {
        "type": "0x00",
        "from": "0xdd9b094704ab530d395969b00f0904e30fb8ee8f",
        "to": "0xcf6bc8d4d55b4baba1e7783400f3bf7fbd55cf5b",
        "gas": "0x10694",
        "value": "0x0",
        "data": "0x095ea7b3000000000000000000000000b72cb3cac841ceafce22422179442bd200c244170000000000000000000000000000000000000000000000000036ada6678f5b00",
        "nonce": "0x4"
      },
      "additionalContracts": [],
      "isFixedGasLimit": false
    },
    {
      "hash": null,
      "transactionType": "CALL",
      "contractName": "FlappyQF",
      "contractAddress": "0xb72cB3Cac841CeafCE22422179442Bd200C24417",
      "function": "contributeToProject(uint256,uint256)",
      "arguments": [
        "6",
        "15390578956000000"
      ],
      "transaction": {
        "type": "0x00",
        "from": "0xdd9b094704ab530d395969b00f0904e30fb8ee8f",
        "to": "0xb72cb3cac841ceafce22422179442bd200c24417",
        "gas": "0x157be",
        "value": "0x0",
        "data": "0xa309bd1600000000000000000000000000000000000000000000000000000000000000060000000000000000000000000000000000000000000000000036ada6678f5b00",
        "nonce": "0x5"
      },
      "additionalContracts": [],
      "isFixedGasLimit": false
    },
    {
      "hash": null,
      "transactionType": "CALL",
      "contractName": null,
      "contractAddress": "0x6Ae8F65D402fcC295EB5D85c703A03Aa85547092",
      "function": null,
      "arguments": null,
      "transaction": {
        "type": "0x00",
        "from": "0x598ca9ca53d5bb84fd56fe41c3f40ed15d731e18",
        "to": "0x6ae8f65d402fcc295eb5d85c703a03aa85547092",
        "gas": "0x714d",
        "value": "0x574fbde6000",
        "data": "0x",
        "nonce": "0x2f"
      },
      "additionalContracts": [],
      "isFixedGasLimit": false
    },
    {
      "hash": null,
      "transactionType": "CALL",
      "contractName": "MockUSDC",
      "contractAddress": "0xCF6bc8d4d55B4BABA1E7783400F3Bf7FbD55CF5b",
      "function": "mint(address,uint256)",
      "arguments": [
        "0x6Ae8F65D402fcC295EB5D85c703A03Aa85547092",
        "1000000000000000000"
      ],
      "transaction": {
        "type": "0x00",
        "from": "0x598ca9ca53d5bb84fd56fe41c3f40ed15d731e18",
        "to": "0xcf6bc8d4d55b4baba1e7783400f3bf7fbd55cf5b",
        "gas": "0x11354",
        "value": "0x0",
        "data": "0x40c10f190000000000000000000000006ae8f65d402fcc295eb5d85c703a03aa855470920000000000000000000000000000000000000000000000000de0b6b3a7640000",
        "nonce": "0x30"
      },
      "additionalContracts": [],
      "isFixedGasLimit": false
    },
    {
      "hash": null,
      "transactionType": "CALL",
      "contractName": "MockUSDC",
      "contractAddress": "0xCF6bc8d4d55B4BABA1E7783400F3Bf7FbD55CF5b",
      "function": "approve(address,uint256)",
      "arguments": [
        "0xb72cB3Cac841CeafCE22422179442Bd200C24417",
        "227854061892000000"
      ],
      "transaction": {
        "type": "0x00",
        "from": "0x6ae8f65d402fcc295eb5d85c703a03aa85547092",
        "to": "0xcf6bc8d4d55b4baba1e7783400f3bf7fbd55cf5b",
        "gas": "0xf80e",
        "value": "0x0",
        "data": "0x095ea7b3000000000000000000000000b72cb3cac841ceafce22422179442bd200c244170000000000000000000000000000000000000000000000000329800fe3b3d900",
        "nonce": "0x0"
      },
      "additionalContracts": [],
      "isFixedGasLimit": false
    },
    {
      "hash": null,
      "transactionType": "CALL",
      "contractName": "FlappyQF",
      "contractAddress": "0xb72cB3Cac841CeafCE22422179442Bd200C24417",
      "function": "contributeToProject(uint256,uint256)",
      "arguments": [
        "0",
        "227854061892000000"
      ],
      "transaction": {
        "type": "0x00",
        "from": "0x6ae8f65d402fcc295eb5d85c703a03aa85547092",
        "to": "0xb72cb3cac841ceafce22422179442bd200c24417",
        "gas": "0x2c87c",
        "value": "0x0",
        "data": "0xa309bd1600000000000000000000000000000000000000000000000000000000000000000000000000000000000000000000000000000000000000000329800fe3b3d900",
        "nonce": "0x1"
      },
      "additionalContracts": [],
      "isFixedGasLimit": false
    },
    {
      "hash": null,
      "transactionType": "CALL",
      "contractName": null,
      "contractAddress": "0x9641B432D9A0281eaC3ed71713736C8c7628006E",
      "function": null,
      "arguments": null,
      "transaction": {
        "type": "0x00",
        "from": "0x598ca9ca53d5bb84fd56fe41c3f40ed15d731e18",
        "to": "0x9641b432d9a0281eac3ed71713736c8c7628006e",
        "gas": "0x714d",
        "value": "0x574fbde6000",
        "data": "0x",
        "nonce": "0x31"
      },
      "additionalContracts": [],
      "isFixedGasLimit": false
    },
    {
      "hash": null,
      "transactionType": "CALL",
      "contractName": "MockUSDC",
      "contractAddress": "0xCF6bc8d4d55B4BABA1E7783400F3Bf7FbD55CF5b",
      "function": "mint(address,uint256)",
      "arguments": [
        "0x9641B432D9A0281eaC3ed71713736C8c7628006E",
        "1000000000000000000"
      ],
      "transaction": {
        "type": "0x00",
        "from": "0x598ca9ca53d5bb84fd56fe41c3f40ed15d731e18",
        "to": "0xcf6bc8d4d55b4baba1e7783400f3bf7fbd55cf5b",
        "gas": "0x12375",
        "value": "0x0",
        "data": "0x40c10f190000000000000000000000009641b432d9a0281eac3ed71713736c8c7628006e0000000000000000000000000000000000000000000000000de0b6b3a7640000",
        "nonce": "0x32"
      },
      "additionalContracts": [],
      "isFixedGasLimit": false
    },
    {
      "hash": null,
      "transactionType": "CALL",
      "contractName": "MockUSDC",
      "contractAddress": "0xCF6bc8d4d55B4BABA1E7783400F3Bf7FbD55CF5b",
      "function": "approve(address,uint256)",
      "arguments": [
        "0xb72cB3Cac841CeafCE22422179442Bd200C24417",
        "718168667382000000"
      ],
      "transaction": {
        "type": "0x00",
        "from": "0x9641b432d9a0281eac3ed71713736c8c7628006e",
        "to": "0xcf6bc8d4d55b4baba1e7783400f3bf7fbd55cf5b",
        "gas": "0x106b7",
        "value": "0x0",
        "data": "0x095ea7b3000000000000000000000000b72cb3cac841ceafce22422179442bd200c2441700000000000000000000000000000000000000000000000009f77299141ea980",
        "nonce": "0x0"
      },
      "additionalContracts": [],
      "isFixedGasLimit": false
    },
    {
      "hash": null,
      "transactionType": "CALL",
      "contractName": "FlappyQF",
      "contractAddress": "0xb72cB3Cac841CeafCE22422179442Bd200C24417",
      "function": "contributeToProject(uint256,uint256)",
      "arguments": [
        "4",
        "718168667382000000"
      ],
      "transaction": {
        "type": "0x00",
        "from": "0x9641b432d9a0281eac3ed71713736c8c7628006e",
        "to": "0xb72cb3cac841ceafce22422179442bd200c24417",
        "gas": "0x2c89d",
        "value": "0x0",
        "data": "0xa309bd16000000000000000000000000000000000000000000000000000000000000000400000000000000000000000000000000000000000000000009f77299141ea980",
        "nonce": "0x1"
      },
      "additionalContracts": [],
      "isFixedGasLimit": false
    },
    {
      "hash": null,
      "transactionType": "CALL",
      "contractName": null,
      "contractAddress": "0x535414e62327AEac2c11fb3d9730CF51F5c681B5",
      "function": null,
      "arguments": null,
      "transaction": {
        "type": "0x00",
        "from": "0x598ca9ca53d5bb84fd56fe41c3f40ed15d731e18",
        "to": "0x535414e62327aeac2c11fb3d9730cf51f5c681b5",
        "gas": "0x714d",
        "value": "0x574fbde6000",
        "data": "0x",
        "nonce": "0x33"
      },
      "additionalContracts": [],
      "isFixedGasLimit": false
    },
    {
      "hash": null,
      "transactionType": "CALL",
      "contractName": "MockUSDC",
      "contractAddress": "0xCF6bc8d4d55B4BABA1E7783400F3Bf7FbD55CF5b",
      "function": "mint(address,uint256)",
      "arguments": [
        "0x535414e62327AEac2c11fb3d9730CF51F5c681B5",
        "1000000000000000000"
      ],
      "transaction": {
        "type": "0x00",
        "from": "0x598ca9ca53d5bb84fd56fe41c3f40ed15d731e18",
        "to": "0xcf6bc8d4d55b4baba1e7783400f3bf7fbd55cf5b",
        "gas": "0x11354",
        "value": "0x0",
        "data": "0x40c10f19000000000000000000000000535414e62327aeac2c11fb3d9730cf51f5c681b50000000000000000000000000000000000000000000000000de0b6b3a7640000",
        "nonce": "0x34"
      },
      "additionalContracts": [],
      "isFixedGasLimit": false
    },
    {
      "hash": null,
      "transactionType": "CALL",
      "contractName": "MockUSDC",
      "contractAddress": "0xCF6bc8d4d55B4BABA1E7783400F3Bf7FbD55CF5b",
      "function": "approve(address,uint256)",
      "arguments": [
        "0xb72cB3Cac841CeafCE22422179442Bd200C24417",
        "961135787451000000"
      ],
      "transaction": {
        "type": "0x00",
        "from": "0x535414e62327aeac2c11fb3d9730cf51f5c681b5",
        "to": "0xcf6bc8d4d55b4baba1e7783400f3bf7fbd55cf5b",
        "gas": "0x106b7",
        "value": "0x0",
        "data": "0x095ea7b3000000000000000000000000b72cb3cac841ceafce22422179442bd200c244170000000000000000000000000000000000000000000000000d56a3e807eea4c0",
        "nonce": "0x0"
      },
      "additionalContracts": [],
      "isFixedGasLimit": false
    },
    {
      "hash": null,
      "transactionType": "CALL",
      "contractName": "FlappyQF",
      "contractAddress": "0xb72cB3Cac841CeafCE22422179442Bd200C24417",
      "function": "contributeToProject(uint256,uint256)",
      "arguments": [
        "1",
        "961135787451000000"
      ],
      "transaction": {
        "type": "0x00",
        "from": "0x535414e62327aeac2c11fb3d9730cf51f5c681b5",
        "to": "0xb72cb3cac841ceafce22422179442bd200c24417",
        "gas": "0x2c89d",
        "value": "0x0",
        "data": "0xa309bd1600000000000000000000000000000000000000000000000000000000000000010000000000000000000000000000000000000000000000000d56a3e807eea4c0",
        "nonce": "0x1"
      },
      "additionalContracts": [],
      "isFixedGasLimit": false
    },
    {
      "hash": null,
      "transactionType": "CALL",
      "contractName": "MockUSDC",
      "contractAddress": "0xCF6bc8d4d55B4BABA1E7783400F3Bf7FbD55CF5b",
      "function": "approve(address,uint256)",
      "arguments": [
        "0xb72cB3Cac841CeafCE22422179442Bd200C24417",
        "21188650314000000"
      ],
      "transaction": {
        "type": "0x00",
        "from": "0x535414e62327aeac2c11fb3d9730cf51f5c681b5",
        "to": "0xcf6bc8d4d55b4baba1e7783400f3bf7fbd55cf5b",
        "gas": "0xf80e",
        "value": "0x0",
        "data": "0x095ea7b3000000000000000000000000b72cb3cac841ceafce22422179442bd200c24417000000000000000000000000000000000000000000000000004b46f7173c6680",
        "nonce": "0x2"
      },
      "additionalContracts": [],
      "isFixedGasLimit": false
    },
    {
      "hash": null,
      "transactionType": "CALL",
      "contractName": "FlappyQF",
      "contractAddress": "0xb72cB3Cac841CeafCE22422179442Bd200C24417",
      "function": "contributeToProject(uint256,uint256)",
      "arguments": [
        "1",
        "21188650314000000"
      ],
      "transaction": {
        "type": "0x00",
        "from": "0x535414e62327aeac2c11fb3d9730cf51f5c681b5",
        "to": "0xb72cb3cac841ceafce22422179442bd200c24417",
        "gas": "0x144b5",
        "value": "0x0",
        "data": "0xa309bd160000000000000000000000000000000000000000000000000000000000000001000000000000000000000000000000000000000000000000004b46f7173c6680",
        "nonce": "0x3"
      },
      "additionalContracts": [],
      "isFixedGasLimit": false
    },
    {
      "hash": null,
      "transactionType": "CALL",
      "contractName": null,
      "contractAddress": "0xF93b9D6F09E941e0e056b9Cd59d69B5DB6095490",
      "function": null,
      "arguments": null,
      "transaction": {
        "type": "0x00",
        "from": "0x598ca9ca53d5bb84fd56fe41c3f40ed15d731e18",
        "to": "0xf93b9d6f09e941e0e056b9cd59d69b5db6095490",
        "gas": "0x714d",
        "value": "0x574fbde6000",
        "data": "0x",
        "nonce": "0x35"
      },
      "additionalContracts": [],
      "isFixedGasLimit": false
    },
    {
      "hash": null,
      "transactionType": "CALL",
      "contractName": "MockUSDC",
      "contractAddress": "0xCF6bc8d4d55B4BABA1E7783400F3Bf7FbD55CF5b",
      "function": "mint(address,uint256)",
      "arguments": [
        "0xF93b9D6F09E941e0e056b9Cd59d69B5DB6095490",
        "1000000000000000000"
      ],
      "transaction": {
        "type": "0x00",
        "from": "0x598ca9ca53d5bb84fd56fe41c3f40ed15d731e18",
        "to": "0xcf6bc8d4d55b4baba1e7783400f3bf7fbd55cf5b",
        "gas": "0x11354",
        "value": "0x0",
        "data": "0x40c10f19000000000000000000000000f93b9d6f09e941e0e056b9cd59d69b5db60954900000000000000000000000000000000000000000000000000de0b6b3a7640000",
        "nonce": "0x36"
      },
      "additionalContracts": [],
      "isFixedGasLimit": false
    },
    {
      "hash": null,
      "transactionType": "CALL",
      "contractName": "MockUSDC",
      "contractAddress": "0xCF6bc8d4d55B4BABA1E7783400F3Bf7FbD55CF5b",
      "function": "approve(address,uint256)",
      "arguments": [
        "0xb72cB3Cac841CeafCE22422179442Bd200C24417",
        "817132343940000000"
      ],
      "transaction": {
        "type": "0x00",
        "from": "0xf93b9d6f09e941e0e056b9cd59d69b5db6095490",
        "to": "0xcf6bc8d4d55b4baba1e7783400f3bf7fbd55cf5b",
        "gas": "0xf80e",
        "value": "0x0",
        "data": "0x095ea7b3000000000000000000000000b72cb3cac841ceafce22422179442bd200c244170000000000000000000000000000000000000000000000000b5709899706a900",
        "nonce": "0x0"
      },
      "additionalContracts": [],
      "isFixedGasLimit": false
    },
    {
      "hash": null,
      "transactionType": "CALL",
      "contractName": "FlappyQF",
      "contractAddress": "0xb72cB3Cac841CeafCE22422179442Bd200C24417",
      "function": "contributeToProject(uint256,uint256)",
      "arguments": [
        "6",
        "817132343940000000"
      ],
      "transaction": {
        "type": "0x00",
        "from": "0xf93b9d6f09e941e0e056b9cd59d69b5db6095490",
        "to": "0xb72cb3cac841ceafce22422179442bd200c24417",
        "gas": "0x21006",
        "value": "0x0",
        "data": "0xa309bd1600000000000000000000000000000000000000000000000000000000000000060000000000000000000000000000000000000000000000000b5709899706a900",
        "nonce": "0x1"
      },
      "additionalContracts": [],
      "isFixedGasLimit": false
    },
    {
      "hash": null,
      "transactionType": "CALL",
      "contractName": "MockUSDC",
      "contractAddress": "0xCF6bc8d4d55B4BABA1E7783400F3Bf7FbD55CF5b",
      "function": "approve(address,uint256)",
      "arguments": [
        "0xb72cB3Cac841CeafCE22422179442Bd200C24417",
        "166079199870000000"
      ],
      "transaction": {
        "type": "0x00",
        "from": "0xf93b9d6f09e941e0e056b9cd59d69b5db6095490",
        "to": "0xcf6bc8d4d55b4baba1e7783400f3bf7fbd55cf5b",
        "gas": "0xf80e",
        "value": "0x0",
        "data": "0x095ea7b3000000000000000000000000b72cb3cac841ceafce22422179442bd200c24417000000000000000000000000000000000000000000000000024e082700d51b80",
        "nonce": "0x2"
      },
      "additionalContracts": [],
      "isFixedGasLimit": false
    },
    {
      "hash": null,
      "transactionType": "CALL",
      "contractName": "FlappyQF",
      "contractAddress": "0xb72cB3Cac841CeafCE22422179442Bd200C24417",
      "function": "contributeToProject(uint256,uint256)",
      "arguments": [
        "6",
        "166079199870000000"
      ],
      "transaction": {
        "type": "0x00",
        "from": "0xf93b9d6f09e941e0e056b9cd59d69b5db6095490",
        "to": "0xb72cb3cac841ceafce22422179442bd200c24417",
        "gas": "0x144b5",
        "value": "0x0",
        "data": "0xa309bd160000000000000000000000000000000000000000000000000000000000000006000000000000000000000000000000000000000000000000024e082700d51b80",
        "nonce": "0x3"
      },
      "additionalContracts": [],
      "isFixedGasLimit": false
    },
    {
      "hash": null,
      "transactionType": "CALL",
      "contractName": "MockUSDC",
      "contractAddress": "0xCF6bc8d4d55B4BABA1E7783400F3Bf7FbD55CF5b",
      "function": "approve(address,uint256)",
      "arguments": [
        "0xb72cB3Cac841CeafCE22422179442Bd200C24417",
        "4361026320000000"
      ],
      "transaction": {
        "type": "0x00",
        "from": "0xf93b9d6f09e941e0e056b9cd59d69b5db6095490",
        "to": "0xcf6bc8d4d55b4baba1e7783400f3bf7fbd55cf5b",
        "gas": "0x10694",
        "value": "0x0",
        "data": "0x095ea7b3000000000000000000000000b72cb3cac841ceafce22422179442bd200c24417000000000000000000000000000000000000000000000000000f7e5490a8e400",
        "nonce": "0x4"
      },
      "additionalContracts": [],
      "isFixedGasLimit": false
    },
    {
      "hash": null,
      "transactionType": "CALL",
      "contractName": "FlappyQF",
      "contractAddress": "0xb72cB3Cac841CeafCE22422179442Bd200C24417",
      "function": "contributeToProject(uint256,uint256)",
      "arguments": [
        "6",
        "4361026320000000"
      ],
      "transaction": {
        "type": "0x00",
        "from": "0xf93b9d6f09e941e0e056b9cd59d69b5db6095490",
        "to": "0xb72cb3cac841ceafce22422179442bd200c24417",
        "gas": "0x157be",
        "value": "0x0",
        "data": "0xa309bd160000000000000000000000000000000000000000000000000000000000000006000000000000000000000000000000000000000000000000000f7e5490a8e400",
        "nonce": "0x5"
      },
      "additionalContracts": [],
      "isFixedGasLimit": false
    },
    {
      "hash": null,
      "transactionType": "CALL",
      "contractName": null,
      "contractAddress": "0xc8B743f9Dac913B2A12FC845d86F999C131fe217",
      "function": null,
      "arguments": null,
      "transaction": {
        "type": "0x00",
        "from": "0x598ca9ca53d5bb84fd56fe41c3f40ed15d731e18",
        "to": "0xc8b743f9dac913b2a12fc845d86f999c131fe217",
        "gas": "0x714d",
        "value": "0x574fbde6000",
        "data": "0x",
        "nonce": "0x37"
      },
      "additionalContracts": [],
      "isFixedGasLimit": false
    },
    {
      "hash": null,
      "transactionType": "CALL",
      "contractName": "MockUSDC",
      "contractAddress": "0xCF6bc8d4d55B4BABA1E7783400F3Bf7FbD55CF5b",
      "function": "mint(address,uint256)",
      "arguments": [
        "0xc8B743f9Dac913B2A12FC845d86F999C131fe217",
        "1000000000000000000"
      ],
      "transaction": {
        "type": "0x00",
        "from": "0x598ca9ca53d5bb84fd56fe41c3f40ed15d731e18",
        "to": "0xcf6bc8d4d55b4baba1e7783400f3bf7fbd55cf5b",
        "gas": "0x11354",
        "value": "0x0",
        "data": "0x40c10f19000000000000000000000000c8b743f9dac913b2a12fc845d86f999c131fe2170000000000000000000000000000000000000000000000000de0b6b3a7640000",
        "nonce": "0x38"
      },
      "additionalContracts": [],
      "isFixedGasLimit": false
    },
    {
      "hash": null,
      "transactionType": "CALL",
      "contractName": "MockUSDC",
      "contractAddress": "0xCF6bc8d4d55B4BABA1E7783400F3Bf7FbD55CF5b",
      "function": "approve(address,uint256)",
      "arguments": [
        "0xb72cB3Cac841CeafCE22422179442Bd200C24417",
        "791815432182000000"
      ],
      "transaction": {
        "type": "0x00",
        "from": "0xc8b743f9dac913b2a12fc845d86f999c131fe217",
        "to": "0xcf6bc8d4d55b4baba1e7783400f3bf7fbd55cf5b",
        "gas": "0x106b7",
        "value": "0x0",
        "data": "0x095ea7b3000000000000000000000000b72cb3cac841ceafce22422179442bd200c244170000000000000000000000000000000000000000000000000afd17f0bae16980",
        "nonce": "0x0"
      },
      "additionalContracts": [],
      "isFixedGasLimit": false
    },
    {
      "hash": null,
      "transactionType": "CALL",
      "contractName": "FlappyQF",
      "contractAddress": "0xb72cB3Cac841CeafCE22422179442Bd200C24417",
      "function": "contributeToProject(uint256,uint256)",
      "arguments": [
        "2",
        "791815432182000000"
      ],
      "transaction": {
        "type": "0x00",
        "from": "0xc8b743f9dac913b2a12fc845d86f999c131fe217",
        "to": "0xb72cb3cac841ceafce22422179442bd200c24417",
        "gas": "0x2c89d",
        "value": "0x0",
        "data": "0xa309bd1600000000000000000000000000000000000000000000000000000000000000020000000000000000000000000000000000000000000000000afd17f0bae16980",
        "nonce": "0x1"
      },
      "additionalContracts": [],
      "isFixedGasLimit": false
    },
    {
      "hash": null,
      "transactionType": "CALL",
      "contractName": "MockUSDC",
      "contractAddress": "0xCF6bc8d4d55B4BABA1E7783400F3Bf7FbD55CF5b",
      "function": "approve(address,uint256)",
      "arguments": [
        "0xb72cB3Cac841CeafCE22422179442Bd200C24417",
        "135112173156000000"
      ],
      "transaction": {
        "type": "0x00",
        "from": "0xc8b743f9dac913b2a12fc845d86f999c131fe217",
        "to": "0xcf6bc8d4d55b4baba1e7783400f3bf7fbd55cf5b",
        "gas": "0xf80e",
        "value": "0x0",
        "data": "0x095ea7b3000000000000000000000000b72cb3cac841ceafce22422179442bd200c2441700000000000000000000000000000000000000000000000001e003ce3dcb6100",
        "nonce": "0x2"
      },
      "additionalContracts": [],
      "isFixedGasLimit": false
    },
    {
      "hash": null,
      "transactionType": "CALL",
      "contractName": "FlappyQF",
      "contractAddress": "0xb72cB3Cac841CeafCE22422179442Bd200C24417",
      "function": "contributeToProject(uint256,uint256)",
      "arguments": [
        "2",
        "135112173156000000"
      ],
      "transaction": {
        "type": "0x00",
        "from": "0xc8b743f9dac913b2a12fc845d86f999c131fe217",
        "to": "0xb72cb3cac841ceafce22422179442bd200c24417",
        "gas": "0x144b5",
        "value": "0x0",
        "data": "0xa309bd16000000000000000000000000000000000000000000000000000000000000000200000000000000000000000000000000000000000000000001e003ce3dcb6100",
        "nonce": "0x3"
      },
      "additionalContracts": [],
      "isFixedGasLimit": false
    },
    {
      "hash": null,
      "transactionType": "CALL",
      "contractName": "MockUSDC",
      "contractAddress": "0xCF6bc8d4d55B4BABA1E7783400F3Bf7FbD55CF5b",
      "function": "approve(address,uint256)",
      "arguments": [
        "0xb72cB3Cac841CeafCE22422179442Bd200C24417",
        "62351151540000000"
      ],
      "transaction": {
        "type": "0x00",
        "from": "0xc8b743f9dac913b2a12fc845d86f999c131fe217",
        "to": "0xcf6bc8d4d55b4baba1e7783400f3bf7fbd55cf5b",
        "gas": "0x10694",
        "value": "0x0",
        "data": "0x095ea7b3000000000000000000000000b72cb3cac841ceafce22422179442bd200c2441700000000000000000000000000000000000000000000000000dd840abee0d500",
        "nonce": "0x4"
      },
      "additionalContracts": [],
      "isFixedGasLimit": false
    },
    {
      "hash": null,
      "transactionType": "CALL",
      "contractName": "FlappyQF",
      "contractAddress": "0xb72cB3Cac841CeafCE22422179442Bd200C24417",
      "function": "contributeToProject(uint256,uint256)",
      "arguments": [
        "2",
        "62351151540000000"
      ],
      "transaction": {
        "type": "0x00",
        "from": "0xc8b743f9dac913b2a12fc845d86f999c131fe217",
        "to": "0xb72cb3cac841ceafce22422179442bd200c24417",
        "gas": "0x157be",
        "value": "0x0",
        "data": "0xa309bd16000000000000000000000000000000000000000000000000000000000000000200000000000000000000000000000000000000000000000000dd840abee0d500",
        "nonce": "0x5"
      },
      "additionalContracts": [],
      "isFixedGasLimit": false
    },
    {
      "hash": null,
      "transactionType": "CALL",
      "contractName": null,
      "contractAddress": "0x84E015D941864f2AEF39d7D26F8B1Cc236B3A148",
      "function": null,
      "arguments": null,
      "transaction": {
        "type": "0x00",
        "from": "0x598ca9ca53d5bb84fd56fe41c3f40ed15d731e18",
        "to": "0x84e015d941864f2aef39d7d26f8b1cc236b3a148",
        "gas": "0x714d",
        "value": "0x574fbde6000",
        "data": "0x",
        "nonce": "0x39"
      },
      "additionalContracts": [],
      "isFixedGasLimit": false
    },
    {
      "hash": null,
      "transactionType": "CALL",
      "contractName": "MockUSDC",
      "contractAddress": "0xCF6bc8d4d55B4BABA1E7783400F3Bf7FbD55CF5b",
      "function": "mint(address,uint256)",
      "arguments": [
        "0x84E015D941864f2AEF39d7D26F8B1Cc236B3A148",
        "1000000000000000000"
      ],
      "transaction": {
        "type": "0x00",
        "from": "0x598ca9ca53d5bb84fd56fe41c3f40ed15d731e18",
        "to": "0xcf6bc8d4d55b4baba1e7783400f3bf7fbd55cf5b",
        "gas": "0x11354",
        "value": "0x0",
        "data": "0x40c10f1900000000000000000000000084e015d941864f2aef39d7d26f8b1cc236b3a1480000000000000000000000000000000000000000000000000de0b6b3a7640000",
        "nonce": "0x3a"
      },
      "additionalContracts": [],
      "isFixedGasLimit": false
    },
    {
      "hash": null,
      "transactionType": "CALL",
      "contractName": "MockUSDC",
      "contractAddress": "0xCF6bc8d4d55B4BABA1E7783400F3Bf7FbD55CF5b",
      "function": "approve(address,uint256)",
      "arguments": [
        "0xb72cB3Cac841CeafCE22422179442Bd200C24417",
        "144356215425000000"
      ],
      "transaction": {
        "type": "0x00",
        "from": "0x84e015d941864f2aef39d7d26f8b1cc236b3a148",
        "to": "0xcf6bc8d4d55b4baba1e7783400f3bf7fbd55cf5b",
        "gas": "0xf80e",
        "value": "0x0",
        "data": "0x095ea7b3000000000000000000000000b72cb3cac841ceafce22422179442bd200c244170000000000000000000000000000000000000000000000000200db368d86e240",
        "nonce": "0x0"
      },
      "additionalContracts": [],
      "isFixedGasLimit": false
    },
    {
      "hash": null,
      "transactionType": "CALL",
      "contractName": "FlappyQF",
      "contractAddress": "0xb72cB3Cac841CeafCE22422179442Bd200C24417",
      "function": "contributeToProject(uint256,uint256)",
      "arguments": [
        "5",
        "144356215425000000"
      ],
      "transaction": {
        "type": "0x00",
        "from": "0x84e015d941864f2aef39d7d26f8b1cc236b3a148",
        "to": "0xb72cb3cac841ceafce22422179442bd200c24417",
        "gas": "0x2c88d",
        "value": "0x0",
        "data": "0xa309bd1600000000000000000000000000000000000000000000000000000000000000050000000000000000000000000000000000000000000000000200db368d86e240",
        "nonce": "0x1"
      },
      "additionalContracts": [],
      "isFixedGasLimit": false
    },
    {
      "hash": null,
      "transactionType": "CALL",
      "contractName": "MockUSDC",
      "contractAddress": "0xCF6bc8d4d55B4BABA1E7783400F3Bf7FbD55CF5b",
      "function": "approve(address,uint256)",
      "arguments": [
        "0xb72cB3Cac841CeafCE22422179442Bd200C24417",
        "850589398425000000"
      ],
      "transaction": {
        "type": "0x00",
        "from": "0x84e015d941864f2aef39d7d26f8b1cc236b3a148",
        "to": "0xcf6bc8d4d55b4baba1e7783400f3bf7fbd55cf5b",
        "gas": "0x106b7",
        "value": "0x0",
        "data": "0x095ea7b3000000000000000000000000b72cb3cac841ceafce22422179442bd200c244170000000000000000000000000000000000000000000000000bcde68d1ed5d840",
        "nonce": "0x2"
      },
      "additionalContracts": [],
      "isFixedGasLimit": false
    },
    {
      "hash": null,
      "transactionType": "CALL",
      "contractName": "FlappyQF",
      "contractAddress": "0xb72cB3Cac841CeafCE22422179442Bd200C24417",
      "function": "contributeToProject(uint256,uint256)",
      "arguments": [
        "5",
        "850589398425000000"
      ],
      "transaction": {
        "type": "0x00",
        "from": "0x84e015d941864f2aef39d7d26f8b1cc236b3a148",
        "to": "0xb72cb3cac841ceafce22422179442bd200c24417",
        "gas": "0x157e1",
        "value": "0x0",
        "data": "0xa309bd1600000000000000000000000000000000000000000000000000000000000000050000000000000000000000000000000000000000000000000bcde68d1ed5d840",
        "nonce": "0x3"
      },
      "additionalContracts": [],
      "isFixedGasLimit": false
    },
    {
      "hash": null,
      "transactionType": "CALL",
      "contractName": null,
      "contractAddress": "0xd1c690bc15eA06aE31857190751374F8f28eFBEa",
      "function": null,
      "arguments": null,
      "transaction": {
        "type": "0x00",
        "from": "0x598ca9ca53d5bb84fd56fe41c3f40ed15d731e18",
        "to": "0xd1c690bc15ea06ae31857190751374f8f28efbea",
        "gas": "0x714d",
        "value": "0x574fbde6000",
        "data": "0x",
        "nonce": "0x3b"
      },
      "additionalContracts": [],
      "isFixedGasLimit": false
    },
    {
      "hash": null,
      "transactionType": "CALL",
      "contractName": "MockUSDC",
      "contractAddress": "0xCF6bc8d4d55B4BABA1E7783400F3Bf7FbD55CF5b",
      "function": "mint(address,uint256)",
      "arguments": [
        "0xd1c690bc15eA06aE31857190751374F8f28eFBEa",
        "1000000000000000000"
      ],
      "transaction": {
        "type": "0x00",
        "from": "0x598ca9ca53d5bb84fd56fe41c3f40ed15d731e18",
        "to": "0xcf6bc8d4d55b4baba1e7783400f3bf7fbd55cf5b",
        "gas": "0x11354",
        "value": "0x0",
        "data": "0x40c10f19000000000000000000000000d1c690bc15ea06ae31857190751374f8f28efbea0000000000000000000000000000000000000000000000000de0b6b3a7640000",
        "nonce": "0x3c"
      },
      "additionalContracts": [],
      "isFixedGasLimit": false
    },
    {
      "hash": null,
      "transactionType": "CALL",
      "contractName": "MockUSDC",
      "contractAddress": "0xCF6bc8d4d55B4BABA1E7783400F3Bf7FbD55CF5b",
      "function": "approve(address,uint256)",
      "arguments": [
        "0xb72cB3Cac841CeafCE22422179442Bd200C24417",
        "127895656360000000"
      ],
      "transaction": {
        "type": "0x00",
        "from": "0xd1c690bc15ea06ae31857190751374f8f28efbea",
        "to": "0xcf6bc8d4d55b4baba1e7783400f3bf7fbd55cf5b",
        "gas": "0xf80e",
        "value": "0x0",
        "data": "0x095ea7b3000000000000000000000000b72cb3cac841ceafce22422179442bd200c2441700000000000000000000000000000000000000000000000001c6606bfda73a00",
        "nonce": "0x0"
      },
      "additionalContracts": [],
      "isFixedGasLimit": false
    },
    {
      "hash": null,
      "transactionType": "CALL",
      "contractName": "FlappyQF",
      "contractAddress": "0xb72cB3Cac841CeafCE22422179442Bd200C24417",
      "function": "contributeToProject(uint256,uint256)",
      "arguments": [
        "4",
        "127895656360000000"
      ],
      "transaction": {
        "type": "0x00",
        "from": "0xd1c690bc15ea06ae31857190751374f8f28efbea",
        "to": "0xb72cb3cac841ceafce22422179442bd200c24417",
        "gas": "0x21006",
        "value": "0x0",
        "data": "0xa309bd16000000000000000000000000000000000000000000000000000000000000000400000000000000000000000000000000000000000000000001c6606bfda73a00",
        "nonce": "0x1"
      },
      "additionalContracts": [],
      "isFixedGasLimit": false
    }
  ],
  "receipts": [
    {
      "transactionHash": "0x444003907e5c28d2a9784afe467fc111adda66aa669be85a7401fd59027500ce",
      "transactionIndex": "0x0",
      "blockHash": "0x1815b669c9c35cf3bbac4c6714d7e7c36b160f41522c57d9bf086c782562c08c",
      "blockNumber": "0x602796",
      "from": "0x598CA9Ca53D5bB84Fd56fE41C3f40Ed15D731e18",
      "to": "0xDD9b094704aB530d395969b00F0904e30fb8EE8F",
      "cumulativeGasUsed": "0x5208",
      "gasUsed": "0x5208",
      "contractAddress": null,
      "logs": [],
      "status": "0x1",
      "logsBloom": "0x00000000000000000000000000000000000000000000000000000000000000000000000000000000000000000000000000000000000000000000000000000000000000000000000000000000000000000000000000000000000000000000000000000000000000000000000000000000000000000000000000000000000000000000000000000000000000000000000000000000000000000000000000000000000000000000000000000000000000000000000000000000000000000000000000000000000000000000000000000000000000000000000000000000000000000000000000000000000000000000000000000000000000000000000000000000",
      "type": "0x0",
      "effectiveGasPrice": "0xb3be738"
    },
    {
      "transactionHash": "0x1ec7d58cf22e1cd70949e3a290cb2478f14b3640054d37a6a45d96f00616cbb9",
      "transactionIndex": "0x0",
      "blockHash": "0xad3c0237f1125e61b502101baf44462a2a1c2117fe9a8d5322569d5fc72cd617",
      "blockNumber": "0x602798",
      "from": "0x598CA9Ca53D5bB84Fd56fE41C3f40Ed15D731e18",
      "to": "0xCF6bc8d4d55B4BABA1E7783400F3Bf7FbD55CF5b",
      "cumulativeGasUsed": "0xc756",
      "gasUsed": "0xc756",
      "contractAddress": null,
      "logs": [
        {
          "address": "0xCF6bc8d4d55B4BABA1E7783400F3Bf7FbD55CF5b",
          "topics": [
            "0xddf252ad1be2c89b69c2b068fc378daa952ba7f163c4a11628f55a4df523b3ef",
            "0x0000000000000000000000000000000000000000000000000000000000000000",
            "0x000000000000000000000000dd9b094704ab530d395969b00f0904e30fb8ee8f"
          ],
          "data": "0x0000000000000000000000000000000000000000000000000de0b6b3a7640000",
          "blockHash": "0xad3c0237f1125e61b502101baf44462a2a1c2117fe9a8d5322569d5fc72cd617",
          "blockNumber": "0x602798",
          "transactionHash": "0x1ec7d58cf22e1cd70949e3a290cb2478f14b3640054d37a6a45d96f00616cbb9",
          "transactionIndex": "0x0",
          "logIndex": "0x0",
          "removed": false
        }
      ],
      "status": "0x1",
      "logsBloom": "0x00000000000000000000000000000000000000000000400000000000000000000000000000000000000000000000000000000000000000000000000000000000000000000000000000000008000000000000000000000000000000000000000001000000020000000000000000000800000000000000000000020010000000000000000000000000000000000000000000000100000000000000000000000000000000000000000000000000000000010000000000000000000000000000000000040002000000000000000000000000000000000000000000000000000020000000000000000000000000000000000000000000000000000000000000000000",
      "type": "0x0",
      "effectiveGasPrice": "0xb3be738"
    }
  ],
  "libraries": [],
  "pending": [],
  "returns": {},
  "timestamp": 1724536184,
  "chain": 534351,
  "commit": "252cc80"
}