{
  "transactions": [
    {
      "hash": "0x07670c1135a5608dedcd9010504ac7f01bb2a7b08c8a6ee0c972dd4029584276",
      "transactionType": "CALL",
      "contractName": null,
      "contractAddress": "0xDD9b094704aB530d395969b00F0904e30fb8EE8F",
      "function": null,
      "arguments": null,
      "transaction": {
        "type": "0x02",
        "from": "0x598ca9ca53d5bb84fd56fe41c3f40ed15d731e18",
        "to": "0xdd9b094704ab530d395969b00f0904e30fb8ee8f",
        "gas": "0x714d",
        "value": "0x16345785d8a0000",
        "data": "0x",
        "nonce": "0x15a",
        "accessList": []
      },
      "additionalContracts": [],
      "isFixedGasLimit": false
    },
    {
      "hash": "0x2bfc3647d1fc7e43ec2ac910d6a2bd4293702669e77f82f3587ef03b844d9690",
      "transactionType": "CALL",
      "contractName": "MockUSDC",
      "contractAddress": "0x84C893d0a3D9AAa2f5c89db90309d7dDe1FC4fCe",
      "function": "transfer(address,uint256)",
      "arguments": [
        "0xDD9b094704aB530d395969b00F0904e30fb8EE8F",
        "1000000000"
      ],
      "transaction": {
        "type": "0x02",
        "from": "0x598ca9ca53d5bb84fd56fe41c3f40ed15d731e18",
        "to": "0x84c893d0a3d9aaa2f5c89db90309d7dde1fc4fce",
        "gas": "0x114be",
        "value": "0x0",
        "data": "0xa9059cbb000000000000000000000000dd9b094704ab530d395969b00f0904e30fb8ee8f000000000000000000000000000000000000000000000000000000003b9aca00",
        "nonce": "0x15b",
        "accessList": []
      },
      "additionalContracts": [],
      "isFixedGasLimit": false
    },
    {
      "hash": "0x0eab3b53e6a9fc5a48d7362ad2e1f2b3705129e5318e54c223e9a8675934d357",
      "transactionType": "CALL",
      "contractName": "MockUSDC",
      "contractAddress": "0x84C893d0a3D9AAa2f5c89db90309d7dDe1FC4fCe",
      "function": "approve(address,uint256)",
      "arguments": [
        "0xDA65F7b3F73A1CF6cd4f36f234c9336aC1eEf270",
        "100000000"
      ],
      "transaction": {
        "type": "0x02",
        "from": "0xdd9b094704ab530d395969b00f0904e30fb8ee8f",
        "to": "0x84c893d0a3d9aaa2f5c89db90309d7dde1fc4fce",
        "gas": "0x10671",
        "value": "0x0",
        "data": "0x095ea7b3000000000000000000000000da65f7b3f73a1cf6cd4f36f234c9336ac1eef2700000000000000000000000000000000000000000000000000000000005f5e100",
        "nonce": "0x0",
        "accessList": []
      },
      "additionalContracts": [],
      "isFixedGasLimit": false
    },
    {
      "hash": "0x3091492033bdae9f3335c6ea4ab2fefc06d0f90d363dc9f93ab796e63bc5eb75",
      "transactionType": "CALL",
      "contractName": "FlappyQF",
      "contractAddress": "0xDA65F7b3F73A1CF6cd4f36f234c9336aC1eEf270",
      "function": "contributeToProject(uint256,uint256)",
      "arguments": [
        "0",
        "100000000"
      ],
      "transaction": {
        "type": "0x02",
        "from": "0xdd9b094704ab530d395969b00f0904e30fb8ee8f",
        "to": "0xda65f7b3f73a1cf6cd4f36f234c9336ac1eef270",
        "gas": "0x2c83a",
        "value": "0x0",
        "data": "0xa309bd1600000000000000000000000000000000000000000000000000000000000000000000000000000000000000000000000000000000000000000000000005f5e100",
        "nonce": "0x1",
        "accessList": []
      },
      "additionalContracts": [],
      "isFixedGasLimit": false
    },
    {
      "hash": "0x0660875bd8b650567e179bc6afbfd6e17171603adb31ab6d03549b7abc908064",
      "transactionType": "CALL",
      "contractName": null,
      "contractAddress": "0x6Ae8F65D402fcC295EB5D85c703A03Aa85547092",
      "function": null,
      "arguments": null,
      "transaction": {
        "type": "0x02",
        "from": "0x598ca9ca53d5bb84fd56fe41c3f40ed15d731e18",
        "to": "0x6ae8f65d402fcc295eb5d85c703a03aa85547092",
        "gas": "0x714d",
        "value": "0x16345785d8a0000",
        "data": "0x",
        "nonce": "0x15c",
        "accessList": []
      },
      "additionalContracts": [],
      "isFixedGasLimit": false
    },
    {
      "hash": "0xf5fa874f88443b2211c3b86a7d5342b54eaf100b88feeb38467a95f8e7121c53",
      "transactionType": "CALL",
      "contractName": "MockUSDC",
      "contractAddress": "0x84C893d0a3D9AAa2f5c89db90309d7dDe1FC4fCe",
      "function": "transfer(address,uint256)",
      "arguments": [
        "0x6Ae8F65D402fcC295EB5D85c703A03Aa85547092",
        "1000000000"
      ],
      "transaction": {
        "type": "0x02",
        "from": "0x598ca9ca53d5bb84fd56fe41c3f40ed15d731e18",
        "to": "0x84c893d0a3d9aaa2f5c89db90309d7dde1fc4fce",
        "gas": "0x114be",
        "value": "0x0",
        "data": "0xa9059cbb0000000000000000000000006ae8f65d402fcc295eb5d85c703a03aa85547092000000000000000000000000000000000000000000000000000000003b9aca00",
        "nonce": "0x15d",
        "accessList": []
      },
      "additionalContracts": [],
      "isFixedGasLimit": false
    },
    {
      "hash": "0x0d40db248f656465d53aafd02b13de836cb0b006dedda08e8e13bed18445067e",
      "transactionType": "CALL",
      "contractName": "MockUSDC",
      "contractAddress": "0x84C893d0a3D9AAa2f5c89db90309d7dDe1FC4fCe",
      "function": "approve(address,uint256)",
      "arguments": [
        "0xDA65F7b3F73A1CF6cd4f36f234c9336aC1eEf270",
        "100000000"
      ],
      "transaction": {
        "type": "0x02",
        "from": "0x6ae8f65d402fcc295eb5d85c703a03aa85547092",
        "to": "0x84c893d0a3d9aaa2f5c89db90309d7dde1fc4fce",
        "gas": "0x10671",
        "value": "0x0",
        "data": "0x095ea7b3000000000000000000000000da65f7b3f73a1cf6cd4f36f234c9336ac1eef2700000000000000000000000000000000000000000000000000000000005f5e100",
        "nonce": "0x0",
        "accessList": []
      },
      "additionalContracts": [],
      "isFixedGasLimit": false
    },
    {
      "hash": "0x8e58c5c2e6f3f89e88161acb9f2f2198a3d9fa88e44559915c212518f4acf482",
      "transactionType": "CALL",
      "contractName": "FlappyQF",
      "contractAddress": "0xDA65F7b3F73A1CF6cd4f36f234c9336aC1eEf270",
      "function": "contributeToProject(uint256,uint256)",
      "arguments": [
        "1",
        "100000000"
      ],
      "transaction": {
        "type": "0x02",
        "from": "0x6ae8f65d402fcc295eb5d85c703a03aa85547092",
        "to": "0xda65f7b3f73a1cf6cd4f36f234c9336ac1eef270",
        "gas": "0x2c84b",
        "value": "0x0",
        "data": "0xa309bd1600000000000000000000000000000000000000000000000000000000000000010000000000000000000000000000000000000000000000000000000005f5e100",
        "nonce": "0x1",
        "accessList": []
      },
      "additionalContracts": [],
      "isFixedGasLimit": false
    },
    {
      "hash": "0xc9738c8c64795b510f28325949aa698b4574e19a154109b998464a762d517225",
      "transactionType": "CALL",
      "contractName": null,
      "contractAddress": "0x9641B432D9A0281eaC3ed71713736C8c7628006E",
      "function": null,
      "arguments": null,
      "transaction": {
        "type": "0x02",
        "from": "0x598ca9ca53d5bb84fd56fe41c3f40ed15d731e18",
        "to": "0x9641b432d9a0281eac3ed71713736c8c7628006e",
        "gas": "0x714d",
        "value": "0x16345785d8a0000",
        "data": "0x",
        "nonce": "0x15e",
        "accessList": []
      },
      "additionalContracts": [],
      "isFixedGasLimit": false
    },
    {
      "hash": "0x66b890b642be27f000ecbc33f030a854ea5d25c98c23302684aa6aa960d1c15f",
      "transactionType": "CALL",
      "contractName": "MockUSDC",
      "contractAddress": "0x84C893d0a3D9AAa2f5c89db90309d7dDe1FC4fCe",
      "function": "transfer(address,uint256)",
      "arguments": [
        "0x9641B432D9A0281eaC3ed71713736C8c7628006E",
        "1000000000"
      ],
      "transaction": {
        "type": "0x02",
        "from": "0x598ca9ca53d5bb84fd56fe41c3f40ed15d731e18",
        "to": "0x84c893d0a3d9aaa2f5c89db90309d7dde1fc4fce",
        "gas": "0x114ae",
        "value": "0x0",
        "data": "0xa9059cbb0000000000000000000000009641b432d9a0281eac3ed71713736c8c7628006e000000000000000000000000000000000000000000000000000000003b9aca00",
        "nonce": "0x15f",
        "accessList": []
      },
      "additionalContracts": [],
      "isFixedGasLimit": false
    },
    {
      "hash": "0x3effbade47546b99afc1d14948bb34e5412df6f0984ce4da778ded031c2b57c3",
      "transactionType": "CALL",
      "contractName": "MockUSDC",
      "contractAddress": "0x84C893d0a3D9AAa2f5c89db90309d7dDe1FC4fCe",
      "function": "approve(address,uint256)",
      "arguments": [
        "0xDA65F7b3F73A1CF6cd4f36f234c9336aC1eEf270",
        "100000000"
      ],
      "transaction": {
        "type": "0x02",
        "from": "0x9641b432d9a0281eac3ed71713736c8c7628006e",
        "to": "0x84c893d0a3d9aaa2f5c89db90309d7dde1fc4fce",
        "gas": "0x10671",
        "value": "0x0",
        "data": "0x095ea7b3000000000000000000000000da65f7b3f73a1cf6cd4f36f234c9336ac1eef2700000000000000000000000000000000000000000000000000000000005f5e100",
        "nonce": "0x0",
        "accessList": []
      },
      "additionalContracts": [],
      "isFixedGasLimit": false
    },
    {
      "hash": "0x63cbcea54f62cecf3ff1e724ba768936978cd194e68ad82028a01ff851610b08",
      "transactionType": "CALL",
      "contractName": "FlappyQF",
      "contractAddress": "0xDA65F7b3F73A1CF6cd4f36f234c9336aC1eEf270",
      "function": "contributeToProject(uint256,uint256)",
      "arguments": [
        "2",
        "100000000"
      ],
      "transaction": {
        "type": "0x02",
        "from": "0x9641b432d9a0281eac3ed71713736c8c7628006e",
        "to": "0xda65f7b3f73a1cf6cd4f36f234c9336ac1eef270",
        "gas": "0x2c84b",
        "value": "0x0",
        "data": "0xa309bd1600000000000000000000000000000000000000000000000000000000000000020000000000000000000000000000000000000000000000000000000005f5e100",
        "nonce": "0x1",
        "accessList": []
      },
      "additionalContracts": [],
      "isFixedGasLimit": false
    },
    {
      "hash": "0xedf759c597f78e3f0f3ecb03ed87cfa4cc796fee62f1b35c0ba17f5398f1e0df",
      "transactionType": "CALL",
      "contractName": null,
      "contractAddress": "0x535414e62327AEac2c11fb3d9730CF51F5c681B5",
      "function": null,
      "arguments": null,
      "transaction": {
        "type": "0x02",
        "from": "0x598ca9ca53d5bb84fd56fe41c3f40ed15d731e18",
        "to": "0x535414e62327aeac2c11fb3d9730cf51f5c681b5",
        "gas": "0x714d",
        "value": "0x16345785d8a0000",
        "data": "0x",
        "nonce": "0x160",
        "accessList": []
      },
      "additionalContracts": [],
      "isFixedGasLimit": false
    },
    {
      "hash": "0x83c027d5baff45ac891573da5340c0bc20c041ebb924b470ba21fe2a92748f2a",
      "transactionType": "CALL",
      "contractName": "MockUSDC",
      "contractAddress": "0x84C893d0a3D9AAa2f5c89db90309d7dDe1FC4fCe",
      "function": "transfer(address,uint256)",
      "arguments": [
        "0x535414e62327AEac2c11fb3d9730CF51F5c681B5",
        "1000000000"
      ],
      "transaction": {
        "type": "0x02",
        "from": "0x598ca9ca53d5bb84fd56fe41c3f40ed15d731e18",
        "to": "0x84c893d0a3d9aaa2f5c89db90309d7dde1fc4fce",
        "gas": "0x114be",
        "value": "0x0",
        "data": "0xa9059cbb000000000000000000000000535414e62327aeac2c11fb3d9730cf51f5c681b5000000000000000000000000000000000000000000000000000000003b9aca00",
        "nonce": "0x161",
        "accessList": []
      },
      "additionalContracts": [],
      "isFixedGasLimit": false
    },
    {
      "hash": "0xdf65148afa91c49b6cb0b28409f2db12c0d14f641d9d7109771314303ad97a25",
      "transactionType": "CALL",
      "contractName": "MockUSDC",
      "contractAddress": "0x84C893d0a3D9AAa2f5c89db90309d7dDe1FC4fCe",
      "function": "approve(address,uint256)",
      "arguments": [
        "0xDA65F7b3F73A1CF6cd4f36f234c9336aC1eEf270",
        "100000000"
      ],
      "transaction": {
        "type": "0x02",
        "from": "0x535414e62327aeac2c11fb3d9730cf51f5c681b5",
        "to": "0x84c893d0a3d9aaa2f5c89db90309d7dde1fc4fce",
        "gas": "0x10671",
        "value": "0x0",
        "data": "0x095ea7b3000000000000000000000000da65f7b3f73a1cf6cd4f36f234c9336ac1eef2700000000000000000000000000000000000000000000000000000000005f5e100",
        "nonce": "0x0",
        "accessList": []
      },
      "additionalContracts": [],
      "isFixedGasLimit": false
    },
    {
      "hash": "0x83b840fdb113cca85dcfb55fe1ea16a91c2ea30499b0cfddb940273220971885",
      "transactionType": "CALL",
      "contractName": "FlappyQF",
      "contractAddress": "0xDA65F7b3F73A1CF6cd4f36f234c9336aC1eEf270",
      "function": "contributeToProject(uint256,uint256)",
      "arguments": [
        "3",
        "100000000"
      ],
      "transaction": {
        "type": "0x02",
        "from": "0x535414e62327aeac2c11fb3d9730cf51f5c681b5",
        "to": "0xda65f7b3f73a1cf6cd4f36f234c9336ac1eef270",
        "gas": "0x2c84b",
        "value": "0x0",
        "data": "0xa309bd1600000000000000000000000000000000000000000000000000000000000000030000000000000000000000000000000000000000000000000000000005f5e100",
        "nonce": "0x1",
        "accessList": []
      },
      "additionalContracts": [],
      "isFixedGasLimit": false
    },
    {
      "hash": "0xdbf629d5ec16e295fbbe95fa7a6e51d70a37226fc26e7ff29f12b424357267ee",
      "transactionType": "CALL",
      "contractName": null,
      "contractAddress": "0xF93b9D6F09E941e0e056b9Cd59d69B5DB6095490",
      "function": null,
      "arguments": null,
      "transaction": {
        "type": "0x02",
        "from": "0x598ca9ca53d5bb84fd56fe41c3f40ed15d731e18",
        "to": "0xf93b9d6f09e941e0e056b9cd59d69b5db6095490",
        "gas": "0x714d",
        "value": "0x16345785d8a0000",
        "data": "0x",
        "nonce": "0x162",
        "accessList": []
      },
      "additionalContracts": [],
      "isFixedGasLimit": false
    },
    {
      "hash": "0x4c1ab0905f94478a074a5d06e967a91389e22cdb04c8cfe42c2ebdc81f53154b",
      "transactionType": "CALL",
      "contractName": "MockUSDC",
      "contractAddress": "0x84C893d0a3D9AAa2f5c89db90309d7dDe1FC4fCe",
      "function": "transfer(address,uint256)",
      "arguments": [
        "0xF93b9D6F09E941e0e056b9Cd59d69B5DB6095490",
        "1000000000"
      ],
      "transaction": {
        "type": "0x02",
        "from": "0x598ca9ca53d5bb84fd56fe41c3f40ed15d731e18",
        "to": "0x84c893d0a3d9aaa2f5c89db90309d7dde1fc4fce",
        "gas": "0x114be",
        "value": "0x0",
        "data": "0xa9059cbb000000000000000000000000f93b9d6f09e941e0e056b9cd59d69b5db6095490000000000000000000000000000000000000000000000000000000003b9aca00",
        "nonce": "0x163",
        "accessList": []
      },
      "additionalContracts": [],
      "isFixedGasLimit": false
    },
    {
      "hash": "0xd82418ebb51fb9f868058e4e45aefd0b6f93b4f96b2565c1187827d45440d05f",
      "transactionType": "CALL",
      "contractName": "MockUSDC",
      "contractAddress": "0x84C893d0a3D9AAa2f5c89db90309d7dDe1FC4fCe",
      "function": "approve(address,uint256)",
      "arguments": [
        "0xDA65F7b3F73A1CF6cd4f36f234c9336aC1eEf270",
        "100000000"
      ],
      "transaction": {
        "type": "0x02",
        "from": "0xf93b9d6f09e941e0e056b9cd59d69b5db6095490",
        "to": "0x84c893d0a3d9aaa2f5c89db90309d7dde1fc4fce",
        "gas": "0x10671",
        "value": "0x0",
        "data": "0x095ea7b3000000000000000000000000da65f7b3f73a1cf6cd4f36f234c9336ac1eef2700000000000000000000000000000000000000000000000000000000005f5e100",
        "nonce": "0x0",
        "accessList": []
      },
      "additionalContracts": [],
      "isFixedGasLimit": false
    },
    {
      "hash": "0x53c379f357f6dad58b61f2c65bd1d40203db76dd372a9132646b70e550a4eb31",
      "transactionType": "CALL",
      "contractName": "FlappyQF",
      "contractAddress": "0xDA65F7b3F73A1CF6cd4f36f234c9336aC1eEf270",
      "function": "contributeToProject(uint256,uint256)",
      "arguments": [
        "4",
        "100000000"
      ],
      "transaction": {
        "type": "0x02",
        "from": "0xf93b9d6f09e941e0e056b9cd59d69b5db6095490",
        "to": "0xda65f7b3f73a1cf6cd4f36f234c9336ac1eef270",
        "gas": "0x2c84b",
        "value": "0x0",
        "data": "0xa309bd1600000000000000000000000000000000000000000000000000000000000000040000000000000000000000000000000000000000000000000000000005f5e100",
        "nonce": "0x1",
        "accessList": []
      },
      "additionalContracts": [],
      "isFixedGasLimit": false
    },
    {
      "hash": "0xfbf259dc3db6133b5fca5c7bbb028ca33667356e4c71dee7e70c6c71a964eebd",
      "transactionType": "CALL",
      "contractName": null,
      "contractAddress": "0xc8B743f9Dac913B2A12FC845d86F999C131fe217",
      "function": null,
      "arguments": null,
      "transaction": {
        "type": "0x02",
        "from": "0x598ca9ca53d5bb84fd56fe41c3f40ed15d731e18",
        "to": "0xc8b743f9dac913b2a12fc845d86f999c131fe217",
        "gas": "0x714d",
        "value": "0x16345785d8a0000",
        "data": "0x",
        "nonce": "0x164",
        "accessList": []
      },
      "additionalContracts": [],
      "isFixedGasLimit": false
    },
    {
      "hash": "0x83f8a8c4b5b25c60599a3525e5b0a593f30ce631d18e54db12122ef6dccfdcdc",
      "transactionType": "CALL",
      "contractName": "MockUSDC",
      "contractAddress": "0x84C893d0a3D9AAa2f5c89db90309d7dDe1FC4fCe",
      "function": "transfer(address,uint256)",
      "arguments": [
        "0xc8B743f9Dac913B2A12FC845d86F999C131fe217",
        "1000000000"
      ],
      "transaction": {
        "type": "0x02",
        "from": "0x598ca9ca53d5bb84fd56fe41c3f40ed15d731e18",
        "to": "0x84c893d0a3d9aaa2f5c89db90309d7dde1fc4fce",
        "gas": "0x114be",
        "value": "0x0",
        "data": "0xa9059cbb000000000000000000000000c8b743f9dac913b2a12fc845d86f999c131fe217000000000000000000000000000000000000000000000000000000003b9aca00",
        "nonce": "0x165",
        "accessList": []
      },
      "additionalContracts": [],
      "isFixedGasLimit": false
    },
    {
      "hash": "0xbb8d5928700da2ed13a358591d649310bd2fce672a251d6d113aab92f866e29c",
      "transactionType": "CALL",
      "contractName": "MockUSDC",
      "contractAddress": "0x84C893d0a3D9AAa2f5c89db90309d7dDe1FC4fCe",
      "function": "approve(address,uint256)",
      "arguments": [
        "0xDA65F7b3F73A1CF6cd4f36f234c9336aC1eEf270",
        "100000000"
      ],
      "transaction": {
        "type": "0x02",
        "from": "0xc8b743f9dac913b2a12fc845d86f999c131fe217",
        "to": "0x84c893d0a3d9aaa2f5c89db90309d7dde1fc4fce",
        "gas": "0x10671",
        "value": "0x0",
        "data": "0x095ea7b3000000000000000000000000da65f7b3f73a1cf6cd4f36f234c9336ac1eef2700000000000000000000000000000000000000000000000000000000005f5e100",
        "nonce": "0x0",
        "accessList": []
      },
      "additionalContracts": [],
      "isFixedGasLimit": false
    },
    {
      "hash": "0x4703fb0196feaaf221a754225253d1d44c57f5fe5b21d76ab7ff5edf590bbb30",
      "transactionType": "CALL",
      "contractName": "FlappyQF",
      "contractAddress": "0xDA65F7b3F73A1CF6cd4f36f234c9336aC1eEf270",
      "function": "contributeToProject(uint256,uint256)",
      "arguments": [
        "5",
        "100000000"
      ],
      "transaction": {
        "type": "0x02",
        "from": "0xc8b743f9dac913b2a12fc845d86f999c131fe217",
        "to": "0xda65f7b3f73a1cf6cd4f36f234c9336ac1eef270",
        "gas": "0x2c84b",
        "value": "0x0",
        "data": "0xa309bd1600000000000000000000000000000000000000000000000000000000000000050000000000000000000000000000000000000000000000000000000005f5e100",
        "nonce": "0x1",
        "accessList": []
      },
      "additionalContracts": [],
      "isFixedGasLimit": false
    },
    {
      "hash": "0xdf308986a2661b892a36715fdbdcd89c56171b2f3a517cc863e5da5abcae113b",
      "transactionType": "CALL",
      "contractName": null,
      "contractAddress": "0x84E015D941864f2AEF39d7D26F8B1Cc236B3A148",
      "function": null,
      "arguments": null,
      "transaction": {
        "type": "0x02",
        "from": "0x598ca9ca53d5bb84fd56fe41c3f40ed15d731e18",
        "to": "0x84e015d941864f2aef39d7d26f8b1cc236b3a148",
        "gas": "0x714d",
        "value": "0x16345785d8a0000",
        "data": "0x",
        "nonce": "0x166",
        "accessList": []
      },
      "additionalContracts": [],
      "isFixedGasLimit": false
    },
    {
      "hash": "0x8fd5898944a66f0bbbf59c037bfb01d2e2e213596c38ae2b43cb3e3dcaac70b0",
      "transactionType": "CALL",
      "contractName": "MockUSDC",
      "contractAddress": "0x84C893d0a3D9AAa2f5c89db90309d7dDe1FC4fCe",
      "function": "transfer(address,uint256)",
      "arguments": [
        "0x84E015D941864f2AEF39d7D26F8B1Cc236B3A148",
        "1000000000"
      ],
      "transaction": {
        "type": "0x02",
        "from": "0x598ca9ca53d5bb84fd56fe41c3f40ed15d731e18",
        "to": "0x84c893d0a3d9aaa2f5c89db90309d7dde1fc4fce",
        "gas": "0x114be",
        "value": "0x0",
        "data": "0xa9059cbb00000000000000000000000084e015d941864f2aef39d7d26f8b1cc236b3a148000000000000000000000000000000000000000000000000000000003b9aca00",
        "nonce": "0x167",
        "accessList": []
      },
      "additionalContracts": [],
      "isFixedGasLimit": false
    },
    {
      "hash": "0x8ba80b799105ab84ffe42b617a285fbf4aa719181939d8f3350f12b62314fbb9",
      "transactionType": "CALL",
      "contractName": "MockUSDC",
      "contractAddress": "0x84C893d0a3D9AAa2f5c89db90309d7dDe1FC4fCe",
      "function": "approve(address,uint256)",
      "arguments": [
        "0xDA65F7b3F73A1CF6cd4f36f234c9336aC1eEf270",
        "100000000"
      ],
      "transaction": {
        "type": "0x02",
        "from": "0x84e015d941864f2aef39d7d26f8b1cc236b3a148",
        "to": "0x84c893d0a3d9aaa2f5c89db90309d7dde1fc4fce",
        "gas": "0x10671",
        "value": "0x0",
        "data": "0x095ea7b3000000000000000000000000da65f7b3f73a1cf6cd4f36f234c9336ac1eef2700000000000000000000000000000000000000000000000000000000005f5e100",
        "nonce": "0x0",
        "accessList": []
      },
      "additionalContracts": [],
      "isFixedGasLimit": false
    },
    {
      "hash": "0xb86039a70449c4356f5eec804ef5b3f70d95a69550483f78ca979e62610c514e",
      "transactionType": "CALL",
      "contractName": "FlappyQF",
      "contractAddress": "0xDA65F7b3F73A1CF6cd4f36f234c9336aC1eEf270",
      "function": "contributeToProject(uint256,uint256)",
      "arguments": [
        "6",
        "100000000"
      ],
      "transaction": {
        "type": "0x02",
        "from": "0x84e015d941864f2aef39d7d26f8b1cc236b3a148",
        "to": "0xda65f7b3f73a1cf6cd4f36f234c9336ac1eef270",
        "gas": "0x2c84b",
        "value": "0x0",
        "data": "0xa309bd1600000000000000000000000000000000000000000000000000000000000000060000000000000000000000000000000000000000000000000000000005f5e100",
        "nonce": "0x1",
        "accessList": []
      },
      "additionalContracts": [],
      "isFixedGasLimit": false
    },
    {
      "hash": "0x46849a6262e86f6beb6aa22fb7a253e80748f31244fbb19408c58492ccc8a253",
      "transactionType": "CALL",
      "contractName": null,
      "contractAddress": "0xd1c690bc15eA06aE31857190751374F8f28eFBEa",
      "function": null,
      "arguments": null,
      "transaction": {
        "type": "0x02",
        "from": "0x598ca9ca53d5bb84fd56fe41c3f40ed15d731e18",
        "to": "0xd1c690bc15ea06ae31857190751374f8f28efbea",
        "gas": "0x714d",
        "value": "0x16345785d8a0000",
        "data": "0x",
        "nonce": "0x168",
        "accessList": []
      },
      "additionalContracts": [],
      "isFixedGasLimit": false
    },
    {
      "hash": "0x946b09dcf9fa512a17efb43897be55d3da19028f576702a25cda8825c2d7c606",
      "transactionType": "CALL",
      "contractName": "MockUSDC",
      "contractAddress": "0x84C893d0a3D9AAa2f5c89db90309d7dDe1FC4fCe",
      "function": "transfer(address,uint256)",
      "arguments": [
        "0xd1c690bc15eA06aE31857190751374F8f28eFBEa",
        "1000000000"
      ],
      "transaction": {
        "type": "0x02",
        "from": "0x598ca9ca53d5bb84fd56fe41c3f40ed15d731e18",
        "to": "0x84c893d0a3d9aaa2f5c89db90309d7dde1fc4fce",
        "gas": "0x114be",
        "value": "0x0",
        "data": "0xa9059cbb000000000000000000000000d1c690bc15ea06ae31857190751374f8f28efbea000000000000000000000000000000000000000000000000000000003b9aca00",
        "nonce": "0x169",
        "accessList": []
      },
      "additionalContracts": [],
      "isFixedGasLimit": false
    },
    {
      "hash": "0x4b98ec90514116c66c46889e538057334273bb2e03d0364f44b055bb628a7721",
      "transactionType": "CALL",
      "contractName": "MockUSDC",
      "contractAddress": "0x84C893d0a3D9AAa2f5c89db90309d7dDe1FC4fCe",
      "function": "approve(address,uint256)",
      "arguments": [
        "0xDA65F7b3F73A1CF6cd4f36f234c9336aC1eEf270",
        "100000000"
      ],
      "transaction": {
        "type": "0x02",
        "from": "0xd1c690bc15ea06ae31857190751374f8f28efbea",
        "to": "0x84c893d0a3d9aaa2f5c89db90309d7dde1fc4fce",
        "gas": "0x10671",
        "value": "0x0",
        "data": "0x095ea7b3000000000000000000000000da65f7b3f73a1cf6cd4f36f234c9336ac1eef2700000000000000000000000000000000000000000000000000000000005f5e100",
        "nonce": "0x0",
        "accessList": []
      },
      "additionalContracts": [],
      "isFixedGasLimit": false
    },
    {
      "hash": "0x02bbfa0b2adafb9a3fca1e087488423f71b6b15838b44fd04889c1dff936bd59",
      "transactionType": "CALL",
      "contractName": "FlappyQF",
      "contractAddress": "0xDA65F7b3F73A1CF6cd4f36f234c9336aC1eEf270",
      "function": "contributeToProject(uint256,uint256)",
      "arguments": [
        "7",
        "100000000"
      ],
      "transaction": {
        "type": "0x02",
        "from": "0xd1c690bc15ea06ae31857190751374f8f28efbea",
        "to": "0xda65f7b3f73a1cf6cd4f36f234c9336ac1eef270",
        "gas": "0x2c84b",
        "value": "0x0",
        "data": "0xa309bd1600000000000000000000000000000000000000000000000000000000000000070000000000000000000000000000000000000000000000000000000005f5e100",
        "nonce": "0x1",
        "accessList": []
      },
      "additionalContracts": [],
      "isFixedGasLimit": false
    }
  ],
  "receipts": [
    {
      "transactionHash": "0x07670c1135a5608dedcd9010504ac7f01bb2a7b08c8a6ee0c972dd4029584276",
      "transactionIndex": "0x3",
      "blockHash": "0x955d61e285dd3b1b385324af625d830bd4f04ed795d7fd8da02c7dbb71523540",
      "blockNumber": "0x6427e0",
      "from": "0x598CA9Ca53D5bB84Fd56fE41C3f40Ed15D731e18",
      "to": "0xDD9b094704aB530d395969b00F0904e30fb8EE8F",
      "cumulativeGasUsed": "0x94c7d",
      "gasUsed": "0x5208",
      "contractAddress": null,
      "logs": [],
      "status": "0x1",
      "logsBloom": "0x00000000000000000000000000000000000000000000000000000000000000000000000000000000000000000000000000000000000000000000000000000000000000000000000000000000000000000000000000000000000000000000000000000000000000000000000000000000000000000000000000000000000000000000000000000000000000000000000000000000000000000000000000000000000000000000000000000000000000000000000000000000000000000000000000000000000000000000000000000000000000000000000000000000000000000000000000000000000000000000000000000000000000000000000000000000",
      "type": "0x2",
      "effectiveGasPrice": "0x4be4c81fd"
    },
    {
      "transactionHash": "0x2bfc3647d1fc7e43ec2ac910d6a2bd4293702669e77f82f3587ef03b844d9690",
      "transactionIndex": "0x3",
      "blockHash": "0x6ed792ca33fb7981a236819df9b99982928593055b74d54a6da6cdcc7ee7246f",
      "blockNumber": "0x6427e1",
      "from": "0x598CA9Ca53D5bB84Fd56fE41C3f40Ed15D731e18",
      "to": "0x84C893d0a3D9AAa2f5c89db90309d7dDe1FC4fCe",
      "cumulativeGasUsed": "0x67cc8",
      "gasUsed": "0xc85c",
      "contractAddress": null,
      "logs": [
        {
          "address": "0x84C893d0a3D9AAa2f5c89db90309d7dDe1FC4fCe",
          "topics": [
            "0xddf252ad1be2c89b69c2b068fc378daa952ba7f163c4a11628f55a4df523b3ef",
            "0x000000000000000000000000598ca9ca53d5bb84fd56fe41c3f40ed15d731e18",
            "0x000000000000000000000000dd9b094704ab530d395969b00f0904e30fb8ee8f"
          ],
          "data": "0x000000000000000000000000000000000000000000000000000000003b9aca00",
          "blockHash": "0x6ed792ca33fb7981a236819df9b99982928593055b74d54a6da6cdcc7ee7246f",
          "blockNumber": "0x6427e1",
          "transactionHash": "0x2bfc3647d1fc7e43ec2ac910d6a2bd4293702669e77f82f3587ef03b844d9690",
          "transactionIndex": "0x3",
          "logIndex": "0x4",
          "removed": false
        }
      ],
      "status": "0x1",
      "logsBloom": "0x000000000000000000000000000000000000000200004000000000000000000000000000000000000000000000000000000000000000000000000000000000000000000a0000000000000008000000000000000000000000000000000000000000000000000000000000000000000000000000002000000000220010000000040000000000000000000000000000000000000000000000000000000000000000000000000000000000000000000000000000000000000000000000000000000000040002000000000000000000000000000000000000000000000000000000000000000000000000000000000000000000000000000000000000000000000000",
      "type": "0x2",
      "effectiveGasPrice": "0x4e4826e3f"
    },
    {
      "transactionHash": "0x0eab3b53e6a9fc5a48d7362ad2e1f2b3705129e5318e54c223e9a8675934d357",
      "transactionIndex": "0x3",
      "blockHash": "0x2eb50fe733409d7d7cc617f828eeb24c6fb9f0c7e1ce3e8d3c4a48a2c5b9b07b",
      "blockNumber": "0x6427e2",
      "from": "0xDD9b094704aB530d395969b00F0904e30fb8EE8F",
      "to": "0x84C893d0a3D9AAa2f5c89db90309d7dDe1FC4fCe",
      "cumulativeGasUsed": "0x10348e",
      "gasUsed": "0xb373",
      "contractAddress": null,
      "logs": [
        {
          "address": "0x84C893d0a3D9AAa2f5c89db90309d7dDe1FC4fCe",
          "topics": [
            "0x8c5be1e5ebec7d5bd14f71427d1e84f3dd0314c0f7b2291e5b200ac8c7c3b925",
            "0x000000000000000000000000dd9b094704ab530d395969b00f0904e30fb8ee8f",
            "0x000000000000000000000000da65f7b3f73a1cf6cd4f36f234c9336ac1eef270"
          ],
          "data": "0x0000000000000000000000000000000000000000000000000000000005f5e100",
          "blockHash": "0x2eb50fe733409d7d7cc617f828eeb24c6fb9f0c7e1ce3e8d3c4a48a2c5b9b07b",
          "blockNumber": "0x6427e2",
          "transactionHash": "0x0eab3b53e6a9fc5a48d7362ad2e1f2b3705129e5318e54c223e9a8675934d357",
          "transactionIndex": "0x3",
          "logIndex": "0x7",
          "removed": false
        }
      ],
      "status": "0x1",
      "logsBloom": "0x00000000000000000000000000000000000000020000400000000000000000000000000000000000000000000000000000000000000000000000000000200000000000080000000000000000000000000000000000000000000000000000000000000000000000000000000000000000000000002000000000020000000000000000000000000100000000000000000000000000000000000000000000000000020000002000000000000000000000000000000000000000000000000000000000040000000000000000000000000000000000000000000000000000000000000010000000000080000000000000000000000000000000000000000000000000",
      "type": "0x2",
      "effectiveGasPrice": "0x4c8b293ca"
    },
    {
      "transactionHash": "0x3091492033bdae9f3335c6ea4ab2fefc06d0f90d363dc9f93ab796e63bc5eb75",
      "transactionIndex": "0x2",
      "blockHash": "0xefd4bda4595278377ccd4421437b03fb8346067eccc36007d3a3bbfc9e122c67",
      "blockNumber": "0x6427e3",
      "from": "0xDD9b094704aB530d395969b00F0904e30fb8EE8F",
      "to": "0xDA65F7b3F73A1CF6cd4f36f234c9336aC1eEf270",
      "cumulativeGasUsed": "0x3bfd3",
      "gasUsed": "0x203a4",
      "contractAddress": null,
      "logs": [
        {
          "address": "0x84C893d0a3D9AAa2f5c89db90309d7dDe1FC4fCe",
          "topics": [
            "0xddf252ad1be2c89b69c2b068fc378daa952ba7f163c4a11628f55a4df523b3ef",
            "0x000000000000000000000000dd9b094704ab530d395969b00f0904e30fb8ee8f",
            "0x000000000000000000000000da65f7b3f73a1cf6cd4f36f234c9336ac1eef270"
          ],
          "data": "0x0000000000000000000000000000000000000000000000000000000005f5e100",
          "blockHash": "0xefd4bda4595278377ccd4421437b03fb8346067eccc36007d3a3bbfc9e122c67",
          "blockNumber": "0x6427e3",
          "transactionHash": "0x3091492033bdae9f3335c6ea4ab2fefc06d0f90d363dc9f93ab796e63bc5eb75",
          "transactionIndex": "0x2",
          "logIndex": "0x3",
          "removed": false
        }
      ],
      "status": "0x1",
      "logsBloom": "0x00000000000000000000000000000000000000020000400000000000000000000000000000000000000000000000000000000000000000000000000000000000000000080000000000000008000000000000000000000000000000000000000000000000000000000000000000000000000000002000000000020010000000000000000000000100000000000000000000000000000000000000000000000000000000002000000000000000000000000000000000000000000000000000000000040002000000000000000000000000000000000000000000000000000000000000000000000080000000000000000000000000000000000000000000000000",
      "type": "0x2",
      "effectiveGasPrice": "0x4f8999163"
    },
    {
      "transactionHash": "0x0660875bd8b650567e179bc6afbfd6e17171603adb31ab6d03549b7abc908064",
      "transactionIndex": "0x5",
      "blockHash": "0xa01813177f86941a47d4058e89b901048acbe2c9ac2f18bf24c9a25122a0504f",
      "blockNumber": "0x6427e4",
      "from": "0x598CA9Ca53D5bB84Fd56fE41C3f40Ed15D731e18",
      "to": "0x6Ae8F65D402fcC295EB5D85c703A03Aa85547092",
      "cumulativeGasUsed": "0xe5e86",
      "gasUsed": "0x5208",
      "contractAddress": null,
      "logs": [],
      "status": "0x1",
      "logsBloom": "0x00000000000000000000000000000000000000000000000000000000000000000000000000000000000000000000000000000000000000000000000000000000000000000000000000000000000000000000000000000000000000000000000000000000000000000000000000000000000000000000000000000000000000000000000000000000000000000000000000000000000000000000000000000000000000000000000000000000000000000000000000000000000000000000000000000000000000000000000000000000000000000000000000000000000000000000000000000000000000000000000000000000000000000000000000000000",
      "type": "0x2",
      "effectiveGasPrice": "0x4b52750f5"
    },
    {
      "transactionHash": "0xf5fa874f88443b2211c3b86a7d5342b54eaf100b88feeb38467a95f8e7121c53",
      "transactionIndex": "0x4",
      "blockHash": "0x589b61e8dca5e88134f98168a8e15f4917494a59f97b59b408b8b33066d3b685",
      "blockNumber": "0x6427e5",
      "from": "0x598CA9Ca53D5bB84Fd56fE41C3f40Ed15D731e18",
      "to": "0x84C893d0a3D9AAa2f5c89db90309d7dDe1FC4fCe",
      "cumulativeGasUsed": "0x9055d",
      "gasUsed": "0xc85c",
      "contractAddress": null,
      "logs": [
        {
          "address": "0x84C893d0a3D9AAa2f5c89db90309d7dDe1FC4fCe",
          "topics": [
            "0xddf252ad1be2c89b69c2b068fc378daa952ba7f163c4a11628f55a4df523b3ef",
            "0x000000000000000000000000598ca9ca53d5bb84fd56fe41c3f40ed15d731e18",
            "0x0000000000000000000000006ae8f65d402fcc295eb5d85c703a03aa85547092"
          ],
          "data": "0x000000000000000000000000000000000000000000000000000000003b9aca00",
          "blockHash": "0x589b61e8dca5e88134f98168a8e15f4917494a59f97b59b408b8b33066d3b685",
          "blockNumber": "0x6427e5",
          "transactionHash": "0xf5fa874f88443b2211c3b86a7d5342b54eaf100b88feeb38467a95f8e7121c53",
          "transactionIndex": "0x4",
          "logIndex": "0x3",
          "removed": false
        }
      ],
      "status": "0x1",
      "logsBloom": "0x000000000000000000000000000000000000000200000000000000000000000000000000000000000000000000000000000000000000000000000000000000000000000a0000000000000008000000000000000000000000000000000000000000000000000000000000000000000000000000002000000000200010000000040000000000000000000000000000000000000000000000000000000000000000000000000000000000000000000000000000000000000000000000000000000000000002000000000000200000000000000000000000000000000000000000000000000000010000000000080000000000000000000000000000000000000000",
      "type": "0x2",
      "effectiveGasPrice": "0x4bac9790e"
    },
    {
      "transactionHash": "0x0d40db248f656465d53aafd02b13de836cb0b006dedda08e8e13bed18445067e",
      "transactionIndex": "0x3",
      "blockHash": "0x300390382751190bc8e0571d91bfc044344478f4dd1c109628acdba12d75c665",
      "blockNumber": "0x6427e6",
      "from": "0x6Ae8F65D402fcC295EB5D85c703A03Aa85547092",
      "to": "0x84C893d0a3D9AAa2f5c89db90309d7dDe1FC4fCe",
      "cumulativeGasUsed": "0x227d3",
      "gasUsed": "0xb373",
      "contractAddress": null,
      "logs": [
        {
          "address": "0x84C893d0a3D9AAa2f5c89db90309d7dDe1FC4fCe",
          "topics": [
            "0x8c5be1e5ebec7d5bd14f71427d1e84f3dd0314c0f7b2291e5b200ac8c7c3b925",
            "0x0000000000000000000000006ae8f65d402fcc295eb5d85c703a03aa85547092",
            "0x000000000000000000000000da65f7b3f73a1cf6cd4f36f234c9336ac1eef270"
          ],
          "data": "0x0000000000000000000000000000000000000000000000000000000005f5e100",
          "blockHash": "0x300390382751190bc8e0571d91bfc044344478f4dd1c109628acdba12d75c665",
          "blockNumber": "0x6427e6",
          "transactionHash": "0x0d40db248f656465d53aafd02b13de836cb0b006dedda08e8e13bed18445067e",
          "transactionIndex": "0x3",
          "logIndex": "0x1",
          "removed": false
        }
      ],
      "status": "0x1",
      "logsBloom": "0x00000000000000000000000000000000000000020000000000000000000000000000000000000000000000000000000000000000000000000000000000200000000000080000000000000000000000000000000000000000000000000000000000000000000000000000000000000000000000002000000000000000000000000000000000000100000000000000000000000000000000000000000000000000020000002000000000000000000000000000000000000000000000000000000000000000000000000000200000000000000000000000000000000000000000000010000000010080000000080000000000000000000000000000000000000000",
      "type": "0x2",
      "effectiveGasPrice": "0x4bd34bfca"
    },
    {
      "transactionHash": "0x8e58c5c2e6f3f89e88161acb9f2f2198a3d9fa88e44559915c212518f4acf482",
      "transactionIndex": "0x2",
      "blockHash": "0xbdd1508b0a0d651a4c860f947cbdbcc76a76fb2ba72eddfc03b27780689f1bc6",
      "blockNumber": "0x6427e7",
      "from": "0x6Ae8F65D402fcC295EB5D85c703A03Aa85547092",
      "to": "0xDA65F7b3F73A1CF6cd4f36f234c9336aC1eEf270",
      "cumulativeGasUsed": "0x46777",
      "gasUsed": "0x203b0",
      "contractAddress": null,
      "logs": [
        {
          "address": "0x84C893d0a3D9AAa2f5c89db90309d7dDe1FC4fCe",
          "topics": [
            "0xddf252ad1be2c89b69c2b068fc378daa952ba7f163c4a11628f55a4df523b3ef",
            "0x0000000000000000000000006ae8f65d402fcc295eb5d85c703a03aa85547092",
            "0x000000000000000000000000da65f7b3f73a1cf6cd4f36f234c9336ac1eef270"
          ],
          "data": "0x0000000000000000000000000000000000000000000000000000000005f5e100",
          "blockHash": "0xbdd1508b0a0d651a4c860f947cbdbcc76a76fb2ba72eddfc03b27780689f1bc6",
          "blockNumber": "0x6427e7",
          "transactionHash": "0x8e58c5c2e6f3f89e88161acb9f2f2198a3d9fa88e44559915c212518f4acf482",
          "transactionIndex": "0x2",
          "logIndex": "0x1",
          "removed": false
        }
      ],
      "status": "0x1",
      "logsBloom": "0x00000000000000000000000000000000000000020000000000000000000000000000000000000000000000000000000000000000000000000000000000000000000000080000000000000008000000000000000000000000000000000000000000000000000000000000000000000000000000002000000000000010000000000000000000000100000000000000000000000000000000000000000000000000000000002000000000000000000000000000000000000000000000000000000000000002000000000000200000000000000000000000000000000000000000000000000000010080000000080000000000000000000000000000000000000000",
      "type": "0x2",
      "effectiveGasPrice": "0x4d98f6c67"
    },
    {
      "transactionHash": "0xc9738c8c64795b510f28325949aa698b4574e19a154109b998464a762d517225",
      "transactionIndex": "0x7",
      "blockHash": "0x4c1194cd683e2d0121b78ab99e0753d6a7394bde041f5ce932c0d94d7db360ca",
      "blockNumber": "0x6427e8",
      "from": "0x598CA9Ca53D5bB84Fd56fE41C3f40Ed15D731e18",
      "to": "0x9641B432D9A0281eaC3ed71713736C8c7628006E",
      "cumulativeGasUsed": "0x150504",
      "gasUsed": "0x5208",
      "contractAddress": null,
      "logs": [],
      "status": "0x1",
      "logsBloom": "0x00000000000000000000000000000000000000000000000000000000000000000000000000000000000000000000000000000000000000000000000000000000000000000000000000000000000000000000000000000000000000000000000000000000000000000000000000000000000000000000000000000000000000000000000000000000000000000000000000000000000000000000000000000000000000000000000000000000000000000000000000000000000000000000000000000000000000000000000000000000000000000000000000000000000000000000000000000000000000000000000000000000000000000000000000000000",
      "type": "0x2",
      "effectiveGasPrice": "0x4a9ff8370"
    },
    {
      "transactionHash": "0x66b890b642be27f000ecbc33f030a854ea5d25c98c23302684aa6aa960d1c15f",
      "transactionIndex": "0x7",
      "blockHash": "0x7c933acfb52ebf7f247b13925b0eec08538828c8c196fb7b274299fd7b9edad7",
      "blockNumber": "0x6427e9",
      "from": "0x598CA9Ca53D5bB84Fd56fE41C3f40Ed15D731e18",
      "to": "0x84C893d0a3D9AAa2f5c89db90309d7dDe1FC4fCe",
      "cumulativeGasUsed": "0x11368c",
      "gasUsed": "0xc850",
      "contractAddress": null,
      "logs": [
        {
          "address": "0x84C893d0a3D9AAa2f5c89db90309d7dDe1FC4fCe",
          "topics": [
            "0xddf252ad1be2c89b69c2b068fc378daa952ba7f163c4a11628f55a4df523b3ef",
            "0x000000000000000000000000598ca9ca53d5bb84fd56fe41c3f40ed15d731e18",
            "0x0000000000000000000000009641b432d9a0281eac3ed71713736c8c7628006e"
          ],
          "data": "0x000000000000000000000000000000000000000000000000000000003b9aca00",
          "blockHash": "0x7c933acfb52ebf7f247b13925b0eec08538828c8c196fb7b274299fd7b9edad7",
          "blockNumber": "0x6427e9",
          "transactionHash": "0x66b890b642be27f000ecbc33f030a854ea5d25c98c23302684aa6aa960d1c15f",
          "transactionIndex": "0x7",
          "logIndex": "0xc",
          "removed": false
        }
      ],
      "status": "0x1",
      "logsBloom": "0x000000000000000000000000000000000000000200000000000000000000000000000000000000000000000000000000000000000000000000000000000000000000000a0000000000000008000000000000000000000000002000000000000000000000000000000000000000000000000000002000000000200810000000040000000000000000000000000000000000000000000000000000000000000000000000000000000000000000000000000000000000000000000000001000000000000002000000000000000000000000000000000000000000000000000000000000000000000000000000000000000000000000000000000000000000000000",
      "type": "0x2",
      "effectiveGasPrice": "0x4aeb8dc87"
    },
    {
      "transactionHash": "0x3effbade47546b99afc1d14948bb34e5412df6f0984ce4da778ded031c2b57c3",
      "transactionIndex": "0x1",
      "blockHash": "0x9d6d6e60e31899765a81e41063728ffe09856b77429ec902cd74dcddf8986a8b",
      "blockNumber": "0x6427ea",
      "from": "0x9641B432D9A0281eaC3ed71713736C8c7628006E",
      "to": "0x84C893d0a3D9AAa2f5c89db90309d7dDe1FC4fCe",
      "cumulativeGasUsed": "0x21d9a",
      "gasUsed": "0xb373",
      "contractAddress": null,
      "logs": [
        {
          "address": "0x84C893d0a3D9AAa2f5c89db90309d7dDe1FC4fCe",
          "topics": [
            "0x8c5be1e5ebec7d5bd14f71427d1e84f3dd0314c0f7b2291e5b200ac8c7c3b925",
            "0x0000000000000000000000009641b432d9a0281eac3ed71713736c8c7628006e",
            "0x000000000000000000000000da65f7b3f73a1cf6cd4f36f234c9336ac1eef270"
          ],
          "data": "0x0000000000000000000000000000000000000000000000000000000005f5e100",
          "blockHash": "0x9d6d6e60e31899765a81e41063728ffe09856b77429ec902cd74dcddf8986a8b",
          "blockNumber": "0x6427ea",
          "transactionHash": "0x3effbade47546b99afc1d14948bb34e5412df6f0984ce4da778ded031c2b57c3",
          "transactionIndex": "0x1",
          "logIndex": "0x3",
          "removed": false
        }
      ],
      "status": "0x1",
      "logsBloom": "0x00000000000000000000000000000000000000020000000000000000000000000000000000000000000000000000000000000000000000000000000000200000000000080000000000000000000000000000000000000000002000000000000000000000000000000000000000000000000000002000000000000800000000000000000000000100000000000000000000000000000000000000000000000000020000002000000000000000000000000000000000000000000000001000000000000000000000000000000000000000000000000000000000000000000000000010000000000080000000000000000000000000000000000000000000000000",
      "type": "0x2",
      "effectiveGasPrice": "0x492c1efea"
    },
    {
      "transactionHash": "0x63cbcea54f62cecf3ff1e724ba768936978cd194e68ad82028a01ff851610b08",
      "transactionIndex": "0x3",
      "blockHash": "0x0dca083a8b1f604fab2fdde4d00a9598d24f0014ddfec7a85c50150f5599d388",
      "blockNumber": "0x6427eb",
      "from": "0x9641B432D9A0281eaC3ed71713736C8c7628006E",
      "to": "0xDA65F7b3F73A1CF6cd4f36f234c9336aC1eEf270",
      "cumulativeGasUsed": "0xe1980",
      "gasUsed": "0x203b0",
      "contractAddress": null,
      "logs": [
        {
          "address": "0x84C893d0a3D9AAa2f5c89db90309d7dDe1FC4fCe",
          "topics": [
            "0xddf252ad1be2c89b69c2b068fc378daa952ba7f163c4a11628f55a4df523b3ef",
            "0x0000000000000000000000009641b432d9a0281eac3ed71713736c8c7628006e",
            "0x000000000000000000000000da65f7b3f73a1cf6cd4f36f234c9336ac1eef270"
          ],
          "data": "0x0000000000000000000000000000000000000000000000000000000005f5e100",
          "blockHash": "0x0dca083a8b1f604fab2fdde4d00a9598d24f0014ddfec7a85c50150f5599d388",
          "blockNumber": "0x6427eb",
          "transactionHash": "0x63cbcea54f62cecf3ff1e724ba768936978cd194e68ad82028a01ff851610b08",
          "transactionIndex": "0x3",
          "logIndex": "0x4",
          "removed": false
        }
      ],
      "status": "0x1",
      "logsBloom": "0x00000000000000000000000000000000000000020000000000000000000000000000000000000000000000000000000000000000000000000000000000000000000000080000000000000008000000000000000000000000002000000000000000000000000000000000000000000000000000002000000000000810000000000000000000000100000000000000000000000000000000000000000000000000000000002000000000000000000000000000000000000000000000001000000000000002000000000000000000000000000000000000000000000000000000000000000000000080000000000000000000000000000000000000000000000000",
      "type": "0x2",
      "effectiveGasPrice": "0x449e48bf3"
    },
    {
      "transactionHash": "0xedf759c597f78e3f0f3ecb03ed87cfa4cc796fee62f1b35c0ba17f5398f1e0df",
      "transactionIndex": "0x16",
      "blockHash": "0xdde0608ca944acbce28f3886b200f70a14353beefc5f48340d3d2d0ee8dc1bea",
      "blockNumber": "0x6427ec",
      "from": "0x598CA9Ca53D5bB84Fd56fE41C3f40Ed15D731e18",
      "to": "0x535414e62327AEac2c11fb3d9730CF51F5c681B5",
      "cumulativeGasUsed": "0x1bcb7a",
      "gasUsed": "0x5208",
      "contractAddress": null,
      "logs": [],
      "status": "0x1",
      "logsBloom": "0x00000000000000000000000000000000000000000000000000000000000000000000000000000000000000000000000000000000000000000000000000000000000000000000000000000000000000000000000000000000000000000000000000000000000000000000000000000000000000000000000000000000000000000000000000000000000000000000000000000000000000000000000000000000000000000000000000000000000000000000000000000000000000000000000000000000000000000000000000000000000000000000000000000000000000000000000000000000000000000000000000000000000000000000000000000000",
      "type": "0x2",
      "effectiveGasPrice": "0x44c273661"
    },
    {
      "transactionHash": "0x83c027d5baff45ac891573da5340c0bc20c041ebb924b470ba21fe2a92748f2a",
      "transactionIndex": "0x5",
      "blockHash": "0xaa1b76f0d5be366a4a8432882c626790f6574a3a867d10bf8a093358bc73419c",
      "blockNumber": "0x6427ed",
      "from": "0x598CA9Ca53D5bB84Fd56fE41C3f40Ed15D731e18",
      "to": "0x84C893d0a3D9AAa2f5c89db90309d7dDe1FC4fCe",
      "cumulativeGasUsed": "0x26284",
      "gasUsed": "0xc85c",
      "contractAddress": null,
      "logs": [
        {
          "address": "0x84C893d0a3D9AAa2f5c89db90309d7dDe1FC4fCe",
          "topics": [
            "0xddf252ad1be2c89b69c2b068fc378daa952ba7f163c4a11628f55a4df523b3ef",
            "0x000000000000000000000000598ca9ca53d5bb84fd56fe41c3f40ed15d731e18",
            "0x000000000000000000000000535414e62327aeac2c11fb3d9730cf51f5c681b5"
          ],
          "data": "0x000000000000000000000000000000000000000000000000000000003b9aca00",
          "blockHash": "0xaa1b76f0d5be366a4a8432882c626790f6574a3a867d10bf8a093358bc73419c",
          "blockNumber": "0x6427ed",
          "transactionHash": "0x83c027d5baff45ac891573da5340c0bc20c041ebb924b470ba21fe2a92748f2a",
          "transactionIndex": "0x5",
          "logIndex": "0x0",
          "removed": false
        }
      ],
      "status": "0x1",
      "logsBloom": "0x000000000000000000000000000000000000000200800000000000000000000000000000000000000000000000000000000000000000000000000000000000000000000a0000000000000008000000000000000000000000000000000000000000000000000000000000000000000000000000002000001000200010000000040000000000000000000000000000000000000020000000000000000000000000000000000000000000000000000000000000000000000000000000000000000000000002000000000000000000000000000000000000000000000000000000000000000000000000000000000000000000000000000000000000000000000000",
      "type": "0x2",
      "effectiveGasPrice": "0x4bf39905a"
    },
    {
      "transactionHash": "0xdf65148afa91c49b6cb0b28409f2db12c0d14f641d9d7109771314303ad97a25",
      "transactionIndex": "0x2",
      "blockHash": "0x852cc924d3280833b48f1db2a78ae00862a2b539a90c77c98233018ce092b619",
      "blockNumber": "0x6427ee",
      "from": "0x535414e62327AEac2c11fb3d9730CF51F5c681B5",
      "to": "0x84C893d0a3D9AAa2f5c89db90309d7dDe1FC4fCe",
      "cumulativeGasUsed": "0x43457",
      "gasUsed": "0xb373",
      "contractAddress": null,
      "logs": [
        {
          "address": "0x84C893d0a3D9AAa2f5c89db90309d7dDe1FC4fCe",
          "topics": [
            "0x8c5be1e5ebec7d5bd14f71427d1e84f3dd0314c0f7b2291e5b200ac8c7c3b925",
            "0x000000000000000000000000535414e62327aeac2c11fb3d9730cf51f5c681b5",
            "0x000000000000000000000000da65f7b3f73a1cf6cd4f36f234c9336ac1eef270"
          ],
          "data": "0x0000000000000000000000000000000000000000000000000000000005f5e100",
          "blockHash": "0x852cc924d3280833b48f1db2a78ae00862a2b539a90c77c98233018ce092b619",
          "blockNumber": "0x6427ee",
          "transactionHash": "0xdf65148afa91c49b6cb0b28409f2db12c0d14f641d9d7109771314303ad97a25",
          "transactionIndex": "0x2",
          "logIndex": "0x2",
          "removed": false
        }
      ],
      "status": "0x1",
      "logsBloom": "0x00000000000000000000000000000000000000020080000000000000000000000000000000000000000000000000000000000000000000000000000000200000000000080000000000000000000000000000000000000000000000000000000000000000000000000000000000000000000000002000001000000000000000000000000000000100000000000000000000000020000000000000000000000000020000002000000000000000000000000000000000000000000000000000000000000000000000000000000000000000000000000000000000000000000000000010000000000080000000000000000000000000000000000000000000000000",
      "type": "0x2",
      "effectiveGasPrice": "0x540bf69a6"
    },
    {
      "transactionHash": "0x83b840fdb113cca85dcfb55fe1ea16a91c2ea30499b0cfddb940273220971885",
      "transactionIndex": "0x3",
      "blockHash": "0xbc677fed16ca0919de010f8d42df413d36036903ae3962b638cf0720f3fbd6d5",
      "blockNumber": "0x6427ef",
      "from": "0x535414e62327AEac2c11fb3d9730CF51F5c681B5",
      "to": "0xDA65F7b3F73A1CF6cd4f36f234c9336aC1eEf270",
      "cumulativeGasUsed": "0xb585b",
      "gasUsed": "0x203b0",
      "contractAddress": null,
      "logs": [
        {
          "address": "0x84C893d0a3D9AAa2f5c89db90309d7dDe1FC4fCe",
          "topics": [
            "0xddf252ad1be2c89b69c2b068fc378daa952ba7f163c4a11628f55a4df523b3ef",
            "0x000000000000000000000000535414e62327aeac2c11fb3d9730cf51f5c681b5",
            "0x000000000000000000000000da65f7b3f73a1cf6cd4f36f234c9336ac1eef270"
          ],
          "data": "0x0000000000000000000000000000000000000000000000000000000005f5e100",
          "blockHash": "0xbc677fed16ca0919de010f8d42df413d36036903ae3962b638cf0720f3fbd6d5",
          "blockNumber": "0x6427ef",
          "transactionHash": "0x83b840fdb113cca85dcfb55fe1ea16a91c2ea30499b0cfddb940273220971885",
          "transactionIndex": "0x3",
          "logIndex": "0x1",
          "removed": false
        }
      ],
      "status": "0x1",
      "logsBloom": "0x00000000000000000000000000000000000000020080000000000000000000000000000000000000000000000000000000000000000000000000000000000000000000080000000000000008000000000000000000000000000000000000000000000000000000000000000000000000000000002000001000000010000000000000000000000100000000000000000000000020000000000000000000000000000000002000000000000000000000000000000000000000000000000000000000000002000000000000000000000000000000000000000000000000000000000000000000000080000000000000000000000000000000000000000000000000",
      "type": "0x2",
      "effectiveGasPrice": "0x513132aec"
    },
    {
      "transactionHash": "0xdbf629d5ec16e295fbbe95fa7a6e51d70a37226fc26e7ff29f12b424357267ee",
      "transactionIndex": "0x4",
      "blockHash": "0xae0c77a64fa3b093e5007f70341cd41861d1bbe26ab8727725a703da7b373feb",
      "blockNumber": "0x6427f0",
      "from": "0x598CA9Ca53D5bB84Fd56fE41C3f40Ed15D731e18",
      "to": "0xF93b9D6F09E941e0e056b9Cd59d69B5DB6095490",
      "cumulativeGasUsed": "0x7b367",
      "gasUsed": "0x5208",
      "contractAddress": null,
      "logs": [],
      "status": "0x1",
      "logsBloom": "0x00000000000000000000000000000000000000000000000000000000000000000000000000000000000000000000000000000000000000000000000000000000000000000000000000000000000000000000000000000000000000000000000000000000000000000000000000000000000000000000000000000000000000000000000000000000000000000000000000000000000000000000000000000000000000000000000000000000000000000000000000000000000000000000000000000000000000000000000000000000000000000000000000000000000000000000000000000000000000000000000000000000000000000000000000000000",
      "type": "0x2",
      "effectiveGasPrice": "0x5186a13c3"
    },
    {
      "transactionHash": "0x4c1ab0905f94478a074a5d06e967a91389e22cdb04c8cfe42c2ebdc81f53154b",
      "transactionIndex": "0x3",
      "blockHash": "0xbbffadfb8fc131b6c5afc6bbbcbb20ca06de91add592788b9a862a68e8fd69d1",
      "blockNumber": "0x6427f1",
      "from": "0x598CA9Ca53D5bB84Fd56fE41C3f40Ed15D731e18",
      "to": "0x84C893d0a3D9AAa2f5c89db90309d7dDe1FC4fCe",
      "cumulativeGasUsed": "0x65adb",
      "gasUsed": "0xc85c",
      "contractAddress": null,
      "logs": [
        {
          "address": "0x84C893d0a3D9AAa2f5c89db90309d7dDe1FC4fCe",
          "topics": [
            "0xddf252ad1be2c89b69c2b068fc378daa952ba7f163c4a11628f55a4df523b3ef",
            "0x000000000000000000000000598ca9ca53d5bb84fd56fe41c3f40ed15d731e18",
            "0x000000000000000000000000f93b9d6f09e941e0e056b9cd59d69b5db6095490"
          ],
          "data": "0x000000000000000000000000000000000000000000000000000000003b9aca00",
          "blockHash": "0xbbffadfb8fc131b6c5afc6bbbcbb20ca06de91add592788b9a862a68e8fd69d1",
          "blockNumber": "0x6427f1",
          "transactionHash": "0x4c1ab0905f94478a074a5d06e967a91389e22cdb04c8cfe42c2ebdc81f53154b",
          "transactionIndex": "0x3",
          "logIndex": "0x8",
          "removed": false
        }
      ],
      "status": "0x1",
      "logsBloom": "0x000000000000000000000000000000000000000200000000000000000000000000000000000000000000000000000000000000000000008000000000000000000000000a0000000000000008000000000000000000000000000000000000000000000000000000000000000000000000000000002000000000200010000000040000000000000000000000000000000000000000000000000000000000000000000000000000000000000000000010000000000000000000000000000000000000000002000000000000000000000000000000000000000000000000000000000000000000000000000000000000000000000000000008000000000000000000",
      "type": "0x2",
      "effectiveGasPrice": "0x5587db652"
    },
    {
      "transactionHash": "0xd82418ebb51fb9f868058e4e45aefd0b6f93b4f96b2565c1187827d45440d05f",
      "transactionIndex": "0x6",
      "blockHash": "0xaf7e846a8203b9d8d6936275e5788de9c5ef50208e2d1f4c6d58b6e2b4c2bde6",
      "blockNumber": "0x6427f2",
      "from": "0xF93b9D6F09E941e0e056b9Cd59d69B5DB6095490",
      "to": "0x84C893d0a3D9AAa2f5c89db90309d7dDe1FC4fCe",
      "cumulativeGasUsed": "0x7a0c3",
      "gasUsed": "0xb373",
      "contractAddress": null,
      "logs": [
        {
          "address": "0x84C893d0a3D9AAa2f5c89db90309d7dDe1FC4fCe",
          "topics": [
            "0x8c5be1e5ebec7d5bd14f71427d1e84f3dd0314c0f7b2291e5b200ac8c7c3b925",
            "0x000000000000000000000000f93b9d6f09e941e0e056b9cd59d69b5db6095490",
            "0x000000000000000000000000da65f7b3f73a1cf6cd4f36f234c9336ac1eef270"
          ],
          "data": "0x0000000000000000000000000000000000000000000000000000000005f5e100",
          "blockHash": "0xaf7e846a8203b9d8d6936275e5788de9c5ef50208e2d1f4c6d58b6e2b4c2bde6",
          "blockNumber": "0x6427f2",
          "transactionHash": "0xd82418ebb51fb9f868058e4e45aefd0b6f93b4f96b2565c1187827d45440d05f",
          "transactionIndex": "0x6",
          "logIndex": "0x4",
          "removed": false
        }
      ],
      "status": "0x1",
      "logsBloom": "0x00000000000000000000000000000000000000020000000000000000000000000000000000000000000000000000000000000000000000800000000000200000000000080000000000000000000000000000000000000000000000000000000000000000000000000000000000000000000000002000000000000000000000000000000000000100000000000000000000000000000000000000000000000000020000002000000000000000000010000000000000000000000000000000000000000000000000000000000000000000000000000000000000000000000000000010000000000080000000000000000000000000000008000000000000000000",
      "type": "0x2",
      "effectiveGasPrice": "0x4fe6b6816"
    },
    {
      "transactionHash": "0x53c379f357f6dad58b61f2c65bd1d40203db76dd372a9132646b70e550a4eb31",
      "transactionIndex": "0x5",
      "blockHash": "0x91a85f74c1e25a0088066ced1bc532c890b29d365a46f940615afda83fc145cc",
      "blockNumber": "0x6427f3",
      "from": "0xF93b9D6F09E941e0e056b9Cd59d69B5DB6095490",
      "to": "0xDA65F7b3F73A1CF6cd4f36f234c9336aC1eEf270",
      "cumulativeGasUsed": "0x77ad0",
      "gasUsed": "0x203b0",
      "contractAddress": null,
      "logs": [
        {
          "address": "0x84C893d0a3D9AAa2f5c89db90309d7dDe1FC4fCe",
          "topics": [
            "0xddf252ad1be2c89b69c2b068fc378daa952ba7f163c4a11628f55a4df523b3ef",
            "0x000000000000000000000000f93b9d6f09e941e0e056b9cd59d69b5db6095490",
            "0x000000000000000000000000da65f7b3f73a1cf6cd4f36f234c9336ac1eef270"
          ],
          "data": "0x0000000000000000000000000000000000000000000000000000000005f5e100",
          "blockHash": "0x91a85f74c1e25a0088066ced1bc532c890b29d365a46f940615afda83fc145cc",
          "blockNumber": "0x6427f3",
          "transactionHash": "0x53c379f357f6dad58b61f2c65bd1d40203db76dd372a9132646b70e550a4eb31",
          "transactionIndex": "0x5",
          "logIndex": "0x4",
          "removed": false
        }
      ],
      "status": "0x1",
      "logsBloom": "0x00000000000000000000000000000000000000020000000000000000000000000000000000000000000000000000000000000000000000800000000000000000000000080000000000000008000000000000000000000000000000000000000000000000000000000000000000000000000000002000000000000010000000000000000000000100000000000000000000000000000000000000000000000000000000002000000000000000000010000000000000000000000000000000000000000002000000000000000000000000000000000000000000000000000000000000000000000080000000000000000000000000000008000000000000000000",
      "type": "0x2",
      "effectiveGasPrice": "0x4ad0482e2"
    },
    {
      "transactionHash": "0xfbf259dc3db6133b5fca5c7bbb028ca33667356e4c71dee7e70c6c71a964eebd",
      "transactionIndex": "0xd",
      "blockHash": "0x02bf59d60a2e25c6942534a5f982ed1e38573cf4188861f69b2059eb24f0fc67",
      "blockNumber": "0x6427f4",
      "from": "0x598CA9Ca53D5bB84Fd56fE41C3f40Ed15D731e18",
      "to": "0xc8B743f9Dac913B2A12FC845d86F999C131fe217",
      "cumulativeGasUsed": "0x118094",
      "gasUsed": "0x5208",
      "contractAddress": null,
      "logs": [],
      "status": "0x1",
      "logsBloom": "0x00000000000000000000000000000000000000000000000000000000000000000000000000000000000000000000000000000000000000000000000000000000000000000000000000000000000000000000000000000000000000000000000000000000000000000000000000000000000000000000000000000000000000000000000000000000000000000000000000000000000000000000000000000000000000000000000000000000000000000000000000000000000000000000000000000000000000000000000000000000000000000000000000000000000000000000000000000000000000000000000000000000000000000000000000000000",
      "type": "0x2",
      "effectiveGasPrice": "0x4719b7b97"
    },
    {
      "transactionHash": "0x83f8a8c4b5b25c60599a3525e5b0a593f30ce631d18e54db12122ef6dccfdcdc",
      "transactionIndex": "0xb",
      "blockHash": "0x79c98fedca621968894113a06a45de4a9a64473f6730d1c773602bccefc6a01b",
      "blockNumber": "0x6427f5",
      "from": "0x598CA9Ca53D5bB84Fd56fE41C3f40Ed15D731e18",
      "to": "0x84C893d0a3D9AAa2f5c89db90309d7dDe1FC4fCe",
      "cumulativeGasUsed": "0x11a46b",
      "gasUsed": "0xc85c",
      "contractAddress": null,
      "logs": [
        {
          "address": "0x84C893d0a3D9AAa2f5c89db90309d7dDe1FC4fCe",
          "topics": [
            "0xddf252ad1be2c89b69c2b068fc378daa952ba7f163c4a11628f55a4df523b3ef",
            "0x000000000000000000000000598ca9ca53d5bb84fd56fe41c3f40ed15d731e18",
            "0x000000000000000000000000c8b743f9dac913b2a12fc845d86f999c131fe217"
          ],
          "data": "0x000000000000000000000000000000000000000000000000000000003b9aca00",
          "blockHash": "0x79c98fedca621968894113a06a45de4a9a64473f6730d1c773602bccefc6a01b",
          "blockNumber": "0x6427f5",
          "transactionHash": "0x83f8a8c4b5b25c60599a3525e5b0a593f30ce631d18e54db12122ef6dccfdcdc",
          "transactionIndex": "0xb",
          "logIndex": "0x15",
          "removed": false
        }
      ],
      "status": "0x1",
      "logsBloom": "0x000000000000000020000000000000000000000200000000000000000000000000000000000000000000000000000000000000000000000000000000000000000000000a0000000000000008000000000000000000000000000000000000000000000000000000000000000000000000000000002000000000200010000000040000000000000000000000000000000000000000000000000000002000000000000000000000000000000000000000000000000000000000000000000000000000000002000000000400000000000000000000000000000000000000000000000000000000000000000000000000000000000000000000000000000000000000",
      "type": "0x2",
      "effectiveGasPrice": "0x4875e7eb3"
    },
    {
      "transactionHash": "0xbb8d5928700da2ed13a358591d649310bd2fce672a251d6d113aab92f866e29c",
      "transactionIndex": "0x8",
      "blockHash": "0xd8ab79781b1b60f077fab138eb2eb16fa41b738b0cb227f2fae6903df4e9c11b",
      "blockNumber": "0x6427f6",
      "from": "0xc8B743f9Dac913B2A12FC845d86F999C131fe217",
      "to": "0x84C893d0a3D9AAa2f5c89db90309d7dDe1FC4fCe",
      "cumulativeGasUsed": "0xcd697",
      "gasUsed": "0xb373",
      "contractAddress": null,
      "logs": [
        {
          "address": "0x84C893d0a3D9AAa2f5c89db90309d7dDe1FC4fCe",
          "topics": [
            "0x8c5be1e5ebec7d5bd14f71427d1e84f3dd0314c0f7b2291e5b200ac8c7c3b925",
            "0x000000000000000000000000c8b743f9dac913b2a12fc845d86f999c131fe217",
            "0x000000000000000000000000da65f7b3f73a1cf6cd4f36f234c9336ac1eef270"
          ],
          "data": "0x0000000000000000000000000000000000000000000000000000000005f5e100",
          "blockHash": "0xd8ab79781b1b60f077fab138eb2eb16fa41b738b0cb227f2fae6903df4e9c11b",
          "blockNumber": "0x6427f6",
          "transactionHash": "0xbb8d5928700da2ed13a358591d649310bd2fce672a251d6d113aab92f866e29c",
          "transactionIndex": "0x8",
          "logIndex": "0x5",
          "removed": false
        }
      ],
      "status": "0x1",
      "logsBloom": "0x00000000000000002000000000000000000000020000000000000000000000000000000000000000000000000000000000000000000000000000000000200000000000080000000000000000000000000000000000000000000000000000000000000000000000000000000000000000000000002000000000000000000000000000000000000100000000000000000000000000000000000000002000000000020000002000000000000000000000000000000000000000000000000000000000000000000000000400000000000000000000000000000000000000000000000010000000000080000000000000000000000000000000000000000000000000",
      "type": "0x2",
      "effectiveGasPrice": "0x472c912f1"
    },
    {
      "transactionHash": "0x4703fb0196feaaf221a754225253d1d44c57f5fe5b21d76ab7ff5edf590bbb30",
      "transactionIndex": "0xa",
      "blockHash": "0x9a906d70f238efafd2c4ac0104111814cd3258a6f68342e04b3f27f8d4c48e61",
      "blockNumber": "0x6427f7",
      "from": "0xc8B743f9Dac913B2A12FC845d86F999C131fe217",
      "to": "0xDA65F7b3F73A1CF6cd4f36f234c9336aC1eEf270",
      "cumulativeGasUsed": "0x16ca1f",
      "gasUsed": "0x203b0",
      "contractAddress": null,
      "logs": [
        {
          "address": "0x84C893d0a3D9AAa2f5c89db90309d7dDe1FC4fCe",
          "topics": [
            "0xddf252ad1be2c89b69c2b068fc378daa952ba7f163c4a11628f55a4df523b3ef",
            "0x000000000000000000000000c8b743f9dac913b2a12fc845d86f999c131fe217",
            "0x000000000000000000000000da65f7b3f73a1cf6cd4f36f234c9336ac1eef270"
          ],
          "data": "0x0000000000000000000000000000000000000000000000000000000005f5e100",
          "blockHash": "0x9a906d70f238efafd2c4ac0104111814cd3258a6f68342e04b3f27f8d4c48e61",
          "blockNumber": "0x6427f7",
          "transactionHash": "0x4703fb0196feaaf221a754225253d1d44c57f5fe5b21d76ab7ff5edf590bbb30",
          "transactionIndex": "0xa",
          "logIndex": "0xa",
          "removed": false
        }
      ],
      "status": "0x1",
      "logsBloom": "0x00000000000000002000000000000000000000020000000000000000000000000000000000000000000000000000000000000000000000000000000000000000000000080000000000000008000000000000000000000000000000000000000000000000000000000000000000000000000000002000000000000010000000000000000000000100000000000000000000000000000000000000002000000000000000002000000000000000000000000000000000000000000000000000000000000002000000000400000000000000000000000000000000000000000000000000000000000080000000000000000000000000000000000000000000000000",
      "type": "0x2",
      "effectiveGasPrice": "0x454aa143b"
    },
    {
      "transactionHash": "0xdf308986a2661b892a36715fdbdcd89c56171b2f3a517cc863e5da5abcae113b",
      "transactionIndex": "0x8",
      "blockHash": "0x5cb4a3b4250b60130e92b40d5db7df809fa1e0d93e6f9e0d29f42d4635c9c066",
      "blockNumber": "0x6427f8",
      "from": "0x598CA9Ca53D5bB84Fd56fE41C3f40Ed15D731e18",
      "to": "0x84E015D941864f2AEF39d7D26F8B1Cc236B3A148",
      "cumulativeGasUsed": "0xf32ea",
      "gasUsed": "0x5208",
      "contractAddress": null,
      "logs": [],
      "status": "0x1",
      "logsBloom": "0x00000000000000000000000000000000000000000000000000000000000000000000000000000000000000000000000000000000000000000000000000000000000000000000000000000000000000000000000000000000000000000000000000000000000000000000000000000000000000000000000000000000000000000000000000000000000000000000000000000000000000000000000000000000000000000000000000000000000000000000000000000000000000000000000000000000000000000000000000000000000000000000000000000000000000000000000000000000000000000000000000000000000000000000000000000000",
      "type": "0x2",
      "effectiveGasPrice": "0x45d310be7"
    },
    {
      "transactionHash": "0x8fd5898944a66f0bbbf59c037bfb01d2e2e213596c38ae2b43cb3e3dcaac70b0",
      "transactionIndex": "0x4",
      "blockHash": "0x1f84ce7a77b7c64cd60d50a990e23ef70fe558013db61265205d915bfdb973dd",
      "blockNumber": "0x6427f9",
      "from": "0x598CA9Ca53D5bB84Fd56fE41C3f40Ed15D731e18",
      "to": "0x84C893d0a3D9AAa2f5c89db90309d7dDe1FC4fCe",
      "cumulativeGasUsed": "0x6e3fe",
      "gasUsed": "0xc85c",
      "contractAddress": null,
      "logs": [
        {
          "address": "0x84C893d0a3D9AAa2f5c89db90309d7dDe1FC4fCe",
          "topics": [
            "0xddf252ad1be2c89b69c2b068fc378daa952ba7f163c4a11628f55a4df523b3ef",
            "0x000000000000000000000000598ca9ca53d5bb84fd56fe41c3f40ed15d731e18",
            "0x00000000000000000000000084e015d941864f2aef39d7d26f8b1cc236b3a148"
          ],
          "data": "0x000000000000000000000000000000000000000000000000000000003b9aca00",
          "blockHash": "0x1f84ce7a77b7c64cd60d50a990e23ef70fe558013db61265205d915bfdb973dd",
          "blockNumber": "0x6427f9",
          "transactionHash": "0x8fd5898944a66f0bbbf59c037bfb01d2e2e213596c38ae2b43cb3e3dcaac70b0",
          "transactionIndex": "0x4",
          "logIndex": "0x4",
          "removed": false
        }
      ],
      "status": "0x1",
      "logsBloom": "0x000000000000000000000000000000000000000200000000000000000000000000000000000000000000000000000000000000000000000000000000000000000000000a0000000000000008000000000000000000000000000000000000000000000000000000000000000000000000000000002000000000200010000000040000000000000000000000000000000000000000000000000000000000000000000000000000000000000000000000000000000000000000000000000000000000004002000000000000000000020000000000000000000000000000000000000000800000000000000000000000000000000000000000000000000000000000",
      "type": "0x2",
      "effectiveGasPrice": "0x4447ab49f"
    },
    {
      "transactionHash": "0x8ba80b799105ab84ffe42b617a285fbf4aa719181939d8f3350f12b62314fbb9",
      "transactionIndex": "0x6",
      "blockHash": "0xa703c024c4deb7996b8b08ac87ba883d0c5d8fb3911ea5e84e9def3aeb644aab",
      "blockNumber": "0x6427fa",
      "from": "0x84E015D941864f2AEF39d7D26F8B1Cc236B3A148",
      "to": "0x84C893d0a3D9AAa2f5c89db90309d7dDe1FC4fCe",
      "cumulativeGasUsed": "0x15a01f",
      "gasUsed": "0xb373",
      "contractAddress": null,
      "logs": [
        {
          "address": "0x84C893d0a3D9AAa2f5c89db90309d7dDe1FC4fCe",
          "topics": [
            "0x8c5be1e5ebec7d5bd14f71427d1e84f3dd0314c0f7b2291e5b200ac8c7c3b925",
            "0x00000000000000000000000084e015d941864f2aef39d7d26f8b1cc236b3a148",
            "0x000000000000000000000000da65f7b3f73a1cf6cd4f36f234c9336ac1eef270"
          ],
          "data": "0x0000000000000000000000000000000000000000000000000000000005f5e100",
          "blockHash": "0xa703c024c4deb7996b8b08ac87ba883d0c5d8fb3911ea5e84e9def3aeb644aab",
          "blockNumber": "0x6427fa",
          "transactionHash": "0x8ba80b799105ab84ffe42b617a285fbf4aa719181939d8f3350f12b62314fbb9",
          "transactionIndex": "0x6",
          "logIndex": "0x9",
          "removed": false
        }
      ],
      "status": "0x1",
      "logsBloom": "0x00000000000000000000000000000000000000020000000000000000000000000000000000000000000000000000000000000000000000000000000000200000000000080000000000000000000000000000000000000000000000000000000000000000000000000000000000000000000000002000000000000000000000000000000000000100000000000000000000000000000000000000000000000000020000002000000000000000000000000000000000000000000000000000000000004000000000000000000000020000000000000000000000000000000000000010800000000080000000000000000000000000000000000000000000000000",
      "type": "0x2",
      "effectiveGasPrice": "0x41c8fd0d8"
    },
    {
      "transactionHash": "0xb86039a70449c4356f5eec804ef5b3f70d95a69550483f78ca979e62610c514e",
      "transactionIndex": "0x9",
      "blockHash": "0x78189759b6538764ed160058bc56e2abc1744b3a139adb213b45fbaf11783516",
      "blockNumber": "0x6427fb",
      "from": "0x84E015D941864f2AEF39d7D26F8B1Cc236B3A148",
      "to": "0xDA65F7b3F73A1CF6cd4f36f234c9336aC1eEf270",
      "cumulativeGasUsed": "0x219b69",
      "gasUsed": "0x203b0",
      "contractAddress": null,
      "logs": [
        {
          "address": "0x84C893d0a3D9AAa2f5c89db90309d7dDe1FC4fCe",
          "topics": [
            "0xddf252ad1be2c89b69c2b068fc378daa952ba7f163c4a11628f55a4df523b3ef",
            "0x00000000000000000000000084e015d941864f2aef39d7d26f8b1cc236b3a148",
            "0x000000000000000000000000da65f7b3f73a1cf6cd4f36f234c9336ac1eef270"
          ],
          "data": "0x0000000000000000000000000000000000000000000000000000000005f5e100",
          "blockHash": "0x78189759b6538764ed160058bc56e2abc1744b3a139adb213b45fbaf11783516",
          "blockNumber": "0x6427fb",
          "transactionHash": "0xb86039a70449c4356f5eec804ef5b3f70d95a69550483f78ca979e62610c514e",
          "transactionIndex": "0x9",
          "logIndex": "0x2f",
          "removed": false
        }
      ],
      "status": "0x1",
      "logsBloom": "0x00000000000000000000000000000000000000020000000000000000000000000000000000000000000000000000000000000000000000000000000000000000000000080000000000000008000000000000000000000000000000000000000000000000000000000000000000000000000000002000000000000010000000000000000000000100000000000000000000000000000000000000000000000000000000002000000000000000000000000000000000000000000000000000000000004002000000000000000000020000000000000000000000000000000000000000800000000080000000000000000000000000000000000000000000000000",
      "type": "0x2",
      "effectiveGasPrice": "0x3f6837875"
    },
    {
      "transactionHash": "0x46849a6262e86f6beb6aa22fb7a253e80748f31244fbb19408c58492ccc8a253",
      "transactionIndex": "0x2",
      "blockHash": "0x5f6f31160fbfbd33c1d27ef1cc23c46f5dd6da608be3e89f50c6493174833cf4",
      "blockNumber": "0x6427fc",
      "from": "0x598CA9Ca53D5bB84Fd56fE41C3f40Ed15D731e18",
      "to": "0xd1c690bc15eA06aE31857190751374F8f28eFBEa",
      "cumulativeGasUsed": "0x38a1c",
      "gasUsed": "0x5208",
      "contractAddress": null,
      "logs": [],
      "status": "0x1",
      "logsBloom": "0x00000000000000000000000000000000000000000000000000000000000000000000000000000000000000000000000000000000000000000000000000000000000000000000000000000000000000000000000000000000000000000000000000000000000000000000000000000000000000000000000000000000000000000000000000000000000000000000000000000000000000000000000000000000000000000000000000000000000000000000000000000000000000000000000000000000000000000000000000000000000000000000000000000000000000000000000000000000000000000000000000000000000000000000000000000000",
      "type": "0x2",
      "effectiveGasPrice": "0x45e606662"
    },
    {
      "transactionHash": "0x946b09dcf9fa512a17efb43897be55d3da19028f576702a25cda8825c2d7c606",
      "transactionIndex": "0x3",
      "blockHash": "0x3d72fef714b14071720d82457a9be6bbad115acc27d9b8d2ce998486ce95d8a5",
      "blockNumber": "0x6427fd",
      "from": "0x598CA9Ca53D5bB84Fd56fE41C3f40Ed15D731e18",
      "to": "0x84C893d0a3D9AAa2f5c89db90309d7dDe1FC4fCe",
      "cumulativeGasUsed": "0xbea69",
      "gasUsed": "0xc85c",
      "contractAddress": null,
      "logs": [
        {
          "address": "0x84C893d0a3D9AAa2f5c89db90309d7dDe1FC4fCe",
          "topics": [
            "0xddf252ad1be2c89b69c2b068fc378daa952ba7f163c4a11628f55a4df523b3ef",
            "0x000000000000000000000000598ca9ca53d5bb84fd56fe41c3f40ed15d731e18",
            "0x000000000000000000000000d1c690bc15ea06ae31857190751374f8f28efbea"
          ],
          "data": "0x000000000000000000000000000000000000000000000000000000003b9aca00",
          "blockHash": "0x3d72fef714b14071720d82457a9be6bbad115acc27d9b8d2ce998486ce95d8a5",
          "blockNumber": "0x6427fd",
          "transactionHash": "0x946b09dcf9fa512a17efb43897be55d3da19028f576702a25cda8825c2d7c606",
          "transactionIndex": "0x3",
          "logIndex": "0x6",
          "removed": false
        }
      ],
      "status": "0x1",
      "logsBloom": "0x000000000000000000000000000001000000000200000000000000000000000000000000000000000000000000000000000000000000000000000000000000000000000a0000000020000008000000000000000000000000000000000000000000000000000000000000000000000000000000002000000000200010000000040000000000000000000000000000000000000000000000000000000000000000000000000000000000000000000000000000000000000000000000000000000000000002000000000020000000000000000000000000000000000000000000000000000000000000000000000000000000000000000000000000000000000000",
      "type": "0x2",
      "effectiveGasPrice": "0x4c341c3b7"
    },
    {
      "transactionHash": "0x4b98ec90514116c66c46889e538057334273bb2e03d0364f44b055bb628a7721",
      "transactionIndex": "0x2",
      "blockHash": "0x2ca3ea52aa5d3046dadbced08b0116c4a640cd6057a283761b827b5dbd9172c1",
      "blockNumber": "0x6427fe",
      "from": "0xd1c690bc15eA06aE31857190751374F8f28eFBEa",
      "to": "0x84C893d0a3D9AAa2f5c89db90309d7dDe1FC4fCe",
      "cumulativeGasUsed": "0x8185a",
      "gasUsed": "0xb373",
      "contractAddress": null,
      "logs": [
        {
          "address": "0x84C893d0a3D9AAa2f5c89db90309d7dDe1FC4fCe",
          "topics": [
            "0x8c5be1e5ebec7d5bd14f71427d1e84f3dd0314c0f7b2291e5b200ac8c7c3b925",
            "0x000000000000000000000000d1c690bc15ea06ae31857190751374f8f28efbea",
            "0x000000000000000000000000da65f7b3f73a1cf6cd4f36f234c9336ac1eef270"
          ],
          "data": "0x0000000000000000000000000000000000000000000000000000000005f5e100",
          "blockHash": "0x2ca3ea52aa5d3046dadbced08b0116c4a640cd6057a283761b827b5dbd9172c1",
          "blockNumber": "0x6427fe",
          "transactionHash": "0x4b98ec90514116c66c46889e538057334273bb2e03d0364f44b055bb628a7721",
          "transactionIndex": "0x2",
          "logIndex": "0x5",
          "removed": false
        }
      ],
      "status": "0x1",
      "logsBloom": "0x00000000000000000000000000000100000000020000000000000000000000000000000000000000000000000000000000000000000000000000000000200000000000080000000020000000000000000000000000000000000000000000000000000000000000000000000000000000000000002000000000000000000000000000000000000100000000000000000000000000000000000000000000000000020000002000000000000000000000000000000000000000000000000000000000000000000000000020000000000000000000000000000000000000000000000010000000000080000000000000000000000000000000000000000000000000",
      "type": "0x2",
      "effectiveGasPrice": "0x48895d2cc"
    },
    {
      "transactionHash": "0x02bbfa0b2adafb9a3fca1e087488423f71b6b15838b44fd04889c1dff936bd59",
      "transactionIndex": "0x5",
      "blockHash": "0xf3894ce639c5d290c723b16204c1fd279fd4d3cc12ed94e1c6de72f3e9127f12",
      "blockNumber": "0x6427ff",
      "from": "0xd1c690bc15eA06aE31857190751374F8f28eFBEa",
      "to": "0xDA65F7b3F73A1CF6cd4f36f234c9336aC1eEf270",
      "cumulativeGasUsed": "0x157dff",
      "gasUsed": "0x203b0",
      "contractAddress": null,
      "logs": [
        {
          "address": "0x84C893d0a3D9AAa2f5c89db90309d7dDe1FC4fCe",
          "topics": [
            "0xddf252ad1be2c89b69c2b068fc378daa952ba7f163c4a11628f55a4df523b3ef",
            "0x000000000000000000000000d1c690bc15ea06ae31857190751374f8f28efbea",
            "0x000000000000000000000000da65f7b3f73a1cf6cd4f36f234c9336ac1eef270"
          ],
          "data": "0x0000000000000000000000000000000000000000000000000000000005f5e100",
          "blockHash": "0xf3894ce639c5d290c723b16204c1fd279fd4d3cc12ed94e1c6de72f3e9127f12",
          "blockNumber": "0x6427ff",
          "transactionHash": "0x02bbfa0b2adafb9a3fca1e087488423f71b6b15838b44fd04889c1dff936bd59",
          "transactionIndex": "0x5",
          "logIndex": "0x10",
          "removed": false
        }
      ],
      "status": "0x1",
      "logsBloom": "0x00000000000000000000000000000100000000020000000000000000000000000000000000000000000000000000000000000000000000000000000000000000000000080000000020000008000000000000000000000000000000000000000000000000000000000000000000000000000000002000000000000010000000000000000000000100000000000000000000000000000000000000000000000000000000002000000000000000000000000000000000000000000000000000000000000002000000000020000000000000000000000000000000000000000000000000000000000080000000000000000000000000000000000000000000000000",
      "type": "0x2",
      "effectiveGasPrice": "0x469e75ec4"
    }
  ],
  "libraries": [],
  "pending": [],
  "returns": {},
  "timestamp": 1724524972,
  "chain": 11155111,
  "commit": "e54a717"
}