{
  "transactions": [
    {
      "hash": "0xfcd4cb2213c7a2d943f4e227141e4a7d118603861eaf53f012c04648dd7309d8",
      "transactionType": "CALL",
      "contractName": "FlappyQF",
      "contractAddress": "0xb72cB3Cac841CeafCE22422179442Bd200C24417",
      "function": "submitProject(string,address)",
      "arguments": [
        "\"QmTZ3X1XcdR74g3PMYJXnaqnDky9PSeBzqBXv78snK5Ajx\"",
        "0x598CA9Ca53D5bB84Fd56fE41C3f40Ed15D731e18"
      ],
      "transaction": {
        "type": "0x00",
        "from": "0x598ca9ca53d5bb84fd56fe41c3f40ed15d731e18",
        "to": "0xb72cb3cac841ceafce22422179442bd200c24417",
        "gas": "0x310e9",
        "value": "0x0",
        "data": "0x46ccda1d0000000000000000000000000000000000000000000000000000000000000040000000000000000000000000598ca9ca53d5bb84fd56fe41c3f40ed15d731e18000000000000000000000000000000000000000000000000000000000000002e516d545a3358315863645237346733504d594a586e61716e446b7939505365427a714258763738736e4b35416a78000000000000000000000000000000000000",
        "nonce": "0x1b"
      },
      "additionalContracts": [],
      "isFixedGasLimit": false
    },
    {
      "hash": "0xb98dda5ea5822627eaf10ac327b44bed817d7b2e81d59c8e5a514e01a20ecb74",
      "transactionType": "CALL",
      "contractName": "FlappyQF",
      "contractAddress": "0xb72cB3Cac841CeafCE22422179442Bd200C24417",
      "function": "submitProject(string,address)",
      "arguments": [
        "\"QmcHf1cKvrZosDVK8iZ8j2nF6urS5CCGbfdMX9RmHtb9q6\"",
        "0x598CA9Ca53D5bB84Fd56fE41C3f40Ed15D731e18"
      ],
      "transaction": {
        "type": "0x00",
        "from": "0x598ca9ca53d5bb84fd56fe41c3f40ed15d731e18",
        "to": "0xb72cb3cac841ceafce22422179442bd200c24417",
        "gas": "0x2890a",
        "value": "0x0",
        "data": "0x46ccda1d0000000000000000000000000000000000000000000000000000000000000040000000000000000000000000598ca9ca53d5bb84fd56fe41c3f40ed15d731e18000000000000000000000000000000000000000000000000000000000000002e516d63486631634b76725a6f7344564b38695a386a326e4636757253354343476266644d5839526d487462397136000000000000000000000000000000000000",
        "nonce": "0x1c"
      },
      "additionalContracts": [],
      "isFixedGasLimit": false
    },
    {
      "hash": "0x53ee1e0b3a759382b467003605ad64dac32f39430b0ca4ba3d0c3ff4aee94649",
      "transactionType": "CALL",
      "contractName": "FlappyQF",
      "contractAddress": "0xb72cB3Cac841CeafCE22422179442Bd200C24417",
      "function": "submitProject(string,address)",
      "arguments": [
        "\"QmQvjbVTCCZaQimbiPRMVWZFgYEuYG6Niuoovv9v9sCv8P\"",
        "0x598CA9Ca53D5bB84Fd56fE41C3f40Ed15D731e18"
      ],
      "transaction": {
        "type": "0x00",
        "from": "0x598ca9ca53d5bb84fd56fe41c3f40ed15d731e18",
        "to": "0xb72cb3cac841ceafce22422179442bd200c24417",
        "gas": "0x2890a",
        "value": "0x0",
        "data": "0x46ccda1d0000000000000000000000000000000000000000000000000000000000000040000000000000000000000000598ca9ca53d5bb84fd56fe41c3f40ed15d731e18000000000000000000000000000000000000000000000000000000000000002e516d51766a62565443435a6151696d626950524d56575a46675945755947364e69756f6f76763976397343763850000000000000000000000000000000000000",
        "nonce": "0x1d"
      },
      "additionalContracts": [],
      "isFixedGasLimit": false
    },
    {
      "hash": "0xb95440d16c1df85743d2d860830e48d33cf4a3080338d738a8aad45d8a64e45c",
      "transactionType": "CALL",
      "contractName": "FlappyQF",
      "contractAddress": "0xb72cB3Cac841CeafCE22422179442Bd200C24417",
      "function": "submitProject(string,address)",
      "arguments": [
        "\"QmWy8rKQg1nMteVXQbSyijiAzw6KeoXmchyn6exrNdnqR3\"",
        "0x598CA9Ca53D5bB84Fd56fE41C3f40Ed15D731e18"
      ],
      "transaction": {
        "type": "0x00",
        "from": "0x598ca9ca53d5bb84fd56fe41c3f40ed15d731e18",
        "to": "0xb72cb3cac841ceafce22422179442bd200c24417",
        "gas": "0x2890a",
        "value": "0x0",
        "data": "0x46ccda1d0000000000000000000000000000000000000000000000000000000000000040000000000000000000000000598ca9ca53d5bb84fd56fe41c3f40ed15d731e18000000000000000000000000000000000000000000000000000000000000002e516d577938724b5167316e4d7465565851625379696a69417a77364b656f586d6368796e366578724e646e715233000000000000000000000000000000000000",
        "nonce": "0x1e"
      },
      "additionalContracts": [],
      "isFixedGasLimit": false
    },
    {
      "hash": "0xcf692ea6243ca46f5cf8d2dea952345b043f43778bbb445e9aa5b6f2fdd66b18",
      "transactionType": "CALL",
      "contractName": "FlappyQF",
      "contractAddress": "0xb72cB3Cac841CeafCE22422179442Bd200C24417",
      "function": "submitProject(string,address)",
      "arguments": [
        "\"QmR3rTQokuxgGJyhfPCRNcG1eZ69wzEDnJqrJcbPbuDgVM\"",
        "0x598CA9Ca53D5bB84Fd56fE41C3f40Ed15D731e18"
      ],
      "transaction": {
        "type": "0x00",
        "from": "0x598ca9ca53d5bb84fd56fe41c3f40ed15d731e18",
        "to": "0xb72cb3cac841ceafce22422179442bd200c24417",
        "gas": "0x2890a",
        "value": "0x0",
        "data": "0x46ccda1d0000000000000000000000000000000000000000000000000000000000000040000000000000000000000000598ca9ca53d5bb84fd56fe41c3f40ed15d731e18000000000000000000000000000000000000000000000000000000000000002e516d52337254516f6b757867474a7968665043524e634731655a3639777a45446e4a71724a63625062754467564d000000000000000000000000000000000000",
        "nonce": "0x1f"
      },
      "additionalContracts": [],
      "isFixedGasLimit": false
    },
    {
      "hash": "0xe2b61aa25c64b5f6786da876487dcde087bf22ffe623f71ea056c3c4ea4fec50",
      "transactionType": "CALL",
      "contractName": "FlappyQF",
      "contractAddress": "0xb72cB3Cac841CeafCE22422179442Bd200C24417",
      "function": "submitProject(string,address)",
      "arguments": [
        "\"Qmf1VxzU8PFH3k3ia7GYFzcnY9hJe5VAwefSieSpLZi1GH\"",
        "0x598CA9Ca53D5bB84Fd56fE41C3f40Ed15D731e18"
      ],
      "transaction": {
        "type": "0x00",
        "from": "0x598ca9ca53d5bb84fd56fe41c3f40ed15d731e18",
        "to": "0xb72cb3cac841ceafce22422179442bd200c24417",
        "gas": "0x2890a",
        "value": "0x0",
        "data": "0x46ccda1d0000000000000000000000000000000000000000000000000000000000000040000000000000000000000000598ca9ca53d5bb84fd56fe41c3f40ed15d731e18000000000000000000000000000000000000000000000000000000000000002e516d663156787a5538504648336b336961374759467a636e5939684a6535564177656653696553704c5a69314748000000000000000000000000000000000000",
        "nonce": "0x20"
      },
      "additionalContracts": [],
      "isFixedGasLimit": false
    },
    {
      "hash": "0x206fde2fdbabf0bacaf4e72ed5e2793e48105f2fb97eb907592d6dcda5965bba",
      "transactionType": "CALL",
      "contractName": "FlappyQF",
      "contractAddress": "0xb72cB3Cac841CeafCE22422179442Bd200C24417",
      "function": "submitProject(string,address)",
      "arguments": [
        "\"QmRAC4ZuGHAgaCCPpYX1E3wAjkRaSwoiox2jv1pWs3avtB\"",
        "0x598CA9Ca53D5bB84Fd56fE41C3f40Ed15D731e18"
      ],
      "transaction": {
        "type": "0x00",
        "from": "0x598ca9ca53d5bb84fd56fe41c3f40ed15d731e18",
        "to": "0xb72cb3cac841ceafce22422179442bd200c24417",
        "gas": "0x2890a",
        "value": "0x0",
        "data": "0x46ccda1d0000000000000000000000000000000000000000000000000000000000000040000000000000000000000000598ca9ca53d5bb84fd56fe41c3f40ed15d731e18000000000000000000000000000000000000000000000000000000000000002e516d524143345a75474841676143435070595831453377416a6b526153776f696f78326a76317057733361767442000000000000000000000000000000000000",
        "nonce": "0x21"
      },
      "additionalContracts": [],
      "isFixedGasLimit": false
    },
    {
      "hash": "0x7a12a3e0b2718280d7f8cfede34df478306935dd95ed307d25b32d886ca0d0e8",
      "transactionType": "CALL",
      "contractName": "FlappyQF",
      "contractAddress": "0xb72cB3Cac841CeafCE22422179442Bd200C24417",
      "function": "submitProject(string,address)",
      "arguments": [
        "\"QmbtVgkRcs7v1BMVqq6kiCTDfYKTJYDM762Yf1z862GvWb\"",
        "0x598CA9Ca53D5bB84Fd56fE41C3f40Ed15D731e18"
      ],
      "transaction": {
        "type": "0x00",
        "from": "0x598ca9ca53d5bb84fd56fe41c3f40ed15d731e18",
        "to": "0xb72cb3cac841ceafce22422179442bd200c24417",
        "gas": "0x2890a",
        "value": "0x0",
        "data": "0x46ccda1d0000000000000000000000000000000000000000000000000000000000000040000000000000000000000000598ca9ca53d5bb84fd56fe41c3f40ed15d731e18000000000000000000000000000000000000000000000000000000000000002e516d627456676b526373377631424d567171366b6943544466594b544a59444d3736325966317a38363247765762000000000000000000000000000000000000",
        "nonce": "0x22"
      },
      "additionalContracts": [],
      "isFixedGasLimit": false
    },
    {
      "hash": "0x3d1127273812ce04e1b768dd0d28d547e77e27b514288e878bc97ef772212990",
      "transactionType": "CALL",
      "contractName": "FlappyQF",
      "contractAddress": "0xb72cB3Cac841CeafCE22422179442Bd200C24417",
      "function": "acceptProject(uint256)",
      "arguments": [
        "0"
      ],
      "transaction": {
        "type": "0x00",
        "from": "0x598ca9ca53d5bb84fd56fe41c3f40ed15d731e18",
        "to": "0xb72cb3cac841ceafce22422179442bd200c24417",
        "gas": "0xa4d3",
        "value": "0x0",
        "data": "0xfd1d5ea90000000000000000000000000000000000000000000000000000000000000000",
        "nonce": "0x23"
      },
      "additionalContracts": [],
      "isFixedGasLimit": false
    },
    {
      "hash": "0x0adf71583045605bac02fe3799e149267bc832ada28ded3e13e3cdd4781b9890",
      "transactionType": "CALL",
      "contractName": "FlappyQF",
      "contractAddress": "0xb72cB3Cac841CeafCE22422179442Bd200C24417",
      "function": "acceptProject(uint256)",
      "arguments": [
        "1"
      ],
      "transaction": {
        "type": "0x00",
        "from": "0x598ca9ca53d5bb84fd56fe41c3f40ed15d731e18",
        "to": "0xb72cb3cac841ceafce22422179442bd200c24417",
        "gas": "0xae97",
        "value": "0x0",
        "data": "0xfd1d5ea90000000000000000000000000000000000000000000000000000000000000001",
        "nonce": "0x24"
      },
      "additionalContracts": [],
      "isFixedGasLimit": false
    },
    {
      "hash": "0xbec44f32796f92175ce18383abc64138875473a96cdb5a70048b58a785aba0b5",
      "transactionType": "CALL",
      "contractName": "FlappyQF",
      "contractAddress": "0xb72cB3Cac841CeafCE22422179442Bd200C24417",
      "function": "acceptProject(uint256)",
      "arguments": [
        "2"
      ],
      "transaction": {
        "type": "0x00",
        "from": "0x598ca9ca53d5bb84fd56fe41c3f40ed15d731e18",
        "to": "0xb72cb3cac841ceafce22422179442bd200c24417",
        "gas": "0xae97",
        "value": "0x0",
        "data": "0xfd1d5ea90000000000000000000000000000000000000000000000000000000000000002",
        "nonce": "0x25"
      },
      "additionalContracts": [],
      "isFixedGasLimit": false
    },
    {
      "hash": "0x55267c9bb4b7823d144fbb0d618baea0b9716978b031af84b759209ac13f45fb",
      "transactionType": "CALL",
      "contractName": "FlappyQF",
      "contractAddress": "0xb72cB3Cac841CeafCE22422179442Bd200C24417",
      "function": "acceptProject(uint256)",
      "arguments": [
        "3"
      ],
      "transaction": {
        "type": "0x00",
        "from": "0x598ca9ca53d5bb84fd56fe41c3f40ed15d731e18",
        "to": "0xb72cb3cac841ceafce22422179442bd200c24417",
        "gas": "0xae97",
        "value": "0x0",
        "data": "0xfd1d5ea90000000000000000000000000000000000000000000000000000000000000003",
        "nonce": "0x26"
      },
      "additionalContracts": [],
      "isFixedGasLimit": false
    },
    {
      "hash": "0xd582e1e6f798150d45dccb4a96fd6384cfbe56b7223e6a8631cf4173e1d4e71e",
      "transactionType": "CALL",
      "contractName": "FlappyQF",
      "contractAddress": "0xb72cB3Cac841CeafCE22422179442Bd200C24417",
      "function": "acceptProject(uint256)",
      "arguments": [
        "4"
      ],
      "transaction": {
        "type": "0x00",
        "from": "0x598ca9ca53d5bb84fd56fe41c3f40ed15d731e18",
        "to": "0xb72cb3cac841ceafce22422179442bd200c24417",
        "gas": "0xae97",
        "value": "0x0",
        "data": "0xfd1d5ea90000000000000000000000000000000000000000000000000000000000000004",
        "nonce": "0x27"
      },
      "additionalContracts": [],
      "isFixedGasLimit": false
    },
    {
      "hash": "0x21b1d06d59b7edd0f380dd758e2d6801242f87a9ac0969003fadcc6b6ae491f2",
      "transactionType": "CALL",
      "contractName": "FlappyQF",
      "contractAddress": "0xb72cB3Cac841CeafCE22422179442Bd200C24417",
      "function": "acceptProject(uint256)",
      "arguments": [
        "5"
      ],
      "transaction": {
        "type": "0x00",
        "from": "0x598ca9ca53d5bb84fd56fe41c3f40ed15d731e18",
        "to": "0xb72cb3cac841ceafce22422179442bd200c24417",
        "gas": "0xae97",
        "value": "0x0",
        "data": "0xfd1d5ea90000000000000000000000000000000000000000000000000000000000000005",
        "nonce": "0x28"
      },
      "additionalContracts": [],
      "isFixedGasLimit": false
    },
    {
      "hash": "0xb22ad0b1d242fbdaba0bceb8ac6bdf9adb78a569859b42dc3a9205a4d4f5f937",
      "transactionType": "CALL",
      "contractName": "FlappyQF",
      "contractAddress": "0xb72cB3Cac841CeafCE22422179442Bd200C24417",
      "function": "acceptProject(uint256)",
      "arguments": [
        "6"
      ],
      "transaction": {
        "type": "0x00",
        "from": "0x598ca9ca53d5bb84fd56fe41c3f40ed15d731e18",
        "to": "0xb72cb3cac841ceafce22422179442bd200c24417",
        "gas": "0xae97",
        "value": "0x0",
        "data": "0xfd1d5ea90000000000000000000000000000000000000000000000000000000000000006",
        "nonce": "0x29"
      },
      "additionalContracts": [],
      "isFixedGasLimit": false
    },
    {
      "hash": "0xc5d7a1d7960ed743b8fcebd20b45a92b7952b45197730c04951b2adb889b6632",
      "transactionType": "CALL",
      "contractName": "FlappyQF",
      "contractAddress": "0xb72cB3Cac841CeafCE22422179442Bd200C24417",
      "function": "acceptProject(uint256)",
      "arguments": [
        "7"
      ],
      "transaction": {
        "type": "0x00",
        "from": "0x598ca9ca53d5bb84fd56fe41c3f40ed15d731e18",
        "to": "0xb72cb3cac841ceafce22422179442bd200c24417",
        "gas": "0xae97",
        "value": "0x0",
        "data": "0xfd1d5ea90000000000000000000000000000000000000000000000000000000000000007",
        "nonce": "0x2a"
      },
      "additionalContracts": [],
      "isFixedGasLimit": false
    },
    {
      "hash": "0xd22ad24bae3d31e919b1066ae578a5ba3ae23b4375595628d8cbdb3d111d1ca8",
      "transactionType": "CALL",
      "contractName": "FlappyQF",
      "contractAddress": "0xb72cB3Cac841CeafCE22422179442Bd200C24417",
      "function": "initiateMatching()",
      "arguments": [],
      "transaction": {
        "type": "0x00",
        "from": "0x598ca9ca53d5bb84fd56fe41c3f40ed15d731e18",
        "to": "0xb72cb3cac841ceafce22422179442bd200c24417",
        "gas": "0x116b3",
        "value": "0x0",
        "data": "0x81381192",
        "nonce": "0x2b"
      },
      "additionalContracts": [],
      "isFixedGasLimit": false
    }
  ],
  "receipts": [
    {
      "transactionHash": "0xfcd4cb2213c7a2d943f4e227141e4a7d118603861eaf53f012c04648dd7309d8",
      "transactionIndex": "0x1",
      "blockHash": "0x4e4681f9d9971d171a0af2a6dbc3479dc8f56e37c917f549f7c3f79192cb74dc",
      "blockNumber": "0x6026d9",
      "from": "0x598CA9Ca53D5bB84Fd56fE41C3f40Ed15D731e18",
      "to": "0xb72cB3Cac841CeafCE22422179442Bd200C24417",
      "cumulativeGasUsed": "0x26ab9",
      "gasUsed": "0x218b1",
      "contractAddress": null,
      "logs": [
        {
          "address": "0xb72cB3Cac841CeafCE22422179442Bd200C24417",
          "topics": [
            "0x06fa53e0c3738661d565157fdec4cc0732eaef1862b267328e56cfa9c292ad53",
            "0x0000000000000000000000000000000000000000000000000000000000000000"
          ],
          "data": "0x0000000000000000000000000000000000000000000000000000000000000020000000000000000000000000000000000000000000000000000000000000002e516d545a3358315863645237346733504d594a586e61716e446b7939505365427a714258763738736e4b35416a78000000000000000000000000000000000000",
          "blockHash": "0x4e4681f9d9971d171a0af2a6dbc3479dc8f56e37c917f549f7c3f79192cb74dc",
          "blockNumber": "0x6026d9",
          "transactionHash": "0xfcd4cb2213c7a2d943f4e227141e4a7d118603861eaf53f012c04648dd7309d8",
          "transactionIndex": "0x1",
          "logIndex": "0x0",
          "removed": false
        }
      ],
      "status": "0x1",
      "logsBloom": "0x00000000000000000000000008000000000000000000000000000000000000000000000000000000000000000000000000900000000000000000000004000000000000000000000000000000000000000000000000000000000000000000000000000000020000000000000000000800000000000000000000000000000000000000000000000000000000000000000000000000000000000000000000000000000000000000010000000000000000000000000000000000000000000000000000000000000000000000000000000000000000000000000000000000200020000000000000000000000000000000000000000000000000000000000000000000",
      "type": "0x0",
      "effectiveGasPrice": "0xb3aedf1"
    },
    {
      "transactionHash": "0xb98dda5ea5822627eaf10ac327b44bed817d7b2e81d59c8e5a514e01a20ecb74",
      "transactionIndex": "0x2",
      "blockHash": "0x4e4681f9d9971d171a0af2a6dbc3479dc8f56e37c917f549f7c3f79192cb74dc",
      "blockNumber": "0x6026d9",
      "from": "0x598CA9Ca53D5bB84Fd56fE41C3f40Ed15D731e18",
      "to": "0xb72cB3Cac841CeafCE22422179442Bd200C24417",
      "cumulativeGasUsed": "0x4409e",
      "gasUsed": "0x1d5e5",
      "contractAddress": null,
      "logs": [
        {
          "address": "0xb72cB3Cac841CeafCE22422179442Bd200C24417",
          "topics": [
            "0x06fa53e0c3738661d565157fdec4cc0732eaef1862b267328e56cfa9c292ad53",
            "0x0000000000000000000000000000000000000000000000000000000000000001"
          ],
          "data": "0x0000000000000000000000000000000000000000000000000000000000000020000000000000000000000000000000000000000000000000000000000000002e516d63486631634b76725a6f7344564b38695a386a326e4636757253354343476266644d5839526d487462397136000000000000000000000000000000000000",
          "blockHash": "0x4e4681f9d9971d171a0af2a6dbc3479dc8f56e37c917f549f7c3f79192cb74dc",
          "blockNumber": "0x6026d9",
          "transactionHash": "0xb98dda5ea5822627eaf10ac327b44bed817d7b2e81d59c8e5a514e01a20ecb74",
          "transactionIndex": "0x2",
          "logIndex": "0x1",
          "removed": false
        }
      ],
      "status": "0x1",
      "logsBloom": "0x00000000000000000000000008000000000000000000000000000000000000000000000000000000000000000000000000900000000000000000000004040000000000000000000000000000000000000000000000040000000000000000000000000000000000000000000000000000000000000000000000000000000000000000000000000000000000000000000000000000000000000000000000000000000000000000010000000000000000000000000000000000000000000000000000000000000000000000000000000000000000000000000000000000200040000000000000000000000000000000000000000000000000000000000000000000",
      "type": "0x0",
      "effectiveGasPrice": "0xb3aedf1"
    },
    {
      "transactionHash": "0x53ee1e0b3a759382b467003605ad64dac32f39430b0ca4ba3d0c3ff4aee94649",
      "transactionIndex": "0x3",
      "blockHash": "0x4e4681f9d9971d171a0af2a6dbc3479dc8f56e37c917f549f7c3f79192cb74dc",
      "blockNumber": "0x6026d9",
      "from": "0x598CA9Ca53D5bB84Fd56fE41C3f40Ed15D731e18",
      "to": "0xb72cB3Cac841CeafCE22422179442Bd200C24417",
      "cumulativeGasUsed": "0x61683",
      "gasUsed": "0x1d5e5",
      "contractAddress": null,
      "logs": [
        {
          "address": "0xb72cB3Cac841CeafCE22422179442Bd200C24417",
          "topics": [
            "0x06fa53e0c3738661d565157fdec4cc0732eaef1862b267328e56cfa9c292ad53",
            "0x0000000000000000000000000000000000000000000000000000000000000002"
          ],
          "data": "0x0000000000000000000000000000000000000000000000000000000000000020000000000000000000000000000000000000000000000000000000000000002e516d51766a62565443435a6151696d626950524d56575a46675945755947364e69756f6f76763976397343763850000000000000000000000000000000000000",
          "blockHash": "0x4e4681f9d9971d171a0af2a6dbc3479dc8f56e37c917f549f7c3f79192cb74dc",
          "blockNumber": "0x6026d9",
          "transactionHash": "0x53ee1e0b3a759382b467003605ad64dac32f39430b0ca4ba3d0c3ff4aee94649",
          "transactionIndex": "0x3",
          "logIndex": "0x2",
          "removed": false
        }
      ],
      "status": "0x1",
      "logsBloom": "0x04000000000000000000000008000000000000000000000000000000000000000000000000000000000000000000000000900000000000000000000004000000000000000000000000000000000000000000000000000000000000000000000000000000000000000000000000000000000000000000000000000000000000000000000000000000000000000000000000000000000000000000000000000000000000000000010000000100000000000000000000000000000000000000000000000000000000000000000000000000000000000000000000000000200000000000000000000000000000000000000000000000008000000000000000000000",
      "type": "0x0",
      "effectiveGasPrice": "0xb3aedf1"
    },
    {
      "transactionHash": "0xb95440d16c1df85743d2d860830e48d33cf4a3080338d738a8aad45d8a64e45c",
      "transactionIndex": "0x4",
      "blockHash": "0x4e4681f9d9971d171a0af2a6dbc3479dc8f56e37c917f549f7c3f79192cb74dc",
      "blockNumber": "0x6026d9",
      "from": "0x598CA9Ca53D5bB84Fd56fE41C3f40Ed15D731e18",
      "to": "0xb72cB3Cac841CeafCE22422179442Bd200C24417",
      "cumulativeGasUsed": "0x7ec68",
      "gasUsed": "0x1d5e5",
      "contractAddress": null,
      "logs": [
        {
          "address": "0xb72cB3Cac841CeafCE22422179442Bd200C24417",
          "topics": [
            "0x06fa53e0c3738661d565157fdec4cc0732eaef1862b267328e56cfa9c292ad53",
            "0x0000000000000000000000000000000000000000000000000000000000000003"
          ],
          "data": "0x0000000000000000000000000000000000000000000000000000000000000020000000000000000000000000000000000000000000000000000000000000002e516d577938724b5167316e4d7465565851625379696a69417a77364b656f586d6368796e366578724e646e715233000000000000000000000000000000000000",
          "blockHash": "0x4e4681f9d9971d171a0af2a6dbc3479dc8f56e37c917f549f7c3f79192cb74dc",
          "blockNumber": "0x6026d9",
          "transactionHash": "0xb95440d16c1df85743d2d860830e48d33cf4a3080338d738a8aad45d8a64e45c",
          "transactionIndex": "0x4",
          "logIndex": "0x3",
          "removed": false
        }
      ],
      "status": "0x1",
      "logsBloom": "0x00000000000000000000000008000000000000000000000000000000000000000000000000000000000000000000000000900000020000000000000004000000000000000000000000000000000000000000000000000000000000000000000000000000000000000000000000000000000000000000000000000000000000000000000000000000000000000000000000000000000000000000000000000000000000000000010000000000000000000000000000800000000000000000400000000000000000000000000000000000000000000000000000000000200000000000000000000000000000000000000000000000000000000000000000000000",
      "type": "0x0",
      "effectiveGasPrice": "0xb3aedf1"
    },
    {
      "transactionHash": "0xcf692ea6243ca46f5cf8d2dea952345b043f43778bbb445e9aa5b6f2fdd66b18",
      "transactionIndex": "0x5",
      "blockHash": "0x4e4681f9d9971d171a0af2a6dbc3479dc8f56e37c917f549f7c3f79192cb74dc",
      "blockNumber": "0x6026d9",
      "from": "0x598CA9Ca53D5bB84Fd56fE41C3f40Ed15D731e18",
      "to": "0xb72cB3Cac841CeafCE22422179442Bd200C24417",
      "cumulativeGasUsed": "0x9c24d",
      "gasUsed": "0x1d5e5",
      "contractAddress": null,
      "logs": [
        {
          "address": "0xb72cB3Cac841CeafCE22422179442Bd200C24417",
          "topics": [
            "0x06fa53e0c3738661d565157fdec4cc0732eaef1862b267328e56cfa9c292ad53",
            "0x0000000000000000000000000000000000000000000000000000000000000004"
          ],
          "data": "0x0000000000000000000000000000000000000000000000000000000000000020000000000000000000000000000000000000000000000000000000000000002e516d52337254516f6b757867474a7968665043524e634731655a3639777a45446e4a71724a63625062754467564d000000000000000000000000000000000000",
          "blockHash": "0x4e4681f9d9971d171a0af2a6dbc3479dc8f56e37c917f549f7c3f79192cb74dc",
          "blockNumber": "0x6026d9",
          "transactionHash": "0xcf692ea6243ca46f5cf8d2dea952345b043f43778bbb445e9aa5b6f2fdd66b18",
          "transactionIndex": "0x5",
          "logIndex": "0x4",
          "removed": false
        }
      ],
      "status": "0x1",
      "logsBloom": "0x00000000000000000000000008000000000000000000000000000000000000000000000000000000000000000000000000900000000000000000000004000000000000000000000000000000000000000000000000000000000000000000000008000000000000000000000000000000000000000000000000000000000000000000000000000000000000000000000000000000000000000000000000000000000000000000010000000000000000000000000000000000002000000000000000000000000000000000000000000000000000008000000000000000200000000000000000000000000000000000000000000000000000000000000000000000",
      "type": "0x0",
      "effectiveGasPrice": "0xb3aedf1"
    },
    {
      "transactionHash": "0xe2b61aa25c64b5f6786da876487dcde087bf22ffe623f71ea056c3c4ea4fec50",
      "transactionIndex": "0x6",
      "blockHash": "0x4e4681f9d9971d171a0af2a6dbc3479dc8f56e37c917f549f7c3f79192cb74dc",
      "blockNumber": "0x6026d9",
      "from": "0x598CA9Ca53D5bB84Fd56fE41C3f40Ed15D731e18",
      "to": "0xb72cB3Cac841CeafCE22422179442Bd200C24417",
      "cumulativeGasUsed": "0xb9832",
      "gasUsed": "0x1d5e5",
      "contractAddress": null,
      "logs": [
        {
          "address": "0xb72cB3Cac841CeafCE22422179442Bd200C24417",
          "topics": [
            "0x06fa53e0c3738661d565157fdec4cc0732eaef1862b267328e56cfa9c292ad53",
            "0x0000000000000000000000000000000000000000000000000000000000000005"
          ],
          "data": "0x0000000000000000000000000000000000000000000000000000000000000020000000000000000000000000000000000000000000000000000000000000002e516d663156787a5538504648336b336961374759467a636e5939684a6535564177656653696553704c5a69314748000000000000000000000000000000000000",
          "blockHash": "0x4e4681f9d9971d171a0af2a6dbc3479dc8f56e37c917f549f7c3f79192cb74dc",
          "blockNumber": "0x6026d9",
          "transactionHash": "0xe2b61aa25c64b5f6786da876487dcde087bf22ffe623f71ea056c3c4ea4fec50",
          "transactionIndex": "0x6",
          "logIndex": "0x5",
          "removed": false
        }
      ],
      "status": "0x1",
      "logsBloom": "0x00000000000000000000000008000000000000000000000000000000000000000000000000000000000000000000000000900000000000000000000004000000000010000000000000000000000000000000000000000000000000000000000000000000000000000000000000000000000000000000000000000000000000000000000000000000000000000000001000000800000000000000000000000000000000000000010000000000000000000000000000000000000000000000000000000000000000000000000000000000000000000000000000000000200000000000000000000000000000000000000000000000000000000000000000000000",
      "type": "0x0",
      "effectiveGasPrice": "0xb3aedf1"
    },
    {
      "transactionHash": "0x206fde2fdbabf0bacaf4e72ed5e2793e48105f2fb97eb907592d6dcda5965bba",
      "transactionIndex": "0x7",
      "blockHash": "0x4e4681f9d9971d171a0af2a6dbc3479dc8f56e37c917f549f7c3f79192cb74dc",
      "blockNumber": "0x6026d9",
      "from": "0x598CA9Ca53D5bB84Fd56fE41C3f40Ed15D731e18",
      "to": "0xb72cB3Cac841CeafCE22422179442Bd200C24417",
      "cumulativeGasUsed": "0xd6e17",
      "gasUsed": "0x1d5e5",
      "contractAddress": null,
      "logs": [
        {
          "address": "0xb72cB3Cac841CeafCE22422179442Bd200C24417",
          "topics": [
            "0x06fa53e0c3738661d565157fdec4cc0732eaef1862b267328e56cfa9c292ad53",
            "0x0000000000000000000000000000000000000000000000000000000000000006"
          ],
          "data": "0x0000000000000000000000000000000000000000000000000000000000000020000000000000000000000000000000000000000000000000000000000000002e516d524143345a75474841676143435070595831453377416a6b526153776f696f78326a76317057733361767442000000000000000000000000000000000000",
          "blockHash": "0x4e4681f9d9971d171a0af2a6dbc3479dc8f56e37c917f549f7c3f79192cb74dc",
          "blockNumber": "0x6026d9",
          "transactionHash": "0x206fde2fdbabf0bacaf4e72ed5e2793e48105f2fb97eb907592d6dcda5965bba",
          "transactionIndex": "0x7",
          "logIndex": "0x6",
          "removed": false
        }
      ],
      "status": "0x1",
      "logsBloom": "0x00000000000000000000000008000000000000000000000000000000000000000000000000000000000000000000000000900000000400000000000004000000000000000000000000000000000000000000000000000000000000000000000000000000000000000000000000000000000000000000000000000000000000000000000400000000000000000000000000000000000000000000000000000000000000000000010000000000000000000000000000000000000000080000000000000000000000000000000000000000000000000000000000000000200000000000000000000000000000000000000000000000000000000000000000000000",
      "type": "0x0",
      "effectiveGasPrice": "0xb3aedf1"
    },
    {
      "transactionHash": "0x7a12a3e0b2718280d7f8cfede34df478306935dd95ed307d25b32d886ca0d0e8",
      "transactionIndex": "0x8",
      "blockHash": "0x4e4681f9d9971d171a0af2a6dbc3479dc8f56e37c917f549f7c3f79192cb74dc",
      "blockNumber": "0x6026d9",
      "from": "0x598CA9Ca53D5bB84Fd56fE41C3f40Ed15D731e18",
      "to": "0xb72cB3Cac841CeafCE22422179442Bd200C24417",
      "cumulativeGasUsed": "0xf43fc",
      "gasUsed": "0x1d5e5",
      "contractAddress": null,
      "logs": [
        {
          "address": "0xb72cB3Cac841CeafCE22422179442Bd200C24417",
          "topics": [
            "0x06fa53e0c3738661d565157fdec4cc0732eaef1862b267328e56cfa9c292ad53",
            "0x0000000000000000000000000000000000000000000000000000000000000007"
          ],
          "data": "0x0000000000000000000000000000000000000000000000000000000000000020000000000000000000000000000000000000000000000000000000000000002e516d627456676b526373377631424d567171366b6943544466594b544a59444d3736325966317a38363247765762000000000000000000000000000000000000",
          "blockHash": "0x4e4681f9d9971d171a0af2a6dbc3479dc8f56e37c917f549f7c3f79192cb74dc",
          "blockNumber": "0x6026d9",
          "transactionHash": "0x7a12a3e0b2718280d7f8cfede34df478306935dd95ed307d25b32d886ca0d0e8",
          "transactionIndex": "0x8",
          "logIndex": "0x7",
          "removed": false
        }
      ],
      "status": "0x1",
      "logsBloom": "0x00000000000000000000000008000000000000000000000000000000000000000000000000000000000000000000000000901000000000000000000004000000000020000000000000000000000000000000000000000000000000000000000000000000000000000000000000000000000000000000000000000000000000000000000000000000000000000000000000000000000000000000000000000000000000000000010000000000000000000000000000000000000000000000000000000000000000000000000000000000000000000000000000000100200000000000000000000000000000000000000000000000000000000000000000000000",
      "type": "0x0",
      "effectiveGasPrice": "0xb3aedf1"
    },
    {
      "transactionHash": "0x3d1127273812ce04e1b768dd0d28d547e77e27b514288e878bc97ef772212990",
      "transactionIndex": "0x9",
      "blockHash": "0x4e4681f9d9971d171a0af2a6dbc3479dc8f56e37c917f549f7c3f79192cb74dc",
      "blockNumber": "0x6026d9",
      "from": "0x598CA9Ca53D5bB84Fd56fE41C3f40Ed15D731e18",
      "to": "0xb72cB3Cac841CeafCE22422179442Bd200C24417",
      "cumulativeGasUsed": "0xfbb51",
      "gasUsed": "0x7755",
      "contractAddress": null,
      "logs": [
        {
          "address": "0xb72cB3Cac841CeafCE22422179442Bd200C24417",
          "topics": [
            "0x623be8b40a0155c2c049cc6ad02d5e4a782dde65f74cd34d0abe8b277f6b32ae",
            "0x0000000000000000000000000000000000000000000000000000000000000000"
          ],
          "data": "0x",
          "blockHash": "0x4e4681f9d9971d171a0af2a6dbc3479dc8f56e37c917f549f7c3f79192cb74dc",
          "blockNumber": "0x6026d9",
          "transactionHash": "0x3d1127273812ce04e1b768dd0d28d547e77e27b514288e878bc97ef772212990",
          "transactionIndex": "0x9",
          "logIndex": "0x8",
          "removed": false
        }
      ],
      "status": "0x1",
      "logsBloom": "0x00000000000000000000000008000000000000000000000000000000000000000000000000000000000000000000000000800000000000002000000000000000000000000000000000000000000000000000000000000000000000000000000000000000020000000000000000000800000000000000000000000000000000000000000000000800000000000000000000000000000000000000000000000000000000000000000000000000000000000000000000000000000000000000000000000000000000000000000000000000000000000000000000000000200020000000000000000000000000000000000000000000000000000000004000000000",
      "type": "0x0",
      "effectiveGasPrice": "0xb3aedf1"
    },
    {
      "transactionHash": "0x0adf71583045605bac02fe3799e149267bc832ada28ded3e13e3cdd4781b9890",
      "transactionIndex": "0xa",
      "blockHash": "0x4e4681f9d9971d171a0af2a6dbc3479dc8f56e37c917f549f7c3f79192cb74dc",
      "blockNumber": "0x6026d9",
      "from": "0x598CA9Ca53D5bB84Fd56fE41C3f40Ed15D731e18",
      "to": "0xb72cB3Cac841CeafCE22422179442Bd200C24417",
      "cumulativeGasUsed": "0x1032b2",
      "gasUsed": "0x7761",
      "contractAddress": null,
      "logs": [
        {
          "address": "0xb72cB3Cac841CeafCE22422179442Bd200C24417",
          "topics": [
            "0x623be8b40a0155c2c049cc6ad02d5e4a782dde65f74cd34d0abe8b277f6b32ae",
            "0x0000000000000000000000000000000000000000000000000000000000000001"
          ],
          "data": "0x",
          "blockHash": "0x4e4681f9d9971d171a0af2a6dbc3479dc8f56e37c917f549f7c3f79192cb74dc",
          "blockNumber": "0x6026d9",
          "transactionHash": "0x0adf71583045605bac02fe3799e149267bc832ada28ded3e13e3cdd4781b9890",
          "transactionIndex": "0xa",
          "logIndex": "0x9",
          "removed": false
        }
      ],
      "status": "0x1",
      "logsBloom": "0x00000000000000000000000008000000000000000000000000000000000000000000000000000000000000000000000000800000000000002000000000040000000000000000000000000000000000000000000000040000000000000000000000000000000000000000000000000000000000000000000000000000000000000000000000000800000000000000000000000000000000000000000000000000000000000000000000000000000000000000000000000000000000000000000000000000000000000000000000000000000000000000000000000000200040000000000000000000000000000000000000000000000000000000004000000000",
      "type": "0x0",
      "effectiveGasPrice": "0xb3aedf1"
    },
    {
      "transactionHash": "0xbec44f32796f92175ce18383abc64138875473a96cdb5a70048b58a785aba0b5",
      "transactionIndex": "0xb",
      "blockHash": "0x4e4681f9d9971d171a0af2a6dbc3479dc8f56e37c917f549f7c3f79192cb74dc",
      "blockNumber": "0x6026d9",
      "from": "0x598CA9Ca53D5bB84Fd56fE41C3f40Ed15D731e18",
      "to": "0xb72cB3Cac841CeafCE22422179442Bd200C24417",
      "cumulativeGasUsed": "0x10aa13",
      "gasUsed": "0x7761",
      "contractAddress": null,
      "logs": [
        {
          "address": "0xb72cB3Cac841CeafCE22422179442Bd200C24417",
          "topics": [
            "0x623be8b40a0155c2c049cc6ad02d5e4a782dde65f74cd34d0abe8b277f6b32ae",
            "0x0000000000000000000000000000000000000000000000000000000000000002"
          ],
          "data": "0x",
          "blockHash": "0x4e4681f9d9971d171a0af2a6dbc3479dc8f56e37c917f549f7c3f79192cb74dc",
          "blockNumber": "0x6026d9",
          "transactionHash": "0xbec44f32796f92175ce18383abc64138875473a96cdb5a70048b58a785aba0b5",
          "transactionIndex": "0xb",
          "logIndex": "0xa",
          "removed": false
        }
      ],
      "status": "0x1",
      "logsBloom": "0x04000000000000000000000008000000000000000000000000000000000000000000000000000000000000000000000000800000000000002000000000000000000000000000000000000000000000000000000000000000000000000000000000000000000000000000000000000000000000000000000000000000000000000000000000000800000000000000000000000000000000000000000000000000000000000000000000000100000000000000000000000000000000000000000000000000000000000000000000000000000000000000000000000000200000000000000000000000000000000000000000000000008000000000004000000000",
      "type": "0x0",
      "effectiveGasPrice": "0xb3aedf1"
    },
    {
      "transactionHash": "0x55267c9bb4b7823d144fbb0d618baea0b9716978b031af84b759209ac13f45fb",
      "transactionIndex": "0xc",
      "blockHash": "0x4e4681f9d9971d171a0af2a6dbc3479dc8f56e37c917f549f7c3f79192cb74dc",
      "blockNumber": "0x6026d9",
      "from": "0x598CA9Ca53D5bB84Fd56fE41C3f40Ed15D731e18",
      "to": "0xb72cB3Cac841CeafCE22422179442Bd200C24417",
      "cumulativeGasUsed": "0x112174",
      "gasUsed": "0x7761",
      "contractAddress": null,
      "logs": [
        {
          "address": "0xb72cB3Cac841CeafCE22422179442Bd200C24417",
          "topics": [
            "0x623be8b40a0155c2c049cc6ad02d5e4a782dde65f74cd34d0abe8b277f6b32ae",
            "0x0000000000000000000000000000000000000000000000000000000000000003"
          ],
          "data": "0x",
          "blockHash": "0x4e4681f9d9971d171a0af2a6dbc3479dc8f56e37c917f549f7c3f79192cb74dc",
          "blockNumber": "0x6026d9",
          "transactionHash": "0x55267c9bb4b7823d144fbb0d618baea0b9716978b031af84b759209ac13f45fb",
          "transactionIndex": "0xc",
          "logIndex": "0xb",
          "removed": false
        }
      ],
      "status": "0x1",
      "logsBloom": "0x00000000000000000000000008000000000000000000000000000000000000000000000000000000000000000000000000800000020000002000000000000000000000000000000000000000000000000000000000000000000000000000000000000000000000000000000000000000000000000000000000000000000000000000000000000800000000000000000000000000000000000000000000000000000000000000000000000000000000000000000000800000000000000000400000000000000000000000000000000000000000000000000000000000200000000000000000000000000000000000000000000000000000000000004000000000",
      "type": "0x0",
      "effectiveGasPrice": "0xb3aedf1"
    },
    {
      "transactionHash": "0xd582e1e6f798150d45dccb4a96fd6384cfbe56b7223e6a8631cf4173e1d4e71e",
      "transactionIndex": "0xd",
      "blockHash": "0x4e4681f9d9971d171a0af2a6dbc3479dc8f56e37c917f549f7c3f79192cb74dc",
      "blockNumber": "0x6026d9",
      "from": "0x598CA9Ca53D5bB84Fd56fE41C3f40Ed15D731e18",
      "to": "0xb72cB3Cac841CeafCE22422179442Bd200C24417",
      "cumulativeGasUsed": "0x1198d5",
      "gasUsed": "0x7761",
      "contractAddress": null,
      "logs": [
        {
          "address": "0xb72cB3Cac841CeafCE22422179442Bd200C24417",
          "topics": [
            "0x623be8b40a0155c2c049cc6ad02d5e4a782dde65f74cd34d0abe8b277f6b32ae",
            "0x0000000000000000000000000000000000000000000000000000000000000004"
          ],
          "data": "0x",
          "blockHash": "0x4e4681f9d9971d171a0af2a6dbc3479dc8f56e37c917f549f7c3f79192cb74dc",
          "blockNumber": "0x6026d9",
          "transactionHash": "0xd582e1e6f798150d45dccb4a96fd6384cfbe56b7223e6a8631cf4173e1d4e71e",
          "transactionIndex": "0xd",
          "logIndex": "0xc",
          "removed": false
        }
      ],
      "status": "0x1",
      "logsBloom": "0x00000000000000000000000008000000000000000000000000000000000000000000000000000000000000000000000000800000000000002000000000000000000000000000000000000000000000000000000000000000000000000000000008000000000000000000000000000000000000000000000000000000000000000000000000000800000000000000000000000000000000000000000000000000000000000000000000000000000000000000000000000000002000000000000000000000000000000000000000000000000000008000000000000000200000000000000000000000000000000000000000000000000000000000004000000000",
      "type": "0x0",
      "effectiveGasPrice": "0xb3aedf1"
    },
    {
      "transactionHash": "0x21b1d06d59b7edd0f380dd758e2d6801242f87a9ac0969003fadcc6b6ae491f2",
      "transactionIndex": "0xe",
      "blockHash": "0x4e4681f9d9971d171a0af2a6dbc3479dc8f56e37c917f549f7c3f79192cb74dc",
      "blockNumber": "0x6026d9",
      "from": "0x598CA9Ca53D5bB84Fd56fE41C3f40Ed15D731e18",
      "to": "0xb72cB3Cac841CeafCE22422179442Bd200C24417",
      "cumulativeGasUsed": "0x121036",
      "gasUsed": "0x7761",
      "contractAddress": null,
      "logs": [
        {
          "address": "0xb72cB3Cac841CeafCE22422179442Bd200C24417",
          "topics": [
            "0x623be8b40a0155c2c049cc6ad02d5e4a782dde65f74cd34d0abe8b277f6b32ae",
            "0x0000000000000000000000000000000000000000000000000000000000000005"
          ],
          "data": "0x",
          "blockHash": "0x4e4681f9d9971d171a0af2a6dbc3479dc8f56e37c917f549f7c3f79192cb74dc",
          "blockNumber": "0x6026d9",
          "transactionHash": "0x21b1d06d59b7edd0f380dd758e2d6801242f87a9ac0969003fadcc6b6ae491f2",
          "transactionIndex": "0xe",
          "logIndex": "0xd",
          "removed": false
        }
      ],
      "status": "0x1",
      "logsBloom": "0x00000000000000000000000008000000000000000000000000000000000000000000000000000000000000000000000000800000000000002000000000000000000010000000000000000000000000000000000000000000000000000000000000000000000000000000000000000000000000000000000000000000000000000000000000000800000000000000001000000800000000000000000000000000000000000000000000000000000000000000000000000000000000000000000000000000000000000000000000000000000000000000000000000000200000000000000000000000000000000000000000000000000000000000004000000000",
      "type": "0x0",
      "effectiveGasPrice": "0xb3aedf1"
    },
    {
      "transactionHash": "0xb22ad0b1d242fbdaba0bceb8ac6bdf9adb78a569859b42dc3a9205a4d4f5f937",
      "transactionIndex": "0xf",
      "blockHash": "0x4e4681f9d9971d171a0af2a6dbc3479dc8f56e37c917f549f7c3f79192cb74dc",
      "blockNumber": "0x6026d9",
      "from": "0x598CA9Ca53D5bB84Fd56fE41C3f40Ed15D731e18",
      "to": "0xb72cB3Cac841CeafCE22422179442Bd200C24417",
      "cumulativeGasUsed": "0x128797",
      "gasUsed": "0x7761",
      "contractAddress": null,
      "logs": [
        {
          "address": "0xb72cB3Cac841CeafCE22422179442Bd200C24417",
          "topics": [
            "0x623be8b40a0155c2c049cc6ad02d5e4a782dde65f74cd34d0abe8b277f6b32ae",
            "0x0000000000000000000000000000000000000000000000000000000000000006"
          ],
          "data": "0x",
          "blockHash": "0x4e4681f9d9971d171a0af2a6dbc3479dc8f56e37c917f549f7c3f79192cb74dc",
          "blockNumber": "0x6026d9",
          "transactionHash": "0xb22ad0b1d242fbdaba0bceb8ac6bdf9adb78a569859b42dc3a9205a4d4f5f937",
          "transactionIndex": "0xf",
          "logIndex": "0xe",
          "removed": false
        }
      ],
      "status": "0x1",
      "logsBloom": "0x00000000000000000000000008000000000000000000000000000000000000000000000000000000000000000000000000800000000400002000000000000000000000000000000000000000000000000000000000000000000000000000000000000000000000000000000000000000000000000000000000000000000000000000000400000800000000000000000000000000000000000000000000000000000000000000000000000000000000000000000000000000000000080000000000000000000000000000000000000000000000000000000000000000200000000000000000000000000000000000000000000000000000000000004000000000",
      "type": "0x0",
      "effectiveGasPrice": "0xb3aedf1"
    },
    {
      "transactionHash": "0xc5d7a1d7960ed743b8fcebd20b45a92b7952b45197730c04951b2adb889b6632",
      "transactionIndex": "0x10",
      "blockHash": "0x4e4681f9d9971d171a0af2a6dbc3479dc8f56e37c917f549f7c3f79192cb74dc",
      "blockNumber": "0x6026d9",
      "from": "0x598CA9Ca53D5bB84Fd56fE41C3f40Ed15D731e18",
      "to": "0xb72cB3Cac841CeafCE22422179442Bd200C24417",
      "cumulativeGasUsed": "0x12fef8",
      "gasUsed": "0x7761",
      "contractAddress": null,
      "logs": [
        {
          "address": "0xb72cB3Cac841CeafCE22422179442Bd200C24417",
          "topics": [
            "0x623be8b40a0155c2c049cc6ad02d5e4a782dde65f74cd34d0abe8b277f6b32ae",
            "0x0000000000000000000000000000000000000000000000000000000000000007"
          ],
          "data": "0x",
          "blockHash": "0x4e4681f9d9971d171a0af2a6dbc3479dc8f56e37c917f549f7c3f79192cb74dc",
          "blockNumber": "0x6026d9",
          "transactionHash": "0xc5d7a1d7960ed743b8fcebd20b45a92b7952b45197730c04951b2adb889b6632",
          "transactionIndex": "0x10",
          "logIndex": "0xf",
          "removed": false
        }
      ],
      "status": "0x1",
      "logsBloom": "0x00000000000000000000000008000000000000000000000000000000000000000000000000000000000000000000000000801000000000002000000000000000000020000000000000000000000000000000000000000000000000000000000000000000000000000000000000000000000000000000000000000000000000000000000000000800000000000000000000000000000000000000000000000000000000000000000000000000000000000000000000000000000000000000000000000000000000000000000000000000000000000000000000000100200000000000000000000000000000000000000000000000000000000000004000000000",
      "type": "0x0",
      "effectiveGasPrice": "0xb3aedf1"
    },
    {
      "transactionHash": "0xd22ad24bae3d31e919b1066ae578a5ba3ae23b4375595628d8cbdb3d111d1ca8",
      "transactionIndex": "0x11",
      "blockHash": "0x4e4681f9d9971d171a0af2a6dbc3479dc8f56e37c917f549f7c3f79192cb74dc",
      "blockNumber": "0x6026d9",
      "from": "0x598CA9Ca53D5bB84Fd56fE41C3f40Ed15D731e18",
      "to": "0xb72cB3Cac841CeafCE22422179442Bd200C24417",
      "cumulativeGasUsed": "0x13c8bf",
      "gasUsed": "0xc9c7",
      "contractAddress": null,
      "logs": [],
      "status": "0x1",
      "logsBloom": "0x00000000000000000000000000000000000000000000000000000000000000000000000000000000000000000000000000000000000000000000000000000000000000000000000000000000000000000000000000000000000000000000000000000000000000000000000000000000000000000000000000000000000000000000000000000000000000000000000000000000000000000000000000000000000000000000000000000000000000000000000000000000000000000000000000000000000000000000000000000000000000000000000000000000000000000000000000000000000000000000000000000000000000000000000000000000",
      "type": "0x0",
      "effectiveGasPrice": "0xb3aedf1"
    }
  ],
  "libraries": [],
  "pending": [],
  "returns": {},
  "timestamp": 1724535418,
  "chain": 534351,
  "commit": "252cc80"
}